:020000040801F1
:10000000BC77002075360108DD350108E1350108AF
:1000100000000000000000000000000000000000E0
:10002000000000000000000000000000EB350108A7
:100030000000000000000000EF350108C535010890
:10004000F335010800000000F7350108FB35010811
:10005000FF35010803360108073601080B36010891
:10006000000000000F36010813360108173601089A
:100070001B3601081F360108233601082736010800
:100080002B36010800000000000000003136010896
:10009000493601084D360108513601085536010828
:1000A000593601085D3601086136010865360108D8
:1000B000693601086D360108CD3501087136010831
:1000C00010B5002805D108210D4B0E4A0E4805F049
:1000D00007FC037E002B03D109210C4B094AF5E7ED
:1000E0000368002B03D10A21094B064AEEE71B687F
:1000F000002B03D10B21074B024AE7E710BDC04696
:100100002A780108806E0108BB760108DF760108B5
:10011000FB7601081777010810B50400FFF7D0FF40
:1001200022681379022B0CD008D8012B09D0074A7A
:100130002021074B07480F3205F0D2FB033B012B70
:10014000F5D813689847002110BDC046806E01089D
:1001500041770108BB76010870B504000D00002846
:1001600006D14821184A194B1F32194805F0B8FB2F
:10017000002904D1144A4921164B1F32F5E70B68B8
:10018000002B04D1104A4A21134B1F32EDE70B79A3
:10019000002B04D10C4A4B21104B1F32E5E7042BF6
:1001A00004D9094A4C210E4B1F32DEE71C220021E4
:1001B000043002F053FF0123256020002376FFF76F
:1001C000ABFFA060E16070BD806E01082A78010875
:1001D000BB760108077701082377010847770108F4
:1001E000707701087FB5060003930292FFF768FF5E
:1001F0003000FFF791FF009030000191FFF760FFA2
:1002000033681879013803282AD83469756901F0F0
:100210003BFF020B1F24FF2230697169002302F0AB
:10022000C9F802000B0005E0210C2B040B4322044B
:10023000121BAB4120002900029C039D001BA94119
:10024000009C019D001969418018594104B070BD9E
:10025000210A2B060B432206EAE701225242DBE782
:10026000034A3B21034B04482E3205F039FBC046BC
:10027000806E010841770108BB76010810B50400C3
:10028000FFF71EFFA268E3682000FFF7ABFF10BD79
:1002900070B5002806D1084A7021084B084844323E
:1002A00005F01EFB012204694569002312196B4108
:1002B0000261436170BDC046806E01082A78010862
:1002C000BB76010810B502490248FFF745FF10BD93
:1002D000100200202805002010B50248FFF7CEFFCD
:1002E00010BDC0462805002010B502000B000248D2
:1002F000FFF778FF10BDC0462805002010B5024862
:10030000FFF7C6FF10BDC0462805002070B50028C5
:1003100005D10D21194B1A4A1A4805F0E1FA436834
:10032000002B03D10E21184B154AF5E7DC68002C91
:1003300003D10F21154B124AEEE79D69002D03D121
:100340001021134B0E4AE7E75D69002D03D11121FF
:10035000104B0B4AE0E71B7C022B0DD97F23237047
:100360004368DB6859704368DB689A70436803220E
:100370009C69D9685869A04770BDC0462A780108B1
:10038000D26E010898770108FB760108B87701085A
:10039000DC7701080E78010870B5002806D12C2101
:1003A0000E4A0F4B0F320F4805F09AFA0024A24272
:1003B00009D10A4A2D210C4B0F32F4E7155D067A5C
:1003C0000134AE4207D065B2AB42F7DC7E22FFF7C4
:1003D0009DFF002000E0012070BDC046D26E0108E4
:1003E0002A780108987701084779010870B5041E3A
:1003F00006D1404A404B41492B32414805F070FA42
:100400004368002B04D13B4A3E4B3F492B32F4E773
:100410005A68002A05D1FD21364A3C4B2B3289000F
:10042000EBE71A00A0321268002A04D1314A384B97
:1004300038492B32E1E75B789B0703D41122362140
:10044000FFF764FFA57A1322023D06D46268130009
:100450009C331B88AB4205DA312236212000FFF79E
:1004600055FF70BD1300A4331978E37A994201D97E
:100470003322F2E71300AC331B78A8323621200078
:1004800012685BB2FFF788FF0028EAD063681A00A1
:1004900059689E321580063A106802312A0005F02C
:1004A00061FA636819005A68AD3152780A70A17B0D
:1004B000914201D07322D0E71A0020696169B032FD
:1004C000106051601800A0331B689830984763682B
:1004D0002000AD33197801F0E7FB206961692A003B
:1004E000A37B0133A373EB1712184B4122616361A5
:1004F000B7E7C046D26E01082A780108F20300006F
:1005000098770108FB760108F30300003D780108A5
:1005100061780108F5030000F8B5041E06D12F4AE2
:100520002F4B30493F32304805F0DAF94168002955
:1005300004D12A4A2D4B2E493F32F4E74A68002A5B
:1005400004D1264A2B4B2C493F32ECE70B785B0653
:1005500005D4112222212000FFF7D8FE36E0837A4D
:10056000022B01D81322F5E7507893781422002546
:1005700094461B0203435BBACF6D9BB2AF4201DCD2
:100580003122E7E766466E43886D8219805B9842A8
:100590001DD00135F2E710232221D3562000D26866
:1005A000FFF7FAFE002811D063689B6D9E19337A1D
:1005B000002B02D07368002B04D1084A0F4B10495E
:1005C0003F32B0E72900200001F096FAF8BD917A99
:1005D000E37A9942DFD93322BCE7C046D26E0108E4
:1005E0002A7801084D04000098770108FB7601087D
:1005F0004E0400003D7801084F04000041770108D7
:1006000093040000F8B5041E06D1204A204B21496E
:100610005532214805F064F94368002B04D11B4A88
:100620001E4B1F495532F4E75B68002B04D1174A73
:100630001C4B1D495532ECE7827A022A04D813225A
:100640001921FFF763FEF8BD00259E7801272B00D6
:1006500062681100C0310968A94207DC002BF2D1A1
:1006600031002000227E01F061FBECE7BC32116812
:100670000C226A438818895C0E4205D0431C227EF6
:10068000200001F053FB3B000135E1E7D26E010889
:100690002A7801089B04000098770108FB7601087E
:1006A0009C0400003D7801089D040000F8B5002876
:1006B00006D1214A214B22496F32224805F010F918
:1006C0004368002B04D11C4A1F4B20496F32F4E7CA
:1006D0005C68002C04D1184A1D4B1E496F32ECE7B0
:1006E000827A052A0AD91A00BC33C0321568002163
:1006F0001A000C268D4206DC312200E0132219215B
:10070000FFF704FEF8BD33004B431768FB185F7812
:10071000BC46A778BC4508D19F78BC46E778BC4565
:1007200003D1DF7823799F4201D00131E2E762797A
:1007300001F0A4FBE6E7C046D26E01082A78010862
:10074000CD04000098770108FB760108CE04000074
:100750003D780108CF04000010B5002806D1224AD8
:10076000224B23491732234805F0BAF84368002B7F
:1007700004D11D4A204B21491732F4E75A68002A58
:1007800004D1194A1E4B1F491732ECE75978490723
:1007900004D411221921FFF7B9FD20E01900C83156
:1007A0000968002904D1104A174B18491732DAE7B3
:1007B000C4331B68002B04D10B4A154B1549173263
:1007C000D1E7837A012B01D81322E3E75378022B78
:1007D00003D0042B04D01222DCE7FFF713FF10BD77
:1007E000FFF764FFFBE7C046526F01082A78010853
:1007F0000105000098770108FB760108020500005A
:100800003D780108030500009478010812050000F6
:10081000C778010813050000F7B5041E06D13B4A4E
:100820003B4B3C492B323C4805F05AF84368002BBF
:1008300004D1364A394B3A492B32F4E7596800293A
:1008400004D1324A374B38492B32ECE75A78120739
:1008500005D4112214212000FFF758FDF7BD1A001E
:10086000C8321268002A04D1284A304B30492B3252
:10087000D9E71A00C4321568002D04D1234A2D4B44
:100880002D492B32CFE7827A032A01D81322E1E7E0
:100890008E784A78CF78310011403940FF292FD027
:1008A00019000020C0310968BC33019101998842C8
:1008B000D4DA0C2141431C6861184C78944222D14F
:1008C0008C78B4421FD1CC78BC421CD100230122C9
:1008D0000B70A847C2E7320019006A43BC310968AF
:1008E000C4338918002228000A701B680132984717
:1008F000013563681A00C0321268AA42EBDCADE72A
:1009000000250C26F5E70130D0E7C046526F0108FC
:100910002A7801083105000098770108FB76010864
:10092000320500003D780108330500009478010885
:1009300045050000C778010846050000F0B5040031
:1009400087B0002807D1AF21A94AAA4B4132C9007C
:10095000A94804F0C5FF0378002B04D1A44AA74B93
:10096000A7494132F4E7002543684573AB4204D1FF
:100970009F4AA44BA4494F32EAE75A6D002A4BDD47
:100980001B6D002B48D19A4AA04BA1494F32DFE79B
:1009900030266E431B6D98199B5D032B1DD0836A17
:1009A0006773002B04D1924A9A4B9B494F32CFE791
:1009B000984761680B6DC86C9B191A6A5B6AFFF7F0
:1009C00011FC63681B6D9E19F3698B4203D304D13C
:1009D000B369834201D204233370013563685A6DD1
:1009E0009542D5DB0025032763685A6D954215DBD8
:1009F000627B002A00D0C4E0A27A002A00D1C0E0C5
:100A00005A6811783E2905D82D2923D8192948D8A4
:100A10000F2936D8112288E00127DFE730266E4300
:100A20001A6D9319925D022A0BD0042A07D1312145
:100A300020002232FFF76AFC63681B6D9F55013569
:100A4000D2E7597B5A880091200001219B6800F071
:100A5000BFFFF1E708002E381028DBD801F01EFB9D
:100A60007E02DAFFDAFFFE01DAFFDAFFE302DAFFE5
:100A7000A6037903DAFFDAFFDAFFDAFFDAFFDAFF3B
:100A80009300080010380928C4D801F007FB1900AA
:100A90008800C3FFC3FF9B03C3FFC3FFC3FFC3FFA4
:100AA0009703222900D185E32729B3D1DA6B002AE5
:100AB00000D0E6E0A421594A594B2032FF3147E7E4
:100AC000DA69002A04D14A4A7B21564B6A323FE751
:100AD0001B78DB0704D4112210212000FFF716FC3D
:100AE0006168002904D1424A464B7A3248312FE7E7
:100AF000CB69002B04D13E4A49214A4B7A3227E781
:100B00004D68002D04D13A4A4A21474B7A321FE7FB
:100B1000A27A012A07D91F264A1C96570022B24200
:100B200007DB122200E0132210212000FFF7EEFB6A
:100B30001EE018781F00844668780233604502D0B2
:100B4000013252B2EBE77A78E37A9A4201D9332242
:100B5000EAE7637A2072834203D04B6A002B00D00D
:100B6000984762682000538D217A128D00F0DBFDDA
:100B700000236268A37252681370237A6372E37A67
:100B8000237307B0F0BD1B789B0704D411223E21CC
:100B90002000FFF7BBFB200000F006FEE8E71A6B21
:100BA000002A04D11D4AB121204B1032D0E6DA6A66
:100BB000002A04D1194AB2211D4B1032C8E61B7815
:100BC0005B0704D4112220001100FFF79FFBA37ADA
:100BD000012B09D9342600220C276068865753B2AE
:100BE0009E4227DC122200E0132211219DE7C0461D
:100BF000526F01082A78010898770108DF7601080A
:100C000079050000FB7601089B020000417701088E
:100C1000A1020000FB780108AA020000D26F0108BF
:100C2000B87901082C7901083D7801085D7901083F
:100C3000887901083D005543036B013259195B5D0A
:100C40009C4643685B789C45C9D14A78E37A9A42CE
:100C500001D93322C9E708234A68CB562000112165
:100C6000FFF79AFB002800D182E7636820001B6B26
:100C7000595D00F0DBFD63681A6BDB6A505D9847D5
:100C800076E75A6C002A05D1D221BB4ABB4B2032F1
:100C900049005DE69A6C002A04D1B74AA621B84BF8
:100CA00020320BE71B781B0704D4112227212000D8
:100CB000FFF72CFB63682721DA6B14232000D3563F
:100CC0001269FFF769FB002800D151E7A07A0128DB
:100CD00002D81322272128E763685A685578022230
:100CE00029009143012904D0052D02D0EA1F3A2A98
:100CF00044D8DA6B002A04D19F4AFD21A14B363239
:100D000026E6996C002907D040201856002359B2D6
:100D1000884206DC1222DDE7974AFE21984B3632E4
:100D200016E6110018260F785E4318320133AF42E1
:100D3000EDD14B68002B01D12622CBE70C23CB56FB
:100D4000002BF9DD14230A69CB5620002721FFF779
:100D500023FB002800D10BE761682800CB6B8F6C68
:100D60009B191A7B5968B84763682900DA6B200021
:100D70009219137B526800F099FDF9E604222900CC
:100D80009143022905D0042D03D02A00083A3A2ABB
:100D9000C0D8DA6B002A04D1774A9E21794B5132B0
:100DA00076E7596C00294BD040269E570023511CF2
:100DB000B3424ADB01235B4218265E439219117B42
:100DC0000231C9B2884284D1002BA3DB9368002B87
:100DD000B2D00D23D356002BAEDD14232721D356DA
:100DE00020001269FFF7D8FA002800D1C0E6626837
:100DF000D36B99194F7B0B7B08780097576C8A68E7
:100E00004968B8476368DA6B586896190D22B1686B
:100E1000B256023004F098FD3522002800D059E780
:100E20002900200000F094FD6368E5729B6B002BA5
:100E300000D19DE6227BAA4200D199E628001EE758
:100E40004D4A3E214D4B513238E618310F00183FC4
:100E50003F78AF42B0D001335BB2A9E71B78DB0625
:100E600004D4112231212000FFF750FAA57A032D76
:100E700002D81322312158E663681F6D002F03D07A
:100E80005A6D0392002A01DC1122F3E75968CB78EE
:100E90008E781B0233435BBA9BB204930023302647
:100EA0005E43BA19508884460498844505D00133BE
:100EB000039A5BB29A42F2DCE6E70133E4D0907B1E
:100EC000E37A984201D93322D4E714234F78D356DA
:100ED000312120001269FFF75FFA002800D147E6B0
:100EE000012F03D0032F2BD01222C3E7043DADB254
:100EF000002D08D06268136D51689B192A0058684C
:100F0000043104F02FFD63681A6D9619327B954207
:100F1000AFD1002A07D07268002A04D1164A1A4BB2
:100F20001A496B3214E53278032A01D02122A1E755
:100F300000223270D86CFFF7A1F93062716217E6B7
:100F400063681A6D915D93190329EFD1587B5A8814
:100F500000909B68200000F03BFD09E61B789B0693
:100F600004D411222E212000FFF7D0F9A37A022BFE
:100F70000ED813222E21D8E5D26F0108E17901089D
:100F8000147A0108B8790108417701086902000064
:100F900062685368D76D9D7859782D020D431421EE
:100FA00000238C466DBAADB2BB4201DB3122E1E7D2
:100FB00066465E43906D8119805BA84200D105E1D1
:100FC0000133F1E71023CA68CB5620002E21FFF72A
:100FD000E3F9002800D1CBE56768BB6D9E19327A32
:100FE000002A07D07368002B04D17C4A7C4B7D49D2
:100FF0007E32ADE4A17A033908B20029B9DB904210
:10100000B7D1717A002902D126222E318DE5002A2E
:1010100004D079687068033104F0A4FC2900200032
:1010200000F028FDA4E51A6E002A04D16E4A6F4B29
:101030006F4915328CE41B787F2B04D811223421A0
:101040002000FFF763F9A07A022802D81322342186
:101050006BE50F25636859688A782A401D0078354A
:101060002A70897809095218033269709042EDD1CB
:101070001A007C321178E27A914200D923E71A1DD6
:1010800084331B7831212000D26F5BB2FFF784F9E3
:10109000002800D16CE50023002265680027AA66BD
:1010A000EB662B0078331B789E1C0393F6B2AB6E75
:1010B0000493EB6E0593022E1FD1002300222A67B2
:1010C0006B672B00002779331E78039B9B19023333
:1010D000DBB20393FBB29E421FD8049B059A1343D5
:1010E000B4D02B6F6A6F1343B0D028002B6E6030E2
:1010F0009847002822D12622A9E76B683A00985D1C
:10110000002101F04BF9049B013E1843059BA866A2
:101110001943E966F6B20837C9E7039A0021D31AE2
:101120006A68DBB2D05CFA0001F038F92B6F013746
:1011300018436B6F286719436967CBE76368200022
:101140009A6EDB6E226163610123A37300F01AFDC6
:101150000EE55B78DB0704D4112237212000FFF76E
:10116000D5F8626813008C331978E37A994202D972
:1011700033223721D9E4130094331B78903237217E
:10118000200012685BB2FFF707F9002800D1EFE4F6
:10119000636888331B6898470022002322616361DB
:1011A00000232000A37300F03DFDE1E42000FFF7E1
:1011B0001DF9DDE42000FFF7AFF9D9E42000FFF7C7
:1011C000CBFAD5E42000FFF727FBD1E48A7AE37A53
:1011D0009A4200D8F6E63322CCE6C046D26F010828
:1011E0004177010826030000527001084B7A01087C
:1011F0005503000010B50248FFF7A0FB10BDC04624
:101200006805002070B5051E06D1204A204B2149F3
:101210002832214804F064FB4368002B04D11B4AA8
:101220001E4B1F492832F4E71A00BC321268002A0C
:1012300004D1164A1B4B1C492832EAE71A00C8326F
:101240001268002A04D1114A184B19492832E0E7E4
:101250000024C4331B680C26A34210D10B4A154B43
:1012600015492832D5E7320019006243BC310968BC
:10127000C833200089181B680122984701346B6825
:101280001A00C0321268A242EDDC70BD5270010833
:101290002A780108C305000098770108FB76010849
:1012A000C4050000817A0108C50500009478010892
:1012B000C6050000C7780108C705000070B5040026
:1012C0000D00002806D11D4A1D4B1E4937321E480D
:1012D00004F006FB002904D1184A1C4B1C49373284
:1012E000F5E70B004160B9331B78037243720023AA
:1012F00083720B00B8331B78C37203730923037620
:101300004B785B0701D5FFF77DFF012323702B008E
:10131000CC331B78002B07D002216268538D128DCD
:10132000200000F000FA70BDCD352B78002BFAD0EC
:1013300062680321538D128DF2E7C0465270010896
:101340002A780108D405000098770108077701087A
:10135000D505000010B502490248FFF7AFFF10BDE8
:10136000B00200206805002010B5002806D1084A08
:10137000084B09494232094804F0B2FA4068002893
:1013800004D1034A064B07494232F4E710BDC04678
:10139000527001082A7801080306000098770108B6
:1013A000FB7601080406000000487047B0020020E8
:1013B00070B504001500002807D1C221134A144B50
:1013C0005432C900134804F08BFA0378002B04D17F
:1013D0000E4A114B11495432F4E7002904D10B4A4B
:1013E0000F4B10495432EDE7002A04D1074A0E4B47
:1013F0000E495432E6E743681A7AAA4204D32A0017
:10140000586804F0AFFAA57270BDC046527001086A
:101410002A78010898770108DF7601081106000094
:101420009873010812060000A97301081306000052
:1014300010B50A0001000248FFF7BAFF10BDC04610
:101440006805002010B5002806D1044A044B054960
:101450000548683204F044FA007A10BD5270010861
:101460002A7801082D06000098770108014B187AA8
:101470007047C0466805002010B5002806D1044A10
:10148000044B054905487C3204F02AFAC07A10BDA5
:10149000527001082A78010839060000987701087F
:1014A000014BD87A7047C04668050020F8B500287F
:1014B00006D1234A234B24491532244804F010FA5C
:1014C0004468002C04D11E4A214B22491532F4E70E
:1014D0002300BC331B68002B04D1194A1E4B1F4943
:1014E0001532EAE7002905DAC921154A1C4B1532E5
:1014F000C900E2E72200C0321068884204DC104ACA
:10150000184B19491532D8E70C2251435918994202
:1015100014D000221E890DE05D68002D09D0002E38
:1015200007D057007D5B14277D43A76D7D192D7A69
:10153000401901329642EFD80C33E8E7F8BDC046B7
:10154000D27001082A780108450600009877010842
:10155000FB76010846060000817A01084706000074
:10156000AA7A0108B77A010849060000F0B504001C
:101570000E00150087B0002806D1524A524B53493D
:101580003132534804F0ACF94368002B04D14D4A82
:10159000504B51493132F4E71A00BC32116800292E
:1015A00004D1484A4D4B4E493132EAE7002E05DA64
:1015B000CD21444A4B4B3132C900E2E71A00C03218
:1015C0001268B24204DC3F4A474B48493132D8E7FF
:1015D0001A00C8321268002A04D13A4A444B4549DD
:1015E0003132CEE7C4331B68002B04D1354A424B5D
:1015F00042493132C5E7002004AAD0710C2272435F
:1016000003928918854222D009220A7001223000F3
:1016100098476368039ABC331B689B185A68002A72
:1016200013D01B89002B10D031002000FFF73EFFA4
:10163000002306000193636803991A00BC32126804
:10164000019852181189814203D807B0F0BD0D707E
:10165000DCE70199526849008A5A142151439A6D76
:10166000029151180A7A002A07D04868002804D14C
:10167000144AD221224B31329EE7002D0ED0C433C2
:1016800030001B68496892B298476368029A9B6D64
:101690009B181B7AF618019B0133CBE72F0004AB94
:1016A000DD71636802999A6D5218127ABA42ECD9C8
:1016B000C43304A9F01901221B6807319847013788
:1016C000EFE7C046D27001082A78010865060000DD
:1016D00098770108FB76010866060000817A010808
:1016E00067060000AA7A0108B77A010869060000B7
:1016F000947801086A060000C77801086B060000AC
:101700004177010810B50A0001000248FFF72EFFDB
:1017100010BDC0466805002010B50A008369C16885
:101720004069984710BD70B5002805D11E21174BA0
:10173000174A184804F0D4F84568002D03D11F213A
:10174000154B134AF5E7EC68002C03D12021134B0D
:101750000F4AEEE7AE69002E03D12121104B0C4A4F
:10176000E7E72D7C062D03D822210E4B084AE0E73F
:1017700050256170E270110A1A0A2570A170227159
:10178000637106214068FFF7C7FF70BD2A78010822
:1017900014710108E27A0108FB760108B8770108A4
:1017A000DC770108067B010810B5002806D1362138
:1017B000174A184B1432184804F092F84368002B6B
:1017C00004D1134A3721154B1432F4E7DA68002AA2
:1017D00004D10F4A3821124B1432ECE799690029E1
:1017E00004D10B4A0F4B14323931E4E71B7C022B36
:1017F00004D8074A3A210C4B1432DCE77E231370DD
:101800000023537002214068FFF786FF10BDC046D9
:10181000147101082A780108E27A0108FB760108B0
:10182000B8770108DC770108067B010810B50028AD
:1018300006D14D21164A174B2D32174804F050F8A7
:101840004368002B04D1124A4E21144B2D32F4E789
:10185000DA68002A04D10E4A4F21114B2D32ECE7F1
:101860009C69002C04D10A4A50210E4B2D32E4E72A
:101870001B7C022B04D8064A51210B4B2D32DCE78E
:1018800051235170137002214068FFF745FF10BDCE
:10189000147101082A780108E27A0108FB76010830
:1018A000B8770108DC770108067B0108F8B59D1CB4
:1018B0000E0004001100EDB21A00002806D16721C5
:1018C0001B4A1C4B41321C4804F00AF8002904D181
:1018D000174A1A4B41326831F5E74368002B04D1AF
:1018E000134A6921164B4132EDE7D868002804D12C
:1018F0000F4A6A21134B4132E5E79F69002F04D15B
:101900000B4A6B21104B4132DDE71B7CAB4204D804
:10191000074A6C210D4B4132D5E7672303704670AF
:10192000023004F01FF829006068FFF7F5FEF8BDEB
:10193000147101082A780108E27A0108FC72010892
:10194000FB760108B8770108DC770108067B0108FF
:1019500010B5002806D18021164A174B5832174877
:1019600003F0BEFF4368002B04D1124A8121144BBF
:101970005832F4E7DA68002A04D10E4A8221114B6A
:101980005832ECE79C69002C04D10A4A83210E4BA3
:101990005832E4E71B7C022B04D8064A84210B4B07
:1019A0005832DCE767235170137002214068FFF75B
:1019B000B3FE10BD147101082A780108E27A01080B
:1019C000FB760108B8770108DC770108067B01087F
:1019D000F8B50F00190006AB050010001A78002DAD
:1019E00006D19B211C4A1D4B6E321D4803F078FF27
:1019F0006B68002B04D1184A9C211A4B6E32F4E715
:101A0000DC68002C04D1144A9D21174B6E32ECE7A0
:101A10009E69002E04D1104A9E21144B6E32E4E7D9
:101A2000161D1B7CF6B2B34204D80B4AA221104B00
:101A30006E32DAE771232370030A6770A370E070D7
:101A4000002A04D0002902D0201D03F08BFF3100B2
:101A50006868FFF761FEF8BD147101082A78010873
:101A6000E27A0108FB760108B8770108DC77010803
:101A7000067B010810B5002806D1BB21174A184B78
:101A80000532184803F02CFF4268002A04D1134A9B
:101A9000BC21154B0532F4E7D368002B04D10F4A63
:101AA000BD21124B0532ECE79469002C04D10B4A9E
:101AB000BE210F4B0532E4E7127C032A04D8074A03
:101AC000BF210C4B0532DCE76E221A700A0A9970AE
:101AD0005A7003214068FFF71FFE10BD9471010882
:101AE0002A780108E27A0108FB760108B877010834
:101AF000DC770108067B0108142270B55143436866
:101B000004009A6DD8685218157A0335EDB2002892
:101B100006D1D621164A174B2032174803F0E0FEB3
:101B20009A69002A04D1124AD721144B2032F4E7D3
:101B30001B7CAB4204D80E4AD821114B2032ECE773
:101B40006223037063689B6D5B5A1B0A4370636872
:101B50009B6D5B5A8370636803309B6D59180A7ADA
:101B6000496803F0FFFE29006068FFF7D5FD70BDEE
:101B700094710108B8770108E27A0108DC7701085E
:101B8000067B010810B5002806D1EA211E4A1F4B2A
:101B90003A321F4803F0A4FE4368002B04D11A4ACE
:101BA000EB211C4B3A32F4E7DA68002A04D1164ADA
:101BB000EC21194B3A32ECE79969002904D1124A19
:101BC000164B3A32ED31E4E71B7C042B04D80E4A65
:101BD000F621134B3A32DCE774231370202243685A
:101BE0000421DB685A704368DA687A331B88023351
:101BF0001B1293704368DA687A331B880233D37000
:101C00004068FFF789FD10BD947101082A7801082A
:101C1000E27A0108FB760108B8770108DC77010851
:101C2000067B010810B5002805D18321174A184BFF
:101C30005532490007E04368002B07D10821134AB9
:101C4000144B5532FF31144803F04AFEDA68002A7B
:101C500004D10E4A8421114B5532EAE799690029D3
:101C600004D10A4A0A210E4B5532EBE71B7C012BAB
:101C700004D8064A0C210B4B5532E3E77723137047
:101C800001214068FFF748FD10BDC046947101086E
:101C90002A780108FB760108E27A0108B877010882
:101CA000DC7701082E7B010810B5002805D18A21B8
:101CB000174A184B7132490007E04368002B07D1DF
:101CC0001621134A144B7132FF31144803F008FEF9
:101CD000DA68002A04D10E4A8B21114B7132EAE7EF
:101CE0009C69002C04D10A4A18210E4B7132EBE793
:101CF0001B7C022B04D8064A1E210B4B7132E3E7F2
:101D000076235170137002214068FFF705FD10BD66
:101D1000947101082A780108FB760108E27A01082B
:101D2000B8770108DC770108067B010870B50E0062
:101D3000002805D197211E4A1E4B0932490007E0B1
:101D40004568002D07D13021194A1B4B0932FF315C
:101D50001A4803F0C5FDEC68002C04D1144A982100
:101D6000174B0932EAE7A969002904D1104A322148
:101D7000144B0932EBE7297C032904D80C4A9C2137
:101D8000114B0932DAE75921217057396170A2707D
:101D90000131002B07D01A780431E2705A78227191
:101DA0009B78A67163714068FFF7B6FC70BDC046B2
:101DB000147201082A780108FB760108E27A01080A
:101DC000B8770108DC770108067B0108F8B5002820
:101DD00005D14E21224A234B2432FF3107E04468CB
:101DE000002C07D1A7211E4A1F4B243249001F484F
:101DF00003F076FD2300BC331B68002B04D1184A86
:101E000050211B4B2432E8E7002904DA144AA821A8
:101E1000184B2432EAE72200C0321068884204DC02
:101E20000F4A5221144B2432D7E70C225143591840
:101E3000994214D000221E890DE05D68002D09D062
:101E4000002E07D057007D5B14277D43A76D7D19B9
:101E50002D7A401901329642EFD80C33E8E7F8BDED
:101E6000147201082A780108FB760108E27A010859
:101E7000817A0108AA7A0108B77A0108F0B504004E
:101E80000E00170087B0002805D16E21504A514B33
:101E90004432FF3107E04368002B07D1B7214C4A99
:101EA0004D4B443249004D4803F01AFDDD68002DCA
:101EB00004D1474A70214A4B4432EAE79A69002A22
:101EC00004D1434AB821474B4432EBE71B7C082B33
:101ED00004D83F4A7A21444B4432DAE7FFF776FFD1
:101EE00059232B70553B6B70083373430193636820
:101EF000019ABC331B6805909B185B783000AB706F
:101F00006368691DBC331B689B189B78EB70636822
:101F1000BC331B689B18DB7801222B716368C833C4
:101F20001B689847AF716368019ABC331B689B18A4
:101F30001B89EB7100231E00029304930833039363
:101F40006068019A0300BC331B6802999B181A89C8
:101F50008A4204D80399FFF7DFFB07B0F0BD029A6D
:101F60005B685200D75AC36D9F4204DB184ACF21E9
:101F70001E4B443296E714235F43836D0498DA5B6B
:101F8000AB19110A19725A72636802369C469A6D2F
:101F9000059BB6B23100C0186346D2190831C83368
:101FA000127A1B6869189847636803999B6DDF195B
:101FB0003B7A9A1C8A18D2B20392049A9E199B18F3
:101FC0009BB20493029BB6B201339BB20293B7E774
:101FD000147201082A780108FB760108E27A0108E8
:101FE000B8770108DC770108067B01084177010812
:101FF00010B5002805D1DC21174A184B743249006E
:1020000007E04368002B07D1BA21134A144B7432FE
:10201000FF31144803F064FCDA68002A04D10E4A48
:10202000DD21114B7432EAE79969002904D10A4A8B
:10203000BC210E4B7432EBE71B7C012B04D8064A03
:10204000DF210B4B7432DAE754231370012140680F
:10205000FFF762FB10BDC046147201082A78010820
:10206000FB760108E27A0108B8770108DC770108FD
:10207000067B010802B47146490849000956490027
:102080008E4402BC7047C04602B4714649084900FC
:10209000095C49008E4402BC7047C04603B47146D7
:1020A000490840004900095E49008E4403BC70475E
:1020B000002243088B4274D303098B425FD3030A87
:1020C0008B4244D3030B8B4228D3030C8B420DD39A
:1020D000FF22090212BA030C8B4202D31212090228
:1020E00065D0030B8B4219D300E0090AC30B8B4266
:1020F00001D3CB03C01A5241830B8B4201D38B0314
:10210000C01A5241430B8B4201D34B03C01A5241B8
:10211000030B8B4201D30B03C01A5241C30A8B42FB
:1021200001D3CB02C01A5241830A8B4201D38B02E6
:10213000C01A5241430A8B4201D34B02C01A52418A
:10214000030A8B4201D30B02C01A5241CDD2C309FC
:102150008B4201D3CB01C01A524183098B4201D378
:102160008B01C01A524143098B4201D34B01C01A63
:10217000524103098B4201D30B01C01A5241C308DB
:102180008B4201D3CB00C01A524183088B4201D34A
:102190008B00C01A524143088B4201D34B00C01A36
:1021A0005241411A00D20146524110467047FFE7A2
:1021B00001B5002000F0F0F802BDC0460029F7D0BC
:1021C00076E7704703460B437FD4002243088B42D7
:1021D00074D303098B425FD3030A8B4244D3030BAE
:1021E0008B4228D3030C8B420DD3FF22090212BA73
:1021F000030C8B4202D31212090265D0030B8B42EF
:1022000019D300E0090AC30B8B4201D3CB03C01AD8
:102210005241830B8B4201D38B03C01A5241430BB3
:102220008B4201D34B03C01A5241030B8B4201D3A3
:102230000B03C01A5241C30A8B4201D3CB02C01A0E
:102240005241830A8B4201D38B02C01A5241430A86
:102250008B4201D34B02C01A5241030A8B4201D375
:102260000B02C01A5241CDD2C3098B4201D3CB011C
:10227000C01A524183098B4201D38B01C01A5241CB
:1022800043098B4201D34B01C01A524103098B42CF
:1022900001D30B01C01A5241C3088B4201D3CB00BA
:1022A000C01A524183088B4201D38B00C01A52419D
:1022B00043088B4201D34B00C01A5241411A00D24D
:1022C00001465241104670475DE0CA0F00D04942B6
:1022D000031000D34042534000229C4603098B4226
:1022E0002DD3030A8B4212D3FC22890112BA030AAE
:1022F0008B420CD3890192118B4208D38901921130
:102300008B4204D389013AD0921100E08909C309B4
:102310008B4201D3CB01C01A524183098B4201D3B6
:102320008B01C01A524143098B4201D34B01C01AA1
:10233000524103098B4201D30B01C01A5241C30819
:102340008B4201D3CB00C01A524183088B4201D388
:102350008B00C01A5241D9D243088B4201D34B00A3
:10236000C01A5241411A00D20146634652415B10E5
:10237000104601D34042002B00D5494270476346C6
:102380005B1000D3404201B5002000F005F802BD0B
:102390000029F8D016E770477047C0469140030007
:1023A00090409C46203A9340194352426346D340A2
:1023B00019437047F0B5CE46474680B507009946A9
:1023C0003B0C9C4613041B0C1D000E0061460004D0
:1023D000140C000C45434B4360436143C0182C0C64
:1023E00020188C46834203D980235B029846C4445C
:1023F000494679437243030C63442D042D0CC918DC
:10240000000440198918C0BCB946B046F0BDC046AA
:1024100070B50600080000F0B9FD0022064B00F080
:1024200049FB0D000400300000F0B0FD2B0022003D
:1024300000F004F870BDC0460000F041F0B54F4612
:102440004646D6460D000400C0B51F001100280303
:10245000620F400A10437A00520DE3003C0391469C
:10246000640AFA0F4F0F6E0027439246B846760D66
:10247000ED0FC900954200D199E04C46341BA446AB
:10248000002C00DC7CE04A46002A00D1B8E0C54AB6
:10249000964200D11CE180223C0012041443A04665
:1024A0006246382A00DD61E11F2A00DDCCE1644686
:1024B0002022121B444694400F00A14664469140DE
:1024C000E7404C464A1E91413C4342462143644604
:1024D000E240801A5C1AA3429B415F42C71B3B0249
:1024E00000D4D0E07F027F0A002F00D1FFE0380047
:1024F00000F072FD01000839202322005B1A8F4092
:10250000DA408C401743B14200DAFFE0891B4B1CD4
:102510001F2B00DDA8E020223900D21A20009440B1
:102520009140D840621E9441DF40002601430C4395
:10253000630709D00F232340042B05D0231DA3429A
:10254000A44164423F191C003B0200D49EE0954B1D
:1025500001369E4200D1B7E0934AE40817407B075A
:1025600071057F0223433F0B4A0D12053A43ED07E5
:102570002A4318001100E0BCBA46B146A846F0BD97
:10258000002C4BD04C46A41BA446002E00D023E1C7
:1025900004001C4300D1AFE16246541E012A00D161
:1025A00015E2804DAC4500D1C8E1A4461BE14A4686
:1025B000B21A9446002A00DCACE04A46002A43D016
:1025C000784A964200D1AFE180223C0012041443C5
:1025D000A0466246382A67DC1F2A00DC5FE14746D6
:1025E000203AD7406246202A05D064464022121B7A
:1025F0004446944021434A1E91410C003C4357E01D
:102600003A000A4300D105E12200013A012C00D131
:1026100082E1644CA4455BD0944641E7634C771C4F
:10262000274200D0C4E004001C43002E00D069E122
:10263000002C00D1BFE144460C4300D0D0E142075A
:10264000DB081343C00829E03A000A4300D170E1D7
:1026500062466446013A012C00D1E0E0514CA445A9
:1026600000D161E19446B4E73A001F39CA40110035
:10267000202B03D04022D31A9F403C43631E9C4131
:10268000002700260C43630700D053E7B446E40854
:102690007B072343F808434A94451DD0624607034D
:1026A00052053F0B520D60E744460C43621E9441B5
:1026B000E4189C429B415F423F183B02E3D5394BF3
:1026C00001369E4200D0B5E03200002700234CE7DF
:1026D0004207DB081343C0081A00024300D1E1E1BE
:1026E00080273F0307433F032E4A3F0B3DE720006F
:1026F00000F072FC010018311F2900DCFCE60838EC
:10270000844027000024B14200DBFFE6264A761A07
:1027100017400DE7002A2FD04A46921B9446002E00
:1027200000D1ADE01F4A914500D10FE18022120493
:1027300010436246382A00DD0FE11F2A00DD80E1E8
:10274000644620221E00121B6746040093409440FA
:10275000FE405A1E9341F84034431C4380446418A1
:102760008C42BF417F424E464744A6E742460A4359
:1027700011004A1E9141ADE60C4C721C224200D061
:10278000A1E002001A43002E00D0FAE0002A00D196
:1027900045E13A000A4300D046E14207DB08134313
:1027A000C0087BE7FF070000FFFF7FFFFE07000078
:1027B00047465C1AC21BA342BF417F42B94617007D
:1027C0004A46BF1A3A0200D58DE023003B4300D0B1
:1027D0008AE60020002561E7B44CA14500D1ADE0B8
:1027E0008024240420436446382C3DDC62461F2CA0
:1027F00000DDB7E020251E002D1B0400AB40AC40DF
:10280000D640D04042465D1EAB413443121A90463A
:1028100023432CE04207DB081343C0083BE75C1866
:102820009C429B4140445B42C71801263B0200D4B6
:1028300029E702269E4A63081740012214401C43E0
:10284000FB071C437F0873E64446203AD4406246A7
:10285000202A05D067464022D21B4746974039437D
:102860004A1E9141214335E60343581E8341CC1A49
:10287000A142BF4143467F4255464E46DF1B2EE6EE
:1028800002001A4300D1BDE062466446013A012CC1
:1028900000D1E5E0854CA44558D0944649E764460C
:1028A0002022121B444694400F00A14664469140EA
:1028B000E7404C464A1E91413C4342460C43614628
:1028C000CA408018F4E6794CA24200D1FDE65918BE
:1028D00099429B4140445F42C719FC0749081600D2
:1028E0000C437F08CFE6CC1AA142BF4143467F424A
:1028F000181A5546C71BF7E5C9087B0755460B4311
:10290000F808C8E6002C00D081E043460B4315D1FF
:10291000802000250003E3E65C1AA3429B41C71B0D
:102920005B420126FF1ADAE54207DB081343C008C1
:10293000D2E64207DB081343C008ACE643464246F2
:10294000C9085B0755460B43D008C5E643464246D7
:102950005B07C9080B43D008BEE603431C00631E97
:102960009C41FCE60200203CE24014006246202A22
:1029700003D04025AD1AA8400343581E834123438A
:1029800075E7002AE2D03A000A43CDD04207DB08BF
:1029900013438022C0081203104206D0FC081442E0
:1029A00003D12000CB087A0713435A0FDB005207EC
:1029B000DB08134390E643460B4300D109E7434647
:1029C0004246C9085B0755460B43D00866E6CC1A59
:1029D000A14289413F1A4942554601267F1A7EE5A8
:1029E00042465C1A871AA34292415242BF1A3A02E7
:1029F0003DD5CC1AA1428941434649421F1A55464A
:102A00007F1A95E57B07C9080B43F80843E644465F
:102A1000DB080C4330D142071343C0085CE67B0758
:102A2000C9080B43F80839E65C189C429B414044B6
:102A30005B42C7183B0200D425E61D4B01261F4010
:102A400021E60400203AD4406246202A04D04022E5
:102A50006646921B904003435A1E93411C437EE6F8
:102A60005C188C428941404449424718DDE6230006
:102A70003B4300D1ADE606E6440723438024C0086B
:102A80002403204208D04246D608264204D15546A7
:102A90003000CB0851070B435A0FDB00DB0852070D
:102AA000134319E60023014A1F005EE5FF070000FB
:102AB000FFFF7FFFF0B557464E464546DE46E0B580
:102AC00098460C034B000600924687B0240B5B0D22
:102AD000CF0F002B00D15CE1D94A934200D175E1C0
:102AE000420FE4001443802212041443D54AC50067
:102AF000944663440093002399469B4643464246CE
:102B00001E03D20F5B0050469046360B5B0D00D182
:102B100020E1CB4A934200D162E1CA49420F8C4680
:102B200000996344F6008C46164380229C441204AC
:102B300063461643C20000200093009943460131CA
:102B40008C4649467B4001930F2926D8BE4B89000D
:102B500059588F46434601933400150083465B461F
:102B6000022B16D0032B00D103E2012B00D0CDE0C5
:102B7000002200240025019B12052243DB071A4393
:102B80002800110007B0F0BCBB46B246A946A046DB
:102B9000F0BD00240025AA4AEDE7280C2D042D0CD9
:102BA0002B00110C1204120C5343984613002F00F3
:102BB000434399464F434F44BB4647460B003F0CA7
:102BC000BA464343DA440293D14504D980277F02B1
:102BD000B9464B44029353461B0C9B4653461F0475
:102BE00043461B041B0C98463B0043440493330CA0
:102BF0003604360C984633004343994643464343D4
:102C00002F009A46434677435D43380C4D4445199F
:102C1000A94503D980235B029946CA443F04280C86
:102C20003F0C2D04ED19270C2404240C0300200074
:102C300050437A4391463A0053440593030C9A4615
:102C40004A43614349445144AB44894503D98023F5
:102C50005B0299464A4400040B0C000C0904091855
:102C600020009946434670435C437E435F43030C18
:102C70009846A41944444A440397A64204D98023A1
:102C80005B029846474403972304029E9A46059B9D
:102C90005E449846AE42AD4176188E4289410004AA
:102CA000000C504440446D424719B846934649428F
:102CB0008946C344D94498428041A845AD419345D3
:102CC0009241894589416D4240422843240C524239
:102CD00049420A43039B00198018C7184B46DC0D74
:102CE000049B75021D436A1E95414B46F60D7F02FB
:102CF00035435A023C431543FB0100D41CE101213A
:102D00006A080D401543E207154364084F496144C2
:102D1000002900DCB0E06B0709D00F222A40042A0A
:102D200005D02A1DAA42AD416D4264191500E30188
:102D300004D58021464AC90014406144454A914265
:102D400000DD26E76207ED08640249051543240B00
:102D50004A0D10E75246324300D17FE0002E00D1E9
:102D6000DCE0300000F038F902000B3A1D230100CE
:102D70009B1A52460839DA408E40164352468A4022
:102D8000009B3549181A03008C46634400200093C9
:102D9000D3E6250005434AD0002C00D1B0E0200046
:102DA00000F01AF9010002000B391D2310005B1A14
:102DB0003100350008388440D94085400C4326480E
:102DC000831A0093002399469B4697E60500254306
:102DD00026D1082200930223002491469B468DE6CB
:102DE0005246009B324310D1154900268C4663445D
:102DF0004946009302231943894602209DE65B461B
:102E00000197022B00D0ADE6C3E60D4A032094469D
:102E100063444A46009303231A43914652468CE684
:102E20000C2200930323050091469B4666E604238B
:102E3000994600230093013300249B465EE6C0467A
:102E4000FF07000001FCFFFFA4720108FF03000060
:102E5000FFFFFFFEFE0700000DFCFFFF49460123B8
:102E6000194389460026012067E6002380240025B7
:102E7000434A019324037EE60120401A382800DDEE
:102E800076E61F285BDD1F2223005242511ACB40F9
:102E90001900202803D03B4A6244944025436A1E0F
:102EA00095412A000A4307210D00002415401142D4
:102EB0005BD00F2100241140042953D0111D9142F1
:102EC00092415242A4180A0023024BD50122002449
:102ED000002550E680231B031C4209D01E4207D167
:102EE00033431C0343461500240B254A019342E655
:102EF0008022120314432403214A240B01973AE64B
:102F000000F06AF801000200153120321C2900DCB3
:102F10004BE7340008380025844050E700F05CF8A7
:102F200003001A00153220301C2A00DC1EE756462A
:102F3000083B00229E4023E7009B9C46E6E61249A0
:102F4000220061442E008D408A40C640691E8D419A
:102F500032432A43C4405307B6D00F2111400429FD
:102F6000ACD1B1E765076402240BD20815430022F7
:102F700001E68022120314432403014A240BFAE5DC
:102F8000FF0700003E0400001E04000010B5041EF0
:102F900010D000F021F80F4B1B1A0A2811DC0B226D
:102FA0002100121AD14015300A035B058440120B30
:102FB0005B0D01E0002300221B05134320001900D4
:102FC00010BD22000B3882405B0512030024120B57
:102FD0005B0DF1E71E0400001C2101231B04984235
:102FE00001D3000C10391B0A984201D3000A08399A
:102FF0001B09984201D30009043902A2105C401851
:103000007047C046040302020101010100000000F4
:103010000000000070B500260C4D0D4C641BA41080
:10302000A64209D1002603F017FF0A4D0A4C641B83
:10303000A410A64205D170BDB300EB5898470136E5
:10304000EEE7B300EB5898470136F2E700000000C6
:1030500000000000000000000000000003008218D3
:10306000934200D1704719700133F9E70FB404B0EF
:103070007047000010B5074B074C5A6320000A0048
:10308000064900F089FE200000F078FF0028FAD001
:10309000002010BD64000020740400208C0000207B
:1030A00010B501F0CFFB10BDF0B50024CBB0FB2272
:1030B00021000BA80A94FFF7D1FF6B46784DDC8105
:1030C00001F0A8FB00F072F900F09CF900F0F4F9AF
:1030D00000F018FA00F05AFA724802F0F5F84022AF
:1030E0007149724802F03EFC714E2B68B34205D024
:1030F000402221006D48FFF7B1FF2E60EC23002431
:10310000022701256B4EDB0008936B4B04A93000AE
:103110000697099304940594079500F0E1FD2300B8
:103120003A0039003000009400F002FE220029002D
:10313000300000F029FF300000F017FE80235F4AC6
:103140005F4F60490193380000925F4A02F02DFB07
:10315000FDF7B8F8E4225D4B52001968914207D19F
:103160001C605B4B1A00CD3215700322B9331A7004
:10317000FEF7F0F8574802F06DFF62B601234022D7
:103180005B4249494948049302F0DEFB002816D00F
:1031900002F018F8504B514A51481A6104A901F045
:1031A000C9FF424C4F49226861186368012002F050
:1031B00057F8464B08349C42F4D102F015F8380019
:1031C00002F00AFB0E23FF2238006B440AA902F02A
:1031D000D3FA002804D16B460AA8997BFEF728F998
:1031E000FEF708F8404E30687168FDF77DF80D0075
:1031F000040000F03FFB002D01D1A0422CD8FDF7C8
:103200006BF80123394C3060716022785340237091
:1032100000F0C0F8051E0FD0354B364E1A78002A44
:1032200021D133780133DBB2022B1AD83370FDF78A
:1032300053F8314B186059602D4B1D702D4B1D7884
:10324000012D21D0022D24D0002D24D1207800F092
:1032500093F8280000F084F8FDF73EF800F010FB2A
:103260008CE73270E3E7244B18685968FDF73CF8A7
:10327000002902D1214B9842DED9032301210020ED
:103280003370FEF73FFAD7E7002000F075F820789A
:10329000E0E72078F9E7012023785840F5E7C046B9
:1032A000F8770020D804002000F80308BC7700203D
:1032B0007856341274040020FF070000F00000204C
:1032C000B00000206107000070010020FC770020A2
:1032D000B0020020E87201080020024031800000A6
:1032E00000020020448003E8D80300200D020020E3
:1032F000C80300200C020020D00300208813000027
:1033000070B5CB0716D50C4D0C4C2B00220040217C
:1033100000F0A6FD00280DD1EC232268DB009A42C4
:1033200008D16368002B05D1E26829000448D2B2B5
:1033300002F00CF970BDC046F001002064000020CE
:10334000B0000020012307B55B4201900122034831
:1033500001A901F019FD01980EBDC046E00300204F
:10336000020010B5002800D00122A0202021C005B5
:1033700001F0CAFE10BD0000002210B5002800D1E7
:10338000012280210248890001F0BEFE10BDC04626
:1033900000080050802110B50348890101F0AEFEFD
:1033A00043425841C0B210BD0008005070B5072616
:1033B00001258CB01822002106A8FFF74FFE00213E
:1033C00014226846FFF74AFE0D4A0024136805A838
:1033D000B3432B43136002230593FE330893C03B92
:1033E0000A93099400F01AFF290068460096019498
:1033F00002940394049401F077F80CB070BDC046B9
:1034000000200240F0B501258BB01422002105A850
:10341000FFF724FE0820264B80245A6BA0272A435E
:103420005A635A6B234E2A400192019A596BA400A9
:10343000014359635A6BFF0502400292029A596B8D
:1034400006380143596304215A6B02400392039AE0
:103450005A6B30000A435A635B6B00220B400493A3
:103460002100049B01F050FE00223800202101F0D1
:103470004BFE112305940024300005A90693079400
:10348000089401F087FD2023380005A905930695CF
:103490000794089401F07EFD802330009B0105A96C
:1034A00005930694079501F075FD0BB0F0BDC0467D
:1034B000001002400008005070B5104B104C002561
:1034C0002360E1235B0263600C2320006361A5603D
:1034D000E5602561A561E56125626562A56201F08F
:1034E00025FD2900200001F055FA2900200001F0F7
:1034F00075FA200001F030FA70BDC0460038014076
:10350000E00300201F4B204A18001900943070B5CA
:103510000260002298310A6019009C310A6019008B
:10352000A0310A6002241900FF34A4310C80190074
:103530001C00A6310A7001211D00A83421600C2452
:10354000AC352C601D002326B0352E601D00B4352F
:103550002C601C001D00B83421600624BC352C6092
:103560001D00123EC0352E601D00C4352C601C00AD
:10357000C83421601900D033CC310A601A6000F0E1
:10358000AFFA70BDE003002000640040094B0A4A16
:103590001800F83010B50260084AFC331A600022A7
:1035A00007495A60DA60803299605A6101F012FF6F
:1035B00010BDC046E0030020002000407FBB00009B
:1035C000FFFF000010B501F031F910BD10B5024841
:1035D00000F060FD10BDC04674040020C046FDE749
:1035E00010B501F06BF9C046FDE7C046FDE7C046E7
:1035F000FDE7C046FDE7C046FDE7C046FDE7C04623
:10360000FDE7C046FDE7C046FDE7C046FDE7C04612
:10361000FDE7C046FDE7C046FDE7C046FDE7C04602
:10362000FDE7C046FDE7C046FDE7C046FDE70000F8
:103630000222044B10B5F8331B6852421A61FCF7A2
:103640005DFE10BDE0030020C046FDE7C046FDE77B
:10365000C046FDE7C046FDE7C046FDE7C046FDE7C2
:10366000C046FDE7C046FDE7C046FDE7C046FDE7B2
:10367000C046FDE70D48854600F02AFA002103E028
:103680000B4B5B58435004310A480B4B42189A428B
:10369000F6D30A4A02E0002313600432084B9A4230
:1036A000F9D3FFF7B7FCFFF7FFFCFEE7BC7700207C
:1036B000247C010800000020C8030020C80300206B
:1036C000D8060020014B586A80B2704700200040A5
:1036D00070B504AC2578002905D1154B154A403149
:1036E000154802F0FDF8002A03D14121134B114A7D
:1036F000F6E7002B03D14221114B0E4AF0E7002DD3
:1037000003D143210F4B0B4AEAE70024AB4204D11B
:103710005D1E5219A34204DC70BD44210A4B054AC8
:10372000DEE70D5D6642451995550134F2E7C04666
:10373000FC720108037401080D730108437301084A
:1037400053730108617301086E73010810B501001D
:10375000014802F0F3FB10BD84730108010010B5AD
:10376000034802F0EBFB01F0A9F8C046FDE7C046B4
:103770008E73010810B5002905D1094B094A523151
:10378000094802F0ADF800239A4203D15321074BB8
:10379000044AF5E7C418CC5401339A42FADC10BD50
:1037A000FC720108EE7301080D73010853730108E0
:1037B000030010B5081E05D1F6210B4B0B4A0C482F
:1037C00002F08EF8002A03D1F7210A4B074AF6E7E8
:1037D0003F2B03D9F821084B044AF0E70749591851
:1037E00002F0C0F810BDC04698730108E5730108E7
:1037F0000D730108A9730108B7730108BC77002095
:1038000010B5002905D10B4B0B4AEC310B4802F0E7
:1038100067F8002A03D1ED21094B074AF6E73F2854
:1038200003D9EE21074B044AF0E7074BC01802F01A
:1038300099F810BD98730108DB7301080D73010836
:10384000A9730108B7730108BC77002010B5010007
:103850000400064802F072FB022C06D17B22044BC6
:103860001A6001F02BF8C046FDE710BDD2730108C5
:10387000FC770020014B18887047C04630020020BA
:1038800010B5FEF7C5FD024B1860596010BDC0466B
:103890004805002001200A4B82B0196C01431964CD
:1038A00080211A6C490502400092009ADA6B0A43A3
:1038B000DA63DB6B0B400193019B02B07047C0469B
:1038C0000010024010B5040090B01422002103A89B
:1038D000FFF7C4FB2022002108A8FFF7BFFB194B0C
:1038E00022689A422BD1102308A8089300F0D6FE34
:1038F0008020154B4001D96B00240143D963082176
:10390000DA6B02400192019A5A6B10480A435A63DB
:103910005B6B05940B400293029B03230393013BD3
:10392000049303A902330793069401F033FB1E208E
:103930002200210000F08CFF1E2000F0B3FF10B029
:1039400010BDC0460064004000100240000C005052
:1039500030B5040091B01422002103A8FFF77EFBCC
:103960002022002108A8FFF779FB1D4B22689A420C
:1039700033D1012408A8089400F090FE802002258D
:10398000184BC001196C014319641A6C03A9024059
:103990000092009A5A6BA02022435A635A6BC005CA
:1039A00022400192019A5A6B00242A435A635B6BAE
:1039B00003952B400293029B0423049507930594DF
:1039C000069401F0E7FA4023074803A903930495FE
:1039D00005940694079401F0DDFA11B030BDC0469D
:1039E00000380140001002400004005007B50B4BA6
:1039F00002689A4211D18020094A0002116C0143E9
:103A00001164136C00220340019313201100019BE9
:103A100000F01EFF132000F045FF07BD002000400E
:103A2000001002400120704710B501F077FF162307
:103A300003600120404210BD10B501F06FFF162356
:103A40000360FEE770B50E0014000025A54201DBFF
:103A5000200070BD00E000BF70550135F6E770B57D
:103A60000E0014000025A54201DB200070BD705D32
:103A7000FFF768FC0135F6E70120404270478023DC
:103A80009B0100204B607047012070470020704769
:103A90000B4A0C490300891A0B4A10B5106800281C
:103AA00001D10A4810601068C3188B4206D901F092
:103AB00035FF0C2303600120404210BD1360FCE77A
:103AC00000040000BC770020A8060020D8060020D3
:103AD000014B024A9A60704700ED00E000000108C7
:103AE000F8B504000120002C00D1C1E025005C35B0
:103AF0002B78DAB2002B05D123005D3320001A7039
:103B0000FFF7E0FE10212268082793698B43936139
:103B100000F098FE060023689A693A4200D08EE0D1
:103B200001269A6932439A6100F08CFE07002368EF
:103B30009A69324200D18FE0022299690A439A6160
:103B400061685B4A1160217C4022012900D090E02D
:103B5000996991439961627C012A00D08DE08022AD
:103B60009969D2010A439A61A27C012A00D088E0B7
:103B70009A6950490A409A619A694F48A16802407F
:103B8000A4200A439A619A6982439A611A69943817
:103B900082431A61E268012A00D077E09869033213
:103BA00002439A61A269E069013A013800025206B3
:103BB0000243206A0138024360690138000402436D
:103BC000DA61C022920091420ED1E26A216B013A81
:103BD0000139090112020A43A16A01390A43616AE3
:103BE000013909040A43DA601900C0310A68E06B40
:103BF000043302430A60D96F626B304E3048314063
:103C000012040A432064DA672E4AD96F62642E4E8A
:103C1000A26B314012060A43DA67D4222B4B0021F3
:103C2000A3642B4B9200E3642A4B23652A4B636504
:103C3000FFF714FA00200123A06520660AE000F0D7
:103C400001FE801B0A2800D865E70120236E03438C
:103C5000236603232B700BE000F0F4FDC01B0A2841
:103C600000D864E7236E01201E43032326662B70D1
:103C7000F8BD99690A439A616DE79A6917490A4044
:103C800071E78022996952010A4374E7002A00D142
:103C900088E7022A09D080269F693E439E611E69FB
:103CA00030431861032A00D07CE72022986977E727
:103CB00000650040FFEFFFFFFFFCFFFFFFFFE0FF9D
:103CC00000B4004070B40040FFFFFFF0B0B400400B
:103CD00088B5004060B6004078B60040FFBFFFFFE7
:103CE000030070B55C331B78013B012B1AD88A683E
:103CF000CB680D694E69940706C9002909D1DB0616
:103D00001C43006C26432D0492002E4316500020C5
:103D100070BD416CD2005B0752181D4334431560DF
:103D20005460F4E70223026E134303660120EFE7B9
:103D300030B50C0001005C31097801290FD1590020
:103D4000039B006819433F230430C56F9200114361
:103D5000240121439D432943C167002030BD042332
:103D6000026E134303660120F8E703005C331A7800
:103D7000D1B2012A09D101321A70026893698B43CA
:103D8000936100230366180070470423026E1343F7
:103D900003660120F8E700000300F7B55C331B78E9
:103DA000022B57D105682B00C4331C68A40206D52A
:103DB0008023026E9B0013430366012033E01C68DE
:103DC0000F69A403A30F4C6801938E680B68002C45
:103DD0002AD137439B041F43BC4648268C69CB69D4
:103DE00023434C6923430C6A2706019C1F43664307
:103DF000CB68446D1B0436193B43736008233700BE
:103E000064465B42346008379E1B144CCB68E35C0D
:103E10009C46BB1963450ED30123019ACC359340D0
:103E20002B6083650020FEBD3B4333438026F605AF
:103E30001E43B446D1E7D3781B069C46644693786C
:103E40001B0423431478234354780432240223436D
:103E500008C7DAE70823026EADE7C04674740108AC
:103E6000F7B5040001935C342478022C00D07FE085
:103E700004680F25270040295AD190373E682E420A
:103E800006D18023026E5B001343036601204EE0DF
:103E90000126B44663463D682D0E2E401D4203D0D8
:103EA0000434E66F760A1E4048243D68836CAD05F5
:103EB000AD0FAD196C438027E4182368FF051F4040
:103EC00057602668F600002F49D1760D16608026CF
:103ED0002368B6051E4096602368DE0FF60716615C
:103EE00063689EB2D66163681E03360FD660802673
:103EF000636876031E40566180266368B6031E40E1
:103F0000966163685E00760E166263680834DE0FA1
:103F1000194B56629C4600266346D768DF5DB74260
:103F20001FD80368402921D1943300201D60FEBDB5
:103F300098373E682E42A4D03D682B0E1E00012506
:103F40002E402B4203D00434E66F360A2E4048241C
:103F50003D68C36CAD05AD0FAD196C43ABE7F6081A
:103F6000B4E7A75D019B9F550136D5E79C33DCE79D
:103F70000823026E88E7C046747401080368C433DE
:103F80001868072318407047030070B55C331B782E
:103F9000013B012B00D96DE007240D00006825408E
:103FA000836D214201D0DC0722D53824214201D083
:103FB0009C071DD5E0246400214201D05C0717D581
:103FC000F0246401214201D01C0711D5E024240211
:103FD000214201D0DC060BD5C024A402214201D02D
:103FE0009C0605D5FC242404214205D05C0603D49C
:103FF0000124C66D3443C465002D01D0DC0722D4F2
:104000003824214201D09C071DD4E02464002142C1
:1040100001D05C0717D4F0246401214201D01C07B1
:1040200011D4E0242402214201D0DC060BD4C024A8
:10403000A402214201D09C0605D4FC242404214280
:1040400005D05B0603D50223C46D2343C3650B066D
:1040500004D50400DC34236813432360CB0504D566
:104060000400E03423681A432260436D194341651C
:10407000002070BD0223026E134303660120F8E79F
:104080007047704770477047704770477047704778
:10409000704770470368F0B51A6D5F6D196D174072
:1040A000E022520117405A6D85B00A4007210A40AC
:1040B0000092196D5A6D04000A4038210A4001929D
:1040C000196D5A6D0A40F12109040A400292196DD6
:1040D0005A6D5D6D0A40E0211E6D09030A4003928E
:1040E0000122710606D5A909114203D03F321A6593
:1040F000FFF7CDFF0123F20510D52A0A1A420DD091
:10410000236880201A001900D832E031126809684B
:104110004000186511402000FFF7B6FF002F05D0C2
:104120002368390020001F65FFF7AAFF009B002BC2
:1041300006D0009A2368110020001A65FFF7E0F806
:10414000019B002B06D0019A2368110020001A65FC
:10415000FFF797FF0123B20509D56A0A1A4206D074
:1041600080222368920020001A65FFF78BFF01234D
:1041700032060FD5EA091A420CD0236880201A00B3
:104180001900D432DC31126809681865114020002A
:10419000FFF779FF0123B20409D56A0B1A4206D052
:1041A00080222368920120001A65FFF76EFF012329
:1041B000320409D5EA0B1A4206D080222368120283
:1041C00020001A65FFF762FF012372040AD5AD0BC8
:1041D0001D4207D080222368D2011A658023226EF7
:1041E00013432366039B002B06D0039A2368110018
:1041F00020001A65FFF74DFF029B002B05D02368B6
:10420000029A1A65236E13432366236E002B02D095
:104210002000FFF73DFF05B0F0BD0000F8B5051E1A
:1042200001D10120F8BD0368DB070DD42B689B0783
:104230004FD42B681B0700D5A5E004222B6813423E
:1042400000D0D0E00020EDE73821864C4368A2681A
:104250000A40082A02D1002BE8D1E2E7802252026C
:10426000934211D122681343236000F0EBFA8027B8
:104270000600BF0223683B42D8D100F0E3FA801B5E
:104280006428F7D90320CDE7A021C9028B4208D1C9
:1042900080232168DB020B43236023681A432260DA
:1042A000E3E7226870490A40226022686F490A40A9
:1042B0002260002BD9D100F0C5FA80270600BF028A
:1042C00023683B42B2D000F0BDFA801B6428F7D9C6
:1042D000D8E73822634CEB68A16811421DD1002B4E
:1042E0009FD062686B6962491B020A401343636096
:1042F0002368604A13402A691343236023685E4A97
:104300009B045B0FDA4013005C4A13605C4B186837
:1043100000F058FA00288CD083E7002B20D02368C7
:10432000544A802713402A69FF00134323608023E7
:1043300022685B001343236000F084FA06002368C0
:104340003B4207D062686B6949491B020A4013432C
:1043500063606EE700F076FA801B0228EFD991E7E0
:104360002368484A80271340236000F06BFA060058
:10437000FF0023683B4200D15BE700F063FA801B3B
:104380000228F6D97EE73821364CAA69A3680B408B
:10439000182B03D1002A00D04FE742E70123002A5F
:1043A00010D0226E02271343236600F04BFA06005A
:1043B000236E3B4200D040E700F044FA801B022805
:1043C000F6D95FE7226E02279A43226600F03AFA96
:1043D0000600236E3B4200D12FE700F033FA801B2A
:1043E0000228F6D94EE738211E4CA868A3680B4076
:1043F000202B03D143425841C0B213E7E36D01289B
:1044000010D11843E06500F01DFA02260500E36DA7
:10441000334200D016E700F015FA1B4B401B9842C0
:10442000F5D92FE7052806D11A430123E265E26D8D
:104430001343E365E7E701218B43E365E36D9343B2
:10444000E3650028DFD100F0FDF902260500E36DE9
:10445000334200D1F6E600F0F5F90B4B401B9842D1
:10446000F5D90FE700100240FFFFFEFFFFFFFBFF43
:10447000FF80FFFFFFC7FFFF006CDC02840300200A
:104480008C030020FFFEFFFF881300000720382266
:10449000124B10B519689C6889080140013114421B
:1044A00007D11B68DB0A03400D48D840FDF700FE2A
:1044B00010BD9868104008280BD09868104020283C
:1044C00009D09B6800201A40182AEFD1FA20C001B9
:1044D000ECE70448EAE780200002E7E7001002402A
:1044E000006CDC0200127A00F7B504000D00002811
:1044F00001D10120FEBD07274B4E33683B408B4264
:104500002AD321688B073BD4CB074AD407273368CB
:104510003B40AB420AD93368BB432B43336000F0C6
:1045200091F9019033683B40AB426DD123683F4D18
:104530005B0771D4FFF7AAFFAB683D4A1B051B0F51
:104540009B009B581F221340D8403A4B18603A4BAF
:10455000186800F037F9CDE73368BB430B4333608D
:1045600000F070F9019033683B40AB42C9D000F0D5
:1045700069F9019BC01A314B9842F4D90320B9E77D
:104580002A4A4B0706D593682D481840B0231B01D3
:104590000343936093682B480340E06803439360B0
:1045A000B2E71C22214F3B689343A26813433B6050
:1045B0006268012A19D13B689B039AD50721BB6821
:1045C0008B431343BB6000F03DF901903823BA6878
:1045D0001A406368DB009A4298D000F033F9019BDF
:1045E000C01A164B9842F1D9C8E7002A03D13B689C
:1045F0005B05E3D47DE70223032A03D1396E194218
:10460000DCD176E7F96DFAE700F01CF9019BC01ADE
:104610000A4B984286D9B1E7AB680B4A134022692E
:104620001343AB6086E7C046002002400010024002
:1046300014740108840300208C03002088130000F8
:10464000FF84FFFFFFF0FFFFFF8FFFFF10B5FFF7B5
:104650001DFF064B064A9B681B051B0F9B009B58C2
:104660001F221340D840034B186010BD00100240B9
:10467000147401088403002010B5FFF7E7FF054B11
:10468000054A9B685B045B0F9B009B581F221340ED
:10469000D84010BD0010024054740108F0B5050068
:1046A0002B68002085B05B0622D580223E4C520547
:1046B000E36B0600134207D1E36B01361343E36358
:1046C000E36B13400393039BE26DC02311009B0037
:1046D000364F19401A4244D10020E36D1F40EB6968
:1046E0001F43E765012E03D1E36B314A1340E363B7
:1046F0002A68D30706D503242B494B6DA343AC6826
:1047000023434B65930706D527492A4C4B6D23401D
:10471000EC6823434B65930606D52349AC694B6D82
:104720009B009B0823434B65D30606D51E491F4CAF
:104730004B6D23406C6923434B65530706D51A49DB
:104740001D4C4B6D23402C6923434B65130606D546
:10475000E021154A13688B4369680B43136005B069
:10476000F0BDEB699942B7D08023E26DE06D110096
:104770005B020343E365E36D104839400340E365A2
:10478000E165D307A8D500F05DF801900222E36D42
:104790001342A1D100F056F8019BC01A084B984271
:1047A000F4D903209EE7C04600100240FFFCFFFF43
:1047B000FFFFFFEFFFCFFFFFFF3FFFFFFFFFFEFF0A
:1047C0008813000070B5104B05001978002901D13D
:1047D000012070BDFA208000FDF76AFC0B4B010040
:1047E0001868FDF765FC00F077F8041EF0D1032D82
:1047F000EED8020001202900404200F029F8044BC5
:1048000020001D60E5E7C0468803002084030020E7
:104810008C03002010B50020FFF7D4FF041E03D145
:10482000FFF738F8200010BD0124FBE7034A044BD2
:1048300011681B785B1813607047C046AC060020F7
:1048400088030020014B18687047C046AC06002062
:1048500030B5FF2503242A000440E400A24089016A
:104860002940D243A140C3B200280ADBC0240B4B2D
:1048700080088000C018A40003591A401143015158
:1048800030BD0F200340083B05489B089B001B18C8
:10489000D86902401143D961F2E7C04600E100E067
:1048A00000ED00E0002805DB1F2318401E3B83407D
:1048B000014A13607047C04600E100E0BFF34F8F2C
:1048C000034B044ADA60BFF34F8FC046FDE7C04692
:1048D00000ED00E00400FA058022431E520401208E
:1048E00093420DD2C021074A07485360036A090664
:1048F0001B021B0A0B430362002007239060136016
:104900007047C04610E000E000ED00E0F8B5436EEF
:104910000400002B02D10D4B8366F8BD03680C4EDA
:104920009F689B680B4D5B0FF05CE95CC000FDF776
:1049300049FC23006A3318803B015B0FF05CE95CA3
:10494000C000FDF73FFC68342080E6E7010001006D
:104950008C7401088474010870B5040084342278D2
:1049600003000220012A11D01D00242201268835CF
:104970002A601A6811681068B0431060044801404A
:1049800000205866202311602B60207070BDC04647
:10499000FFFFFFDFF8B50400250084352A78080002
:1049A0000223012A18D001212600297022688836A6
:1049B00022333360176813688B4313609368DB00FE
:1049C000D908014391602000FFF7A0FF23681F6012
:1049D0002023336000232B701800F8BDF8B50500C4
:1049E00084352B7804000A000220012B18D0260001
:1049F0002423013828708836336023681F681968BB
:104A0000814319609968074801401143200099606B
:104A1000FFF77CFF236800201F602023336028708D
:104A2000F8BDC046FFFFFFF130B5EFF3108401225F
:104A300082F310880168134D0B682B400B6084F3E0
:104A40001088EFF3108182F3108802680E4C93688F
:104A50002340936081F31088C36E012B0AD1EFF3DA
:104A6000108183F31088102402681368A343136035
:104A700081F31088030020228C331A600023C36660
:104A8000436730BDDFFEFFFFFEFFFFEF70B50400A0
:104A90002569A168026829436569C36929431068CB
:104AA000534D194328400143116051685148256A0C
:104AB0000140E06801435160A169906829434E4D6F
:104AC000284001430F209160D16A8143606A01430D
:104AD000D1624A498A4217D10320802548492D02D4
:104AE0004A6D0240013A022A00D979E04548805CCB
:104AF000AB4221D0082800D970E0FDF7C5FA736FEA
:104B00004E6F696F6F6F6C003F498A4205D03F4915
:104B10008A4202D03E498A4260D1802212029342E8
:104B200060D1FFF7A9FD031E17D10020394BA36602
:104B300000236367A36770BD08284FD8FDF79AFA72
:104B4000F14E054E2A4E4E4E0D00096832480906B8
:104B5000490F0131FDF7ACFA0300626A2F49520098
:104B6000515A1800FDF7A4FA656840006B08C01898
:104B70002900FDF79DFA0200294B103A9A422DD8E0
:104B80000F23020000079A4393B2400F2268184394
:104B9000D060CAE7FFF77AFCC5E709681E48090636
:104BA000490F0131FDF784FA636A1C4A5B00995A88
:104BB000FDF77EFA65686B08C0182900FDF778FAE2
:104BC0000200174B103A9A4208D82368D860ACE725
:104BD000FFF75CFC08E080200002E5E70120A5E784
:104BE000AB429ED0FFF748FD00289ED0DCE7C046D0
:104BF000F369FFCFFFCFFFFFFFF4FF110038014043
:104C00000010024094740108004400400048004035
:104C1000004C004001000100006CDC0298740108A7
:104C2000EFFF0000836A30B51A0706D50168284CEB
:104C30004A682240846B22434A60DA0706D501683D
:104C4000244C4A682240C46A22434A609A0706D527
:104C50000168214C4A682240046B22434A605A078B
:104C600006D501681D4C4A682240446B22434A60C5
:104C7000DA0606D501681A4C8A682240C46B2243C2
:104C80008A609A0606D50168164C8A682240046C30
:104C900022438A605A0610D50168134D4A68446C55
:104CA0002A4022434A6080225203944205D14A6836
:104CB0000E4C2240846C22434A601B0606D50268D3
:104CC0000B4953680B40C16C0B43536030BDC04669
:104CD000FF7FFFFFFFFFFDFFFFFFFEFFFFFFFBFF6B
:104CE000FFEFFFFFFFDFFFFFFFFFEFFFFFFF9FFF74
:104CF000FFFFF7FFF7B504000D00170000932268CF
:104D0000D3692B405B1B59424B41BB4201D0002071
:104D100027E0089B0133F3D0FFF794FD009BC01AF6
:104D2000089B98422ED8002B2CD0042123681A68A7
:104D30000A42E4D02A003C31403A8A43DFD0DA69A3
:104D4000082611003140019132420BD020001E6232
:104D5000FFF76AFE230090331E6000230120843495
:104D60002370FEBD8022D96912011142C7D01A6298
:104D70002000FFF759FE2300202290331A60019B88
:104D8000843423700320ECE7F0B51600020085B0F0
:104D900088320393136804000D000220202B3AD1BF
:104DA0000138002937D0002E35D08023A1685B015F
:104DB000994204D12369002B01D105422BD1230054
:104DC00000219033196021231360FFF73BFD23007E
:104DD00054331E8002331E8002938023A268070092
:104DE00000265B019A4204D12369B34201D12E000F
:104DF0001D00230056331B889AB2002B0DD1039B54
:104E00002000009340213B00FFF774FF20238834EB
:104E1000236000280ED105B0F0BD039B0022009353
:104E200080213B002000FFF765FF002804D02023ED
:104E3000883423600320EEE72268002D0BD13388ED
:104E40000236DB05DB0D9362029B029A1B88013B55
:104E50009BB21380CDE72B7801359362F4E7000015
:104E60000300F7B50027040090331F60FFF7EAFC4A
:104E70002600236805001B6884361B071CD580218B
:104E8000284B3A000093890303002000FFF732FF0C
:104E9000B84211D0EFF31081012383F310888020F2
:104EA000226813688343136081F3108820238834B9
:104EB000236037700320FEBD270023688C371B68F2
:104EC0005B0725D58021174B0022009320002B0083
:104ED000C903FFF70FFF00281AD0EFF3108001225B
:104EE00082F310882168104D0B682B400B6080F313
:104EF0001088EFF3108082F3108821688B68934349
:104F00008B6080F3108820233B6000233370D1E74F
:104F1000220000202023883213603B60E066206777
:104F20003070C8E7FFFFFF01DFFEFFFF70B5041E12
:104F300001D1012070BD050088352B68002B04D1FC
:104F4000020084321370FEF703FD2423012122683E
:104F50002B6013688B431360A36A002B02D02000E0
:104F6000FFF760FE2000FFF791FD0128E1D02368E4
:104F700007495A6820000A402A215A609A688A43E1
:104F80009A60012219680A431A60FFF769FFD1E7A6
:104F9000FFB7FFFF524AF0B58218541EA24100230A
:104FA00087B0053202910592029A12681400DC4023
:104FB00001D107B0F0BD01249C4003940399144033
:104FC00001940A4200D189E0029A10245268150027
:104FD000A5430495022D10D10F27072539001D4048
:104FE000AD00A940DC08A4000419266A8E4302998A
:104FF00009690F40AF4037432762032421005D0059
:10500000A9401440AC400668CF438E432643049C1D
:105010000660013C012C0ED802998668CC683E409F
:10502000AC4034438460D406E40F9C404668039946
:105030008E4334434460032A50D0C46802993C40F4
:105040008F68AF402743C760D10047D503271E00B4
:105050003E40BE400F24B44022499D08AD006D186B
:10506000296EA1430391A0210024C90588420CD0D8
:105070001D490134884208D01C490134884204D0BB
:105080001B493C00884200D0059CB44003990C4366
:1050900001992C660E00174CCD43E76F3E43D103B8
:1050A00001D43E002E40E667134E019FF46F274364
:1050B000910301D42C4027000A4CF7672768019E12
:1050C0003E43D10201D43E002E4026606668019F17
:1050D0003743920201D42E4037006760013363E703
:1050E00000ECFFAF00180240000400500008005020
:1050F000000C0050041802400818024000690840E3
:10510000431E9841C0B27047002A01D081617047A8
:105110008162FCE7044A05495369C0000B4018430B
:10512000034B1843506170470020024007FCFFFF0B
:1051300002000100F7B5204F05003B7802240191E1
:10514000012B18D00123FA203B70002380007B60E4
:1051500000F056F8041E0CD12B68042B0DD1FA2058
:10516000164A174B516980000B43536100F048F811
:10517000040000233B702000FEBD0123019A5B4226
:1051800013606E686B68AA689B18B3420BD9300035
:10519000FFF7C0FFFA20800000F032F8002808D0A6
:1051A0000400019B1E600221044A53698B43536132
:1051B000DFE70136E6E7C046B006002000200240E7
:1051C000040001000020054B5A69824205DA044AB6
:1051D0009A60044A9A605869C00F704700200240E4
:1051E00023016745AB89EFCD8022044B1206596934
:1051F0000A435A615869C043C00F704700200240FB
:10520000F8B505008027FFF71DFB7F024619114CFA
:1052100023693B4205D0FFF715FBB042F7D30320CB
:1052200007E023690C4A1340236103D001200B4A95
:105230005360F8BDFFF706FB80262D18F6022369A0
:10524000180030403342F4D0FFF7FCFA8542F6D81C
:10525000E5E7C04600200240FAC30000B006002087
:10526000F7B5174E0193337804000D000220009229
:10527000012B1ED00123FA203370002380007360BD
:10528000FFF7BEFF002812D10E4F012C12D17B690F
:1052900023437B61009B2B60BFF36F8F019B6B608F
:1052A000FA208000FFF7ACFF7B69A3437B610023FA
:1052B0003370FEBD2800009901F0DAFDF0E7C0462A
:1052C000B0060020002002400200030001203D3211
:1052D000117881421CD1022111701B680F4A934240
:1052E00009D08022D205934205D00D4A934202D0C4
:1052F0000C4A93420DD19A680B4900200A40062AB5
:1053000006D007398A4203D0012219680A431A607D
:1053100070471A68104318600020F9E7002C01401C
:10532000000400400040014007000100224A10B57F
:105330000368904206D08024E405A04202D01F4CAE
:10534000A0420CD17024A3434C682343904212D056
:105350008024E405A0420ED0184CA0420BD0184C7B
:10536000A04208D0174CA04205D0174CA04202D052
:10537000164CA04203D1164C2340CC682343802412
:10538000A3434C6923438C68C4620C6884629042D6
:1053900008D00C4A904205D00B4A904202D00B4AEA
:1053A000904201D10A690263042201680A43026043
:1053B00001224261036010BD002C01400004004046
:1053C00000200040004001400044014000480140EE
:1053D000FFFCFFFF70B504000120002C23D0250046
:1053E0003D352B78DAB2002B05D123003C33200069
:1053F0001A70FEF7FBFA02232B702068211DFFF7BD
:1054000095FF2200012300204832137047340A3AE6
:10541000137053709370D370137153719371D37170
:10542000137223702B7070BD302313B50B43694684
:105430000B706B4604004A700021D81C052299703D
:10544000FDF70CFE082269462068FDF713FE13BD28
:10545000F0B50E00040011001D00A3B0002807D114
:105460003248FDF703FE01256D42280023B0F0BD50
:105470000389AB420AD22E48FDF7F8FD2A002389A2
:105480002C4902A800F0F0FD0325EDE7431C019331
:10549000DB7F012B04D12848FDF7E8FD0225E3E777
:1054A000002745812A008781406800F05BFA658902
:1054B0000F206168072D15D802AB28402A0018700C
:1054C000581C00F04FFA072202AB0133521B581947
:1054D0003900FDF7C3FD0822300002A9FDF7CAFD1F
:1054E0000500C2E702AB5D702D0A054010200543A0
:1054F0001D700622981C00F035FA0822300002A91F
:10550000FDF7B8FD051EB0D10126A389A6730633A9
:10551000A3812061FDF7C4FD6061FDF7C1FD019B22
:105520006430A061E561DE779FE7C046B074010892
:10553000BE7401080F7501083C75010810B5130011
:105540000A000168FFF784FF10BD0000F0B5931E4C
:105550000400150085B0062B31D802A800F002FA2D
:10556000082202ABE8180021521BFDF777FD02ABC1
:105570001B7818093F2B22D8FCF786FD02235FAD6C
:1055800027003C373B78012B0DD00023A36302ABEF
:105590001E78330703D03607360FB54206D86E485B
:1055A000FDF764FD0BE006235B42EFE702AB591CFD
:1055B0003200A06A00F0D6F90223E6853B7005B000
:1055C000F0BD27003C373B78012B05D00023A363B7
:1055D000082D04D06148E3E706235B42F7E702ABFE
:1055E0001E785B783607360DF6185D48072ED7D93A
:1055F000A38DB3420CD25B48FDF738FD082300228F
:1056000002215B42A3633A702000FFF70DFFD6E74B
:1056100002AB991C0622A06A00F0A4F90123E685DA
:105620003B70514B2A00002120002363FFF7FCFE52
:10563000FDF736FD64306063C1E723003C3301931E
:105640001B78012B03D006235B42A363B7E7270037
:1056500002AB1B7832373A781B071B0F9A422ED1C8
:10566000208EE38D1B1A9BB21E1C072B00D9072628
:10567000B6B2B54201DC3D4892E7A36A3200181881
:1056800002AB591C00F06EF9238EF61826863B7883
:105690000133DBB20F2B00D900233B70FDF700FD77
:1056A000228EE38D643060639A420FD2230033333D
:1056B00019780139C9B200290AD019707FE704238B
:1056C0005B42A3630023019A137078E70223FAE791
:1056D00008221A7098E7671CFE7F012E00D06EE743
:1056E000022D0ED0FDF7DCFC0F2202AB1B786430DC
:1056F000A0611340022B06D108225242E261FB77DF
:105700005DE71B484CE7012B0BD1E37C0133DBB297
:10571000E374012B00D852E707235B42E3610933AE
:10572000EDE7002B00D04AE702AB5B78002B10D0EE
:105730009BB2238202AB9B781A000F32D2B2082AA6
:1057400003D95EB2F643F6171E400023A674E37435
:1057500035E7084BEDE7C0466F7501088E75010807
:10576000B7750108E37501080600010818760108FD
:1057700035760108FFFF0000F8B5040026003C362E
:105780001D0033780800022B0CD1E38D1F1C9342BF
:1057900000D9171CA16ABAB200F0E4F800202F80EB
:1057A0003070F8BD05204042FBE7F7B504000E005D
:1057B0001500009308AB04CB002101920830382279
:1057C0001F88FDF74BFC009B26602381019B6560D1
:1057D000A785A362F7BD000073B5461CF37F0400E4
:1057E000012B1DD1038A002B10D0837C002B08D104
:1057F0006389072B24D87521354B364A364800F08B
:105800006FF84569FDF74CFC2D1AF1D4A569FDF739
:1058100047FC2D1A04D502235B42E3610433F3777E
:1058200026003C363378012B09D1656BFDF738FC37
:105830002D1A04D503235B42A3630023337073BD89
:105840000F21A27B114020220A4369460A70A189D8
:105850005B1A9BB21D1C072B00D907256368ADB2EC
:1058600059186B462A00581C00F07CF86B4607223A
:1058700001330021521B5819FDF7F0FB082269463D
:105880002068FDF7F7FB00281ED1A389ED18A37B44
:10589000A5810133DBB20F2B18D9A073238A0F4ADD
:1058A000934201D0013B2382FDF7FAFB6430A061F3
:1058B000FDF7F6FBA37CA2891B18636163899A42FA
:1058C000A4D30023F377A1E70223FBE7A373E5E763
:1058D000537601089E76010867760108FFFF0000F5
:1058E00030B514001A00094B05001B6885B0D86854
:1058F000074B002C01D1074B1C00019300912B009A
:105900000549029400F010F800F09CFC0000002013
:10591000537B01083B750108607B0108014B186847
:105920007047C046000000200EB403B5010003AB71
:10593000044804CB0068019300F044F802B008BCAE
:1059400003B018470000002030B500240139A242FE
:1059500001D1002005E0035D01340D5DAB42F6D0BE
:10596000581B30BD002310B59A4200D110BDCC5C4D
:10597000C4540133F8E7936810B5013B9360002BE2
:1059800004DA9469A34207DB0A2905D01368581C7E
:1059900010601970080010BD00F086FB0100F9E7E7
:1059A000F8B506000F001400D518AC4201D1002054
:1059B00007E021783A003000FFF7DDFF0134431C97
:1059C000F3D1F8BDF0B5A1B006000C001F000392A2
:1059D000002804D08369002B01D100F069FD8E4BB3
:1059E0009C421CD17468636EDB0705D4A3899B05B8
:1059F00002D4A06D00F0FDFDA3891B0702D5236929
:105A0000002B1DD12100300000F0A4FB002817D08E
:105A1000636EDB070DD50120404221B0F0BD7F4B06
:105A20009C4201D1B468DEE77D4B9C42DBD1F46837
:105A3000D9E7A3899B05EED4A06D00F0DBFDEAE772
:105A4000002308AD6B6120336B761033AB7607977C
:105A5000039F3B78002B01D0252B4ED1039BFB1AD3
:105A60000593039B9F420DD0059B21003000039AB4
:105A7000FFF796FF431C00D1B5E06A69059B944689
:105A800063446B613B78002B00D1ACE001227B1CAE
:105A90000393002352426A6004A9543252182B60C7
:105AA000EB60AB601370AB65039B052219785D4812
:105AB00000F00EFE039B5F1C002820D12A68D3064D
:105AC00004D5532304A95B1820211970130704D5AA
:105AD000532304A95B182B211970039B1B782A2BD5
