:020000040801F1
:10000000FC770020B11D0108191D01081D1D010804
:1000100000000000000000000000000000000000E0
:10002000000000000000000000000000271D010883
:1000300000000000000000002B1D0108011D010848
:100040002F1D010800000000331D0108371D0108A5
:100050003B1D01083F1D0108431D0108471D010804
:10006000000000004B1D01084F1D0108531D010831
:10007000571D01085B1D01085F1D0108631D010874
:10008000671D010800000000000000006D1D010850
:10009000851D0108891D01088D1D0108911D01089C
:1000A000951D0108991D01089D1D0108A11D01084C
:1000B000A51D0108A91D0108091D0108AD1D0108A4
:1000C00010B5002805D108210D4B0E4A0E4803F04B
:1000D0003DFE037E002B03D109210C4B094AF5E7B5
:1000E0000368002B03D10A21094B064AEEE71B687F
:1000F000002B03D10B21074B024AE7E710BDC04696
:10010000CF5A0108DC5201086059010884590108DE
:10011000A0590108BC59010810B50400FFF7D0FF31
:1001200022681379022B0CD008D8012B09D0074A7A
:100130002021074B07480F3203F008FE033B012B39
:10014000F5D813689847002110BDC046DC5201085D
:10015000E65901086059010870B504000D00002837
:1001600006D14821184A194B1F32194803F0EEFDF9
:10017000002904D1144A4921164B1F32F5E70B68B8
:10018000002B04D1104A4A21134B1F32EDE70B79A3
:10019000002B04D10C4A4B21104B1F32E5E7042BF6
:1001A00004D9094A4C210E4B1F32DEE71C220021E4
:1001B000043001F0B3FB0123256020002376FFF714
:1001C000ABFFA060E16070BDDC520108CF5A0108AE
:1001D00060590108AC590108C8590108EC590108D7
:1001E000155A01087FB5060003930292FFF768FFD6
:1001F0003000FFF791FF009030000191FFF760FFA2
:1002000033681879013803282AD83469756901F0F0
:100210009DF9020B1F24FF2230697169002301F050
:100220002BFB02000B0005E0210C2B040B432204E6
:10023000121BAB4120002900029C039D001BA94119
:10024000009C019D001969418018594104B070BD9E
:10025000210A2B060B432206EAE701225242DBE782
:10026000034A3B21034B04482E3203F06FFDC04686
:10027000DC520108E65901086059010810B5040074
:10028000FFF71EFFA268E3682000FFF7ABFF10BD79
:1002900070B5002806D1084A7021084B084844323E
:1002A00003F054FD012204694569002312196B41D2
:1002B0000261436170BDC046DC520108CF5A01089B
:1002C0006059010810B502490248FFF745FF10BD0B
:1002D000000200209804002010B50248FFF7CEFF6E
:1002E00010BDC0469804002010B502000B00024863
:1002F000FFF778FF10BDC0469804002010B50248F3
:10030000FFF7C6FF10BDC0469804002070B5002856
:1003100005D10D21194B1A4A1A4803F017FD4368FD
:10032000002B03D10E21184B154AF5E7DC68002C91
:1003300003D10F21154B124AEEE79D69002D03D121
:100340001021134B0E4AE7E75D69002D03D11121FF
:10035000104B0B4AE0E71B7C022B0DD97F23237047
:100360004368DB6859704368DB689A70436803220E
:100370009C69D9685869A04770BDC046CF5A01082A
:100380002E5301083D5A0108A05901085D5A010881
:10039000815A0108B35A010870B5002806D12C21F2
:1003A0000E4A0F4B0F320F4803F0D0FC0024A2423C
:1003B00009D10A4A2D210C4B0F32F4E7155D067A5C
:1003C0000134AE4207D065B2AB42F7DC7E22FFF7C4
:1003D0009DFF002000E0012070BDC0462E530108A3
:1003E000CF5A01083D5A0108855B010870B5041E0B
:1003F00006D13F4A3F4B40492B32404803F0A6FC10
:100400004368002B04D13A4A3D4B3E492B32F4E776
:100410005A68002A04D1364A3B4B3C492B32ECE760
:100420001A00A0321268002A04D1314A384B3949E7
:100430002B32E2E75B78DB0703D411223621FFF78A
:1004400065FFA57A1322023D06D4626813009C332F
:100450001B88AB4205DA312236212000FFF756FF18
:1004600070BD1300A4331978E37A994201D933227D
:10047000F2E71300AC331B78A83236212000126853
:100480005BB2FFF789FF0028EAD063681A00596859
:100490009E321580063A106802312A0003F098FC5B
:1004A000636819005A68AD3152780A70A17B914295
:1004B00001D07322D0E71A0020696169B032106060
:1004C00051601800A0331B6898309847636820007B
:1004D000AD33197800F0F0FF206961692A00A37B31
:1004E0000133A373EB1712184B4122616361B7E725
:1004F0002E530108CF5A0108030400003D5A010899
:10050000A059010804040000E25A01080504000093
:10051000065B010806040000F0B5040087B000285F
:1005200006D1A94AA94BAA493F32AA4803F00EFCBA
:100530000378002B04D1A44AA74BA8493F32F4E723
:10054000002543684573AB4204D19F4AA44BA5499B
:100550004D32EAE75A6D002A4BDD1B6D002B48D166
:10056000994AA14BA1494D32DFE738266E431B6DF6
:1005700098199B5D032B3BD001236373036B002B06
:1005800005D1AB21904A9A4B4D328900CDE798476F
:1005900061680B6DC86C9B191A6A5B6AFFF722FED3
:1005A00002006068036D9B19DF698F4203D304D199
:1005B0009969914201D204221A709A6ADB6AC06C6E
:1005C000FFF710FE63681B8D643BDA17914202D877
:1005D0000ED198420CD9782231212000FFF796FEE7
:1005E00063681A6DD86C9619FFF748FEB062F16225
:1005F000013563685A6D9542B7DB002503276368B0
:100600005A6D954217DB627B002A00D0A7E0A27AE0
:10061000002A00D1A3E05A6811783E2909D82D2973
:1006200025D8112900D1A8E0272900D113E11029EC
:1006300034D0112267E038266E431A6D9319925D0B
:10064000022A0BD0042A07D1312120002232FFF7E1
:100650005DFE63681B6D9F550135D0E7597B5A8855
:100660000091200001219B6800F002FEF1E70800E4
:100670002E381028DDD800F073FF7902DCFFDCFF94
:10068000E401DCFFDCFFD202DCFF95036803DCFF42
:10069000DCFFDCFFDCFFDCFFDCFF7400DA69002A32
:1006A00004D1494A7B21534B68323EE71B78DB0774
:1006B00004D4112210212000FFF728FE61680029D0
:1006C00004D1414A464B783248312EE7CB69002BA2
:1006D00004D13D4A4921474B783226E74D68002D29
:1006E00004D1394A4A21444B78321EE7A27A012AC2
:1006F00007D91F264A1C96570022B24207DB122256
:1007000000E0132210212000FFF700FE1EE0187801
:100710001F00844668780233604502D0013252B22D
:10072000EBE77A78E37A9A4201D93322EAE7637AEF
:100730002072834203D04B6A002B00D09847626836
:100740002000538D217A128D00F03DFC0023626859
:10075000A37252681370237A6372E37A237307B02B
:10076000F0BD1B789B0704D411223E212000FFF727
:10077000CDFD200000F068FCE8E71A6B002A04D1E8
:100780001E4AB1211E4B0E32CFE6DA6A002A04D18E
:100790001A4AB2211B4B0E32C7E61B785B0703D403
:1007A0000A002000FFF7B2FDA37A012B09D93426F5
:1007B00000220C276068865753B29E4224DC122226
:1007C00000E0132211219EE72E530108CF5A0108A1
:1007D0005E0400003D5A0108845901085F040000CE
:1007E000A05901089D020000E6590108A30200007B
:1007F000395B01086A5B0108E25A0108AE5301083F
:100800009B5B0108C65B01083D005543036B013249
:1008100059195B5D9C4643685B789C45CCD14A780E
:10082000E37A9A4201D93322CCE708234A68CB56AF
:1008300020001121FFF7B0FD002800D186E7636892
:1008400020001B6B595D00F041FC63681A6BDB6A8A
:10085000505D98477AE7DA6B002A05D1A421BD4A9A
:10086000BD4B1E32FF3160E65A6C002A05D1D22101
:10087000B84ABA4B1E32490057E69A6C002A04D196
:10088000B44AA621B64B1E32ECE71B781B0704D4F2
:10089000112227212000FFF739FD63682721DA6B39
:1008A00014232000D3561269FFF776FD002800D1EB
:1008B0004CE7A07A012802D81322272123E7636896
:1008C0005A685578022229009143012904D0052D48
:1008D00002D0EA1F3A2A44D8DA6B002A04D19D4A92
:1008E000FD219D4B343220E6996C002907D0402031
:1008F0001856002359B2884206DC1222DDE7954AD9
:10090000FE21974B343210E6110018260F785E4313
:1009100018320133AF42EDD14B68002B01D12622B2
:10092000CBE70C23CB56002BF9DD14230A69CB56F9
:1009300020002721FFF730FD002800D106E761687D
:100940002800CB6B8F6C9B191A7B5968B84763687A
:100950002900DA6B20009219137B526800F0F6FB35
:10096000F4E6042229009143022905D0042D03D086
:100970002A00083A3A2AC0D8DA6B002A04D1754A0C
:100980009E21754B4F3276E7596C00294BD040269B
:100990009E570023511CB3424ADB01235B421826B9
:1009A0005E439219117B0231C9B2884284D1002B77
:1009B000A3DB9368002BB2D00D23D356002BAEDD02
:1009C00014232721D35620001269FFF7E5FC0028E5
:1009D00000D1BBE66268D36B99194F7B0B7B08781B
:1009E0000097576C8A684968B8476368DA6B58683B
:1009F00096190D22B168B256023003F0DBF93522A8
:100A0000002800D059E72900200000F0F1FB6368BE
:100A1000E5729B6B002B00D198E6227BAA4200D1A5
:100A200094E6280015E74B4A3E214C4B4F3219E71C
:100A300018310F00183F3F78AF42B0D001335BB29E
:100A4000A9E71B78DB0604D4112231212000FFF72F
:100A50005DFCA57A032D02D81322312153E6636889
:100A60001F6D002F03D05A6D0392002A01DC112262
:100A7000F3E75968CB788E781B0233435BBA9BB29D
:100A80000493002338265E43BA195088844604989C
:100A9000844505D00133039A5BB29A42F2DCE6E763
:100AA0000133E4D0907BE37A984201D93322D4E732
:100AB00014234F78D356312120001269FFF76CFCC4
:100AC000002800D142E6012F03D0032F33D0122299
:100AD000C3E7043DADB2002D08D06268136D5168C4
:100AE0009B192A005868043103F072F963681A6D83
:100AF00097193A7B9542AFD1002A07D07A68002A2D
:100B000004D1144A174B184969320EE53A78032A82
:100B100001D02122A1E700223A70D86CFFF7AEFB8A
:100B20006368386279621A6DD86C9619FFF7A6FB74
:100B3000B062F1620AE663681A6D915D9319032948
:100B4000E7D1587B5A8800909B68200000F090FB0A
:100B5000FCE5C046AE530108F65B01081F5C0108C6
:100B6000525C0108E6590108690200001B789B06E7
:100B700004D411222E212000FFF7C8FBA37A022BF8
:100B800002D813222E21BEE562685368D76D9D7886
:100B900059782D020D43142100238C466DBAADB255
:100BA000BB4201DB3122EDE766465E43906D811961
:100BB000805BA84200D1F9E00133F1E71023CA6855
:100BC000CB5620002E21FFF7E7FB002800D1BDE522
:100BD0006768BB6D9E19327A002A07D07368002BB4
:100BE00004D1764A764B77497C329EE4A17A033968
:100BF00008B20029C5DB9042C3D1717A002902D125
:100C000026222E317FE5002A04D0796870680331EE
:100C100003F0DEF82900200000F07CFB96E51A6E58
:100C2000002A04D1684A694B694913327DE41B7874
:100C30005B0604D4112234212000FFF767FBA07A61
:100C4000022802D8132234215DE50F256368596814
:100C50008A782A401D0078352A7089780909521847
:100C6000033269709042EDD11A007C321178E27A39
:100C7000914200D91AE71A1D84331B7831212000D4
:100C8000D26F5BB2FFF788FB002800D15EE500233E
:100C9000002265680027AA66EB662B0078331B7874
:100CA0009E1C0393F6B2AB6E0493EB6E0593022E7B
:100CB0001FD1002300222A676B672B00002779339E
:100CC0001E78039B9B190233DBB20393FBB2B34242
:100CD0001FD3049B059A1343B4D02B6F6A6F134341
:100CE000B0D028002B6E60309847002822D12622F1
:100CF000A9E76B683A00985D002100F0B1FD049B04
:100D0000013E1843059BA8661943E966F6B2083709
:100D1000C9E7039A0021D31A6A68DBB2D05CFA00F3
:100D200000F09EFD2B6F013718436B6F2867194346
:100D30006967CBE7636820009A6EDB6E22616361AE
:100D40000123A37300F028FB00E51B787F2B04D858
:100D5000112237212000FFF7D9FA626813008C3383
:100D60001978E37A994202D933223721CBE4130070
:100D700094331B7890323721200012685BB2FFF762
:100D80000BFB002800D1E1E4636888331B689847B7
:100D9000002200232261636100232000A37300F07E
:100DA0004BFBD3E42000FFF721FBCFE48A7AE37A00
:100DB0009A4200D802E73322E4E6C046AE53010867
:100DC000E6590108370300002E540108895C010828
:100DD0006603000010B50248FFF79EFB10BDC04639
:100DE000D804002010B5002807D19421184A194BC7
:100DF0002632C900184802F0A9FF002904D1144A7C
:100E0000164B17492632F5E70B004160B9331B78C2
:100E100003724372002383720B00B8331B78C372D2
:100E20000373012303700B00BA331B78002B05D02A
:100E30004B8D0A8D022100F0C6F810BD0B00BB33AC
:100E40001B78002BF9D04B8D0A8D0321F3E7C046A8
:100E50002E540108CF5A01083D5A0108AC59010827
:100E6000A104000010B502490248FFF7BBFF10BD06
:100E700080020020D804002010B5002806D1084ABE
:100E8000084B09493132094802F060FF40680028E8
:100E900005D19921024A064B3132C900F3E710BD52
:100EA0002E540108CF5A0108C70400003D5A01081A
:100EB000A0590108004870478002002070B5040066
:100EC0001500002806D1134A134B14494332144825
:100ED00002F03CFF0378002B04D10E4A114B12495B
:100EE0004332F4E7002904D10A4A104B1049433237
:100EF000EDE7002A04D1074A0E4B0F494332E6E7DB
:100F000043681A7AAA4204D32A00586802F060FFA4
:100F1000A57270BD2E540108CF5A0108D4040000F8
:100F20003D5A010884590108D5040000BF5C01083E
:100F3000D6040000D05C0108D704000010B50A00F8
:100F400001000248FFF7BAFF10BDC046D8040020D8
:100F500010B5002806D1044A044B0549054857320C
:100F600002F0F4FE007A10BD2E540108CF5A010899
:100F7000F10400003D5A0108014B187A7047C04641
:100F8000D804002010B5002806D1044A044B0549B6
:100F900005486B3202F0DAFEC07A10BD2E5401080B
:100FA000CF5A0108FD0400003D5A0108014BD87AD0
:100FB0007047C046D804002010B50A008369C16894
:100FC0004069984710BD70B5002805D11E21174B08
:100FD000174A184802F0BAFE4568002D03D11F21B8
:100FE000154B134AF5E7EC68002C03D12021134B75
:100FF0000F4AEEE7AE69002E03D12121104B0C4AB7
:10100000E7E72D7C062D03D822210E4B084AE0E7A6
:1010100050256170E270110A1A0A2570A1702271C0
:10102000637106214068FFF7C7FF70BDCF5A010802
:10103000B2540108DE5C0108A05901085D5A01089C
:10104000815A0108025D010810B5002806D1362139
:10105000174A184B1432184802F078FE4368002BE8
:1010600004D1134A3721154B1432F4E7DA68002A09
:1010700004D10F4A3821124B1432ECE79969002948
:1010800004D10B4A0F4B14323931E4E71B7C022B9D
:1010900004D8074A3A210C4B1432DCE77E23137044
:1010A0000023537002214068FFF786FF10BDC04641
:1010B000B2540108CF5A0108DE5C0108A0590108AA
:1010C0005D5A0108815A0108025D010810B5002827
:1010D00006D14D21164A174B2D32174802F036FE25
:1010E0004368002B04D1124A4E21144B2D32F4E7F1
:1010F000DA68002A04D10E4A4F21114B2D32ECE759
:101100009C69002C04D10A4A50210E4B2D32E4E791
:101110001B7C022B04D8064A51210B4B2D32DCE7F5
:1011200051235170137002214068FFF745FF10BD35
:10113000B2540108CF5A0108DE5C0108A059010829
:101140005D5A0108815A0108025D0108F8B59D1C2D
:101150000E0004001100EDB21A00002806D167212C
:101160001B4A1C4B41321C4802F0F0FD002904D1FF
:10117000174A1A4B41326831F5E74368002B04D116
:10118000134A6921164B4132EDE7D868002804D193
:101190000F4A6A21134B4132E5E79F69002F04D1C2
:1011A0000B4A6B21104B4132DDE71B7CAB4204D86C
:1011B000074A6C210D4B4132D5E767230370467017
:1011C000023002F005FE29006068FFF7F5FEF8BD69
:1011D000B2540108CF5A0108DE5C0108BC55010871
:1011E000A05901085D5A0108815A0108025D0108F1
:1011F00010B5002806D18021164A174B58321748DF
:1012000002F0A4FD4368002B04D1124A8121144B43
:101210005832F4E7DA68002A04D10E4A8221114BD1
:101220005832ECE79C69002C04D10A4A83210E4B0A
:101230005832E4E71B7C022B04D8064A84210B4B6E
:101240005832DCE767235170137002214068FFF7C2
:10125000B3FE10BDB2540108CF5A0108DE5C01088C
:10126000A05901085D5A0108815A0108025D010870
:10127000F8B50F00190006AB050010001A78002D14
:1012800006D19B211C4A1D4B6E321D4802F05EFDAB
:101290006B68002B04D1184A9C211A4B6E32F4E77C
:1012A000DC68002C04D1144A9D21174B6E32ECE708
:1012B0009E69002E04D1104A9E21144B6E32E4E741
:1012C000161D1B7CF6B2B34204D80B4AA221104B68
:1012D0006E32DAE771232370030A6770A370E0703F
:1012E000002A04D0002902D0201D02F071FD310037
:1012F0006868FFF761FEF8BDB2540108CF5A0108D3
:10130000DE5C0108A05901085D5A0108815A0108F4
:10131000025D010810B5002806D1BB21174A184B01
:101320000532184802F012FD4268002A04D1134A1F
:10133000BC21154B0532F4E7D368002B04D10F4ACA
:10134000BD21124B0532ECE79469002C04D10B4A05
:10135000BE210F4B0532E4E7127C032A04D8074A6A
:10136000BF210C4B0532DCE76E221A700A0A997015
:101370005A7003214068FFF71FFE10BD3255010867
:10138000CF5A0108DE5C0108A05901085D5A010826
:10139000815A0108025D010810B5002806D1CC2150
:1013A0001E4A1F4B20321F4802F0D0FC4368002B1E
:1013B00004D11A4ACD211C4B2032F4E7DA68002A06
:1013C00004D1164ACE21194B2032ECE79969002945
:1013D00004D1124A164B2032CF31E4E71B7C042B98
:1013E00004D80E4AD821134B2032DCE77423137043
:1013F000202243680421DB685A704368DA687A3334
:101400001B8802331B1293704368DA687A331B8897
:101410000233D3704068FFF7CFFD10BD325501088D
:10142000CF5A0108DE5C0108A05901085D5A010885
:10143000815A0108025D010810B5002806D1E82193
:10144000164A174B3B32174802F080FC4368002BCA
:1014500004D1124AE921144B3B32F4E7DA68002A3E
:1014600004D10E4AEA21114B3B32ECE7996900297D
:1014700004D10A4A0E4B3B32EB31E4E71B7C012BD3
:1014800004D8064AED210B4B3B32DCE7772313707F
:1014900001214068FFF790FD10BDC046325501089C
:1014A000CF5A0108DE5C0108A05901085D5A010805
:1014B000815A01082A5D010810B5002806D1F621DD
:1014C000164A174B5732174802F040FC4368002B6E
:1014D00004D1124AF721144B5732F4E7DA68002A94
:1014E00004D10E4AF821114B5732ECE79C69002CCD
:1014F00004D10A4AF9210E4B5732E4E71B7C022B38
:1015000004D8064AFF210B4B5732DCE77623517093
:10151000137002214068FFF74FFD10BD32550108DE
:10152000CF5A0108DE5C0108A05901085D5A010884
:10153000815A0108025D010802B471464908490058
:10154000095649008E4402BC7047C04602B4714639
:1015500049084900095C49008E4402BC7047C046F6
:1015600003B47146490840004900095E49008E44B1
:1015700003BC7047002243088B4274D303098B429B
:101580005FD3030A8B4244D3030B8B4228D3030C53
:101590008B420DD3FF22090212BA030C8B4202D3F5
:1015A0001212090265D0030B8B4219D300E0090A1D
:1015B000C30B8B4201D3CB03C01A5241830B8B4226
:1015C00001D38B03C01A5241430B8B4201D34B030F
:1015D000C01A5241030B8B4201D30B03C01A524174
:1015E000C30A8B4201D3CB02C01A5241830A8B42F9
:1015F00001D38B02C01A5241430A8B4201D34B02E2
:10160000C01A5241030A8B4201D30B02C01A524145
:10161000CDD2C3098B4201D3CB01C01A52418309F9
:101620008B4201D38B01C01A524143098B4201D333
:101630004B01C01A524103098B4201D30B01C01A5E
:101640005241C3088B4201D3CB00C01A52418308D8
:101650008B4201D38B00C01A524143088B4201D305
:101660004B00C01A5241411A00D201465241104665
:101670007047FFE701B5002000F0F0F802BDC0465A
:101680000029F7D076E7704703460B437FD400224A
:1016900043088B4274D303098B425FD3030A8B4206
:1016A00044D3030B8B4228D3030C8B420DD3FF2270
:1016B000090212BA030C8B4202D31212090265D03E
:1016C000030B8B4219D300E0090AC30B8B4201D3F1
:1016D000CB03C01A5241830B8B4201D38B03C01A38
:1016E0005241430B8B4201D34B03C01A5241030BAF
:1016F0008B4201D30B03C01A5241C30A8B4201D360
:10170000CB02C01A5241830A8B4201D38B02C01A0A
:101710005241430A8B4201D34B02C01A5241030A81
:101720008B4201D30B02C01A5241CDD2C3098B4266
:1017300001D3CB01C01A524183098B4201D38B01E3
:10174000C01A524143098B4201D34B01C01A524186
:1017500003098B4201D30B01C01A5241C3088B42CB
:1017600001D3CB00C01A524183088B4201D38B00B6
:10177000C01A524143088B4201D34B00C01A524158
:10178000411A00D201465241104670475DE0CA0F2F
:1017900000D04942031000D34042534000229C46EF
:1017A00003098B422DD3030A8B4212D3FC228901F9
:1017B00012BA030A8B420CD3890192118B4208D3CF
:1017C000890192118B4204D389013AD0921100E031
:1017D0008909C3098B4201D3CB01C01A5241830945
:1017E0008B4201D38B01C01A524143098B4201D372
:1017F0004B01C01A524103098B4201D30B01C01A9D
:101800005241C3088B4201D3CB00C01A5241830816
:101810008B4201D38B00C01A5241D9D243088B426C
:1018200001D34B00C01A5241411A00D2014663460F
:1018300052415B10104601D34042002B00D5494273
:10184000704763465B1000D3404201B5002000F0B2
:1018500005F802BD0029F8D016E770477047C0466A
:101860009140030090409C46203A934019435242D5
:101870006346D34019437047F0B5CE46474680B51E
:10188000070099463B0C9C4613041B0C1D000E00E0
:1018900061460004140C000C45434B436043614314
:1018A000C0182C0C20188C46834203D980235B027D
:1018B0009846C444494679437243030C63442D045B
:1018C0002D0CC918000440198918C0BCB946B0468F
:1018D000F0BDC04670B500260C4D0D4C641BA41025
:1018E000A64209D1002603F0EDFC0A4D0A4C641B08
:1018F000A410A64205D170BDB300EB58984701363D
:10190000EEE7B300EB5898470136F2E7000000001D
:10191000000000000000000000000000030082182A
:10192000934200D1704719700133F9E70FB404B046
:101930007047000010B5074B074C5A6320000A009F
:10194000064900F069FD200000F058FE0028FAD09A
:10195000002010BD64000020E40300208C00002063
:1019600010B501F0AFFA10BDF0B50024CBB0FB22EA
:1019700021000BA80A94FFF7D1FF6B46DC8101F030
:1019800089FA00F0BBF800F0E5F800F033F900F058
:1019900057F900F099F9EC2302270125354EDB00B9
:1019A0000893354B300004A90993049405940697D5
:1019B000079500F0D5FC23003A0039003000009470
:1019C00000F0F6FC22002900300000F01DFE30007F
:1019D00000F00BFD8023294A294E2A49019330004B
:1019E0000092294A02F017F9FEF76CFCE422274B1B
:1019F00052001968914207D11C60254B1A00BB3276
:101A000015700322B9331A70FFF72CFA214802F03F
:101A100057FD62B6FEF760FC802705000C00BF0092
:101A2000300002F00FF90E23FF2230006B440AA9A8
:101A300002F0D8F8002804D16B460AA8997BFFF77A
:101A40007DFAFFF7C7F928002100FEF74DFC0029B9
:101A500001D13128E4D9FEF73FFC05000C000E4807
:101A6000390001F091FEA0202021C00501F08CFE7C
:101A7000D6E7C046E4030020FF070000F000002086
:101A8000B00000206107000070010020FC770020FA
:101A900080020020A85501080008005070B5CB074F
:101AA00016D50C4D0C4C2B002200402100F018FDE7
:101AB00000280DD1EC232268DB009A4208D163682C
:101AC000002B05D1E26829000448D2B201F074FF6E
:101AD00070BDC046F001002064000020B00000206E
:101AE000012307B55B4201900122034801A901F0DF
:101AF0008BFC01980EBDC0465003002070B5072630
:101B000001258CB01822002106A8FFF707FF00214D
:101B100014226846FFF702FF0D4A0024136805A847
:101B2000B3432B43136002230593FE330893C03B5A
:101B30000A93099400F0B2FE2900684600960194C9
:101B400002940394049401F00FF80CB070BDC046E9
:101B500000200240F0B501258BB01422002105A819
:101B6000FFF7DCFE0820214B80245A6BA0262A4375
:101B70005A635A6B1E4F2A400192019A596BA40076
:101B8000014359635A6BF60502400292029A596B5F
:101B900006380143596304215A6B02400392039AA9
:101BA0005A6B38000A435A635B6B00220B40049364
:101BB0002100049B01F0E2FD00223000202101F011
:101BC000DDFD112305940024380005A90693079430
:101BD000089401F01FFD2023300005A90593069508
:101BE0000794089401F016FD0BB0F0BD0010024000
:101BF0000008005070B5104B104C00252360E12305
:101C00005B0263600C2320006361A560E5602561D1
:101C1000A561E56125626562A56201F0C7FC290046
:101C2000200001F0F7F92900200001F017FA200048
:101C300001F0D2F970BDC0460038014050030020C9
:101C40001F4B204A18001900943070B50260002222
:101C500098310A6019009C310A601900A0310A60AD
:101C600002241900FF34A4310C8019001C00A63195
:101C70000A7001211D00A83421600C24AC352C60B1
:101C80001D002326B0352E601D00B4352C601C00CD
:101C90001D00B83421600624BC352C601D00123EA6
:101CA000C0352E601D00C4352C601C00C834216076
:101CB0001900D033CC310A601A6000F051FA70BDBF
:101CC0005003002000640040094B0A4A1800F83015
:101CD00010B50260084AFC331A60002207495A60B6
:101CE000DA60803299605A6101F0AAFD10BDC046E9
:101CF00050030020002000407FBB0000FFFF0000D9
:101D000010B501F0D3F810BD10B5024800F002FD87
:101D100010BDC046E4030020C046FDE710B501F049
:101D20000DF9C046FDE7C046FDE7C046FDE7C046E9
:101D3000FDE7C046FDE7C046FDE7C046FDE7C046FB
:101D4000FDE7C046FDE7C046FDE7C046FDE7C046EB
:101D5000FDE7C046FDE7C046FDE7C046FDE7C046DB
:101D6000FDE7C046FDE7C046FDE700000222044B48
:101D700010B5F8331B6852421A61FEF7BFFA10BD66
:101D800050030020C046FDE7C046FDE7C046FDE722
:101D9000C046FDE7C046FDE7C046FDE7C046FDE79B
:101DA000C046FDE7C046FDE7C046FDE7C046FDE78B
:101DB0000D48854600F0CCF9002103E00B4B5B5841
:101DC000435004310A480B4B42189A42F6D30A4A50
:101DD00002E0002313600432084B9A42F9D3FFF764
:101DE00079FDFFF7C1FDFEE7FC770020205E0108CA
:101DF000000000204C030020500300202806002093
:101E0000014B586A80B270470020004070B504ACA6
:101E10002578002905D1154B154A3F31154801F0A9
:101E200095FF002A03D14021134B114AF6E7002BFE
:101E300003D14121114B0E4AF0E7002D03D142217D
:101E40000F4B0B4AEAE70024AB4204D15D1E521946
:101E5000A34204DC70BD43210A4B054ADEE70D5D59
:101E60006642451995550134F2E7C046BC55010854
:101E70008F560108CD5501081C5601082C56010843
:101E80003A5601084756010810B50100014802F012
:101E90008BFA10BD5D560108010010B5034802F031
:101EA00083FA01F04BF8C046FDE7C04667560108CB
:101EB00010B5002905D1094B094A5131094801F0F3
:101EC00045FF00239A4203D15221074B044AF5E70C
:101ED000C418CC5401339A42FADC10BDBC55010839
:101EE0007A560108CD5501082C56010810B501009D
:101EF0000400064802F058FA022C06D17B22044B5B
:101F00001A6001F01BF8C046FDE710BD71560108CC
:101F1000FC77002001200A4B82B0196C0143196440
:101F200080211A6C490502400092009ADA6B0A433C
:101F3000DA63DB6B0B400193019B02B07047C04634
:101F40000010024010B5040090B01422002103A834
:101F5000FFF7E4FC2022002108A8FFF7DFFC194B63
:101F600022689A422BD1102308A8089300F0D6FECD
:101F70008020154B4001D96B00240143D96308210F
:101F8000DA6B02400192019A5A6B10480A435A6375
:101F90005B6B05940B400293029B03230393013B6D
:101FA000049303A902330793069401F033FB1E2028
:101FB0002200210000F08CFF1E2000F0B3FF10B0C3
:101FC00010BDC0460064004000100240000C0050EC
:101FD00030B5040091B01422002103A8FFF79EFC45
:101FE0002022002108A8FFF799FC1D4B22689A4285
:101FF00033D1012408A8089400F090FE8020022527
:10200000184BC001196C014319641A6C03A90240F2
:102010000092009A5A6BA02022435A635A6BC00563
:1020200022400192019A5A6B00242A435A635B6B47
:1020300003952B400293029B042304950793059478
:10204000069401F0E7FA4023074803A90393049597
:1020500005940694079401F0DDFA11B030BDC04636
:1020600000380140001002400004005007B50B4B3F
:1020700002689A4211D18020094A0002116C014382
:102080001164136C00220340019313201100019B83
:1020900000F01EFF132000F045FF07BD00200040A8
:1020A000001002400120704710B501F06DFE1623AC
:1020B00003600120404210BD10B501F065FE1623FB
:1020C0000360FEE770B50E0014000025A54201DB99
:1020D000200070BD00E000BF70550135F6E770B517
:1020E0000E0014000025A54201DB200070BD705DCC
:1020F000FFF7F6FC0135F6E70120404270478023E8
:102100009B0100204B607047012070470020704702
:102110000B4A0C490300891A0B4A10B510680028B5
:1021200001D10A4810601068C3188B4206D901F02B
:102130002BFE0C2303600120404210BD1360FCE71E
:1021400000040000FC770020100600202806002074
:10215000014B024A9A60704700ED00E00000010860
:10216000F8B504000120002C00D1C1E025005C3549
:102170002B78DAB2002B05D123005D3320001A70D2
:10218000FFF7E0FE10212268082793698B439361D3
:1021900000F098FE060023689A693A4200D08EE06B
:1021A00001269A6932439A6100F08CFE0700236889
:1021B0009A69324200D18FE0022299690A439A61FA
:1021C00061685B4A1160217C4022012900D090E0C7
:1021D000996991439961627C012A00D08DE0802247
:1021E0009969D2010A439A61A27C012A00D088E051
:1021F0009A6950490A409A619A694F48A168024019
:10220000A4200A439A619A6982439A611A699438B0
:1022100082431A61E268012A00D077E098690332AC
:1022200002439A61A269E069013A0138000252064C
:102230000243206A01380243606901380004024306
:10224000DA61C022920091420ED1E26A216B013A1A
:102250000139090112020A43A16A01390A43616A7C
:10226000013909040A43DA601900C0310A68E06BD9
:10227000043302430A60D96F626B304E30483140FC
:1022800012040A432064DA672E4AD96F62642E4E24
:10229000A26B314012060A43DA67D4222B4B00218D
:1022A000A3642B4B9200E3642A4B23652A4B63659E
:1022B000FFF734FB00200123A06520660AE000F050
:1022C00001FE801B0A2800D865E70120236E034326
:1022D000236603232B700BE000F0F4FDC01B0A28DB
:1022E00000D864E7236E01201E43032326662B706B
:1022F000F8BD99690A439A616DE79A6917490A40DE
:1023000071E78022996952010A4374E7002A00D1DB
:1023100088E7022A09D080269F693E439E611E6994
:1023200030431861032A00D07CE72022986977E7C0
:1023300000650040FFEFFFFFFFFCFFFFFFFFE0FF36
:1023400000B4004070B40040FFFFFFF0B0B40040A4
:1023500088B5004060B6004078B60040FFBFFFFF80
:10236000030070B55C331B78013B012B1AD88A68D7
:10237000CB680D694E69940706C9002909D1DB06AF
:102380001C43006C26432D0492002E43165000205F
:1023900070BD416CD2005B0752181D433443156079
:1023A0005460F4E70223026E134303660120EFE753
:1023B00030B50C0001005C31097801290FD15900BA
:1023C000039B006819433F230430C56F92001143FB
:1023D000240121439D432943C167002030BD0423CC
:1023E000026E134303660120F8E703005C331A789A
:1023F000D1B2012A09D101321A70026893698B4364
:10240000936100230366180070470423026E134390
:1024100003660120F8E700000300F7B55C331B7882
:10242000022B57D105682B00C4331C68A40206D5C3
:102430008023026E9B0013430366012033E01C6877
:102440000F69A403A30F4C6801938E680B68002CDE
:102450002AD137439B041F43BC4648268C69CB696D
:1024600023434C6923430C6A2706019C1F436643A0
:10247000CB68446D1B0436193B4373600823370057
:1024800064465B42346008379E1B144CCB68E35CA7
:102490009C46BB1963450ED30123019ACC3593406A
:1024A0002B6083650020FEBD3B4333438026F60549
:1024B0001E43B446D1E7D3781B069C466446937806
:1024C0001B04234314782343547804322402234307
:1024D00008C7DAE70823026EADE7C04600570108D7
:1024E000F7B5040001935C342478022C00D07FE01F
:1024F00004680F25270040295AD190373E682E42A4
:1025000006D18023026E5B001343036601204EE078
:102510000126B44663463D682D0E2E401D4203D071
:102520000434E66F760A1E4048243D68836CAD058E
:10253000AD0FAD196C438027E4182368FF051F40D9
:1025400057602668F600002F49D1760D1660802668
:102550002368B6051E4096602368DE0FF6071661F5
:1025600063689EB2D66163681E03360FD66080260C
:10257000636876031E40566180266368B6031E407A
:10258000966163685E00760E166263680834DE0F3B
:10259000194B56629C4600266346D768DF5DB742FA
:1025A0001FD80368402921D1943300201D60FEBD4F
:1025B00098373E682E42A4D03D682B0E1E000125A0
:1025C0002E402B4203D00434E66F360A2E404824B6
:1025D0003D68C36CAD05AD0FAD196C43ABE7F608B4
:1025E000B4E7A75D019B9F550136D5E79C33DCE737
:1025F0000823026E88E7C046005701080368C43309
:102600001868072318407047030070B55C331B78C7
:10261000013B012B00D96DE007240D000068254027
:10262000836D214201D0DC0722D53824214201D01C
:102630009C071DD5E0246400214201D05C0717D51A
:10264000F0246401214201D01C0711D5E0242402AA
:10265000214201D0DC060BD5C024A402214201D0C6
:102660009C0605D5FC242404214205D05C0603D435
:102670000124C66D3443C465002D01D0DC0722D48B
:102680003824214201D09C071DD4E024640021425B
:1026900001D05C0717D4F0246401214201D01C074B
:1026A00011D4E0242402214201D0DC060BD4C02442
:1026B000A402214201D09C0605D4FC24240421421A
:1026C00005D05B0603D50223C46D2343C3650B0607
:1026D00004D50400DC34236813432360CB0504D500
:1026E0000400E03423681A432260436D19434165B6
:1026F000002070BD0223026E134303660120F8E739
:102700007047704770477047704770477047704711
:10271000704770470368F0B51A6D5F6D196D17400B
:10272000E022520117405A6D85B00A4007210A4045
:102730000092196D5A6D04000A4038210A40019236
:10274000196D5A6D0A40F12109040A400292196D6F
:102750005A6D5D6D0A40E0211E6D09030A40039227
:102760000122710606D5A909114203D03F321A652C
:10277000FFF7CDFF0123F20510D52A0A1A420DD02A
:10278000236880201A001900D832E03112680968E5
:102790004000186511402000FFF7B6FF002F05D05C
:1027A0002368390020001F65FFF7AAFF009B002B5C
:1027B00006D0009A2368110020001A65FFF76EF911
:1027C000019B002B06D0019A2368110020001A6596
:1027D000FFF797FF0123B20509D56A0A1A4206D00E
:1027E00080222368920020001A65FFF78BFF0123E7
:1027F00032060FD5EA091A420CD0236880201A004D
:102800001900D432DC3112680968186511402000C3
:10281000FFF779FF0123B20409D56A0B1A4206D0EB
:1028200080222368920120001A65FFF76EFF0123C2
:10283000320409D5EA0B1A4206D08022236812021C
:1028400020001A65FFF762FF012372040AD5AD0B61
:102850001D4207D080222368D2011A658023226E90
:1028600013432366039B002B06D0039A23681100B1
:1028700020001A65FFF74DFF029B002B05D023684F
:10288000029A1A65236E13432366236E002B02D02F
:102890002000FFF73DFF05B0F0BD0000F8B5051EB4
:1028A00001D10120F8BD0368DB070DD42B689B071D
:1028B0004FD42B681B0700D5A5E004222B681342D8
:1028C00000D0D0E00020EDE73821864C4368A268B4
:1028D0000A40082A02D1002BE8D1E2E78022520206
:1028E000934211D122681343236000F0EBFA802752
:1028F0000600BF0223683B42D8D100F0E3FA801BF8
:102900006428F7D90320CDE7A021C9028B4208D162
:1029100080232168DB020B43236023681A43226073
:10292000E3E7226870490A40226022686F490A4042
:102930002260002BD9D100F0C5FA80270600BF0223
:1029400023683B42B2D000F0BDFA801B6428F7D95F
:10295000D8E73822634CEB68A16811421DD1002BE7
:102960009FD062686B6962491B020A40134363602F
:102970002368604A13402A691343236023685E4A30
:102980009B045B0FDA4013005C4A13605C4B1868D1
:1029900000F058FA00288CD083E7002B20D0236861
:1029A000544A802713402A69FF0013432360802381
:1029B00022685B001343236000F084FA060023685A
:1029C0003B4207D062686B6949491B020A401343C6
:1029D00063606EE700F076FA801B0228EFD991E77A
:1029E0002368484A80271340236000F06BFA0600F2
:1029F000FF0023683B4200D15BE700F063FA801BD5
:102A00000228F6D97EE73821364CAA69A3680B4024
:102A1000182B03D1002A00D04FE742E70123002AF8
:102A200010D0226E02271343236600F04BFA0600F3
:102A3000236E3B4200D040E700F044FA801B02289E
:102A4000F6D95FE7226E02279A43226600F03AFA2F
:102A50000600236E3B4200D12FE700F033FA801BC3
:102A60000228F6D94EE738211E4CA868A3680B400F
:102A7000202B03D143425841C0B213E7E36D012834
:102A800010D11843E06500F01DFA02260500E36D41
:102A9000334200D016E700F015FA1B4B401B98425A
:102AA000F5D92FE7052806D11A430123E265E26D27
:102AB0001343E365E7E701218B43E365E36D93434C
:102AC000E3650028DFD100F0FDF902260500E36D83
:102AD000334200D1F6E600F0F5F90B4B401B98426B
:102AE000F5D90FE700100240FFFFFEFFFFFFFBFFDD
:102AF000FF80FFFFFFC7FFFF006CDC0240030020E8
:102B000048030020FFFEFFFF881300000720382243
:102B1000124B10B519689C688908014001311442B4
:102B200007D11B68DB0A03400D48D840FEF722FDA1
:102B300010BD9868104008280BD0986810402028D5
:102B400009D09B6800201A40182AEFD1FA20C00152
:102B5000ECE70448EAE780200002E7E700100240C3
:102B6000006CDC0200127A00F7B504000D000028AA
:102B700001D10120FEBD07274B4E33683B408B42FD
:102B80002AD321688B073BD4CB074AD40727336865
:102B90003B40AB420AD93368BB432B43336000F060
:102BA00091F9019033683B40AB426DD123683F4DB2
:102BB0005B0771D4FFF7AAFFAB683D4A1B051B0FEB
:102BC0009B009B581F221340D8403A4B18603A4B49
:102BD000186800F037F9CDE73368BB430B43336027
:102BE00000F070F9019033683B40AB42C9D000F06F
:102BF00069F9019BC01A314B9842F4D90320B9E717
:102C00002A4A4B0706D593682D481840B0231B016C
:102C10000343936093682B480340E0680343936049
:102C2000B2E71C22214F3B689343A26813433B60E9
:102C30006268012A19D13B689B039AD50721BB68BA
:102C40008B431343BB6000F03DF901903823BA6811
:102C50001A406368DB009A4298D000F033F9019B78
:102C6000C01A164B9842F1D9C8E7002A03D13B6835
:102C70005B05E3D47DE70223032A03D1396E1942B1
:102C8000DCD176E7F96DFAE700F01CF9019BC01A78
:102C90000A4B984286D9B1E7AB680B4A13402269C8
:102CA0001343AB6086E7C04600200240001002409C
:102CB000A0560108400300204803002088130000AC
:102CC000FF84FFFFFFF0FFFFFF8FFFFF10B5FFF74F
:102CD0001DFF064B064A9B681B051B0F9B009B585C
:102CE0001F221340D840034B186010BD0010024053
:102CF000A05601084003002010B5FFF7E7FF054B81
:102D0000054A9B685B045B0F9B009B581F22134086
:102D1000D84010BD00100240E0560108F0B5050093
:102D20002B68002085B05B0622D580223E4C5205E0
:102D3000E36B0600134207D1E36B01361343E363F1
:102D4000E36B13400393039BE26DC02311009B00D0
:102D5000364F19401A4244D10020E36D1F40EB6901
:102D60001F43E765012E03D1E36B314A1340E36350
:102D70002A68D30706D503242B494B6DA343AC68BF
:102D800023434B65930706D527492A4C4B6D2340B7
:102D9000EC6823434B65930606D52349AC694B6D1C
:102DA0009B009B0823434B65D30606D51E491F4C49
:102DB0004B6D23406C6923434B65530706D51A4975
:102DC0001D4C4B6D23402C6923434B65130606D5E0
:102DD000E021154A13688B4369680B43136005B003
:102DE000F0BDEB699942B7D08023E26DE06D110030
:102DF0005B020343E365E36D104839400340E3653C
:102E0000E165D307A8D500F05DF801900222E36DDB
:102E10001342A1D100F056F8019BC01A084B98420A
:102E2000F4D903209EE7C04600100240FFFCFFFFDC
:102E3000FFFFFFEFFFCFFFFFFF3FFFFFFFFFFEFFA3
:102E40008813000070B5104B05001978002901D1D6
:102E5000012070BDFA208000FEF78CFB0B4B0100B7
:102E60001868FEF787FB00F077F8041EF0D1032DF9
:102E7000EED8020001202900404200F029F8044B5E
:102E800020001D60E5E7C046440300204003002009
:102E90004803002010B50020FFF7D4FF041E03D123
:102EA000FFF738F8200010BD0124FBE7034A044B6C
:102EB00011681B785B1813607047C0461406002029
:102EC00044030020014B18687047C04614060020D8
:102ED00030B5FF2503242A000440E400A240890104
:102EE0002940D243A140C3B200280ADBC0240B4BC7
:102EF00080088000C018A40003591A4011430151F2
:102F000030BD0F200340083B05489B089B001B1861
:102F1000D86902401143D961F2E7C04600E100E000
:102F200000ED00E0002805DB1F2318401E3B834016
:102F3000014A13607047C04600E100E0BFF34F8FC5
:102F4000034B044ADA60BFF34F8FC046FDE7C0462B
:102F500000ED00E00400FA058022431E5204012027
:102F600093420DD2C021074A07485360036A0906FD
:102F70001B021B0A0B4303620020072390601360AF
:102F80007047C04610E000E000ED00E0F8B5436E89
:102F90000400002B02D10D4B8366F8BD03680C4E74
:102FA0009F689B680B4D5B0FF05CE95CC000FEF70F
:102FB0006BFB23006A3318803B015B0FF05CE95C1C
:102FC000C000FEF761FB68342080E6E701000100E5
:102FD000185701081057010870B50400843422788E
:102FE00003000220012A11D01D0024220126883569
:102FF0002A601A6811681068B043106004480140E4
:1030000000205866202311602B60207070BDC046E0
:10301000FFFFFFDFF8B50400250084352A7808009B
:103020000223012A18D0012126002970226888363F
:1030300022333360176813688B4313609368DB0097
:10304000D908014391602000FFF7A0FF23681F60AB
:103050002023336000232B701800F8BDF8B505005D
:1030600084352B7804000A000220012B18D026009A
:103070002423013828708836336023681F68196854
:103080008143196099680748014011432000996005
:10309000FFF77CFF236800201F6020233360287027
:1030A000F8BDC046FFFFFFF130B5EFF310840122F9
:1030B00082F310880168134D0B682B400B6084F37A
:1030C0001088EFF3108182F3108802680E4C936829
:1030D0002340936081F31088C36E012B0AD1EFF374
:1030E000108183F31088102402681368A3431360CF
:1030F00081F31088030020228C331A600023C366FA
:10310000436730BDDFFEFFFFFEFFFFEF70B5040039
:103110002569A168026829436569C3692943106864
:10312000534D194328400143116051685148256AA5
:103130000140E06801435160A169906829434E4D08
:10314000284001430F209160D16A8143606A0143A6
:10315000D1624A498A4217D10320802548492D026D
:103160004A6D0240013A022A00D979E04548805C64
:10317000AB4221D0082800D970E0FEF7E7F9736F61
:103180004E6F696F6F6F6C003F498A4205D03F49AF
:103190008A4202D03E498A4260D180221202934282
:1031A00060D1FFF7A9FD031E17D10020394BA3669C
:1031B00000236367A36770BD08284FD8FEF7BCF9EA
:1031C000F14E054E2A4E4E4E0D0009683248090652
:1031D000490F0131FEF7CEF90300626A2F49520010
:1031E000515A1800FEF7C6F9656840006B08C01810
:1031F0002900FEF7BFF90200294B103A9A422DD858
:103200000F23020000079A4393B2400F226818432D
:10321000D060CAE7FFF77AFCC5E709681E480906CF
:10322000490F0131FEF7A6F9636A1C4A5B00995AFF
:10323000FEF7A0F965686B08C0182900FEF79AF937
:103240000200174B103A9A4208D82368D860ACE7BE
:10325000FFF75CFC08E080200002E5E70120A5E71D
:10326000AB429ED0FFF748FD00289ED0DCE7C04669
:10327000F369FFCFFFCFFFFFFFF4FF1100380140DC
:103280000010024020570108004400400048004060
:10329000004C004001000100006CDC0224570108D2
:1032A000EFFF0000836A30B51A0706D50168284C85
:1032B0004A682240846B22434A60DA0706D50168D7
:1032C000244C4A682240C46A22434A609A0706D5C1
:1032D0000168214C4A682240046B22434A605A0725
:1032E00006D501681D4C4A682240446B22434A605F
:1032F000DA0606D501681A4C8A682240C46B22435C
:103300008A609A0606D50168164C8A682240046CC9
:1033100022438A605A0610D50168134D4A68446CEE
:103320002A4022434A6080225203944205D14A68CF
:103330000E4C2240846C22434A601B0606D502686C
:103340000B4953680B40C16C0B43536030BDC04602
:10335000FF7FFFFFFFFFFDFFFFFFFEFFFFFFFBFF04
:10336000FFEFFFFFFFDFFFFFFFFFEFFFFFFF9FFF0D
:10337000FFFFF7FFF7B504000D0017000093226868
:10338000D3692B405B1B59424B41BB4201D000200B
:1033900027E0089B0133F3D0FFF794FD009BC01A90
:1033A000089B98422ED8002B2CD0042123681A6841
:1033B0000A42E4D02A003C31403A8A43DFD0DA693D
:1033C000082611003140019132420BD020001E62CC
:1033D000FFF76AFE230090331E600023012084342F
:1033E0002370FEBD8022D96912011142C7D01A6232
:1033F0002000FFF759FE2300202290331A60019B22
:10340000843423700320ECE7F0B51600020085B089
:1034100088320393136804000D000220202B3AD158
:103420000138002937D0002E35D08023A1685B01F8
:10343000994204D12369002B01D105422BD12300ED
:1034400000219033196021231360FFF73BFD230017
:1034500054331E8002331E8002938023A26807002B
:1034600000265B019A4204D12369B34201D12E00A8
:103470001D00230056331B889AB2002B0DD1039BED
:103480002000009340213B00FFF774FF2023883485
:10349000236000280ED105B0F0BD039B00220093ED
:1034A00080213B002000FFF765FF002804D0202387
:1034B000883423600320EEE72268002D0BD1338887
:1034C0000236DB05DB0D9362029B029A1B88013BEF
:1034D0009BB21380CDE72B7801359362F4E70000AF
:1034E0000300F7B50027040090331F60FFF7EAFCE4
:1034F0002600236805001B6884361B071CD5802125
:10350000284B3A000093890303002000FFF732FFA5
:10351000B84211D0EFF31081012383F3108880208B
:10352000226813688343136081F310882023883452
:10353000236037700320FEBD270023688C371B688B
:103540005B0725D58021174B0022009320002B001C
:10355000C903FFF70FFF00281AD0EFF310800122F4
:1035600082F310882168104D0B682B400B6080F3AC
:103570001088EFF3108082F3108821688B689343E2
:103580008B6080F3108820233B6000233370D1E7E9
:10359000220000202023883213603B60E066206711
:1035A0003070C8E7FFFFFF01DFFEFFFF70B5041EAC
:1035B00001D1012070BD050088352B68002B04D196
:1035C000020084321370FEF703FD242301212268D8
:1035D0002B6013688B431360A36A002B02D020007A
:1035E000FFF760FE2000FFF791FD0128E1D023687E
:1035F00007495A6820000A402A215A609A688A437B
:103600009A60012219680A431A60FFF769FFD1E73F
:10361000FFB7FFFF524AF0B58218541EA2410023A3
:1036200087B0053202910592029A12681400DC40BC
:1036300001D107B0F0BD01249C40039403991440CC
:1036400001940A4200D189E0029A102452681500C0
:10365000A5430495022D10D10F27072539001D40E1
:10366000AD00A940DC08A4000419266A8E43029923
:1036700009690F40AF4037432762032421005D00F2
:10368000A9401440AC400668CF438E432643049CB7
:103690000660013C012C0ED802998668CC683E4039
:1036A000AC4034438460D406E40F9C4046680399E0
:1036B0008E4334434460032A50D0C46802993C408E
:1036C0008F68AF402743C760D10047D503271E004E
:1036D0003E40BE400F24B44022499D08AD006D1805
:1036E000296EA1430391A0210024C90588420CD072
:1036F0001D490134884208D01C490134884204D055
:103700001B493C00884200D0059CB44003990C43FF
:1037100001992C660E00174CCD43E76F3E43D10351
:1037200001D43E002E40E667134E019FF46F2743FD
:10373000910301D42C4027000A4CF7672768019EAB
:103740003E43D10201D43E002E4026606668019FB0
:103750003743920201D42E4037006760013363E79C
:1037600000ECFFAF001802400004005000080050B9
:10377000000C00500418024008180240002A01D032
:10378000816170478162FCE7426913000B401B04B2
:103790009143194381617047224A10B503689042F2
:1037A00006D08024E405A04202D01F4CA0420CD1D8
:1037B0007024A3434C682343904212D08024E40534
:1037C000A0420ED0184CA0420BD0184CA04208D0FA
:1037D000174CA04205D0174CA04202D0164CA04274
:1037E00003D1164C2340CC6823438024A3434C6967
:1037F00023438C68C4620C688462904208D00C4AEF
:10380000904205D00B4A904202D00B4A904201D11F
:103810000A690263042201680A43026001224261CC
:10382000036010BD002C0140000400400020004057
:10383000004001400044014000480140FFFCFFFF00
:1038400070B504000120002C23D025003D352B78D5
:10385000DAB2002B05D123003C3320001A70FEF7AA
:1038600005FC02232B702068211DFFF795FF220025
:10387000012300204832137047340A3A1370537002
:103880009370D370137153719371D371137223704A
:103890002B7070BD302313B50B4369460B706B461C
:1038A00004004A700021D81C05229970FEF736F8F2
:1038B000082269462068FEF73DF813BDF0B50E00FA
:1038C000040011001D00A3B0002807D13248FEF704
:1038D0002DF801256D42280023B0F0BD0389AB42CD
:1038E0000AD22E48FEF722F82A0023892C4902A882
:1038F00000F0F0FD0325EDE7431C0193DB7F012B76
:1039000004D12848FEF712F80225E3E70027458195
:103910002A008781406800F05BFA65890F206168A2
:10392000072D15D802AB28402A001870581C00F04B
:103930004FFA072202AB0133521B58193900FDF729
:10394000EDFF0822300002A9FDF7F4FF0500C2E7F1
:1039500002AB5D702D0A0540102005431D70062244
:10396000981C00F035FA0822300002A9FDF7E2FFAA
:10397000051EB0D10126A389A6730633A381206159
:10398000FDF7EEFF6061FDF7EBFF019B6430A06186
:10399000E561DE779FE7C0463C5701084A570108BA
:1039A0009B570108C857010810B513000A000168A9
:1039B000FFF784FF10BD0000F0B5931E0400150052
:1039C00085B0062B31D802A800F002FA082202AB1B
:1039D000E8180021521BFDF7A1FF02AB1B78180964
:1039E0003F2B22D8FDF7B2FD02235FAD27003C3705
:1039F0003B78012B0DD00023A36302AB1E78330765
:103A000003D03607360FB54206D86E48FDF78EFF55
:103A10000BE006235B42EFE702AB591C3200A06AC1
:103A200000F0D6F90223E6853B7005B0F0BD270013
:103A30003C373B78012B05D00023A363082D04D02D
:103A40006148E3E706235B42F7E702AB1E785B7849
:103A50003607360DF6185D48072ED7D9A38DB34229
:103A60000CD25B48FDF762FF0823002202215B4273
:103A7000A3633A702000FFF70DFFD6E702AB991C55
:103A80000622A06A00F0A4F90123E6853B70514BA1
:103A90002A00002120002363FFF7FCFEFDF760FFF2
:103AA00064306063C1E723003C3301931B78012B32
:103AB00003D006235B42A363B7E7270002AB1B7862
:103AC00032373A781B071B0F9A422ED1208EE38D96
:103AD0001B1A9BB21E1C072B00D90726B6B2B54293
:103AE00001DC3D4892E7A36A3200181802AB591C6A
:103AF00000F06EF9238EF61826863B780133DBB290
:103B00000F2B00D900233B70FDF72AFF228EE38D97
:103B1000643060639A420FD223003333197801393D
:103B2000C9B200290AD019707FE704235B42A3635E
:103B30000023019A137078E70223FAE708221A702B
:103B400098E7671CFE7F012E00D06EE7022D0ED095
:103B5000FDF706FF0F2202AB1B786430A061134013
:103B6000022B06D108225242E261FB775DE71B4837
:103B70004CE7012B0BD1E37C0133DBB2E374012B67
:103B800000D852E707235B42E3610933EDE7002BDE
:103B900000D04AE702AB5B78002B10D09BB22382A7
:103BA00002AB9B781A000F32D2B2082A03D95EB258
:103BB000F643F6171E400023A674E37435E7084B5E
:103BC000EDE7C046FB5701081A58010843580108A1
:103BD0006F58010806000108A4580108C1580108DF
:103BE000FFFF0000F8B5040026003C361D003378C6
:103BF0000800022B0CD1E38D1F1C934200D9171C27
:103C0000A16ABAB200F0E4F800202F803070F8BD4D
:103C100005204042FBE7F7B504000E0015000093B5
:103C200008AB04CB00210192083038221F88FDF731
:103C300075FE009B26602381019B6560A785A362BA
:103C4000F7BD000073B5461CF37F0400012B1DD1A6
:103C5000038A002B10D0837C002B08D16389072BAB
:103C600024D87521354B364A364800F06FF845693F
:103C7000FDF776FE2D1AF1D4A569FDF771FE2D1A18
:103C800004D502235B42E3610433F37726003C361C
:103C90003378012B09D1656BFDF762FE2D1A04D52F
:103CA00003235B42A3630023337073BD0F21A27B08
:103CB000114020220A4369460A70A1895B1A9BB20F
:103CC0001D1C072B00D907256368ADB259186B4638
:103CD0002A00581C00F07CF86B46072201330021B3
:103CE000521B5819FDF71AFE082269462068FDF795
:103CF00021FE00281ED1A389ED18A37BA5810133E5
:103D0000DBB20F2B18D9A073238A0F4A934201D03C
:103D1000013B2382FDF724FE6430A061FDF720FE05
:103D2000A37CA2891B18636163899A42A4D30023F0
:103D3000F377A1E70223FBE7A373E5E7DF58010868
:103D400043590108F3580108FFFF000030B5140083
:103D50001A00094B05001B6885B0D868074B002C7A
:103D600001D1074B1C00019300912B0005490294DF
:103D700000F010F800F09CFC000000204F5D0108EE
:103D8000C75701085C5D0108014B18687047C046C1
:103D9000000000200EB403B5010003AB044804CBBF
:103DA0000068019300F044F802B008BC03B0184763
:103DB0000000002030B500240139A24201D10020CA
:103DC00005E0035D01340D5DAB42F6D0581B30BDFC
:103DD000002310B59A4200D110BDCC5CC45401330D
:103DE000F8E7936810B5013B9360002B04DA9469FF
:103DF000A34207DB0A2905D01368581C106019700C
:103E0000080010BD00F086FB0100F9E7F8B50600D8
:103E10000F001400D518AC4201D1002007E0217832
:103E20003A003000FFF7DDFF0134431CF3D1F8BD49
:103E3000F0B5A1B006000C001F000392002804D0CA
:103E40008369002B01D100F069FD8E4B9C421CD18F
:103E50007468636EDB0705D4A3899B0502D4A06D4B
:103E600000F0FDFDA3891B0702D52369002B1DD19E
:103E70002100300000F0A4FB002817D0636EDB07A0
:103E80000DD50120404221B0F0BD7F4B9C4201D1B5
:103E9000B468DEE77D4B9C42DBD1F468D9E7A389A7
:103EA0009B05EED4A06D00F0DBFDEAE7002308AD32
:103EB0006B6120336B761033AB760797039F3B78AB
:103EC000002B01D0252B4ED1039BFB1A0593039B9E
:103ED0009F420DD0059B21003000039AFFF796FF0B
:103EE000431C00D1B5E06A69059B944663446B614D
:103EF0003B78002B00D1ACE001227B1C0393002314
:103F000052426A6004A9543252182B60EB60AB60D5
:103F10001370AB65039B052219785D4800F00EFE17
:103F2000039B5F1C002820D12A68D30604D55323A5
:103F300004A95B1820211970130704D5532304A981
:103F40005B182B211970039B1B782A2B16D000219C
:103F5000EB68039F3A78781C303A8446092A4FD997
:103F6000002911D117E00137A9E7494B2A68C01A87
:103F70000123834013432B600397CBE7079B191D55
:103F80001B680791002B01DB0B9304E05B42EB60A5
:103F9000022313432B603B782E2B0AD17B782A2BEC
:103FA00037D1079B02371A1D1B680792002B2DDBA8
:103FB000099303223978374800F0C0FD002807D064
:103FC000344B2A68C01A40238340134301372B60C7
:103FD00039787B1C062230480393297600F0AEFD29
:103FE000002845D02D4B002B27D10722079B0733F4
:103FF0009343083307936B69049A9B186B615DE7E1
:104000000A214B4367469B180939A3E701235B420A
:10401000CEE700231A0001376B603978781C3039FD
:104020008446092903D9002BC3D00992C1E70A238A
:104030005A4367465218093BEFE707AB009322004B
:1040400029003000164B00E000BF0490049B0133B0
:10405000D1D1636EDB0705D4A3899B0502D4A06D83
:1040600000F0FEFCA3895B0600D50AE70D980AE77D
:1040700007AB0093220029003000094B00F082F8C2
:10408000E3E7C046E05D0108005E0108C05D01088D
:104090008B5D0108915D0108955D0108000000003D
:1040A0000D3E0108F7B5150001938A680B690C00F5
:1040B0000090934200DA130022002B604332127802
:1040C000002A01D001332B6023689B0602D52B68A0
:1040D00002332B602268062317001F401A4227D0A4
:1040E000230043331B785A1E93412268920630D432
:1040F000220001990098089E4332B047431C25D006
:10410000062320682A68E16800250340042B03D1B8
:104110008D1AEB43DB171D40A3682269934201DD32
:104120009B1AED180027BD4220D1002010E0013776
:10413000E3682A689B1ABB42D2DD22000123019961
:104140000098089E1932B047431CF0D1012040422C
:10415000FEBD3020E1184331087021005A1C453162
:104160000978A218433202331170C1E722000123FB
:1041700001990098089E1A32B047431CE6D00137D7
:10418000D1E70000F0B58BB006920A0043320793E6
:10419000059004920A7E0C00109B782A07D8622AA8
:1041A00009D8002A00D1C1E0582A00D18CE02600AD
:1041B0004236327022E0100063381528F7D8FDF738
:1041C000CFF916001F00F6FFF6FFF6FFF6FF1F00FF
:1041D000F6FFF6FFF6FFF6FFA80036009A00F6FF9E
:1041E000F6FFB900F6FF3600F6FFF6FF9E00260048
:1041F0001A684236111D1960136833700123A7E055
:10420000086819680A1D05060BD50D681A60002D8F
:1042100003DA2D23049A6D421370614B0A2703932E
:104220001BE00D681A604106F1D52DB2EFE70D686D
:104230001968081D18602E0601D50D6803E06D068B
:10424000FBD50D68ADB2564B082703936F2A00D0FB
:1042500002372300002243331A706368A360002BE7
:1042600003DB0422216891432160002D02D1049ECA
:10427000002B0CD0049E28003900FDF701FA039BA7
:10428000013E5B5C33702B0005009F42F3D9082F81
:1042900009D12368DB0706D563682269934202DCF3
:1042A0003023013E3370049B9B1B2361079B21003D
:1042B00000930598069B09AAFFF7F4FE431C4CD116
:1042C000012040420BB0F0BD45310A70344A0392E0
:1042D0001A68216820CA1A60080616D5CB0702D5CD
:1042E0002023194321601027002DB2D120232268FA
:1042F0009A432260ADE7202209680A432260220027
:10430000782145321170274AE1E74806E6D5ADB27B
:10431000E4E71A680D68101D4969186013682E06D5
:1043200001D5196002E06D06FBD519800023049EBB
:104330002361BBE71A68111D19601668002130005F
:10434000626800F0FBFB002801D0801B606063689E
:1043500023610023049A1370A8E7236932000699A9
:104360000598079DA847431CAAD023689B0715D42E
:10437000099BE0689842A5DA1800A3E72200012310
:1043800006990598079E1932B047431C98D001350D
:10439000E368099A9B1AAB42F0DCE9E70025F7E7EE
:1043A0009C5D0108AD5D01080FB40B4B13B51C6893
:1043B000002C05D0A369002B02D1200000F0AEFA3A
:1043C00005AB2000049AA1680193FFF731FD16BCEC
:1043D00008BC04B01847C0460000002070B50500B6
:1043E0000E00002804D08369002B01D100F096FA5A
:1043F000AB69AC68002B02D1280000F08FFA2D4B7E
:104400009C4222D16C68636EDB0705D4A3899B05AF
:1044100002D4A06D00F023FBA3891B0702D52369FA
:10442000002B29D12100280000F0CAF8002823D051
:1044300001256D42636EDB0705D4A3899B0502D479
:10444000A06D00F00DFB280070BD1B4B9C4201D1FC
:10445000AC68D8E7194B9C42D5D1EC68D3E701365C
:10446000A360002B04DAA2699A4216DC0A2914D050
:1044700023685A1C22601970A3683178013B002917
:10448000EDD1A360002B0FDA280022000A3100F0E2
:1044900041F80A25431CCDD1CAE72200280000F0CC
:1044A00039F8431CE8D1C3E70A2523685A1C226067
:1044B0001D70BFE7E05D0108005E0108C05D0108F6
:1044C00010B5034B01001868FFF788FF10BDC04608
:1044D000000000200EB400B50B499CB01DAB02904B
:1044E0000690079104910948094904CB0591006899
:1044F00002A9019300F0B4FC0023029A13701CB0CF
:1045000008BC03B01847C046FFFFFF7F0000002033
:104510000802FFFFF8B505000E001400002804D0C3
:104520008369002B01D100F0F9F9224B9C422ED176
:104530006C68A369A360A3891B0732D52369002B8C
:104540002FD023682269F7B2981A6369F6B28342C2
:1045500005DC2100280000F03FF9002827D1A368DE
:104560000130013BA36023685A1C22601F706369FD
:10457000834204D0A389DB0707D50A2E05D1210089
:10458000280000F029F9002811D13000F8BD0A4BAD
:104590009C4201D1AC68CCE7084B9C42C9D1EC6885
:1045A000C7E72100280000F00BF80028C9D0012639
:1045B0007642EAE7E05D0108005E0108C05D01089F
:1045C000374B70B51D6806000C00002D05D0AB6997
:1045D000002B02D1280000F0A1F9324B9C420FD1F0
:1045E0006C680C23E25E93B211072DD4D90611D466
:1045F00009230120336037331343A381404270BD48
:10460000294B9C4201D1AC68EBE7284B9C42E8D196
:10461000EC68E6E75B0713D5616B002908D023003F
:104620004433994202D0300000F0A6FA00236363BD
:104630002422A3899343A381002363602369236019
:104640000823A2891343A3812369002B0BD1A02146
:104650008022A389890092000B40934203D021005D
:10466000300000F027FA0C22A35E01201A0099B254
:10467000024003420FD00022A26062695242A2614E
:10468000002022698242BAD10A06B8D540221343DB
:10469000A3810138B3E7880700D46269A260EFE71D
:1046A00000000020E05D0108005E0108C05D010817
:1046B000062010B500F010FD0120FDF7FDFC000004
:1046C000F7B58B8905000C001A075FD44A68002AE9
:1046D00004DC0A6C002A01DC0020FEBDE76A002F22
:1046E000FAD0002280212E682A601A0049010A406F
:1046F0000B4234D0606DA3895B0706D56368C01A8E
:10470000636B002B01D0236CC01A0200216A0023C6
:104710002800E76AB847A189431C06D12B681D2BE6
:1047200031D82C4ADA40D3072DD5002363602369A2
:104730002360CB0405D5431C02D12B68002B00D18C
:104740006065616B2E600029C6D023004433994216
:1047500002D0280000F010FA00206063BDE70123BA
:104760002800216AB847431CC5D12B68002BC2D052
:104770001D2B01D0162B01D12E60ADE74023A2895D
:104780001343A381A9E740230B43FAE70F69002FE6
:10479000A2D00A680F60D21B019200229B0700D1B1
:1047A0004A69A260019B002B00DC95E73A002800D3
:1047B000019B216AA66AB047002806DC402301203D
:1047C000A28940421343A38187E7019B3F181B1A2C
:1047D0000193E7E7010040200B6970B505000C006C
:1047E000002B02D10025280070BD002804D0836969
:1047F000002B01D100F092F8144B9C421BD16C6845
:104800000C22A35E002BEDD0626ED20704D49B0570
:1048100002D4A06D00F023F928002100FFF750FF1B
:10482000636E0500DB07DED4A3899B05DBD4A06D96
:1048300000F016F9D7E7064B9C4201D1AC68DFE7E0
:10484000044B9C42DCD1EC68DAE7C046E05D01082D
:10485000005E0108C05D0108002310B5040003607C
:1048600043608360818143661900C28103614361B3
:10487000836108225C30FDF751F8054B24626362C6
:10488000044BA362044BE362044B236310BDC04698
:10489000195101084151010879510108A551010838
:1048A00010B5024900F0BAF810BDC046D94701085A
:1048B00070B568254A1E55430E002900743100F07A
:1048C000C7F9041E08D000212A00016046600C30A0
:1048D000A0606832FDF722F8200070BD10B50248D4
:1048E00000F0BDF810BDC0461906002010B5024802
:1048F00000F0B6F810BDC0461906002010B50248F9
:1049000000F0ADF810BDC0461A06002010B50248F0
:1049100000F0A6F810BDC0461A06002013B504002A
:10492000FFF7ECFFA369002B02D0FFF7EFFF13BDE9
:10493000A364E3642365134B134A1B68A2620193CB
:10494000A34201D10123A361200000F01FF86060A1
:10495000200000F01BF8A060200000F017F80022F3
:104960000421E0606068FFF777FF01220921A06859
:10497000FFF772FF02221221E068FFF76DFF0123AB
:10498000A361D2E7A4550108A1480108F8B50700C2
:10499000FFF7A4FF1F4B1E68B369002B02D1300044
:1049A000FFF7BCFF4836B4687368013B04D5336831
:1049B000002B22D03668F6E70C22A55E002D1AD116
:1049C0002000154B5830E360656600F047F8FFF7AC
:1049D0008DFF2000082229002560A5606560256103
:1049E0006561A5615C30FCF799FF6563A563A5640B
:1049F000E5642000F8BD6834D7E704213800FFF7EC
:104A000057FF041E3060D5D1FFF770FF0C233B60C9
:104A1000EFE7C046A45501080100FFFFF7B5040009
:104A200006000027019148346368A5680093009B45
:104A3000013B009304D52468002CF5D13800FEBD5D
:104A4000AB89012B08D90E22AB5E013304D02900BB
:104A50003000019B984707436835E8E77047704787
:104A60007047000070B50E001D000E23C95E1400D3
:104A700096B0002908DA0C22B35E00222A601B06D9
:104A800011D48023DB000FE06A4600F0B7FB00285A
:104A9000F1DBF02301991B021940054BC9184B4269
:104AA00059412960EDE740230020236016B070BD16
:104AB00000E0FFFFF7B502268B8905000C003342AA
:104AC00006D0230047332360236101236361F7BDD0
:104AD0006A4601ABFFF7C6FF00990700280000F007
:104AE000B7F8002808D10C22A35E9A05EFD4032260
:104AF00093431E43A681E4E70F4BAB628023A28958
:104B000020601343A381009B20616361019B002B04
:104B10000DD028000E23E15E00F082FB002806D0B5
:104B20000322A38993431A0001231343A381A0897D
:104B30000743A781CBE7C046A1480108C9B2821844
:104B4000904201D10020704703788B42FBD00130A6
:104B5000F6E710B5884202D98B18984203D3002398
:104B600007E08B5C8354013AFBD210BDCC5CC4548B
:104B700001339A42FAD1F8E770B50500002910D048
:104B80000C1F2368002B00DAE418280000F06EFBED
:104B90001D4A1368002B05D163601460280000F0E3
:104BA0006DFB70BDA34208D9216860188342F3D120
:104BB00018685B6841182160EEE71A005B68002BFB
:104BC00001D0A342F9D911685018A0420BD1206836
:104BD0000918501811608342E0D118685B684118C9
:104BE00011605360DAE7A04202D90C232B60D5E7AD
:104BF00021686018834203D118685B6841182160FE
:104C000063605460CAE7C0461C06002070B50F4EB2
:104C10000D0031680400002902D100F021FA306053
:104C20002900200000F01CFA431C0AD00323C51CF5
:104C30009D43A84207D0291A200000F011FA431C16
:104C400001D101256D42280070BDC046200600201C
:104C5000F7B50322CB1C9343083306001F000C2B2F
:104C600032D20C27B94231D8300000F0FFFA324D71
:104C70002B681C00002C2ED139003000FFF7C6FF36
:104C80000400431C1ED12C682500002D4AD1236846
:104C90002900E3183000019300F0E2F9019B834200
:104CA00043D123680337FF1A03239F4308370C2F90
:104CB00000D20C2739003000FFF7A8FF431C34D086
:104CC0002368DF19276013E0002BCBDA0C230025C3
:104CD00033602800FEBD2268D11B20D40B2917D9D0
:104CE000E2192760A34211D12A6063681160536002
:104CF0003000250000F0C2FA07220B35231D954332
:104D0000EA1A9D42E5D05B1BA350E2E75A60ECE74C
:104D10006268A34201D12A60EAE75A60E8E723000B
:104D20006468A7E72C006D68AFE70C2330003360A0
:104D300000F0A4FACDE7C0461C060020F7B5070036
:104D40000E001400002905D11100FFF781FF0500B6
:104D50002800FEBD002A03D1FFF70EFF2500F7E76C
:104D600000F094FA0190844203D835004308A3422E
:104D7000EED321003800FFF76BFF051EE8D0019B42
:104D800022009C4200D91A0031002800FFF720F8C9
:104D900031003800FFF7F0FEDAE70000F0B58E686A
:104DA00085B007000C00039201939E423CD89023EB
:104DB0008A89DB001A4234D00969236860695B1A6A
:104DC000029303234343DD0FED18019B0298013347
:104DD0001B186D10AB4200D91D00530532D52900B8
:104DE0003800FFF735FF061E09D10C233B60402336
:104DF0000120A28940421343A38105B0F0BD029A6D
:104E00002169FEF7E5FFA389144A1A408023134362
:104E1000A381029B2661F61826606561019EED1A4A
:104E2000A560019B9E4200D9019E32000399206833
:104E3000FFF78FFEA36800209B1BA36023689E19C9
:104E40002660DAE72A003800FFF778FF061EE0D177
:104E500038002169FFF790FEC7E7C0467FFBFFFFE0
:104E6000F0B5A1B003901D008B890F0016001B0642
:104E700011D50B69002B0ED14021FFF7E9FE3860F8
:104E80003861002805D10C23039A0138136021B042
:104E9000F0BD40237B61002308AC6361203363765F
:104EA0001033A376079535002B78002B01D0252BE6
:104EB00047D1AB1B0593B5420CD0320039000398A3
:104EC000FFF76CFF431C00D1AEE06269059B94467E
:104ED000634463612B78002B00D1A5E001220023FD
:104EE0005242626004A9543252186E1C2360E3607F
:104EF000A3601370A365052231785448FFF71EFEA6
:104F0000751C00281FD12268D30604D5532304A999
:104F10005B1820211970130704D5532304A95B18CB
:104F20002B21197033782A2B16D0350000210A2046
:104F3000E3682A786E1C303A092A4ED9002911D12B
:104F400017E00135B0E7414B2268C01A01238340C6
:104F500013432E002360CEE7079B191D1B680791A2
:104F6000002B01DB0B9304E05B42E360022313435D
:104F700023602B782E2B0AD16B782A2B35D1079BF7
:104F800002351A1D1B680792002B2BDB0993304E4C
:104F9000032230002978FFF7D1FD002806D04023F6
:104FA000801B834022680135134323602978062241
:104FB00028486E1C2176FFF7C1FD00283CD0264B07
:104FC000002B25D10722079B073393430833079310
:104FD0006369049A9B18636165E7434335000121C7
:104FE0009B18A6E701235B42D0E700230A201A00A2
:104FF0000135636029786E1C3039092903D9002BEB
:10500000C5D00992C3E74243350001235218F1E7A6
:1050100007AB00933A002100104B039800E000BF5B
:105020000490049B0133D3D1BB890D985B0600D457
:105030002DE7012040422AE707AB00933A00210008
:10504000064B0398FFF79EF8EAE7C0468B5D010820
:10505000915D0108955D0108000000009D4D01086B
:10506000002370B5064D040008002B60FDF750F8D2
:10507000431C03D12B68002B00D0236070BDC046B9
:105080002406002070B504000D001F2904D9162342
:1050900003600120404270BD436C002B04D08A00A5
:1050A0009B181A68002A08D1200000F031F82A0065
:1050B0000100200000F01AF8EDE70020012AEAD0F4
:1050C000511C03D1162301302360E4E7002428009B
:1050D0001C6090472000DEE710B5034B0100186804
:1050E000FFF7D0FF10BDC04600000020002370B5C0
:1050F000064D0400080011002B60FCF7D5FF431C8F
:1051000003D12B68002B00D0236070BD2406002043
:1051100010B5FCF7C7FF10BD70B50C000E25495F38
:1051200000F0BCF8002803DB636D1B18636570BDDD
:10513000A389024A1340A381F9E7C046FFEFFFFFAE
:10514000F8B51F008B8905000C001600DB0505D59E
:105150000E23C95E0022022300F074F8A389054AD9
:1051600028001340A38132000E23E15E3B0000F0D3
:105170001FF8F8BDFFEFFFFF70B50C000E25495F6B
:1051800000F060F8A389421C03D1054A1340A381B3
:1051900070BD802252011343A3816065F8E7C046C9
:1051A000FFEFFFFF10B50E23C95E00F015F810BD2C
:1051B00070B50400080011001A000023054D2B6093
:1051C000FCF78DFF431C03D12B68002B00D023601C
:1051D00070BDC04624060020002370B5064D0400B3
:1051E00008002B60FCF788FF431C03D12B68002BC1
:1051F00000D0236070BDC04624060020002370B597
:10520000064D0400080011002B60FCF778FF431CDA
:1052100003D12B68002B00D0236070BD2406002032
:10522000002370B5064D040008002B60FCF76CFFEE
:10523000431C03D12B68002B00D0236070BDC046F7
:105240002406002070B50400080011001A00002395
:10525000054D2B60FCF75AFF431C03D12B68002B34
:1052600000D0236070BDC0462406002010B502485F
:10527000FFF7F5FB10BDC0461806002010B5024828
:10528000FFF7EEFB10BDC046180600200B1F1B6881
:10529000181F002B01DA0B58C018704770B50400B6
:1052A000080011001A000023054D2B60FCF70AFFCF
:1052B000431C03D12B68002B00D0236070BDC04677
:1052C00024060020F8B5C046F8BC08BC9E467047CE
:0C52D000F8B5C046F8BC08BC9E4670470C
:1052DC006162735F74696D5F617373657274006191
:1052EC0062735F74696D5F6765745F63626B0061A5
:1052FC0062735F74696D5F785F696E697400616277
:10530C00735F74696D5F6765745F6F76665F636FFB
:10531C00756E74006162735F74696D5F785F6F7630
:10532C0066007564735F785F6E65675F7265737036
:10533C00007564735F785F636865636B5F616C6C49
:10534C006F7765645F696E5F736573730075647303
:10535C005F785F7472616E736665725F64617461AD
:10536C00007564735F785F68616E646C657200755C
:10537C0064735F785F726F7574696E655F63747266
:10538C006C5F68616E646C6572007564735F785FE6
:10539C00646961675F73657373007564735F785FCD
:1053AC00646961675F736573735F636865636B00E2
:1053BC007564735F785F6563755F726573657400A0
:1053CC007564735F785F73656375726974795F6117
:1053DC006363657373007564735F785F736563757E
:1053EC00726974795F6163636573735F7365656418
:1053FC00007564735F785F73656375726974795F48
:10540C006163636573735F6B6579007564735F7853
:10541C005F726F7574696E655F6374726C0075642E
:10542C00735F785F77726974655F646174615F62E2
:10543C00795F6964007564735F785F726F75746906
:10544C006E655F646F776E007564735F785F696E0D
:10545C006974007564735F785F6765745F63666712
:10546C005F707472007564735F785F7075745F70D1
:10547C0061636B65745F696E007564735F785F67F9
:10548C0065745F646961675F7365737300756473DA
:10549C005F785F6765745F73656375726974795F54
:1054AC006C6576656C007564735F785F706F735FA5
:1054BC00646961675F73657373007564735F785FAC
:1054CC00706F735F7465737465725F70726573650A
:1054DC006E74007564735F785F706F735F6563756E
:1054EC005F7265736574007564735F785F706F735A
:1054FC005F7365635F6163635F73656564007564A7
:10550C00735F785F706F735F7365635F6163635F15
:10551C006B6579007564735F785F706F735F726F22
:10552C007574696E655F6374726C007564735F7813
:10553C005F706F735F77726974655F646174615FCC
:10554C0062795F6964007564735F785F706F735F15
:10555C00726F7574696E655F646F776E6C6F616482
:10556C00007564735F785F706F735F7265715F74E1
:10557C0072616E736665725F6578697400756473C9
:10558C005F785F706F735F7472616E736665725F64
:10559C006461746100000000040000204170706CB4
:1055AC0069636174696F6E207374617274656400F1
:1055BC00736565645F70747220213D204E554C4CB0
:1055CC0000433A2F55736572732F6D65686D657462
:1055DC002E61736C616E2F4465736B746F702F61E9
:1055EC002F7564735F626F6F746C6F616465725F4B
:1055FC007365727665722F6170706C696361746922
:10560C006F6E2F7564735F636F6E6669672E6300D0
:10561C006B65795F70747220213D204E554C4C00A7
:10562C00736565645F73697A65203E2030006B6535
:10563C00795F73697A65203E203000736565645F1D
:10564C0073697A65203D3D206B65795F73697A6576
:10565C00006C6576656C3A25640A00726573657436
:10566C003A25640A00736573733A25640A007564FD
:10567C00735F7365635F6163635F6765745F7365B5
:10568C006564007564735F7365635F6163635F6317
:10569C00616C6300000000000000000000000000CE
:1056AC0000000000000000000000000000000000EE
:1056BC0000000000010000000200000003000000D8
:1056CC0004000000060000000700000008000000B5
:1056DC0009000000000000000000000000000000B5
:1056EC0000000000010000000200000003000000A8
:1056FC00040000000001020304050607080C101446
:10570C0018203040080402040801010101010103C2
:10571C00070100000402080001000200040006005A
:10572C0008000A000C00100020004000800000015E
:10573C004C696E6B206973206E756C6C21004D6525
:10574C0073736167652073697A6520746F6F206C61
:10575C00617267652E20496E6372656173652049BD
:10576C00534F5F54505F4D41585F4D455353414724
:10577C00455F53495A4520746F207365742061202E
:10578C006C6172676572206275666665720A0041AB
:10579C007474656D7074656420746F2073656E64C9
:1057AC002025642062797465733B206D61782073C9
:1057BC00697A65206973202564210A0041626F7241
:1057CC00742070726576696F7573206D6573736183
:1057DC0067652C207472616E736D697373696F6E7B
:1057EC0020696E2070726F67726573732E0A005396
:1057FC00696E676C652D6672616D65206C656E6790
:10580C00746820746F6F20736D616C6C2E00466928
:10581C00727374206672616D652073686F756C6449
:10582C00206265203820627974657320696E206C63
:10583C00656E6774682E0053686F756C64206E6FAC
:10584C007420757365206D756C7469706C65206659
:10585C0072616D65207472616E736D697373696FBB
:10586C006E2E004D756C74692D6672616D652072BB
:10587C006573706F6E736520746F6F206C617267E7
:10588C006520666F7220726563656976696E672044
:10589C006275666665722E00436F6E736563757410
:1058AC00697665206672616D6520746F6F20736810
:1058BC006F72742E00466C6F7720636F6E74726F0C
:1058CC006C206672616D6520746F6F2073686F72E7
:1058DC00742E006C696E6B2D3E73656E645F73691C
:1058EC007A65203E203700433A2F55736572732F2B
:1058FC006D65686D65742E61736C616E2F44657394
:10590C006B746F702F612F7564735F626F6F746C43
:10591C006F616465725F7365727665722F6170700A
:10592C006C69636174696F6E2F69736F74702F6922
:10593C00736F74702E630069736F74705F73656E30
:10594C00645F636F6E73656375746976655F6672A9
:10595C00616D65002F686F6D652F7431352F75641F
:10596C00735F6C6962726172792F7372632F6162FB
:10597C00735F74696D2E630068616E646C655F7033
:10598C0074722D3E69735F696E6974203D3D20749D
:10599C007275650068616E646C655F7074722D3E23
:1059AC006366675F70747220213D204E554C4C002D
:1059BC0068616E646C655F7074722D3E6366675FC0
:1059CC007074722D3E6765745F66756E635F70747C
:1059DC007220213D204E554C4C0066616C73650065
:1059EC006366675F7074722D3E68775F747970655B
:1059FC0020213D204142535F54494D5F48575F542D
:105A0C00494D5F305F424954006366675F70747242
:105A1C002D3E68775F74797065203C204142535F5E
:105A2C0054494D5F48575F54494D5F434F554E5451
:105A3C00002F686F6D652F7431352F7564735F6C33
:105A4C006962726172792F7372632F7564732E633E
:105A5C000068616E646C655F7074722D3E6366677E
:105A6C005F7074722D3E74785F70747220213D20CB
:105A7C004E554C4C0068616E646C655F7074722D91
:105A8C003E6366675F7074722D3E69736F5F7470EE
:105A9C005F73656E645F66756E635F7074722021F0
:105AAC003D204E554C4C0068616E646C655F7074A3
:105ABC00722D3E6366675F7074722D3E69736F5F03
:105ACC0074705F68616E646C655F70747220213DE8
