:020000040800F2
:10000000FC7700203D4F0008AD4E0008B14E0008BF
:1000100000000000000000000000000000000000E0
:10002000000000000000000000000000B54E0008C5
:100030000000000000000000B94E0008954E0008C6
:10004000BD4E000800000000C14E0008C54E00086B
:10005000C94E0008CD4E0008D14E0008D54E00080C
:1000600000000000D94E0008DD4E0008E14E0008F7
:10007000E54E0008E94E0008ED4E0008F14E00087C
:10008000F54E00080000000000000000F94E0008D6
:10009000114F0008154F0008194F00081D4F0008A8
:1000A000214F0008254F0008294F00082D4F000858
:1000B000314F0008354F00089D4E0008394F0008A9
:1000C00080B582B000AF78607B68002B05D1144BFF
:1000D000144A1548082107F039F97B681B7E012B6B
:1000E00005D0124B0F4A1048092107F02FF97B6801
:1000F0001B68002B05D10E4B0A4A0B480A2107F05A
:1001000025F97B681B681B68002B05D1094B054A44
:1001100005480B2107F01AF9C046BD4602B080BD64
:10012000F0880008388A0008048900082889000837
:10013000448900086089000880B584B000AF786009
:1001400000220023BA60FB607B681800FFF7B8FF4D
:100150007B681B681B79042B21DC032B16DA012B2F
:1001600002D0022B09D01AE07B681B681B689847F5
:100170000300BB600023FB6017E07B681B681B6803
:1001800098470300BB600023FB600EE07B681B68A0
:100190001B6898470300BB600023FB6005E0064B2B
:1001A000064A0748202107F0D1F8BA68FB6810001A
:1001B0001900BD4604B080BD8C890008288A00085B
:1001C00004890008F0B58DB000AF786200220023EA
:1001D000BA62FB627B6A1800FFF772FF7B6A1B68DA
:1001E0001B79042B52D000DD72E0032B36D000DDEA
:1001F0006EE0012B02D0022B18D069E07B6A1869EF
:10020000596902000B00140E1D02FD61FD692543B2
:10021000FD611302BB61BA69FB69121A8B41B86AAE
:10022000F96A12184B41BA62FB6257E07B6A18699F
:10023000596902000B00140C1D047D617D69254382
:100240007D6113043B613A697B69121A8B41B86A7C
:10025000F96A12184B41BA62FB623FE07B6A186987
:10026000596902000B00140A1D06FD60FD68254354
:10027000FD601306BB60BA68FB68121A8B41B86A4E
:10028000F96A12184B41BA62FB6227E07B6A18696F
:100290005969B861F96102000B00160C1904796004
:1002A00079683143796013043B603A687B68B869C8
:1002B000F969121A8B41110C1D040D431404121913
:1002C0006B41B86AF96A12184B41BA62FB6205E0E9
:1002D0000A4B0B4A0B483B2107F038F87B6A1A6936
:1002E0005B69B86AF96A12184B41BA62FB62BA6A72
:1002F000FB6A10001900BD460DB0F0BD8C890008E6
:10030000488A00080489000880B582B000AF786090
:1003100039607B68002B05D1254B264A26484821A9
:1003200007F014F83B68002B05D1244B214A2248E2
:10033000492107F00BF83B681B68002B05D1204BC7
:100340001C4A1D484A2107F001F83B681B79002B25
:1003500005D11C4B174A18484B2106F0F7FF3B68A4
:100360001B79042B05D9184B124A13484C2106F06F
:10037000EDFF7B6820220021180004F087FB7B68DA
:100380003A681A607968002200230A614B617B6831
:1003900001221A767B681800FFF7CEFE02000B00E0
:1003A00079688A60CB60C046BD4602B080BDC04659
:1003B000F0880008188A0008048900089489000859
:1003C000A4890008C4890008F089000880B582B0BB
:1003D00000AF78607B681800FFF772FE7B689A6850
:1003E000DB687968080000F007F802000B001000D5
:1003F0001900BD4602B080BD80B588B000AFF8607E
:100400003A607B60FB681800FFF75AFEFB68180033
:10041000FFF792FE02000B003A617B61002200238D
:10042000BA61FB61FB681800FFF7CCFE3A697B6993
:1004300012184B413A617B617A687B699A4207D80E
:100440007A687B699A420ED13A683B699A420AD926
:10045000386979693A687B68801A994102000B0013
:10046000BA61FB6109E0386979693A687B68801A8A
:10047000994102000B00BA61FB61BA69FB69100087
:100480001900BD4608B080BD80B582B000AF78606D
:100490007B68002B05D10A4B0A4A0B48702106F0F5
:1004A00055FF7B681A695B690120002112184B41D6
:1004B00079680A614B61C046BD4602B080BDC04646
:1004C000F0880008608A00080489000880B500AF41
:1004D000044A054B11001800FFF716FFC046BD4641
:1004E00080BDC046000200209005002080B500AF0E
:1004F000044B1800FFF76AFF02000B001000190000
:10050000BD4680BD9005002080B582B000AF386048
:1005100079603A687B6805490800FFF76DFF0200C3
:100520000B0010001900BD4602B080BD90050020F0
:1005300080B500AF034B1800FFF7A6FFC046BD46CD
:1005400080BDC04690050020B0B584B000AF786093
:1005500008001100FB1C021C1A70BB1C0A1C1A703C
:100560007B68002B05D1314B314A32480D2106F012
:10057000EDFE7B685B68002B05D12F4B2C4A2D4884
:100580000E2106F0E3FE7B685B68DB68002B05D17B
:100590002A4B274A27480F2106F0D8FE7B685B6864
:1005A0009B69002B05D1264B214A2248102106F0D9
:1005B000CDFE7B685B685B69002B05D1214B1C4A33
:1005C0001C48112106F0C2FE0F257B1903221A7068
:1005D0007B685B681B7C7A1912789A4221D87B6809
:1005E0005B68DB687F221A707B685B68DB680133BD
:1005F000FA1C12781A707B685B68DB680233BA1CDD
:1006000012781A707B685B689C697B685B685869C4
:100610007B685B68D9687B191B789BB21A00A0477E
:1006200000E0C046BD4604B0B0BDC046708A0008B8
:10063000308F0008848A0008A48A0008C08A000855
:10064000E48A0008188B000880B586B000AFF86017
:1006500008007A6019000B23FB18021C1A700A2389
:10066000FB180A1C1A70FB68002B05D12B4B2C4A77
:100670002C482C2106F06AFE7B68002B05D12A4B02
:10068000274A28482D2106F061FE1723FB18002277
:100690001A701623FB18FF221A701523FB1800226C
:1006A0001A7017E015217B181B785BB27A68D31893
:1006B0001A78FB681B7A9A4205D11623FB187A1820
:1006C00012781A7010E015217B181B780133DAB20A
:1006D0007B181A701523FA180A23FB18127852B2E5
:1006E0001B785BB29A42DDDB1623FB181B785BB2EA
:1006F000013308D10B23FB181978FB687E22180000
:10070000FFF722FF03E01723FB1801221A701723BB
:10071000FB181B781800BD4606B080BD708A000823
:10072000408F0008848A0008488B000880B584B098
:1007300000AF78607B68002B05D14D4B4D4A4E4889
:10074000472106F003FE7B685B68002B05D14B4B0D
:10075000484A4948482106F0F9FD7B685B68DB6937
:10076000002B05D1464B434A4348492106F0EEFD94
:100770007B685B685B68002B05D1424B3D4A3E4875
:100780004A2106F0E3FD0D217B1802221A700F2387
:10079000FB18FF221A707B689B7A7A1812789A42AB
:1007A00008D97B68132210211800FFF7CDFE012322
:1007B0005B4258E00E23FB1800221A701FE07B6892
:1007C0005B68DA690E217B181B785BB25B00D3187B
:1007D0001A787B685B685B6801331B789A4205D1A5
:1007E0000F23FB187A1812781A7012E00E217B186A
:1007F0001B785BB2DBB20133DAB27B181A707B680C
:100800005B6820229B560E22BA18127852B29A4286
:10081000D5DB0F23FB181B785BB2013308D17B6853
:10082000122210211800FFF78FFE01235B421AE00D
:100830007B685B68DA690F23FB181B785BB25B008F
:10084000D3185A787B68DB7A9A4208D97B683322BE
:1008500010211800FFF778FE01235B4203E00F230D
:10086000FB181B785BB21800BD4604B080BDC046C3
:10087000708A00085C8F0008848A0008A48A000837
:10088000608B0008948B0008B0B584B000AF78602E
:100890007B68002B05D1314B314A3248792106F073
:1008A00055FD7B685B68002B05D12F4B2C4A2D48EA
:1008B0007A2106F04BFD7B685B68DB69002B05D174
:1008C0002A4B274A27487B2106F040FD7B685B685E
:1008D0001B7801221340DBB2002B05D17B6811226B
:1008E00010211800FFF730FE0F257C197B681800D7
:1008F000FFF71CFF0300237029007B181B787F2B58
:1009000028D87B685B68DA697B181B785BB25B0070
:10091000D3181A787B681A727B685A7A7B681B7ABC
:100920009A420BD07B685B685B6A002B06D07B68C1
:100930005B685B6A7A68127A100098477B68197A5C
:100940007B685B681A8D7B685B685B8D786802F0FA
:100950002CFE00E0C046BD4604B0B0BD708A000861
:10096000748F0008848A0008A48A0008608B00083D
:1009700080B582B000AF78607B68002B05D1134B47
:10098000134A14489E2106F0E1FC7B685B68002B4B
:1009900005D1114B0E4A0F489F2106F0D7FC7B680A
:1009A0005B681B7802221340DBB2002B05D17B6809
:1009B00011223E211800FFF7C7FD7B68180002F0E6
:1009C00087FEC046BD4602B080BDC046708A0008A2
:1009D000848F0008848A0008A48A0008F0B585B0D6
:1009E00000AF78607B68002B05D1804B804A81483E
:1009F000AE2106F0ABFC7B685B68002B05D17E4B1B
:100A00007B4A7C48AF2106F0A1FC7B685B685B6891
:100A1000002B05D1794B764A7648B02106F096FC3A
:100A20007B685B681B6B002B05D1754B704A714866
:100A3000B12106F08BFC7B685B68DB6A002B05D17B
:100A4000704B6B4A6B48B22106F080FC7B685B6898
:100A50001B7804221340DBB2002B05D17B681122E6
:100A600011211800FFF770FD0D217B1802221A706A
:100A70000F23FB18FF221A700C23FB1800221A7098
:100A80007B689B7A7A1812789A4206D97B6813227F
:100A900011211800FFF758FDA5E00E23FB180022D6
:100AA0001A7022E07B685B68196B0E203B180022ED
:100AB0009A5613005B009B189B00CB181A787B6832
:100AC0005B685B6801331B789A4205D10F23FB18E2
:100AD0003A1812781A7012E00E217B181B785BB25C
:100AE000DBB20133DAB27B181A707B685B683422A0
:100AF0009B560E22BA18127852B29A42D2DB0F23BA
:100B0000FB181B785BB2013306D17B6812221121DE
:100B10001800FFF719FD66E07B685B68196B0F230F
:100B2000FB1800229A5613005B009B189B00CB1801
:100B30005A787B68DB7A9A4206D97B683322112186
:100B40001800FFF701FD4EE07B685B68196B0F260C
:100B5000BB1900229A5613005B009B189B00CB1810
:100B60005D687B685B68196BBB1900229A5613009D
:100B70005B009B189B00CB181B7A5BB20C22BC1845
:100B800078682A001121FFF75FFD030023700C2213
:100B9000BB181B7801225340DBB2002B22D17B68AB
:100BA0005B68196BBB1900229A5613005B009B18F7
:100BB0009B00CB181A787B681100180002F0EEFD3C
:100BC0007B685B68D96A7B685B68186BBB1900221D
:100BD0009A5613005B009B189B00C3181B781800E3
:100BE000884700E0C046BD4605B0F0BD708A0008E9
:100BF0009C8F0008848A0008A48A0008948B00084F
:100C0000B88B0008E48B0008F0B585B000AF7860C1
:100C10000A00FB1C1A707B68002B05D1804B814AAF
:100C20008148FB2106F092FB7B685B68002B05D1B5
:100C30007E4B7C4A7C48FC2106F088FB7B685B6825
:100C4000DB6B002B05D17A4B764A7748FD2106F005
:100C50007DFB7B685B689B6C002B05D1754B714AF3
:100C60007148FE2106F072FB0F23FB18FF221A7059
:100C70000D23FB1800221A700E23FB1800221A7095
:100C80001FE07B685B68D96B0E203B1800229A56E8
:100C900013005B009B18DB00CB181B78FA1C127842
:100CA0009A4205D10F23FB183A1812781A7012E0F5
:100CB0000E217B181B785BB2DBB20133DAB27B18F2
:100CC0001A707B685B6840229B560E22BA18127815
:100CD00052B29A42D5DB0F23FB181B787F2B06D923
:100CE0007B68122227211800FFF72EFC94E07B6816
:100CF0005B68D96B0F203B1800229A5613005B00EB
:100D00009B18DB00CB185B68002B0ED07B685B6800
:100D1000D96B3B1800229A5613005B009B18DB002E
:100D2000CB181B7B5BB2002B06DC7B6826222721BD
:100D30001800FFF709FC6FE07B685B68D96B0F2632
:100D4000BB1900229A5613005B009B18DB00CB18DE
:100D50001D697B685B68D96BBB1900229A5613002A
:100D60005B009B18DB00CB181B7D5BB20D22BC180F
:100D700078682A002721FFF767FC030023700D2203
:100D8000BB181B7801225340DBB2002B43D17B6898
:100D90005B689C6C7B685B68D96BBB1900229A56B8
:100DA00013005B009B18DB00CB1858687B685B68FE
:100DB000D96BBB1900229A5613005B009B18DB000D
:100DC000CB181B7B5BB2DAB2FB1C1B78010018004E
:100DD000A0477B685B68D96BBB1900229A56130049
:100DE0005B009B18DB00CB185C687B685B68D96B89
:100DF000BB1900229A5613005B009B18DB00CB182E
:100E00001B7B5BB2DAB2FB1C1978786813002200F6
:100E100002F02EFD00E0C046BD4605B0F0BDC04664
:100E2000708A0008AC8F0008848A0008A48A000831
:100E3000148C0008408C0008F0B589B002AF7860CF
:100E40000A00FB1C1A707B68002B06D1C04BC14AFC
:100E50009D214900C04806F079FA7B685B68002B49
:100E600006D1BE4BBB4A3C21FF31BB4806F06EFAAF
:100E70007B685B68DB6B002B06D1B94BB54A9E21C2
:100E80004900B54806F062FA7B685B685B6C002B32
:100E900006D1B44BAF4A3E21FF31AF4806F056FAB7
:100EA0001723FB18FF221A701523FB1800221A7053
:100EB00001235B423B610F23FB1802221A701623A9
:100EC000FB1800221A701FE07B685B68D96B162044
:100ED0003B1800229A5613005B009B18DB00CB18CE
:100EE0005B78FA1C12789A4205D11723FB183A183E
:100EF00012781A7012E016217B181B785BB2DBB2F5
:100F00000133DAB27B181A707B685B6840229B560B
:100F10001622BA18127852B29A42D5DB7B685B6807
:100F2000D96B1723FB1800229A5613005B009B18FD
:100F3000DB00CB181B7B5BB2D9B20F203B183A18F1
:100F400012788A181A707B689B7A3A1812789A423B
:100F500006D07B68132227211800FFF7F5FAF4E08A
:100F60001723FB181B787F2B06D97B6812222721B9
:100F70001800FFF7E9FAE8E07B685B68D96B172097
:100F80003B1800229A5613005B009B18DB00CB181D
:100F90009B68002B0ED07B685B68D96B3B180022E6
:100FA0009A5613005B009B18DB00CB185B7B5BB28F
:100FB000002B06DC7B68262227211800FFF7C4FAE5
:100FC000C3E07B685B68D96B1726BB1900229A5671
:100FD00013005B009B18DB00CB181D697B685B6806
:100FE000D96BBB1900229A5613005B009B18DB00DB
:100FF000CB181B7D5BB21522BC1878682A0027210C
:10100000FFF722FB030023701522BB181B78012277
:101010005340DBB2002B00D096E07B685B685C6CD1
:101020007B685B68D96BBB1900229A5613005B0082
:101030009B18DB00CB1818787B685B68D96BBB19F1
:1010400000229A5613005B009B18DB00CB185D68EA
:101050007B685B68D96BBB1900229A5613005B0052
:101060009B18DB00CB189E687B685B68D96B1723E5
:10107000FB1800229A5613005B009B18DB00CB186C
:101080001B7B5BB2DAB294467B685B68D96B172333
:10109000FB1800229A5613005B009B18DB00CB184C
:1010A0005B7B5BB2DBB20093634632002900A04752
:1010B0007B685B685B68981C7B685B68D96B1725ED
:1010C0007B1900229A5613005B009B18DB00CB189B
:1010D0009C687B685B68D96B7B1900229A56130069
:1010E0005B009B18DB00CB185B7B5BB21A00210016
:1010F00006F060F903003B613B69002B06D07B687A
:10110000352227211800FFF71FFA1EE0FB1C1A7872
:101110007B681100180002F035FC7B68FA1C12781D
:10112000DA727B685B689B6B002B0ED07B681A7B46
:101130007B68DB7A9A4208D07B685B689B6B7A6835
:10114000D27A1000984700E0C046BD4607B0F0BD17
:10115000708A0008C88F0008848A0008A48A0008E2
:10116000148C0008788C0008F0B585B000AF78606A
:101170007B68002B06D1654B654AD0214900654844
:1011800006F0E4F87B685B68002B06D1624B604A8E
:10119000A221FF315F4806F0D9F87B685B685B6885
:1011A000002B06D15D4B5A4AD1214900594806F01F
:1011B000CDF87B685B68DB6B002B06D1584B544A3B
:1011C000A421FF31534806F0C1F87B685B685B6C73
:1011D000002B06D1534B4E4AD22149004D4806F010
:1011E000B5F87B685B689B6C002B06D14E4B484A78
:1011F000A621FF31474806F0A9F87B685B681B7899
:1012000008221340DBB2002B05D17B681122272175
:101210001800FFF799F90F26BB1902221A700E2148
:101220007B1800221A707B685B68DB6B1A697B682D
:101230005B68DB6B1B7D5BB20D007C187868272137
:10124000FFF702FA030023707B191B780122534039
:10125000DBB2002B56D17B689B7ABA1912789A427E
:1012600006D97B68132227211800FFF76DF94AE0A1
:101270007B685B685A680D217B1852781A700A00E7
:10128000BB181B78012B0FD0BB181B78032B0BD07E
:10129000BB181B78052B07D0BB181B78062B0CD965
:1012A000BB181B78412B08D80D23FB181A787B68D4
:1012B00011001800FFF7A8FC25E00D22BB181B78D1
:1012C000022B0FD0BB181B78042B0BD0BB181B783C
:1012D000062B07D0BB181B78072B0CD9BB181B7823
:1012E000422B08D80D23FB181A787B6811001800D0
:1012F000FFF7A2FD07E07B68122227211800FFF705
:1013000023F900E0C046BD4605B0F0BD708A000874
:10131000E48F0008848A0008A48A0008948B0008DF
:10132000148C0008788C0008408C0008F0B589B057
:1013300002AF78607B68002B06D1D64BD64AEC21F1
:10134000FF31D64806F002F87B685B68002B06D1B7
:10135000D34BD14AF6214900D04805F0F7FF7B680E
:101360005B685B68002B06D1CE4BCB4AEE21FF3188
:10137000CA4805F0EBFF7B685B681B7810221340BE
:10138000DBB2002B05D17B68112231211800FFF759
:10139000DBF815217B1804221A701223FB18012296
:1013A00052421A801023FB1800221A801723FB18C0
:1013B000FF221A700F23FB1800221A707B689B7A99
:1013C0007A1812789A4206D97B68132231211800C4
:1013D000FFF7BAF8B7E17B685B685A680E23FB1821
:1013E00052781A707B689B7A9AB21523FB181B7887
:1013F0009BB2D31A9AB21223FB181A807B685B68DF
:101400001B6D002B04D07B685B685B6D002B06DCDA
:101410007B68112231211800FFF796F893E17B6871
:101420005B685B6802331B781B021AB27B685B68DF
:101430005B6803331B781BB213431AB21023FB18EB
:101440001A801623FB1800221A7020E07B685B6864
:10145000196D16203B1800229A5613005B009B184A
:101460001B01CB185B881022BA1812889A4205D14A
:101470001723FB183A1812781A7011E016217B18FE
:101480001B785BB2DBB20133DAB27B181A70162319
:10149000FB1800229A567B685B685B6D9A42D5DB2D
:1014A0001723FB181B785BB2013306D17B6811222E
:1014B00031211800FFF748F845E17B685B68196D3A
:1014C0001723FB1800229A5613005B009B181B0180
:1014D000CB189A7B7B68DB7A9A4206D97B683322E9
:1014E00031211800FFF730F82DE17B685B68196D3A
:1014F00017203B1800229A5613005B009B181B0113
:10150000CB181D697B685B68196D3B1800229A56E1
:1015100013005B009B181B01CB181B7D5BB20F26D1
:10152000BC1978682A003121FFF78EF80300237078
:10153000BB191B7801225340DBB2002B00D001E124
:101540000E23FB181B78012B03D0032B00D1AFE037
:10155000F1E01223FB1800229B5E002B06DA7B6869
:10156000132231211800FEF7EFFFECE012243B19A3
:1015700000229B5E002B16DD7B685B68196D1723CC
:10158000FB1800229A5613005B009B181B01CB1816
:1015900058687B685B685B68191D3B1900229B5E7D
:1015A0001A0005F015FF1223FB180021595E7B6815
:1015B0005B68186D1723FB1800229A5613005B0016
:1015C0009B181B01C3181B7B994206D07B68132212
:1015D00031211800FEF7B8FFB5E07B685B68196D34
:1015E00017203B1800229A5613005B009B181B0122
:1015F000CB181B7B002B13D07B685B68196D3B18E5
:1016000000229A5613005B009B181B01CB185B68E5
:10161000002B05D1244B204A2449204805F096FE92
:101620007B685B68196D1723FB1800229A5613001C
:101630005B009B181B01CB181B78032B06D07B6823
:10164000212231211800FEF77FFF7CE07B685B6878
:10165000196D17243B1900229A5613005B009B1842
:101660001B01CB1800221A707B685B68D86C7B6802
:101670005B68196D3B1900229A5613005B009B189A
:101680001B01CC18FEF7A2FE02000B00226263626F
:1016900059E0C046708A0008FC8F0008848A000860
:1016A000A48A0008948B0008AC8C00086902000032
:1016B0007B685B68196D1723FB1800229A5613008C
:1016C0005B009B181B01CB181B78032B06D07B6893
:1016D000212231211800FEF737FF34E07B685B6878
:1016E000196D17203B1800229A5613005B009B18B7
:1016F0001B01CB185C887B685B68196D3B18002266
:101700009A5613005B009B181B01CB189D687B68E1
:101710005B68196D3B1800229A5613005B009B18FA
:101720001B01CB185B7B786800932B002200032100
:1017300002F092F907E07B68122231211800FEF7CF
:1017400003FF00E0C046BD4607B0F0BDB0B588B0AD
:1017500002AF78607B68002B05D17E4B7E4A7F49C3
:101760007F4805F0F3FD7B685B68002B05D17D4B5E
:10177000794A7D497A4805F0E9FD7B685B685B6DD5
:10178000002B0ADD7B685B681B6D002B05D1774B56
:10179000714A7749724805F0D9FD00220023BA60EA
:1017A000FB6000237B616BE07B685B68196D7A6985
:1017B00013005B009B181B01CB181B78032B5CD01C
:1017C0007B6801225A737B685B68196D7A69130024
:1017D0005B009B181B01CB189B6A002B05D1654B46
:1017E0005D4A65495E4805F0B1FD7B685B68196D2F
:1017F0007A6913005B009B181B01CB18996A7B6800
:101800005B68186D7A6913005B009B181B01C31895
:10181000180088477B685B68D86C7B685B68196DCB
:101820007A6913005B009B181B01CB181A6A5B6A6C
:10183000FEF7E2FD02000B00BA60FB607B685B68AC
:10184000196D7A6913005B009B181B01CB189A690C
:10185000DB69F968994205D8F96899420DD1B968F0
:1018600091420AD97B685B68196D7A6913005B0045
:101870009B181B01CB1804221A707B6901337B6112
:101880007B685B685B6D7A699A428DDB00233B6104
:1018900054E07B685B68196D3A6913005B009B1824
:1018A0001B01CB181B78022B13D0042B42D17B6871
:1018B000262231211800FEF747FE7B685B68196D10
:1018C0003A6913005B009B181B01CB1803221A70A6
:1018D00031E07B685B68196D3A6913005B009B1807
:1018E0001B01CB185C887B685B68196D3A69130033
:1018F0005B009B181B01CB189D687B685B68196DAA
:101900003A6913005B009B181B01CB185B7B78685E
:1019100000932B002200012102F09EF87B685B6897
:10192000196D3A6913005B009B181B01CB18032249
:101930001A7000E0C0463B6901333B617B685B681D
:101940005B6D3A699A42A4DBC046C046BD4606B00C
:10195000B0BDC046708A0008109000089A020000CE
:10196000848A0008A48A00089B020000AC8C00084E
:10197000A1020000B48C0008AA020000F0B587B0F4
:1019800000AF78607B68002B05D1A24BA24AA34927
:10199000A34805F0DBFC7B685B68002B05D1A14BFD
:1019A0009D4AA1499E4805F0D1FC7B685B685B6855
:1019B000002B05D19D4B984A9D49994805F0C6FCDE
:1019C0007B685B681B7820221340DBB2002B05D1BB
:1019D0007B6811222E211800FEF7B6FD0F217B181F
:1019E00003221A7001235B427B610E23FB18002245
:1019F0001A700C23FB18012252421A807B689B7AD2
:101A00007A1812789A4206D97B6813222E21180080
:101A1000FEF79AFDFBE07B685B685B6801331B782F
:101A20001B021AB27B685B685B6802331B781BB2CF
:101A300013431AB20A23FB181A8000233B6114E0F7
:101A40007B685B68996D3A6913009B009B189B004B
:101A5000CB181B880A22BA1812889A4202D13B6915
:101A60007B6108E03B6901333B617B685B68DB6D50
:101A70003A699A42E4DB7B69013306D17B68312203
:101A80002E211800FEF760FDC1E07B685B68996D50
:101A90007A6913009B009B189B00CB189A7A7B688D
:101AA000DB7A9A4206D97B6833222E211800FEF792
:101AB0004BFDACE07B685B68996D7A6913009B0015
:101AC0009B189B00CB18DD687B685B68996D7A6911
:101AD00013009B009B189B00CB181B7C5BB20E264F
:101AE000BC1978682A002E21FEF7AEFD0300237092
:101AF000BB191B7801225340DBB2002B00D085E0DC
:101B00007B685B68996D7A6913009B009B189B004A
:101B1000CB181B7A002B11D07B685B68996D7A69B2
:101B200013009B009B189B00CB185B68002B05D112
:101B3000404B394A40493A4805F008FC7B689B7A9B
:101B40009AB20F23FB181B789BB2D31A9AB20C21BE
:101B50007B181A807B1800229B5E002B06DA7B68BC
:101B600013222E211800FEF7EFFC50E00C23FB1887
:101B70000021595E7B685B68986D7A6913009B0051
:101B80009B189B00C3181B7A994206D07B681322CE
:101B90002E211800FEF7D8FC39E07B685B68996D50
:101BA0007A6913009B009B189B00CB185B7A01227B
:101BB0005340DBB2002B06D07B6826222E21180072
:101BC000FEF7C2FC23E00C243B1900229B5E002B95
:101BD00013DD7B685B68996D7A6913009B009B1825
:101BE0009B00CB1858687B685B685B68D91C3B1905
:101BF00000229B5E1A0005F0EBFB0A23FB181A88F3
:101C00007B681100180001F0C1FF00E0C046BD462E
:101C100007B0F0BD708A00082C900008DD020000BB
:101C2000848A0008A48A0008DE020000948B000861
:101C3000DF020000AC8C000826030000F0B591B074
:101C400000AF78637B6B002B05D1CB4BCB4ACC49E3
:101C5000CC4805F07BFB7B6B5B68002B06D1CA4B45
:101C6000C64AD5218900C74805F070FB7B6B5B68CD
:101C70001B6E002B05D1C54BC04AC549C14805F0B4
:101C800065FB7B6B5B681A787F239A431300DBB29A
:101C9000002B05D17B6B112234211800FEF754FC78
:101CA0000D2328201B180822BA189A180023137035
:101CB0000C210B180822BA189A18032313700B234F
:101CC0001B180822BA189A18002313700A231B182D
:101CD0000822BA189A18002313707B6B9A7A0B1893
:101CE00008218C46BC4463441B78934206D97B6B25
:101CF000132234211800FEF727FCCBE17B6B5B68D5
:101D00005B6802331A787B6B59680F231340DBB290
:101D100078228B547B6B5B685B6802331A787B6B31
:101D200059681309DBB279228B547B6B5A6878238C
:101D3000D15C7B6B5A687923D35CCB18DAB20C2068
:101D40002824031908217918591803190825AC46C5
:101D5000BC4463441B78D3180B707B6B9A7A0319CD
:101D600008218C46BC4463441B78934206D07B6BAD
:101D7000132234211800FEF7E7FB8BE17B6B5A68D6
:101D80007C23D25C7B6BDB7A9A4206D97B6B332255
:101D900031211800FEF7D8FB7CE17B6B5A68802369
:101DA000D1587B6B5A688423D3560D2228255219AB
:101DB000082038181418786B0A003121FEF744FC0B
:101DC000030023700D222800131808229446BC44F7
:101DD00063441A7801235340DBB2002B00D058E152
:101DE0007B6B5968002200238A66CB660F231B1881
:101DF0000822BA189A180023137060E07B6B5A68A7
:101E00007823D25C0F242825631908218C46BC4412
:101E100063441B78D31ADBB20B22521908218C467B
:101E2000BC446244023313707B6B5B68986ED96E5E
:101E30007B6B5B685A680B235B190826B446BC446D
:101E400063441B78D3181B783B6200237B626319C1
:101E500008229446BC4463441B78DA001300203BFC
:101E6000002B03DB3C6A9C40FC620AE020239B1AA7
:101E70003C6ADC4023007C6A9440FC62FC6A1C43A0
:101E8000FC623B6A9340BB627B6B5B68BA6A02434D
:101E90003A61FA6A0A437A6139697A699966DA6657
:101EA0000F222821531808208446BC4463441B7821
:101EB000521808218C46BC446244013313707B6B7A
:101EC0005A687823D25C0F2328201B1808218C46DF
:101ED000BC4463441B78934290D37B6B59680022C7
:101EE00000230A674B670E231B1808229446BC4444
:101EF000634400221A7077E07B6B5B6878229A5CFF
:101F00007B6B5B6879215B5CD318DAB20E242821E5
:101F1000631808208446BC4463441B78D31ADAB2A1
:101F20000B230D005B1808218C46BC44634402322D
:101F30001A707B6B5B681A6F5B6F796B49684868D6
:101F40000B214E1908217918711809784118097860
:101F5000B9610021F9612900611808208446BC4458
:101F600061440978C90008002038002812DBBC69E8
:101F700084407C6019E0C046708A000844900008E4
:101F800053030000848A0008A48A0008E88C000833
:101F9000550300002020401ABC69C4402000FC69A1
:101FA0008C407C607C6804437C60B8698840386001
:101FB000796B496810003C682043B8607A68134325
:101FC000FB60BB68FC680B674C670E2128200B1870
:101FD00008229446BC4463441A780B1808218C46A6
:101FE000BC44634401321A707B6B5B6879229B5C52
:101FF0000E222821521808218C46BC4462441278D3
:102000009A4200D278E77B6B5B689A6EDB6E1100B8
:10201000194306D07B6B5B681A6F5B6F1100194325
:1020200006D17B6B132234211800FEF78DFA31E0C4
:102030007B6B5B681A6E7B6B5B6860330A252826B6
:10204000A919082038180C181800904703002370AD
:10205000AB1908229446BC4463441B7801225340C8
:10206000DBB2002B06D07B6B262234211800FEF752
:102070006BFA0FE07B6B5B689A6EDB6E796B0A61C3
:102080004B617B6B01229A737B6B180001F098FE09
:1020900000E0C046BD4611B0F0BDB0B584B000AFA1
:1020A00078607B68002B05D1344B354A354936487A
:1020B00005F04CF97B685B68002B05D1334B304A47
:1020C0003349314805F042F97B685B685B68002B57
:1020D00006D1304B2A4AF22189002B4805F036F907
:1020E0007B685B685B7801221340DBB2002B05D173
:1020F0007B68112237211800FEF726FA0F23FB1800
:1021000000221A707B685B688C229A5C7B68DB7AA1
:102110009A4206D97B68332237211800FEF714FA59
:1021200029E07B685B6890229A587B685B68942101
:102130005B560F257C1978683721FEF785FA030076
:1021400023707B191B7801225340DBB2002B11D185
:102150007B685B6888229B58984779680022002337
:102160000A614B617B6800229A737B68180001F05A
:10217000C3FE00E0C046BD4604B0B0BD708A000892
:1021800058900008C6030000848A0008A48A00084A
:10219000C7030000948B0008F0B585B000AF7860ED
:1021A0007B68002B05D1714B714A7249724805F06A
:1021B000CDF87B685B68002B05D1704B6C4A704989
:1021C0006D4805F0C3F87B685B685B68002B06D13F
:1021D0006C4B674AFD218900674805F0B7F87B68BA
:1021E0005B68A0229B58002B05D1674B604A67496A
:1021F000614805F0ABF87B685B685B7802221340AE
:10220000DBB2002B05D17B68112236211800FEF7C6
:102210009BF90F23FB1800221A700E217B18022253
:102220001A707B689B7A1A007B181B78D31ABB60E4
:10223000BB68002B06DA7B68132236211800FEF7F4
:1022400083F98FE07B685B689C229B5A1A00BB680D
:10225000934202DCBB68002B06DA7B683122362110
:102260001800FEF771F97DE07B685B68A4229A5C38
:102270007B68DB7A9A4206D97B68332236211800C4
:10228000FEF762F96EE07B685B68A8229A587B686B
:102290005B68AC215B560F217E1878683621FEF70B
:1022A000D3F9030033700F217B181B7801225340B0
:1022B000DBB2002B55D17B685B68BA6891B29E2275
:1022C00099527B685B68982298587B685B685B686A
:1022D0000233BA68190005F07BF87B685B685A68BE
:1022E0007B685B685178AD2299547B689A7B7B68E8
:1022F0005B68AD215B5C9A4206D07B687322362115
:102300001800FEF721F92DE07B6859687B681A698F
:102310005B69B0310A604B607B685B68A0229A58A9
:102320007B685B689833180090477B685B68AD22D8
:102330009A5C7B681100180001F038FE7B689B7B7B
:102340000133DAB27B689A737B681A695B69B96892
:102350000C00C9170D0012196B4179680A614B61B5
:1023600000E0C046BD4605B0F0BDC046708A00081A
:1023700070900008F2030000848A0008A48A000814
:10238000F3030000948B0008208D0008F503000083
:10239000F0B587B000AF78607B68002B05D16F4B3C
:1023A0006F4A7049704804F0D1FF7B685B68002B6E
:1023B00005D16E4B6A4A6E496B4804F0C7FF7B68D3
:1023C0005B685B68002B05D16A4B654A6A496648C1
:1023D00004F0BCFF7B685B681B7840221340DBB2D3
:1023E000002B06D17B68112222211800FEF7ACF8E1
:1023F000B1E00F217B1803221A7001235B427B613D
:102400000E23FB1800221A707B689B7A7A181278C8
:102410009A4206D97B68132222211800FEF794F80D
:1024200099E07B685B685B6801331B781B021AB21A
:102430007B685B685B6802331B781BB213431AB27C
:102440000C23FB181A8000233B6114E07B685B6857
:10245000996D3A6913009B009B189B00CB181B8851
:102460000C22BA1812889A4202D13B697B6108E0BB
:102470003B6901333B617B685B68DB6D3A699A427B
:10248000E4DB7B69013306D17B683122222118000D
:10249000FEF75AF85FE07B685B68996D7A69130014
:1024A0009B009B189B00CB189A7A7B68DB7A9A4238
:1024B00006D97B68332222211800FEF745F84AE04E
:1024C0007B685B68996D7A6913009B009B189B0081
:1024D000CB18DD687B685B68996D7A6913009B0097
:1024E0009B189B00CB181B7C5BB20E26BC1978682E
:1024F0002A002221FEF7A8F803002370BB191B78DD
:1025000001225340DBB2002B24D17B685B68996DBC
:102510007A6913009B009B189B00CB181B7A002B39
:102520000BD07B685B68996D7A6913009B009B18E0
:102530009B00CB185B68002B05D1104B084A104953
:10254000094804F003FF7A697B681100180001F064
:1025500091FB00E0C046BD4607B0F0BD708A0008A0
:10256000849000084D040000848A0008A48A0008B2
:102570004E040000948B00084F040000AC8C00084F
:1025800093040000B0B586B000AF78607B68002B84
:1025900005D1474B474A4849484804F0D7FE7B6875
:1025A0005B68002B05D1464B424A4649434804F03C
:1025B000CDFE7B685B685B68002B05D1424B3D4AD2
:1025C00042493E4804F0C2FE0F217B1803221A70D4
:1025D0001723FB1800221A700E23FB1800221A7012
:1025E0007B689B7A7A1812789A4206D97B68132204
:1025F00019211800FDF7A8FF57E07B685B685A684F
:102600000E23FB1892781A7000233B6135E07B683B
:102610005B68BC2299583A6913005B009B189B00C9
:10262000CB181B780E22BA1812781340DBB2002B9D
:1026300020D07B685B68BC2299583A6913005B0024
:102640009B189B00CB181C787B681D7E7B685B68A1
:10265000BC2299583A6913005B009B189B00CB1869
:10266000013378682A00210001F00EFD1723FB18C2
:1026700001221A703B6901333B617B685B68C022B1
:102680009B583A699A42C2DB1723FB181B78012238
:102690005340DBB2002B08D07B681A7E0E23FB1858
:1026A00019787868002301F0EFFCBD4606B0B0BD94
:1026B000708A00089C9000089B040000848A00082F
:1026C000A48A00089C040000948B00089D0400006C
:1026D00080B586B000AF78607B68002B05D1464B93
:1026E000464A4749474804F031FE7B685B68002B47
:1026F00005D1454B414A4549424804F027FE7B68D5
:102700005B685B68002B05D1414B3C4A41493D4821
:1027100004F01CFE0F217B1806221A7001235B4275
:102720007B617B689B7A7A1812789A4206D97B681B
:10273000132219211800FDF707FF59E000233B6120
:102740003BE07B685B68BC2299583A6913005B00E8
:102750009B189B00CB185A787B685B685B680233D8
:102760001B789A4226D17B685B68BC2299583A69EB
:1027700013005B009B189B00CB189A787B685B6802
:102780005B6803331B789A4214D17B685B68BC2278
:1027900099583A6913005B009B189B00CB18DA78B4
:1027A0007B685B685B6804331B789A4202D13B69A3
:1027B0007B6109E03B6901333B617B685B68C02258
:1027C0009B583A699A42BCDB7B69013306D17B682E
:1027D000312219211800FDF7B7FE09E07B685B681C
:1027E0005B6805331A7879697B68180001F09AFDF7
:1027F000BD4606B080BDC046708A0008B89000088B
:10280000CD040000848A0008A48A0008CE040000D9
:10281000948B0008CF04000080B584B000AF7860CE
:102820007B68002B05D1394B394A3A493A4804F0C4
:102830008DFD7B685B68002B05D1384B344A3849E5
:10284000354804F083FD7B685B685B68002B05D12D
:10285000344B2F4A3449304804F078FD0F23FB18DD
:1028600002221A707B685B685B7804221340DBB23B
:10287000002B06D17B68112219211800FDF764FE98
:1028800040E07B685B68C8229B58002B05D1274B32
:102890001F4A2749204804F059FD7B685B68C42221
:1028A0009B58002B05D1234B194A23491A4804F0A1
:1028B0004DFD7B689B7A0F22BA1812789A4206D98E
:1028C0007B68132219211800FDF73EFE1AE07B6891
:1028D0005B685B6801331B78022B02D0042B05D0A8
:1028E00009E07B681800FFF74DFE0BE07B681800DD
:1028F000FFF7EEFE06E07B68122219211800FDF7B3
:1029000023FEC046BD4604B080BDC046708A0008A4
:10291000E090000801050000848A0008A48A0008ED
:1029200002050000948B000803050000548D000888
:1029300012050000888D00081305000090B587B0CF
:1029400000AF78607B68002B05D1824B824A8349B7
:10295000834804F0FBFC7B685B68002B05D1814B4E
:102960007D4A81497E4804F0F1FC7B685B685B68C6
:10297000002B05D17D4B784A7D49794804F0E6FC6F
:102980000F23FB1804221A700C23FB1818000323D2
:102990001A00002102F07AF87B685B685B780822F5
:1029A0001340DBB2002B06D17B68112214211800E2
:1029B000FDF7CAFDCAE07B685B68C8229B58002B04
:1029C00005D16C4B644A6C49654804F0BFFC7B68D8
:1029D0005B68C4229B58002B05D1684B5E4A68494E
:1029E0005F4804F0B3FC7B689B7A0F22BA18127818
:1029F0009A4206D97B68132214211800FDF7A4FD22
:102A0000A4E07B685B685B685A780C217B181A70BD
:102A10007B685B685B689A787B185A707B685B6838
:102A20005B68DA787B189A707B181B78FF2B33D1A0
:102A30007B185B78FF2B2FD17B189B78FF2B2BD13A
:102A400000237B6120E07B685B68BC2299587A692F
:102A500013005B009B189B00CB1800221A707B6848
:102A60005B68C4229C5878697B685B68BC22995873
:102A70007A6913005B009B189B00CB180122190098
:102A8000A0477B6901337B617B685B68C0229B58F0
:102A90007A699A42D7DB59E000233B614FE07B68BB
:102AA0005B68BC2299583A6913005B009B189B0035
:102AB000CB185A780C203B181B789A423CD17B6883
:102AC0005B68BC2299583A6913005B009B189B0015
:102AD000CB189A783B185B789A422DD17B685B685B
:102AE000BC2299583A6913005B009B189B00CB18D5
:102AF000DA783B189B789A421ED17B685B68BC22CF
:102B000099583A6913005B009B189B00CB18002270
:102B10001A707B685B68C4229C5838697B685B6864
:102B2000BC2299583A6913005B009B189B00CB1894
:102B300001221900A04709E03B6901333B617B6832
:102B40005B68C0229B583A699A42A8DBBD4607B031
:102B500090BDC046708A0008F4900008310500005E
:102B6000848A0008A48A000832050000948B0008BB
:102B700033050000548D000845050000888D0008CD
:102B80004605000080B582B000AF78607B68002BFE
:102B900006D1444B444AAF21C900444804F0D6FB57
:102BA0007B681B78012B05D0414B3F4A41493F4888
:102BB00004F0CCFB7B6800225A737B681800FEF798
:102BC000C5FD7B685B7B002B66D17B689B7A002B05
:102BD00064D07B685B685B681B78103B2E2B40D809
:102BE0009A00354BD3181B689F467B681800FDF789
:102BF0004BFE40E07B681800FDF7BAFE3BE07B68C7
:102C00001800FDF7EBFE36E07B681800FEF7ACFA23
:102C100031E07B681800FEF789FB2CE07B68180028
:102C2000FEF7ACFE27E07B681800FFF707F822E00C
:102C30007B681800FFF731FA1DE07B681800FFF78A
:102C4000ABFA18E07B681800FFF7A2FB13E07B6883
:102C50001800FFF7E1FD0EE07B681800FFF76EFE3D
:102C600009E07B685B685B6819787B681122180053
:102C7000FDF76AFCC0467B6800229A727B685B683D
:102C80005B6800221A707B681A7A7B685A727B68CC
:102C9000DA7A7B681A7302E0C04600E0C046BD469F
:102CA00002B080BD708A00080C910008848A000878
:102CB000BC8D000879050000D88D000880B500AFF4
:102CC000034B1800FFF75EFFC046BD4680BDC046FF
:102CD0003806002090B585B000AF78607B68002B87
:102CE00005D12C4B2C4A2D492D4804F02FFB7B6835
:102CF0005B68002B05D12B4B274A2B49284804F051
:102D000025FB7B685B68BC229B58002B05D1274BB9
:102D1000214A2749224804F019FB7B685B68C822D6
:102D20009B58002B05D1234B1B4A23491C4804F018
:102D30000DFB7B685B68C4229B58002B05D11F4BA1
:102D4000154A1F49164804F001FB0023FB6014E0FC
:102D50007B685B68C8229C58F8687B685B68BC220B
:102D60009958FA6813005B009B189B00CB1801224E
:102D70001900A047FB680133FB607B685B68C022D9
:102D80009B58FA689A42E3DBC046C046BD4605B090
:102D900090BDC046708A00081C910008C305000061
:102DA000848A0008A48A0008C4050000948E0008E4
:102DB000C5050000548D0008C6050000888D000878
:102DC000C705000080B582B000AF786039607B68CD
:102DD000002B05D1334B344A3449354804F0B6FA58
:102DE0003B68002B05D1334B2F4A3349304804F060
:102DF000ADFA7B683A685A603B68B9229A5C7B6896
:102E00001A723B68B9229A5C7B685A727B6800220E
:102E10009A723B68B8229A5C7B68DA723B68B82287
:102E20009A5C7B681A737B6800221A767B681A7E2C
:102E300008210A431A767B681A7E01210A431A7612
:102E40003B685B7804221340DBB2002B03D07B6825
:102E50001800FFF73FFF7B6801221A703B68CC2205
:102E60009B5C002B0AD07B685B681A8D7B685B6873
:102E70005B8D7868022100F098FB0EE03B68CD2264
:102E80009B5C002B09D07B685B681A8D7B685B6854
:102E90005B8D7868032100F088FBC046BD4602B018
:102EA00080BDC046708A00082C910008D40500003F
:102EB000848A0008C08E0008D505000080B500AFE8
:102EC000044A054B11001800FFF77CFFC046BD46C1
:102ED00080BDC046300300203806002080B582B097
:102EE00000AF78607B68002B05D10B4B0B4A0C4977
:102EF0000C4804F02BFA7B685B68002B05D10A4B69
:102F0000064A0A49074804F021FA7B685B68180002
:102F1000BD4602B080BDC046708A000838910008E6
:102F200003060000848A0008A48A00080406000042
:102F300080B500AF014B1800BD4680BD30030020B6
:102F400080B584B000AFF860B960FB1D1A70FB68F3
:102F5000002B06D11E4B1F4AC221C9001E4804F097
:102F6000F5F9FB681B78012B05D01C4B194A1C494D
:102F7000194804F0EBF9BB68002B05D1194B154A31
:102F80001949154804F0E2F9FB1D1B78002B05D107
:102F9000164B104A1649104804F0D8F9FB685B68D4
:102FA0001B7AFA1D12789A420DD8FB685B68586844
:102FB000FB1D1A78BB68190004F00AFAFB68FA1DB9
:102FC00012789A7200E0C046BD4604B080BDC0468B
:102FD000708A00084C910008848A0008BC8D0008A3
:102FE00011060000D08E000812060000E48E0008D2
:102FF0001306000080B582B000AF78600A00FB1CA9
:103000001A70FB1C1A787968034B1800FFF798FFB9
:10301000C046BD4602B080BD3806002080B582B0F3
:1030200000AF78607B68002B05D1064B064A074944
:10303000074804F08BF97B681B7A1800BD4602B084
:1030400080BDC046708A0008609100082D0600000F
:10305000848A000880B500AF034B1800FFF7DEFF3D
:1030600003001800BD4680BD3806002080B582B040
:1030700000AF78607B68002B05D1064B064A0749F4
:10308000074804F063F97B68DB7A1800BD4602B09C
:1030900080BDC046708A000874910008390600009F
:1030A000848A000880B500AF034B1800FFF7DEFFED
:1030B00003001800BD4680BD3806002080B586B0EC
:1030C00000AF786039607B68002B05D14C4B4D4ACE
:1030D0004D494E4804F03AF97B685B68002B05D1F6
:1030E0004B4B484A4B49494804F030F97B685B68D0
:1030F000BC229B58002B05D1474B424A47494348C5
:1031000004F024F93B68002B06DA454B3D4AC921FF
:10311000C9003E4804F01AF97B685B68C0229B58DE
:103120003A689A4205DB3F4B364A3F49374804F03C
:103130000DF97B685B68C0229B587B6100233B6173
:1031400054E00023FB603FE07B685B68BC22995839
:103150003A6913005B009B189B00CB185B68002B3F
:103160002ED07B685B68BC2299583A6913005B00DB
:103170009B189B00CB181B89002B21D07B685B68B8
:10318000BC2299583A6913005B009B189B00CB182E
:103190005A68FB685B00D2180A203B1812881A8014
:1031A0007B685B68996D3B181A8813009B009B181D
:1031B0009B00CB181B7A1A007B699B187B6100E08F
:1031C000C046FB680133FB607B685B68BC22995892
:1031D0003A6913005B009B189B00CB181B891A00EF
:1031E000FB689342B0D33B6901333B613B683A696A
:1031F0009A42A6D37B691800BD4606B080BDC04682
:10320000708A00089091000845060000848A000832
:10321000A48A000846060000948E000847060000B5
:10322000F48E0008048F000849060000B0B588B08D
:1032300000AFF860B960FB1D1A70FB68002B05D168
:10324000B34BB44AB449B54804F080F8FB685B68F6
:10325000002B05D1B24BAF4AB249B04804F076F822
:10326000FB685B68BC229B58002B05D1AE4BA94A7A
:10327000AE49AA4804F06AF8BB68002B06DAAC4BEA
:10328000A44ACD21C900A54804F060F8FB685B683A
:10329000C0229B58BA689A4205DBA64B9D4AA649B4
:1032A0009E4804F053F8FB685B68C8229B58002BCB
:1032B00005D1A24B974AA249984804F047F8FB6809
:1032C0005B68C4229B58002B05D19E4B914A9E49B6
:1032D000924804F03BF80023FB611123FB18002205
:1032E0001A70FB1D1B78002B28D0FB685B68BC2282
:1032F0009958BA6813005B009B189B00CB180022FA
:103300001A70FB685B68BC229958BA6813005B00AE
:103310009B189B00CB181A7808210A431A70FB6887
:103320005B68BC229958BA6813005B009B189B002D
:10333000CB181A7801210A431A700BE0FB685B680E
:10334000BC229958BA6813005B009B189B00CB18ED
:1033500000221A70FB685B68C4229C58B868FB683E
:103360005B68BC229958BA6813005B009B189B00ED
:10337000CB1801221900A047FB685B68BC22995852
:10338000BA6813005B009B189B00CB185B68002B8E
:1033900000D1B9E0FB685B68BC229958BA68130099
:1033A0005B009B189B00CB181B89002B00D1ABE066
:1033B000BA68FB6811001800FFF780FE0300FB618C
:1033C0000023BB618FE0FB685B68BC229958BA6838
:1033D00013005B009B189B00CB185A68BB695B000D
:1033E000D21812203B1812881A80FB685B68996D0E
:1033F0003B181A8813009B009B189B00CB181B7A64
:10340000002B13D0FB685B68996D3B181A8813007A
:103410009B009B189B00CB185B68002B06D14B4B85
:103420003C4AD221C9003D4803F090FFFB1D1B78A8
:10343000002B20D0FB685B68C4229C58FB685B684B
:10344000996D12257B191A8813009B009B189B000D
:10345000CB185868FB685B68996D7B191A88130054
:103460009B009B189B00CB181B7A9AB2FB6901004A
:103470001800A04724E01123FB1800221A70002333
:103480007B610DE0FB685B68C4229B58F9697A692F
:1034900088181122B918012298477B6901337B6192
:1034A000FB685B68996D1223FB181A8813009B0058
:1034B0009B189B00CB181B7A1A007B699342E1D3BF
:1034C000FB685B68996D1223FB181A8813009B0038
:1034D0009B189B00CB181B7A1A00FB699B18FB6199
:1034E000BB690133BB61FB685B68BC229958BA6851
:1034F00013005B009B189B00CB181B891A00BB694B
:10350000934200D25FE700E0C046BD4608B0B0BDC0
:10351000708A0008AC91000865060000848A0008E3
:10352000A48A000866060000948E00086706000062
:10353000F48E0008048F000869060000548D00080E
:103540006A060000888D00086B060000AC8C00083D
:1035500080B582B000AF78600A00FB1C1A70FB1CBB
:103560001A787968034B1800FFF760FEC046BD4625
:1035700002B080BD3806002090B583B000AF7860FF
:103580000A00FB1C1A707B685B689C697B685B683F
:1035900058697B685B68D968FB1C1B789BB21A0072
:1035A000A047C046BD4603B090BD90B587B000AF00
:1035B000F8600C00100019000B23FB18221C1A7075
:1035C0000823FB18021C1A80BB1D0A1C1A80172333
:1035D000FB1806221A70FB68002B05D1354B364AC2
:1035E00036481E2103F0B2FEFB685B68002B05D154
:1035F000334B314A31481F2103F0A8FEFB685B685A
:10360000DB68002B05D12F4B2B4A2C48202103F0DF
:103610009DFEFB685B689B69002B05D12A4B264AFF
:103620002648212103F092FEFB685B681B7C172271
:10363000BA1812789A4205D3244B1F4A1F482221F8
:1036400003F084FE00233B61FB685B68DB683B6141
:103650003B6950221A703B6901330B22BA18127869
:103660001A7008217B181B881B0A9AB23B69023327
:10367000D2B21A703B6903337A181288D2B21A7028
:10368000BB1D1B881B0A9AB23B690433D2B21A7065
:103690003B690533BA1D1288D2B21A701723FB1882
:1036A0001A78FB6811001800FFF766FFC046BD4698
:1036B00007B090BDC091000840930008D491000865
:1036C000F891000814920008389200086C920008E3
:1036D00080B584B000AF78600F23FB1802221A7007
:1036E0007B68002B05D1264B264A2748362103F05C
:1036F0002DFE7B685B68002B05D1244B214A2248B4
:10370000372103F023FE7B685B68DB68002B05D163
:103710001F4B1C4A1C48382103F018FE7B685B686D
:103720009B69002B05D11B4B164A1748392103F022
:103730000DFE7B685B681B7C0F22BA1812789A42D8
:1037400005D3154B0F4A10483A2103F0FFFD002323
:10375000BB607B685B68DB68BB60BB687E221A70FD
:10376000BB68013300221A700F23FB181A787B689C
:1037700011001800FFF700FFC046BD4604B080BD31
:10378000C091000854930008D4910008F8910008F3
:1037900014920008389200086C92000880B584B03A
:1037A00000AF78600A00FB1C1A700F23FB1802227E
:1037B0001A707B68002B05D1264B274A27484D21DC
:1037C00003F0C4FD7B685B68002B05D1244B224AC3
:1037D00022484E2103F0BAFD7B685B68DB68002B52
:1037E00005D1204B1C4A1D484F2103F0AFFD7B68DB
:1037F0005B689B69002B05D11B4B174A174850216A
:1038000003F0A4FD7B685B681B7C0F22BA1812785A
:103810009A4205D3154B104A1048512103F096FDEA
:103820000023BB607B685B68DB68BB60BB685122C0
:103830001A70BB680133FA1C12781A700F23FB1838
:103840001A787B6811001800FFF796FEC046BD4647
:1038500004B080BDC091000870930008D4910008A6
:10386000F891000814920008389200086C92000841
:1038700080B586B000AFF86008007A6019000B23AD
:10388000FB18021C1A700A203B180A1C1A70172316
:10389000FB183A18127802321A70FB68002B05D117
:1038A000304B314A3148672103F050FD7B68002BD3
:1038B00005D12F4B2C4A2D48682103F047FDFB68AA
:1038C0005B68002B05D12B4B274A2848692103F060
:1038D0003DFDFB685B68DB68002B05D1264B224A67
:1038E00022486A2103F032FDFB685B689B69002B6C
:1038F00005D1224B1C4A1D486B2103F027FDFB68B4
:103900005B681B7C1722BA1812789A4205D31C4BAD
:10391000154A16486C2103F019FD00233B61FB6832
:103920005B68DB683B613B6967221A703B69013366
:103930000B22BA1812781A703B69981C0A23FB18DC
:103940001A787B68190003F043FD1723FB181A78D7
:10395000FB6811001800FFF70FFEC046BD4606B019
:1039600080BDC046C091000884930008D49100082F
:1039700094920008F8910008149200083892000808
:103980006C92000880B584B000AF78600A00FB1C20
:103990001A700F23FB1802221A707B68002B05D1C6
:1039A000264B274A2748802103F0D0FC7B685B68C0
:1039B000002B05D1244B224A2248812103F0C6FC6A
:1039C0007B685B68DB68002B05D1204B1C4A1D48D7
:1039D000822103F0BBFC7B685B689B69002B05D1EF
:1039E0001B4B174A1748832103F0B0FC7B685B68C8
:1039F0001B7C0F22BA1812789A4205D3154B104A35
:103A00001048842103F0A2FC0023BB607B685B6844
:103A1000DB68BB60BB6867221A70BB680133FA1CA5
:103A200012781A700F23FB181A787B68110018009F
:103A3000FFF7A2FDC046BD4604B080BDC09100089E
:103A40009C930008D4910008F89100081492000893
:103A5000389200086C92000880B586B000AFF8601C
:103A6000080011007B600B23FB18021C1A7008234E
:103A7000FB180A1C1A801723FB1804221A70FB6813
:103A8000002B05D13A4B3B4A3B489B2103F05EFC9F
:103A9000FB685B68002B05D1384B364A36489C21C1
:103AA00003F054FCFB685B68DB68002B05D1344BEA
:103AB000304A31489D2103F049FCFB685B689B69F3
:103AC000002B05D12F4B2B4A2B489E2103F03EFCA7
:103AD00017203A1839182023FB1809781B78CB18BF
:103AE0001370FB685B681B7C3A1812789A4205D306
:103AF000254B204A2048A22103F028FC00233B61EB
:103B0000FB685B68DB683B613B6971221A703B694B
:103B100001330B22BA1812781A7008217B181B88FF
:103B20001B0A9AB23B690233D2B21A703B69033363
:103B30007A181288D2B21A702022BB181B78002B78
:103B40000AD07B68002B07D03B69181DBB181A7878
:103B50007B68190003F03CFC1723FB181A78FB68FC
:103B600011001800FFF708FDC046BD4606B080BD35
:103B7000C0910008B4930008D4910008F89100089F
:103B800014920008389200086C92000880B584B046
:103B900000AF78600A00BB1C1A800F23FB180322B9
:103BA0001A707B68002B05D12B4B2C4A2C48BB216B
:103BB00003F0CCFB7B685B68002B05D1294B274ABF
:103BC0002748BC2103F0C2FB7B685B68DB68002BE5
:103BD00005D1254B214A2248BD2103F0B7FB7B6864
:103BE0005B689B69002B05D1204B1C4A1C48BE21F9
:103BF00003F0ACFB7B685B681B7C0F22BA18127861
:103C00009A4205D31A4B154A1548BF2103F09EFB73
:103C10000023BB607B685B68DB68BB60BB686E22AF
:103C20001A70BB1C1B881B0A9AB2BB680133D2B244
:103C30001A70BB680233BA1C1288D2B21A700F23F2
:103C4000FB181A787B6811001800FFF795FCC04636
:103C5000BD4604B080BDC046C0910008CC930008AA
:103C6000D4910008F89100081492000838920008D6
:103C70006C92000890B585B000AF786039607B68C1
:103C80005B68996D3A6813009B009B189B00CB18EA
:103C90001A7A0F23FB1803321A707B68002B05D1A8
:103CA000404B414A4148D42103F050FB7B685B689C
:103CB000002B05D13E4B3C4A3C48D52103F046FB46
:103CC0007B685B68DB68002B05D13A4B364A374886
:103CD000D62103F03BFB7B685B689B69002B05D119
:103CE000354B314A3148D72103F030FB7B685B68A4
:103CF0001B7C0F22BA1812789A4205D32F4B2A4AFE
:103D00002A48D82103F022FB0023BB607B685B6854
:103D1000DB68BB60BB6862221A707B685B68996D68
:103D20003A6813009B009B189B00CB181B881B0A4A
:103D30009AB2BB680133D2B21A707B685B68996D26
:103D40003A6813009B009B189B00CB181A88BB682D
:103D50000233D2B21A70BB68D81C7B685B68996D5D
:103D60003A6813009B009B189B00CB185C687B682B
:103D70005B68996D3A6813009B009B189B00CB18F9
:103D80001B7A1A00210003F023FB0F23FB181A787B
:103D90007B6811001800FFF7EFFBC046BD4605B079
:103DA00090BDC046C0910008E8930008D491000877
:103DB000F891000814920008389200086C920008EC
:103DC00080B584B000AF78607B68002B05D1434B91
:103DD000434A4448EA2103F0B9FA7B685B68002B48
:103DE00005D1414B3E4A3F48EB2103F0AFFA7B68D7
:103DF0005B68DB68002B05D13C4B394A3948EC2124
:103E000003F0A4FA7B685B689B69002B05D1384BF3
:103E1000334A3448ED2103F099FA0E217B1802222F
:103E20001A700D203B187A18127802321A707B68CB
:103E30005B681B7C3A1812789A4205D32D4B284AAE
:103E40002848F62103F082FA7B685B68DB687422FD
:103E50001A700E23FB181B781A017B685B68DB68FD
:103E60000133D2B21A700F23FB1800221A7020E01F
:103E70007B685B687A229B5A9A1C0E23FB181B787E
:103E8000591E0F203B181B78CB1ADB001A410C215E
:103E90007B181A707B685B68DB683A18127802320C
:103EA0009B187A1812781A703B181A783B1801324E
:103EB0001A700F23FA180E23FB1812781B789A42F7
:103EC000D6D30D23FB181A787B6811001800FFF772
:103ED00053FBC046BD4604B080BDC046C09100083B
:103EE00004940008D4910008F89100081492000886
:103EF000389200086C92000880B582B000AF7860FC
:103F00007B68002B06D1224B224A8321490022489C
:103F100003F01CFA7B685B68002B06D11F4B1D4A1F
:103F20000821FF311C4803F011FA7B685B68DB68ED
:103F3000002B06D11A4B174A84214900164803F07A
:103F400005FA7B685B689B69002B06D1154B114A0B
:103F50000A21FF31104803F0F9F97B685B681B7C8C
:103F6000012B06D8104B0B4A0C21FF310A4803F0F5
:103F7000EDF97B685B68DB6877221A707B6801214A
:103F80001800FFF7F9FAC046BD4602B080BDC04632
:103F9000C091000820940008D4910008F89100080E
:103FA0001492000838920008A892000880B584B0E6
:103FB00000AF78600A00FB1C1A707B68002B06D1EA
:103FC0002A4B2B4A8A2149002A4803F0BFF97B6813
:103FD0005B68002B06D1284B254A1621FF31254866
:103FE00003F0B4F97B685B68DB68002B06D1234BD8
:103FF0001F4A8B2149001F4803F0A8F97B685B68C2
:104000009B69002B06D11E4B194A1821FF31194814
:1040100003F09CF90F217B1802221A707B685B6801
:104020001B7C7A1812789A4206D3164B104A1E212E
:10403000FF31104803F08AF90023BB607B685B689E
:10404000DB68BB60BB6876221A70BB680133FA1C60
:1040500012781A700F23FB181A787B681100180069
:10406000FFF78AFAC046BD4604B080BDC091000883
:104070003C940008D4910008F891000814920008BC
:10408000389200086C92000880B586B000AFF860E6
:10409000080011007B600B23FB18021C1A700A2316
:1040A000FB180A1C1A70FB68002B06D13C4B3D4ADA
:1040B000972149003C4803F049F9FB685B68002BF5
:1040C00006D13A4B374A3021FF31374803F03EF9E9
:1040D000FB685B68DB68002B06D1354B314A9821C1
:1040E0004900314803F032F9FB685B689B69002B9B
:1040F00006D1304B2B4A3221FF312B4803F026F9F1
:1041000017217B1803221A70FB685B681B7C7A18E6
:1041100012789A4206D3284B224A9C214900224811
:1041200003F014F900233B61FB685B68DB683B61CB
:104130003B6959221A703B69013302221A703B69AC
:1041400002330A22BA1812781A707B68002B1AD030
:104150003B6903337A6812781A703B6904337A68D2
:1041600052781A703B6905337A6892781A703B6905
:1041700006330B22BA1812781A701722BB18BA1815
:10418000127804321A701723FB181A78FB68110092
:104190001800FFF7F1F9C046BD4606B080BDC04625
:1041A000C091000854940008D4910008F8910008C8
:1041B00014920008389200086C92000880B586B00E
:1041C00000AF786039607B68002B06D14E4B4F4AB8
:1041D0004E21FF314E4803F0B9F87B685B68002B35
:1041E00006D14C4B494AA7214900494803F0AEF893
:1041F0007B685B68BC229B58002B06D1464B434A28
:104200005021FF31424803F0A1F83B68002B06DA49
:10421000424B3E4AA82149003D4803F097F87B688D
:104220005B68C0229B583A689A4206DB3C4B374A8F
:104230005221FF31364803F089F87B685B68C02261
:104240009B587B6100233B6154E00023FB603FE00F
:104250007B685B68BC2299583A6913005B009B1825
:104260009B00CB185B68002B2ED07B685B68BC2260
:1042700099583A6913005B009B189B00CB181B8967
:10428000002B21D07B685B68BC2299583A691300E7
:104290005B009B189B00CB185A68FB685B00D21828
:1042A0000A203B1812881A807B685B68996D3B185E
:1042B0001A8813009B009B189B00CB181B7A1A00CE
:1042C0007B699B187B6100E0C046FB680133FB60A3
:1042D0007B685B68BC2299583A6913005B009B18A5
:1042E0009B00CB181B891A00FB689342B0D33B6933
:1042F00001333B613B683A699A42A6D37B69180057
:10430000BD4606B080BDC046C0910008709400084C
:10431000D4910008F8910008D0920008FC9200089F
:104320000C930008F0B58BB000AFF860B960FB1DCE
:104330001A70FB68002B06D1B74BB84A6E21FF31CB
:10434000B74803F003F8FB685B68002B06D1B54B58
:10435000B24AB7214900B24802F0F8FFFB685B6837
:10436000DB68002B06D1B04BAC4A7021FF31AC4862
:1043700002F0ECFFFB685B689B69002B06D1AB4B3E
:10438000A64AB8214900A64802F0E0FF27217B1881
:1043900008221A70FB685B681B7C7A1812789A42B4
:1043A00006D3A34B9D4A7A21FF319D4802F0CEFFF0
:1043B0000023FB612423FB1800221A802223FB1810
:1043C00000221A800023BB61BA68FB681100180044
:1043D000FFF7F4FE0300BB61FB685B68DB68FB6111
:1043E000FB6959221A70FB69013304221A70FB68B9
:1043F0005B68BC229958BA6813005B009B189B004D
:10440000CA18FB69023352781A70FB685B68BC22D9
:104410009958BA6813005B009B189B00CA18FB6987
:10442000033392781A70FB685B68BC229958BA68AB
:1044300013005B009B189B00CA18FB690433D278F9
:104440001A70FB685B68C8229B58B868FA69511DEE
:1044500001229847FB690633FA1D12781A70FB682F
:104460005B68BC229958BA6813005B009B189B00DC
:10447000CB181A89FB690733D2B21A702023FB18B4
:1044800000221A80ABE0FB685B68BC229958BA68CE
:1044900013005B009B189B00CB185A682023FB1865
:1044A0001B885B00D21816217B1812881A807B1893
:1044B0001A88FB685B68DB6D9A4206DB5D4B574AE6
:1044C000CF214900564802F041FFFB685B68996DB7
:1044D00016203B181A8813009B009B189B00CA18D3
:1044E00014243B1912881A803B191B881B0A9AB2A4
:1044F0002426BB191B8808331900FB695B18D2B24C
:104500001A70BB191B880933FA69D3183A19128833
:10451000D2B21A70BB19BA19128802321A80272235
:10452000BB18BA18127802321A70FB685B68C8228E
:104530009C5822217B181A88BB69D018BB191B888C
:1045400008331A00FB699D18FB685B68996D162398
:10455000FB181A8813009B009B189B00CB181B7A32
:104560009BB21A002900A047FB685B68996D162072
:104570003B181A8813009B009B189B00CB181B7AD2
:1045800099B2BB19BA1912888A181A80FB685B683D
:10459000996D3B181A8813009B009B189B00CB1841
:1045A000197A2722BB18BA1812788A181A70FB6871
:1045B0005B68996D3B181A8813009B009B189B0041
:1045C000CB181B7A99B22222BB18BA1812888A1803
:1045D0001A8020217B181A887B1801321A80FB6808
:1045E0005B68BC229958BA6813005B009B189B005B
:1045F000CB181B892022BA1812889A4200D242E7AF
:104600002723FB181A78FB6811001800FEF7B4FF87
:10461000C046BD460BB0F0BDC091000890940008A4
:10462000D4910008F891000814920008389200080C
:104630006C9200083893000880B584B000AF7860B1
:104640007B68002B06D1284B284ADC2149002848EA
:1046500002F07CFE7B685B68002B06D1254B234A69
:10466000BA21FF31224802F071FE7B685B68DB688B
:10467000002B06D1204B1D4ADD2149001C4802F0C9
:1046800065FE7B685B689B69002B06D11B4B174A54
:10469000BC21FF31164802F059FE0F217B18012280
:1046A0001A707B685B681B7C7A1812789A4206D372
:1046B000134B0E4ADF2149000D4802F047FE00234C
:1046C000BB607B685B68DB68BB60BB6854221A70A8
:1046D0000F23FB181A787B6811001800FEF74CFFB7
:1046E000C046BD4604B080BDC0910008BC9400081F
:1046F000D4910008F891000814920008389200083C
:104700006C92000802B471464908490009564900F4
:104710008E4402BC7047C04602B471464908490045
:10472000095C49008E4402BC7047C0460022430821
:104730008B4274D303098B425FD3030A8B4244D369
:10474000030B8B4228D3030C8B420DD3FF220902AB
:1047500012BA030C8B4202D31212090265D0030B6A
:104760008B4219D300E0090AC30B8B4201D3CB0360
:10477000C01A5241830B8B4201D38B03C01A5241A2
:10478000430B8B4201D34B03C01A5241030B8B42A4
:1047900001D30B03C01A5241C30A8B4201D3CB028F
:1047A000C01A5241830A8B4201D38B02C01A524174
:1047B000430A8B4201D34B02C01A5241030A8B4277
:1047C00001D30B02C01A5241CDD2C3098B4201D38F
:1047D000CB01C01A524183098B4201D38B01C01A0D
:1047E000524143098B4201D34B01C01A5241030984
:1047F0008B4201D30B01C01A5241C3088B4201D333
:10480000CB00C01A524183088B4201D38B00C01ADF
:10481000524143088B4201D34B00C01A5241411A06
:1048200000D20146524110467047FFE701B5002013
:1048300000F0F0F802BDC0460029F7D076E77047D7
:1048400003460B437FD4002243088B4274D30309F1
:104850008B425FD3030A8B4244D3030B8B4228D392
:10486000030C8B420DD3FF22090212BA030C8B42B8
:1048700002D31212090265D0030B8B4219D300E058
:10488000090AC30B8B4201D3CB03C01A5241830BDD
:104890008B4201D38B03C01A5241430B8B4201D38D
:1048A0004B03C01A5241030B8B4201D30B03C01AB6
:1048B0005241C30A8B4201D3CB02C01A5241830A30
:1048C0008B4201D38B02C01A5241430A8B4201D35F
:1048D0004B02C01A5241030A8B4201D30B02C01A89
:1048E0005241CDD2C3098B4201D3CB01C01A5241F0
:1048F00083098B4201D38B01C01A524143098B4279
:1049000001D34B01C01A524103098B4201D30B0161
:10491000C01A5241C3088B4201D3CB00C01A524186
:1049200083088B4201D38B00C01A524143088B424B
:1049300001D34B00C01A5241411A00D201465241E4
:10494000104670475DE0CA0F00D04942031000D303
:104950004042534000229C4603098B422DD3030A58
:104960008B4212D3FC22890112BA030A8B420CD368
:10497000890192118B4208D3890192118B4204D391
:1049800089013AD0921100E08909C3098B4201D311
:10499000CB01C01A524183098B4201D38B01C01A4B
:1049A000524143098B4201D34B01C01A52410309C2
:1049B0008B4201D30B01C01A5241C3088B4201D371
:1049C000CB00C01A524183088B4201D38B00C01A1E
:1049D0005241D9D243088B4201D34B00C01A5241F5
:1049E000411A00D20146634652415B10104601D382
:1049F0004042002B00D54942704763465B1000D30C
:104A0000404201B5002000F005F802BD0029F8D0B1
:104A100016E770477047C0469140030090409C469F
:104A2000203A9340194352426346D340194370479A
:104A300003B47146490840004900095E49008E44AC
:104A400003BC704770B500260C4D0D4C641BA410C0
:104A5000A64209D1002603F035FF0A4D0A4C641B1B
:104A6000A410A64205D170BDB300EB58984701369B
:104A7000EEE7B300EB5898470136F2E7000000007C
:104A80000000000000000000000000000300821889
:104A9000934200D1704719700133F9E70FB404B0A5
:104AA0007047000010B5074B074C5A6320000A00FE
:104AB000064900F0A5FE200000F094FF0028FAD07F
:104AC000002010BD64000020DC0400208C000020C9
:104AD00010B501F0EBFB10BDF0B50024CBB0FB220C
:104AE00021000BA80A94FFF7D1FF6B460126DC8159
:104AF00001F0C4FB00F0DCF800F006F900F044F926
:104B000000F068F900F0AAF9414D0227280002F0F0
:104B100011F92A683F4D1368280033431360EC23D2
:104B2000DB0008933C4B04A9099304940594069771
:104B3000079600F009FE23003A003900280000948F
:104B400000F02AFE22003100280000F051FF28006A
:104B500000F03FFE8023314A314D01933149324804
:104B60000092324A02F057FBFBF7B0FC2B687B2B1C
:104B70004AD12F4B2F481A00CC33B93217701E7010
:104B80002C6002F09DFFFEF799F92B4802F098FF88
:104B9000FBF7ACFC802704000E00BF00224802F0A7
:104BA00051FB0E23FF2220486B440AA902F01AFB96
:104BB000002804D16B460AA8997BFEF71BFAFEF782
:104BC0007DF820003100FBF79FFC002902D11B4B30
:104BD000984207D9FBF78AFC04000E0018483900F8
:104BE00001F0C6FFE4232A685B009A4203D02A68DA
:104BF000144B9A42D2D172B6134B1B6883F30888C8
:104C0000124B1B689847C9E70E4B2B60BBE7C046A9
:104C100040050020DC040020FF070000F000002019
:104C2000FC77002061070000B00000207001002028
:104C300030030020DC940008EC940008B70B00005F
:104C400000080050150300000000010804000108DE
:104C500070B5CB0716D50C4D0C4C2B002200402113
:104C600000F032FE00280DD1EC232268DB009A42CE
:104C700008D16368002B05D1E26829000448D2B24C
:104C800002F09AF970BDC046F001002064000020D7
:104C9000B0000020012307B55B42019001220348C8
:104CA00001A901F0A5FD01980EBDC04648040020F1
:104CB00070B5072601258CB01822002106A8FFF741
:104CC000E5FE002114226846FFF7E0FE0D4A0024AD
:104CD000136805A8B3432B43136002230593FE33E7
:104CE0000893C03B0A93099400F0CCFF2900684662
:104CF0000096019402940394049401F029F90CB0F5
:104D000070BDC0460020024030B58BB01422002197
:104D100005A8FFF7BBFE0120194B8025596B194CE4
:104D2000014359635A6BAD0002400192019A596BDD
:104D30000730014359635A6B02400292029A596B41
:104D400006380143596304215A6B02400392039AC7
:104D50005A6B20000A435A635B6B00220B4004939A
:104D60002900049B01F0FEFE11230693002320007E
:104D700005A905950793089301F040FE0BB030BDDF
:104D8000001002400008005070B5104B104C002578
:104D90002360E1235B0263600C2320006361A56054
:104DA000E5602561A561E56125626562A56201F0A6
:104DB000F1FD2900200001F021FB2900200001F075
:104DC00041FB200001F0FCFA70BDC04600380140F4
:104DD000480400201F4B204A18001900943070B579
:104DE0000260002298310A6019009C310A601900A3
:104DF000A0310A6002241900FF34A4310C8019008C
:104E00001C00A6310A7001211D00A83421600C2469
:104E1000AC352C601D002326B0352E601D00B43546
:104E20002C601C001D00B83421600624BC352C60A9
:104E30001D00123EC0352E601D00C4352C601C00C4
:104E4000C83421601900D033CC310A601A6000F0F8
:104E50007BFB70BD4804002000640040094B0A4AF7
:104E60001800F83010B50260084AFC331A600022BE
:104E700007495A60DA60803299605A6101F0E0FFB8
:104E800010BDC04648040020002000407FBB000049
:104E9000FFFF000010B501F0FDF910BD10B502488C
:104EA00000F02CFE10BDC046DC040020C046FDE72B
:104EB000C046FDE7C046FDE7C046FDE7C046FDE74A
:104EC000C046FDE7C046FDE7C046FDE7C046FDE73A
:104ED000C046FDE7C046FDE7C046FDE7C046FDE72A
:104EE000C046FDE7C046FDE7C046FDE7C046FDE71A
:104EF000C046FDE7C046FDE70222044B10B5F8337B
:104F00001B6852421A61FBF713FB10BD48040020D6
:104F1000C046FDE7C046FDE7C046FDE7C046FDE7E9
:104F2000C046FDE7C046FDE7C046FDE7C046FDE7D9
:104F3000C046FDE7C046FDE7C046FDE70D48854693
:104F400000F0FAFA002103E00B4B5B5843500431A8
:104F50000A480B4B42189A42F6D30A4A02E0002351
:104F600013600432084B9A42F9D3FFF76BFDFFF749
:104F7000B3FDFEE7FC770020949A000800000020B3
:104F8000440400204804002028080020014B586AEF
:104F900080B270470020004070B504AC257800292D
:104FA00006D1164B164A0B31FF31164802F0CEF9E6
:104FB000002A03D10C21144B114AF5E7002B04D130
:104FC0008621124B0E4A4900EFE7002D03D10E2136
:104FD0000F4B0B4AE8E70024AB4204D15D1E521987
:104FE000A34204DC70BD87210A4B054AEBE70D5D47
:104FF0006642451995550134F2E7C046FF94000812
:105000000A97000810950008459500085595000876
:105010006395000870950008037810B50400002B14
:1050200002D0012B06D010BD054802F049FD012336
:105030002370F8E7034802F043FD0223F8E7C04677
:105040008695000892950008037810B50400002B9F
:1050500002D0012B06D010BD054802F031FD01231E
:105060002370F8E7034802F02BFD0223F8E7C0465F
:105070009D950008A7950008037810B50400002B43
:1050800002D0012B06D010BD054802F019FD012306
:105090002370F8E7034802F013FD0223F8E7C04647
:1050A000B0950008BC950008037810B50400002BEB
:1050B00002D0012B06D010BD054802F001FD0123EE
:1050C0002370F8E7034802F0FBFC0223F8E7C04630
:1050D000C7950008D595000810B50100014802F0F9
:1050E00063FC10BDE295000810B5010004000448FF
:1050F00002F05AFC022C02D00022024B1A6010BDB2
:10510000EC950008FC77002010B501F0A3FD0248E3
:1051100002F0D6FC10BDC046F595000810B560221F
:1051200000210248FFF7B2FC012010BDB3050020AA
:10513000010010B5034802F037FC01F0F3F8C04657
:10514000FDE7C046FA95000810B5002906D10A4BC4
:105150000A4A1D310A48FF3102F0F8F800239A424A
:1051600003D11E21074B054AF4E7C418CC54013380
:105170009A42FADC10BDC046FF940008F59600087C
:105180001095000855950008F0B5060089B0002874
:1051900008D00368002B02D0C388002B04D14948F3
:1051A00002F08EFC09B0F0BDF8248269C3690125C4
:1051B00024066D42A4185D416B05E40A1C432300DC
:1051C000203B019301235B420793019B3E485F2BE9
:1051D000E6D83E4B019A9B5C002B23D13C4D3D4FC2
:1051E0006C6001F025FD7B693B48002BD8DB3B4818
:1051F00002F066FC3A4B07A93B61280001F0D0FCA5
:1052000001F028FD079B013304D02100354802F04E
:10521000CBFBC7E7012301992C4A334853542100A3
:1052200002F0C2FBB069F1690123304A5B421218F7
:105230004B41002B01DA2E48B2E70100737DF28862
:105240002C4802F0B1FB0025F3880393AB42A9D9A7
:1052500000273C00336804970593059BFA00585DCE
:105260000021FFF7D9FB049B0C4303437A1C0193F5
:1052700004930294D3B20135072F21D01700039A6B
:105280009542EAD3019A013202D1029A0132DBD06F
:10529000B269AC18E41A01F0CBFC2100019A029B20
:1052A000012001F013FD01F0D5FC2268636801992B
:1052B000914202D102999942C6D021000E48A6E738
:1052C0000823DFE70496000821960008B3050020B4
:1052D0003402002000200240439600084196000856
:1052E00031800000489600086F9600080000FFF724
:1052F00080960008A6960008CB96000801200A4B6D
:1053000082B0196C0143196480211A6C490502406E
:105310000092009ADA6B0A43DA63DB6B0B4001936D
:10532000019B02B07047C0460010024010B5040057
:1053300090B01422002103A8FFF7A8FB202200212F
:1053400008A8FFF7A3FB194B22689A422BD1102320
:1053500008A8089300F0D6FE8020154B4001D96BB9
:1053600000240143D9630821DA6B02400192019ABB
:105370005A6B10480A435A635B6B05940B400293C7
:10538000029B03230393013B049303A90233079376
:10539000069401F033FB1E202200210000F08CFF58
:1053A0001E2000F0B3FF10B010BDC04600640040E6
:1053B00000100240000C005030B5040091B01422DF
:1053C000002103A8FFF762FB2022002108A8FFF7B5
:1053D0005DFB1D4B22689A4233D1012408A8089432
:1053E00000F090FE80200225184BC001196C01438B
:1053F00019641A6C03A902400092009A5A6BA0200B
:1054000022435A635A6BC00522400192019A5A6B9B
:1054100000242A435A635B6B03952B400293029B43
:105420000423049507930594069401F0E7FA4023BA
:10543000074803A90393049505940694079401F083
:10544000DDFA11B030BDC046003801400010024006
:105450000004005007B50B4B02689A4211D180201E
:10546000094A0002116C01431164136C00220340CD
:10547000019313201100019B00F01EFF132000F088
:1054800045FF07BD0020004000100240012070478A
:1054900010B501F079FF162303600120404210BDD2
:1054A00010B501F071FF16230360FEE770B50E0022
:1054B00014000025A54201DB200070BD00E000BF04
:1054C00070550135F6E770B50E0014000025A542B1
:1054D00001DB200070BD705DFFF7DCFB0135F6E7F6
:1054E00001204042704780239B0100204B607047A1
:1054F00001207047002070470B4A0C490300891AAD
:105500000B4A10B51068002801D10A4810601068D5
:10551000C3188B4206D901F037FF0C23036001202A
:10552000404210BD1360FCE700040000FC7700203F
:10553000F8070020280800208022024B12059A60FC
:105540007047C04600ED00E0F8B504000120002CD3
:1055500000D1C1E025005C352B78DAB2002B05D1F3
:1055600023005D3320001A70FFF7E0FE102122684F
:10557000082793698B43936100F098FE0600236827
:105580009A693A4200D08EE001269A6932439A61C4
:1055900000F08CFE070023689A69324200D18FE048
:1055A000022299690A439A6161685B4A1160217C11
:1055B0004022012900D090E0996991439961627C71
:1055C000012A00D08DE080229969D2010A439A61B4
:1055D000A27C012A00D088E09A6950490A409A6169
:1055E0009A694F48A1680240A4200A439A619A69C7
:1055F00082439A611A69943882431A61E268012AE7
:1056000000D077E09869033202439A61A269E069A9
:10561000013A0138000252060243206A013802436F
:105620006069013800040243DA61C02292009142AD
:105630000ED1E26A216B013A0139090112020A43D3
:10564000A16A01390A43616A013909040A43DA602F
:105650001900C0310A68E06B043302430A60D96F55
:10566000626B304E3048314012040A432064DA67DE
:105670002E4AD96F62642E4EA26B314012060A4345
:10568000DA67D4222B4B0021A3642B4B9200E364F6
:105690002A4B23652A4B6365FFF7F8F900200123A5
:1056A000A06520660AE000F001FE801B0A2800D8F1
:1056B00065E70120236E0343236603232B700BE071
:1056C00000F0F4FDC01B0A2800D864E7236E012017
:1056D0001E43032326662B70F8BD99690A439A611D
:1056E0006DE79A6917490A4071E78022996952016A
:1056F0000A4374E7002A00D188E7022A09D08026ED
:105700009F693E439E611E6930431861032A00D0A1
:105710007CE72022986977E700650040FFEFFFFFF4
:10572000FFFCFFFFFFFFE0FF00B4004070B400404B
:10573000FFFFFFF0B0B4004088B5004060B6004005
:1057400078B60040FFBFFFFF030070B55C331B78E5
:10575000013B012B1AD88A68CB680D694E69940702
:1057600006C9002909D1DB061C43006C26432D0421
:1057700092002E431650002070BD416CD2005B0792
:1057800052181D43344315605460F4E70223026E3F
:10579000134303660120EFE730B50C0001005C31D4
:1057A000097801290FD15900039B006819433F2351
:1057B0000430C56F92001143240121439D432943C6
:1057C000C167002030BD0423026E1343036601202D
:1057D000F8E703005C331A78D1B2012A09D101320B
:1057E0001A70026893698B43936100230366180063
:1057F00070470423026E134303660120F8E700009C
:105800000300F7B55C331B78022B57D105682B00DA
:10581000C4331C68A40206D58023026E9B00134388
:105820000366012033E01C680F69A403A30F4C68D2
:1058300001938E680B68002C2AD137439B041F43C9
:10584000BC4648268C69CB6923434C6923430C6AC8
:105850002706019C1F436643CB68446D1B04361921
:105860003B4373600823370064465B42346008376B
:105870009E1B144CCB68E35C9C46BB1963450ED35E
:105880000123019ACC3593402B6083650020FEBD37
:105890003B4333438026F6051E43B446D1E7D37815
:1058A0001B069C46644693781B04234314782343C9
:1058B000547804322402234308C7DAE70823026E2F
:1058C000ADE7C0467C970008F7B5040001935C344F
:1058D0002478022C00D07FE004680F25270040299F
:1058E0005AD190373E682E4206D18023026E5B006B
:1058F0001343036601204EE00126B44663463D682B
:105900002D0E2E401D4203D00434E66F760A1E4051
:1059100048243D68836CAD05AD0FAD196C438027FD
:10592000E4182368FF051F4057602668F600002F23
:1059300049D1760D166080262368B6051E40966014
:105940002368DE0FF607166163689EB2D66163684E
:105950001E03360FD6608026636876031E405661AC
:1059600080266368B6031E40966163685E00760E0B
:10597000166263680834DE0F194B56629C46002697
:105980006346D768DF5DB7421FD80368402921D13D
:10599000943300201D60FEBD98373E682E42A4D08F
:1059A0003D682B0E1E0001252E402B4203D00434EF
:1059B000E66F360A2E4048243D68C36CAD05AD0F36
:1059C000AD196C43ABE7F608B4E7A75D019B9F55A3
:1059D0000136D5E79C33DCE70823026E88E7C04632
:1059E0007C9700080368C433186807231840704781
:1059F000030070B55C331B78013B012B00D96DE0CF
:105A000007240D0000682540836D214201D0DC078A
:105A100022D53824214201D09C071DD5E024640002
:105A2000214201D05C0717D5F0246401214201D046
:105A30001C0711D5E0242402214201D0DC060BD53D
:105A4000C024A402214201D09C0605D5FC242404D4
:105A5000214205D05C0603D40124C66D3443C465DD
:105A6000002D01D0DC0722D43824214201D09C072C
:105A70001DD4E0246400214201D05C0717D4F02437
:105A80006401214201D01C0711D4E02424022142E8
:105A900001D0DC060BD4C024A402214201D09C0614
:105AA00005D4FC242404214205D05B0603D502233F
:105AB000C46D2343C3650B0604D50400DC3423689E
:105AC00013432360CB0504D50400E03423681A4354
:105AD0002260436D19434165002070BD0223026EB0
