:020000040800F2
:10000000FC7700208D240008FD230008012400084F
:1000100000000000000000000000000000000000E0
:10002000000000000000000000000000052400089F
:10003000000000000000000009240008E52300087B
:100040000D240008000000001124000815240008F9
:10005000192400081D240008212400082524000874
:1000600000000000292400082D2400083124000885
:1000700035240008392400083D24000841240008E4
:10008000452400080000000000000000492400088A
:100090006124000865240008692400086D24000814
:1000A0007124000875240008792400087D240008C4
:1000B0008124000885240008ED2300088924000815
:1000C00010B5002805D108210D4B0E4A0E4804F04A
:1000D000E5FB037E002B03D109210C4B094AF5E710
:1000E0000368002B03D10A21094B064AEEE71B687F
:1000F000002B03D10B21074B024AE7E710BDC04696
:1001000029680008405E0008BA660008DE6600083C
:10011000FA6600081667000810B50400FFF7D0FF64
:1001200022681379022B0CD008D8012B09D0074A7A
:100130002021074B07480F3204F0B0FB033B012B93
:10014000F5D813689847002110BDC046405E0008EE
:1001500040670008BA66000870B504000D0000286A
:1001600006D14821184A194B1F32194804F096FB52
:10017000002904D1144A4921164B1F32F5E70B68B8
:10018000002B04D1104A4A21134B1F32EDE70B79A3
:10019000002B04D10C4A4B21104B1F32E5E7042BF6
:1001A00004D9094A4C210E4B1F32DEE71C220021E4
:1001B000043001F013FF0123256020002376FFF7B0
:1001C000ABFFA060E16070BD405E000829680008D8
:1001D000BA6600080667000822670008466700083C
:1001E0006F6700087FB5060003930292FFF768FF70
:1001F0003000FFF791FF009030000191FFF760FFA2
:1002000033681879013803282AD83469756901F0F0
:10021000FDFC020B1F24FF2230697169002301F0ED
:100220008BFE02000B0005E0210C2B040B43220483
:10023000121BAB4120002900029C039D001BA94119
:10024000009C019D001969418018594104B070BD9E
:10025000210A2B060B432206EAE701225242DBE782
:10026000034A3B21034B04482E3204F017FBC046DF
:10027000405E000840670008BA66000810B5040038
:10028000FFF71EFFA268E3682000FFF7ABFF10BD79
:1002900070B5002806D1084A7021084B084844323E
:1002A00004F0FCFA012204694569002312196B412C
:1002B0000261436170BDC046405E000829680008C5
:1002C000BA66000810B502490248FFF745FF10BDA5
:1002D000000200209005002010B50248FFF7CEFF75
:1002E00010BDC0469005002010B502000B0002486A
:1002F000FFF778FF10BDC0469005002010B50248FA
:10030000FFF7C6FF10BDC0469005002070B500285D
:1003100005D10D21194B1A4A1A4804F0BFFA436857
:10032000002B03D10E21184B154AF5E7DC68002C91
:1003300003D10F21154B124AEEE79D69002D03D121
:100340001021134B0E4AE7E75D69002D03D11121FF
:10035000104B0B4AE0E71B7C022B0DD97F23237047
:100360004368DB6859704368DB689A70436803220E
:100370009C69D9685869A04770BDC04629680008C3
:10038000925E000897670008FA660008B7670008E1
:10039000DB6700080D68000870B5002806D12C2125
:1003A0000E4A0F4B0F320F4804F078FA0024A24295
:1003B00009D10A4A2D210C4B0F32F4E7155D067A5C
:1003C0000134AE4207D065B2AB42F7DC7E22FFF7C4
:1003D0009DFF002000E0012070BDC046925E000835
:1003E00029680008976700084669000870B5041E70
:1003F00006D1404A404B41492B32414804F04EFA65
:100400004368002B04D13B4A3E4B3F492B32F4E773
:100410005A68002A05D1FD21364A3C4B2B3289000F
:10042000EBE71A00A0321268002A04D1314A384B97
:1004300038492B32E1E75B789B0703D41122362140
:10044000FFF764FFA57A1322023D06D46268130009
:100450009C331B88AB4205DA312236212000FFF79E
:1004600055FF70BD1300A4331978E37A994201D97E
:100470003322F2E71300AC331B78A8323621200078
:1004800012685BB2FFF788FF0028EAD063681A00A1
:1004900059689E321580063A106802312A0004F02D
:1004A0003FFA636819005A68AD3152780A70A17B2F
:1004B000914201D07322D0E71A0020696169B032FD
:1004C000106051601800A0331B689830984763682B
:1004D0002000AD33197801F0BBFA206961692A0068
:1004E000A37B0133A373EB1712184B4122616361A5
:1004F000B7E7C046925E000829680008F2030000D2
:1005000097670008FA660008F30300003C680008DB
:1005100060680008F5030000F8B5041E06D12F4AF4
:100520002F4B30493F32304804F0B8F94168002978
:1005300004D12A4A2D4B2E493F32F4E74A68002A5B
:1005400004D1264A2B4B2C493F32ECE70B785B0653
:1005500005D4112222212000FFF7D8FE36E0837A4D
:10056000022B01D81322F5E7507893781422002546
:1005700094461B0203435BBACF6D9BB2AF4201DCD2
:100580003122E7E766466E43886D8219805B9842A8
:100590001DD00135F2E710232221D3562000D26866
:1005A000FFF7FAFE002811D063689B6D9E19337A1D
:1005B000002B02D07368002B04D1084A0F4B10495E
:1005C0003F32B0E72900200001F06AF9F8BD917AC6
:1005D000E37A9942DFD93322BCE7C046925E000835
:1005E000296800084D04000097670008FA660008B3
:1005F0004E0400003C6800084F04000040670008FB
:1006000093040000F8B5041E06D1204A204B21496E
:100610005532214804F042F94368002B04D11B4AAB
:100620001E4B1F495532F4E75B68002B04D1174A73
:100630001C4B1D495532ECE7827A022A04D813225A
:100640001921FFF763FEF8BD00259E7801272B00D6
:1006500062681100C0310968A94207DC002BF2D1A1
:1006600031002000227E01F035FAECE7BC3212683E
:10067000A9005018515C0E4205D0431C227E200078
:1006800001F028FA3B000135E2E7C046925E00081F
:10069000296800089B04000097670008FA660008B4
:1006A0009C0400003C6800089D04000010B5002870
:1006B00006D11F4A1F4B20496F32204804F0EEF844
:1006C0004368002B04D11A4A1D4B1E496F32F4E7D0
:1006D0005A68002A04D1164A1B4B1C496F32ECE7BA
:1006E0005978490704D411221921FFF70FFE1DE0A4
:1006F0001900C8310968002904D10D4A144B154965
:100700006F32DAE7C4331B68002B04D1084A124B5E
:1007100012496F32D1E7837A012B01D81322E3E724
:1007200053781222022BDFD1FFF76CFF10BDC046B9
:10073000925E000829680008CD0400009767000851
:10074000FA660008CE0400003C680008CF040000F0
:1007500093680008DE040000C6680008DF0400009B
:10076000F7B5041E06D1394A394B3A4903323A48A3
:1007700004F094F84368002B04D1344A374B3849CD
:100780000332F4E75A68002A04D1304A354B36491F
:100790000332ECE75978090705D41122142120000F
:1007A000FFF7B4FDF7BD1900C8310968002904D16D
:1007B000264A2E4B2E490332D9E71900C4310D6861
:1007C000002D04D1214A2B4B2B490332CFE7817AEC
:1007D000032901D81322E1E7977856783900D278B7
:1007E00031401140FF292DD019000020C031096887
:1007F000BC33019101998842D4DA1C6881006118E8
:100800004C78B44220D18C78BC421DD1CC78944233
:100810001AD1002301220B70A847C3E71900BC318D
:100820000968AA0089180022C43328000A701B68CE
:1008300001329847013563681A00C0321268AA4233
:10084000ECDCAFE70025F6E70130D3E7125F0008E4
:1008500029680008FA04000097670008FA66000893
:10086000FB0400003C680008FC04000093680008DA
:100870000E050000C66800080F050000F0B5040072
:1008800087B0002806D1A94AA94BAA491932AA481B
:1008900004F004F80378002B04D1A44AA74BA8491C
:1008A0001932F4E7002543684573AB4204D19F4AEF
:1008B000A44BA5492732EAE75A6D002A4BDD1B6D90
:1008C000002B48D1994AA14BA1492732DFE73026B6
:1008D0006E431B6D98199B5D032B1DD0836A677354
:1008E000002B04D1914A9B4B9B492732CFE7984775
:1008F00061680B6DC86C9B191A6A5B6AFFF772FC22
:1009000063681B6D9E19F3698B4203D304D1B369ED
:10091000834201D204233370013563685A6D9542D6
:10092000D5DB0025032763685A6D954215DB627B92
:10093000002A00D0C4E0A27A002A00D1C0E05A68A0
:1009400011783E2905D82D2923D8192948D80F29EF
:1009500036D8112288E00127DFE730266E431A6D72
:100960009319925D022A0BD0042A07D1312120006D
:100970002232FFF7CBFC63681B6D9F550135D2E730
:10098000597B5A880091200001219B6800F0F4FEF9
:10099000F1E708002E381028DBD801F041F97D027C
:1009A000DAFFDAFFFD01DAFFDAFFE402DAFFA7037C
:1009B0007A03DAFFDAFFDAFFDAFFDAFFDAFF930011
:1009C000080010380928C4D801F02AF91900880055
:1009D000C3FFC3FF9C03C3FFC3FFC3FFC3FF980351
:1009E000222900D186E32729B3D1DA6B002A00D06F
:1009F000E5E0A4214D4A594B7832FF3147E7DA69E7
:100A0000002A04D1494A7B21554B42323FE71B78EB
:100A1000DB0704D4112210212000FFF777FC616866
:100A2000002904D1414A474B523248312FE7CB6964
:100A3000002B04D13D4A4921494B523227E74D68EA
:100A4000002D04D1394A4A21464B52321FE7A27A7F
:100A5000012A07D91F264A1C96570022B24207DBFB
:100A6000122200E0132210212000FFF74FFC1EE0AD
:100A700018781F00844668780233604502D001323E
:100A800052B2EBE77A78E37A9A4201D93322EAE765
:100A9000637A2072834203D04B6A002B00D09847C0
:100AA00062682000538D217A128D00F010FD002322
:100AB0006268A37252681370237A6372E37A2373B5
:100AC00007B0F0BD1B789B0704D411223E21200003
:100AD000FFF71CFC200000F03BFDE8E71A6B002A42
:100AE00004D1124AB121204B6832D0E6DA6A002ADA
:100AF00004D10E4AB2211D4B6832C8E61B785B0751
:100B000004D4112220001100FFF700FCA37A012B6E
:100B100009D9342600220C276068865753B29E42BA
:100B200026DC122200E0132211219DE7125F00084B
:100B3000296800084105000097670008DE66000884
:100B400042050000FA6600089B02000040670008AA
:100B5000A1020000FA680008AA020000B7690008B4
:100B60002B6900083C6800085C6900088769000878
:100B70003D005543036B013259195B5D9C46436848
:100B80005B789C45CAD14A78E37A9A4201D93322EC
:100B9000CAE708234A68CB5620001121FFF7FCFB67
:100BA000002800D183E7636820001B6B595D00F0CB
:100BB00011FD63681A6BDB6A505D984777E75A6CE2
:100BC000002A05D1D221BB4ABB4B783249005EE6F0
:100BD0009A6C002A04D1B74AA621B84B78320CE7A8
:100BE0001B781B0704D4112227212000FFF78EFB5E
:100BF00063682721DA6B14232000D3561269FFF7AC
:100C0000CBFB002800D152E7A07A012802D813229A
:100C1000272129E763685A68557802222900914301
:100C2000012904D0052D02D0EA1F3A2A44D8DA6BF4
:100C3000002A04D1A24AFD21A24B0E3227E6996C6C
:100C4000002907D040201856002359B2884206DCFC
:100C50001222DDE79A4AFE21984B0E3217E6110068
:100C600018260F785E4318320133AF42EDD14B683E
:100C7000002B01D12622CBE70C23CB56002BF9DD2C
:100C800014230A69CB5620002721FFF785FB002893
:100C900000D10CE761682800CB6B8F6C9B191A7B25
:100CA0005968B84763682900DA6B20009219137BF2
:100CB000526800F0CFFCFAE6042229009143022991
:100CC00005D0042D03D02A00083A3A2AC0D8DA6B9E
:100CD000002A04D17A4A9E217A4B293276E7596C50
:100CE00000294BD040269E570023511CB3424ADBBB
:100CF00001235B4218265E439219117B0231C9B26F
:100D0000884284D1002BA3DB9368002BB2D00D2343
:100D1000D356002BAEDD14232721D35620001269B1
:100D2000FFF73AFB002800D1C1E66268D36B99193E
:100D30004F7B0B7B08780097576C8A684968B847E7
:100D40006368DA6B586896190D22B168B2560230A2
:100D500003F0D8FD3522002800D059E729002000F3
:100D600000F0CAFC6368E5729B6B002B00D19EE625
:100D7000227BAA4200D19AE628001EE7504A3E2173
:100D80004D4B293239E618310F00183F3F78AF42FA
:100D9000B0D001335BB2A9E71B78DB0604D4112283
:100DA00031212000FFF7B2FAA57A032D02D81322D1
:100DB000312159E663681F6D002F03D05A6D0392ED
:100DC000002A01DC1122F3E75968CB788E781B02E8
:100DD00033435BBA9BB20493002330265E43BA19B7
:100DE000508884460498844505D00133039A5BB249
:100DF0009A42F2DCE6E70133E4D0907BE37A984252
:100E000001D93322D4E714234F78D356312120005F
:100E10001269FFF7C1FA002800D148E6012F03D07C
:100E2000032F2BD01222C3E7043DADB2002D08D012
:100E30006268136D51689B192A005868043103F0E9
:100E40006FFD63681A6D9619327B9542AFD1002A07
:100E500007D07268002A04D1194A1B4B1B49433240
:100E600015E53278032A01D02122A1E70022327051
:100E7000D86CFFF703FA3062716218E663681A6D86
:100E8000915D93190329EFD1587B5A8800909B6894
:100E9000200000F071FC0AE61B789B0604D41122A6
:100EA0002E212000FFF732FAA37A022B10D813224A
:100EB0002E21D9E5125F0008E0690008136A0008D6
:100EC000925F0008B76900084067000869020000E7
:100ED00062685368D76D9D7859782D020D431421AF
:100EE00000238C466DBAADB2BB4201DB3122DFE795
:100EF00066465E43906D8119805BA84200D105E192
:100F00000133F1E71023CA68CB5620002E21FFF7EA
:100F100043FA002800D1CAE56768BB6D9E19327A92
:100F2000002A07D07368002B04D17C4A7C4B7D4992
:100F30005632ACE4A17A033908B20029B7DB9042FB
:100F4000B5D1717A002902D126222E318CE5002AF2
:100F500004D079687068033103F0E2FC29002000B6
:100F600000F05CFCA3E51A6E002A04D16B4A6E4BBC
:100F70006E496D328BE41B787F2B04D8112234210B
:100F80002000FFF7C3F9A07A022802D813223421E7
:100F90006AE50F25636859688A782A401D0078350C
:100FA0002A70897809095218033269709042EDD18C
:100FB0001A007C321178E27A914200D921E71A1D99
:100FC00084331B7831212000D26F5BB2FFF7E4F944
:100FD000002800D16BE50023002265680027AA667F
:100FE000EB662B0078331B789E1C0393F6B2AB6E36
:100FF0000493EB6E0593022E1FD1002300222A6773
:101000006B672B00002779331E78039B9B190233F3
:10101000DBB20393FBB29E421FD8049B059A134395
:10102000B4D02B6F6A6F1343B0D028002B6E6030A2
:101030009847002822D12622A9E76B683A00985DDC
:10104000002100F06DFF049B013E1843059BA8663C
:101050001943E966F6B20837C9E7039A0021D31AA3
:101060006A68DBB2D05CFA0000F05AFF2B6F0137E0
:1010700018436B6F286719436967CBE763682000E3
:101080009A6EDB6E226163610123A37300F04EFC54
:101090000DE55B78DB0704D4112237212000FFF730
:1010A00035F9626813008C331978E37A994202D9D2
:1010B00033223721D8E4130094331B789032372140
:1010C000200012685BB2FFF767F9002800D1EEE458
:1010D000636888331B68984700220023226163619C
:1010E00000232000A37300F071FCE0E42000FFF770
:1010F0007DF9DCE42000FFF70FFAD8E42000FFF7C9
:10110000D5FAD4E42000FFF72BFBD0E48A7AE37A07
:101110009A4200D8F6E63322CAE6C046925F00083B
:1011200040670008260300004A6A000855030000D3
:1011300010B50248FFF7A2FB10BDC04638060020DC
:1011400070B5051E05D11D4B1D4A1E491E4803F0F2
:10115000A5FB4368002B03D11C4B194A1C49F5E73A
:101160001A00BC321268002A03D11A4B144A1A49D9
:10117000ECE71A00C8321268002A03D1174B104A54
:101180001749E3E70024C4331B68A3420FD1B221FF
:10119000144B0B4AC900D9E71900BC310968A200F9
:1011A000C833200089181B680122984701346B68F6
:1011B0001A00C0321268A242EEDC70BD2968000835
:1011C000126000088C05000097670008FA660008A6
:1011D0008D050000806A00088E05000093680008F5
:1011E0008F050000C668000870B504000D000028D7
:1011F00006D11D4A1D4B1E490F321E4803F04EFBFF
:10120000002904D1184A1C4B1C490F32F5E70B008A
:101210004160B9331B7803724372002383720B0061
:10122000B8331B78C3720373092303764B785B07CB
:1012300001D5FFF785FF012323702B00CC331B78EA
:10124000002B07D002216268538D128D200000F020
:101250003EF970BDCD352B78002BFAD062680321A2
:10126000538D128DF2E7C04612600008296800080D
:101270009D05000097670008066700089E050000AE
:1012800010B502490248FFF7AFFF10BD3003002040
:101290003806002010B5002806D1084A084B094935
:1012A0001A32094803F0FAFA4068002804D1034AC8
:1012B000064B07491A32F4E710BDC0461260000819
:1012C00029680008CC05000097670008FA66000846
:1012D000CD050000004870473003002070B50400C1
:1012E0001500002806D1134A134B14492C32144818
:1012F00003F0D4FA0378002B04D10E4A114B1249A3
:101300002C32F4E7002904D10A4A104B10492C3240
:10131000EDE7002A04D1074A0E4B0F492C32E6E7CD
:1013200043681A7AAA4204D32A00586803F0F8FAEC
:10133000A57270BD1260000829680008D905000078
:1013400097670008DE660008DA050000A96A000851
:10135000DB050000BA6A0008DC05000010B50A00D1
:1013600001000248FFF7BAFF10BDC0463806002052
:1013700010B5002806D1044A044B054905484032FF
:1013800003F08CFA007A10BD12600008296800088A
:10139000F605000097670008014B187A7047C046B1
:1013A0003806002010B5002806D1044A044B054930
:1013B0000548543203F072FAC07A10BD126000087A
:1013C000296800080206000097670008014BD87AD8
:1013D0007047C04638060020030010B50800002BF7
:1013E00006D1234A234B24496D32244803F056FA90
:1013F0005B68002B04D11E4A214B22496D32F4E771
:101400001900BC310968002904D1194A1E4B1F4933
:101410006D32EAE7002804DA154A1D4B1D496D328A
:10142000E3E71C00C0342468844204DC104A1A4BF1
:101430001A496D32D9E71C00C8342468002C04D145
:101440000B4A174B17496D32CFE7C4331B68002B8B
:1014500005D1C321064A144B6D32C900C5E784008B
:101460000919002A00D009220A700122984710BDEC
:10147000126000082968000812060000976700083B
:10148000FA66000813060000806A000814060000CF
:10149000C86A000815060000D56A00081606000094
:1014A0009368000817060000C668000810B50A0017
:1014B00001000248FFF790FF10BDC046380600202B
:1014C00010B50A008369C1684069984710BD70B5BE
:1014D000002805D11E21174B174A184803F0DEF9E2
:1014E0004568002D03D11F21154B134AF5E7EC6821
:1014F000002C03D12021134B0F4AEEE7AE69002EDA
:1015000003D12121104B0C4AE7E72D7C062D03D88F
:1015100022210E4B084AE0E750256170E270110A63
:101520001A0A2570A1702271637106214068FFF7C5
:10153000C7FF70BD2968000890600008006B0008B4
:10154000FA660008B7670008DB670008246B00082C
:1015500010B5002806D13621174A184B1432184806
:1015600003F09CF94368002B04D1134A3721154B33
:101570001432F4E7DA68002A04D10F4A3821124BFA
:101580001432ECE79969002904D10B4A0F4B14324D
:101590003931E4E71B7C022B04D8074A3A210C4B73
:1015A0001432DCE77E23137000235370022140685D
:1015B000FFF786FF10BDC04690600008296800084C
:1015C000006B0008FA660008B7670008DB670008D0
:1015D000246B000810B5002806D14D21164A174B80
:1015E0002D32174803F05AF94368002B04D1124AF0
:1015F0004E21144B2D32F4E7DA68002A04D10E4A4A
:101600004F21114B2D32ECE79C69002C04D10A4A82
:1016100050210E4B2D32E4E71B7C022B04D8064AE6
:1016200051210B4B2D32DCE75123517013700221F5
:101630004068FFF745FF10BD90600008296800086A
:10164000006B0008FA660008B7670008DB6700084F
:10165000246B0008F8B59D1C0E0004001100EDB2CB
:101660001A00002806D167211B4A1C4B41321C4836
:1016700003F014F9002904D1174A1A4B413268319A
:10168000F5E74368002B04D1134A6921164B413218
:10169000EDE7D868002804D10F4A6A21134B413284
:1016A000E5E79F69002F04D10B4A6B21104B4132B3
:1016B000DDE71B7CAB4204D8074A6C210D4B41325D
:1016C000D5E7672303704670023003F029F929003B
:1016D0006068FFF7F5FEF8BD906000082968000813
:1016E000006B0008F7610008FA660008B767000899
:1016F000DB670008246B000810B5002806D18021A4
:10170000164A174B5832174803F0C8F84368002BA5
:1017100004D1124A8121144B5832F4E7DA68002AC6
:1017200004D10E4A8221114B5832ECE79C69002CFF
:1017300004D10A4A83210E4B5832E4E71B7C022B6A
:1017400004D8064A84210B4B5832DCE767235170DA
:10175000137002214068FFF7B3FE10BD90600008CF
:1017600029680008006B0008FA660008B7670008DF
:10177000DB670008246B0008F8B50F00190006AB02
:10178000050010001A78002D06D19B211C4A1D4B24
:101790006E321D4803F082F86B68002B04D1184AA2
:1017A0009C211A4B6E32F4E7DC68002C04D1144AF9
:1017B0009D21174B6E32ECE79E69002E04D1104A32
:1017C0009E21144B6E32E4E7161D1B7CF6B2B34229
:1017D00004D80B4AA221104B6E32DAE77123237032
:1017E000030A6770A370E070002A04D0002902D0B9
:1017F000201D03F095F831006868FFF761FEF8BD21
:101800009060000829680008006B0008FA6600086C
:10181000B7670008DB670008246B000810B50028D4
:1018200006D1BB21174A184B0532184803F036F889
:101830004268002A04D1134ABC21154B0532F4E753
:10184000D368002B04D10F4ABD21124B0532ECE7BF
:101850009469002C04D10B4ABE210F4B0532E4E7FA
:10186000127C032A04D8074ABF210C4B0532DCE75F
:101870006E221A700A0A99705A7003214068FFF7A5
:101880001FFE10BD1061000829680008006B0008E9
:10189000FA660008B7670008DB670008246B0008D9
:1018A000142270B55143436804009A6DD8685218E9
:1018B000157A0335EDB2002806D1D621164A174B0A
:1018C0002032174802F0EAFF9A69002A04D1124A2E
:1018D000D721144B2032F4E71B7CAB4204D80E4ACC
:1018E000D821114B2032ECE76223037063689B6DB3
:1018F0005B5A1B0A437063689B6D5B5A8370636815
:1019000003309B6D59180A7A496803F009F82900D9
:101910006068FFF7D5FD70BD10610008B76700086B
:10192000006B0008DB670008246B000810B5002876
:1019300006D1EA211E4A1F4B3A321F4802F0AEFF81
:101940004368002B04D11A4AEB211C4B3A32F4E7CE
:10195000DA68002A04D1164AEC21194B3A32ECE736
:101960009969002904D1124A164B3A32ED31E4E765
:101970001B7C042B04D80E4AF621134B3A32DCE7C9
:1019800074231370202243680421DB685A70436873
:10199000DA687A331B8802331B1293704368DA6863
:1019A0007A331B880233D3704068FFF789FD10BD7E
:1019B0001061000829680008006B0008FA6600083A
:1019C000B7670008DB670008246B000810B5002823
:1019D00005D18321174A184B5532490007E0436867
:1019E000002B07D10821134A144B5532FF311448FC
:1019F00002F054FFDA68002A04D10E4A8421114B08
:101A00005532EAE79969002904D10A4A0A210E4BA6
:101A10005532EBE71B7C012B04D8064A0C210B4BFB
:101A20005532E3E77723137001214068FFF748FD43
:101A300010BDC0461061000829680008FA66000859
:101A4000006B0008B7670008DB6700084C6B0008F4
:101A500010B5002805D18A21174A184B7132490068
:101A600007E04368002B07D11621134A144B71324B
:101A7000FF31144802F012FFDA68002A04D10E4A3E
:101A80008B21114B7132EAE79C69002C04D10A4A80
:101A900018210E4B7132EBE71B7C022B04D8064A4F
:101AA0001E210B4B7132E3E7762351701370022134
:101AB0004068FFF705FD10BD1061000829680008A7
:101AC000FA660008006B0008B7670008DB670008CB
:101AD000246B000870B50E00002805D197211E4A1E
:101AE0001E4B0932490007E04568002D07D130211F
:101AF000194A1B4B0932FF311A4802F0CFFEEC683D
:101B0000002C04D1144A9821174B0932EAE7A9693D
:101B1000002904D1104A3221144B0932EBE7297C09
:101B2000032904D80C4A9C21114B0932DAE75921C8
:101B3000217057396170A2700131002B07D01A78DB
:101B40000431E2705A7822719B78A6716371406803
:101B5000FFF7B6FC70BDC046906100082968000818
:101B6000FA660008006B0008B7670008DB6700082A
:101B7000246B000810B5002805D14E21174A184BD8
:101B80002432FF3107E04368002B07D1A721134A15
:101B9000144B24324900144802F080FEDA68002A0F
:101BA00004D10E4A5021114B2432EAE799690029E9
:101BB00004D10A4A0E4B24325131E2E71B7C012B3F
:101BC00004D8064A54210B4B2432DAE7542313700D
:101BD00001214068FFF774FC10BDC0469061000809
:101BE00029680008FA660008006B0008B76700085B
:101BF000DB670008246B000802B4714649084900FD
:101C0000095649008E4402BC7047C04602B4714672
:101C100049084900095C49008E4402BC7047C0462F
:101C200003B47146490840004900095E49008E44EA
:101C300003BC7047002243088B4274D303098B42D4
:101C40005FD3030A8B4244D3030B8B4228D3030C8C
:101C50008B420DD3FF22090212BA030C8B4202D32E
:101C60001212090265D0030B8B4219D300E0090A56
:101C7000C30B8B4201D3CB03C01A5241830B8B425F
:101C800001D38B03C01A5241430B8B4201D34B0348
:101C9000C01A5241030B8B4201D30B03C01A5241AD
:101CA000C30A8B4201D3CB02C01A5241830A8B4232
:101CB00001D38B02C01A5241430A8B4201D34B021B
:101CC000C01A5241030A8B4201D30B02C01A52417F
:101CD000CDD2C3098B4201D3CB01C01A5241830933
:101CE0008B4201D38B01C01A524143098B4201D36D
:101CF0004B01C01A524103098B4201D30B01C01A98
:101D00005241C3088B4201D3CB00C01A5241830811
:101D10008B4201D38B00C01A524143088B4201D33E
:101D20004B00C01A5241411A00D20146524110469E
:101D30007047FFE701B5002000F0F0F802BDC04693
:101D40000029F7D076E7704703460B437FD4002283
:101D500043088B4274D303098B425FD3030A8B423F
:101D600044D3030B8B4228D3030C8B420DD3FF22A9
:101D7000090212BA030C8B4202D31212090265D077
:101D8000030B8B4219D300E0090AC30B8B4201D32A
:101D9000CB03C01A5241830B8B4201D38B03C01A71
:101DA0005241430B8B4201D34B03C01A5241030BE8
:101DB0008B4201D30B03C01A5241C30A8B4201D399
:101DC000CB02C01A5241830A8B4201D38B02C01A44
:101DD0005241430A8B4201D34B02C01A5241030ABB
:101DE0008B4201D30B02C01A5241CDD2C3098B42A0
:101DF00001D3CB01C01A524183098B4201D38B011D
:101E0000C01A524143098B4201D34B01C01A5241BF
:101E100003098B4201D30B01C01A5241C3088B4204
:101E200001D3CB00C01A524183088B4201D38B00EF
:101E3000C01A524143088B4201D34B00C01A524191
:101E4000411A00D201465241104670475DE0CA0F68
:101E500000D04942031000D34042534000229C4628
:101E600003098B422DD3030A8B4212D3FC22890132
:101E700012BA030A8B420CD3890192118B4208D308
:101E8000890192118B4204D389013AD0921100E06A
:101E90008909C3098B4201D3CB01C01A524183097E
:101EA0008B4201D38B01C01A524143098B4201D3AB
:101EB0004B01C01A524103098B4201D30B01C01AD6
:101EC0005241C3088B4201D3CB00C01A5241830850
:101ED0008B4201D38B00C01A5241D9D243088B42A6
:101EE00001D34B00C01A5241411A00D20146634649
:101EF00052415B10104601D34042002B00D54942AD
:101F0000704763465B1000D3404201B5002000F0EB
:101F100005F802BD0029F8D016E770477047C046A3
:101F20009140030090409C46203A9340194352420E
:101F30006346D34019437047F0B5CE46474680B557
:101F4000070099463B0C9C4613041B0C1D000E0019
:101F500061460004140C000C45434B43604361434D
:101F6000C0182C0C20188C46834203D980235B02B6
:101F70009846C444494679437243030C63442D0494
:101F80002D0CC918000440198918C0BCB946B046C8
:101F9000F0BDC04670B500260C4D0D4C641BA4105E
:101FA000A64209D1002603F035FF0A4D0A4C641BF6
:101FB000A410A64205D170BDB300EB589847013676
:101FC000EEE7B300EB5898470136F2E70000000057
:101FD0000000000000000000000000000300821864
:101FE000934200D1704719700133F9E70FB404B080
:101FF0007047000010B5074B074C5A6320000A00D9
:10200000064900F0A5FE200000F094FF0028FAD059
:10201000002010BD64000020DC0400208C000020A3
:1020200010B501F0EBFB10BDF0B50024CBB0FB22E6
:1020300021000BA80A94FFF7D1FF6B460126DC8133
:1020400001F0C4FB00F0DCF800F006F900F044F900
:1020500000F068F900F0AAF9414D0227280002F0CB
:1020600011F92A683F4D1368280033431360EC23AD
:10207000DB0008933C4B04A909930494059406974C
:10208000079600F009FE23003A003900280000946A
:1020900000F02AFE22003100280000F051FF280045
:1020A00000F03FFE8023314A314D019331493248DF
:1020B0000092324A02F057FBFEF704F92B687B2BA3
:1020C0004AD12F4B2F481A00CC33B93217701E70EB
:1020D0002C6002F09DFFFFF7D3F82B4802F098FF29
:1020E000FEF7FAF8802704000E00BF00224802F035
:1020F00051FB0E23FF2220486B440AA902F01AFB71
:10210000002804D16B460AA8997BFFF727F9FFF74F
:102110000FF820003100FEF7E7F8002902D11B4B31
:10212000984207D9FEF7D8F804000E001848390085
:1021300001F0C6FFE4232A685B009A4203D02A68B4
:10214000144B9A42D2D172B6134B1B6883F30888A2
:10215000124B1B689847C9E70E4B2B60BBE7C04684
:1021600040050020DC040020FF070000F0000020F4
:10217000FC77002061070000B00000207001002003
:1021800030030020D4610008E4610008B70B0000B0
:1021900000080050150300000000010804000108B9
:1021A00070B5CB0716D50C4D0C4C2B0022004021EE
:1021B00000F032FE00280DD1EC232268DB009A42A9
:1021C00008D16368002B05D1E26829000448D2B227
:1021D00002F09AF970BDC046F001002064000020B2
:1021E000B0000020012307B55B42019001220348A3
:1021F00001A901F0A5FD01980EBDC04648040020CC
:1022000070B5072601258CB01822002106A8FFF71B
:10221000E5FE002114226846FFF7E0FE0D4A002487
:10222000136805A8B3432B43136002230593FE33C1
:102230000893C03B0A93099400F0CCFF290068463C
:102240000096019402940394049401F029F90CB0CF
:1022500070BDC0460020024030B58BB01422002172
:1022600005A8FFF7BBFE0120194B8025596B194CBF
:10227000014359635A6BAD0002400192019A596BB8
:102280000730014359635A6B02400292029A596B1C
:1022900006380143596304215A6B02400392039AA2
:1022A0005A6B20000A435A635B6B00220B40049375
:1022B0002900049B01F0FEFE112306930023200059
:1022C00005A905950793089301F040FE0BB030BDBA
:1022D000001002400008005070B5104B104C002553
:1022E0002360E1235B0263600C2320006361A5602F
:1022F000E5602561A561E56125626562A56201F081
:10230000F1FD2900200001F021FB2900200001F04F
:1023100041FB200001F0FCFA70BDC04600380140CE
:10232000480400201F4B204A18001900943070B553
:102330000260002298310A6019009C310A6019007D
:10234000A0310A6002241900FF34A4310C80190066
:102350001C00A6310A7001211D00A83421600C2444
:10236000AC352C601D002326B0352E601D00B43521
:102370002C601C001D00B83421600624BC352C6084
:102380001D00123EC0352E601D00C4352C601C009F
:10239000C83421601900D033CC310A601A6000F0D3
:1023A0007BFB70BD4804002000640040094B0A4AD2
:1023B0001800F83010B50260084AFC331A60002299
:1023C00007495A60DA60803299605A6101F0E0FF93
:1023D00010BDC04648040020002000407FBB000024
:1023E000FFFF000010B501F0FDF910BD10B5024867
:1023F00000F02CFE10BDC046DC040020C046FDE706
:10240000C046FDE7C046FDE7C046FDE7C046FDE724
:10241000C046FDE7C046FDE7C046FDE7C046FDE714
:10242000C046FDE7C046FDE7C046FDE7C046FDE704
:10243000C046FDE7C046FDE7C046FDE7C046FDE7F4
:10244000C046FDE7C046FDE70222044B10B5F83355
:102450001B6852421A61FDF751FF10BD480400206D
:10246000C046FDE7C046FDE7C046FDE7C046FDE7C4
:10247000C046FDE7C046FDE7C046FDE7C046FDE7B4
:10248000C046FDE7C046FDE7C046FDE70D4885466E
:1024900000F0FAFA002103E00B4B5B584350043183
:1024A0000A480B4B42189A42F6D30A4A02E000232C
:1024B00013600432084B9A42F9D3FFF76BFDFFF724
:1024C000B3FDFEE7FC770020406C00080000002010
:1024D000440400204804002028080020014B586ACA
:1024E00080B270470020004070B504AC2578002908
:1024F00006D1164B164A0B31FF31164802F0CEF9C1
:10250000002A03D10C21144B114AF5E7002B04D10A
:102510008621124B0E4A4900EFE7002D03D10E2110
:102520000F4B0B4AE8E70024AB4204D15D1E521961
:10253000A34204DC70BD87210A4B054AEBE70D5D21
:102540006642451995550134F2E7C046F761000827
:1025500002640008086200083D6200084D6200083D
:102560005B62000868620008037810B50400002B65
:1025700002D0012B06D010BD054802F049FD012311
:102580002370F8E7034802F043FD0223F8E7C04652
:102590007E6200088A620008037810B50400002BF0
:1025A00002D0012B06D010BD054802F031FD0123F9
:1025B0002370F8E7034802F02BFD0223F8E7C0463A
:1025C000956200089F620008037810B50400002B94
:1025D00002D0012B06D010BD054802F019FD0123E1
:1025E0002370F8E7034802F013FD0223F8E7C04622
:1025F000A8620008B4620008037810B50400002B3C
:1026000002D0012B06D010BD054802F001FD0123C8
:102610002370F8E7034802F0FBFC0223F8E7C0460A
:10262000BF620008CD62000810B50100014802F049
:1026300063FC10BDDA62000810B501000400044814
:1026400002F05AFC022C02D00022024B1A6010BD8C
:10265000E4620008FC77002010B501F0A3FD0248F9
:1026600002F0D6FC10BDC046ED62000810B5602235
:1026700000210248FFF7B2FC012010BDB305002085
:10268000010010B5034802F037FC01F0F3F8C04632
:10269000FDE7C046F262000810B5002906D10A4BDA
:1026A0000A4A1D310A48FF3102F0F8F800239A4225
:1026B00003D11E21074B054AF4E7C418CC5401335B
:1026C0009A42FADC10BDC046F7610008ED630008CD
:1026D000086200084D620008F0B5060089B00028C5
:1026E00008D00368002B02D0C388002B04D14948CE
:1026F00002F08EFC09B0F0BDF8248269C36901259F
:1027000024066D42A4185D416B05E40A1C432300B6
:10271000203B019301235B420793019B3E485F2BC3
:10272000E6D83E4B019A9B5C002B23D13C4D3D4F9C
:102730006C6001F025FD7B693B48002BD8DB3B48F2
:1027400002F066FC3A4B07A93B61280001F0D0FC7F
:1027500001F028FD079B013304D02100354802F029
:10276000CBFBC7E7012301992C4A3348535421007E
:1027700002F0C2FBB069F1690123304A5B421218D2
:102780004B41002B01DA2E48B2E70100737DF2883D
:102790002C4802F0B1FB0025F3880393AB42A9D982
:1027A00000273C00336804970593059BFA00585DA9
:1027B0000021FFF7B5FB049B0C4303437A1C0193F4
:1027C00004930294D3B20135072F21D01700039A46
:1027D0009542EAD3019A013202D1029A0132DBD04A
:1027E000B269AC18E41A01F0CBFC2100019A029BFB
:1027F000012001F013FD01F0D5FC22686368019906
:10280000914202D102999942C6D021000E48A6E712
:102810000823DFE7FC62000819630008B305002005
:1028200034020020002002403B63000839630008A6
:102830003180000040630008676300080000FFF774
:10284000786300089E630008C363000801200A4BF8
:1028500082B0196C0143196480211A6C4905024049
:102860000092009ADA6B0A43DA63DB6B0B40019348
:10287000019B02B07047C0460010024010B5040032
:1028800090B01422002103A8FFF7A8FB202200210A
:1028900008A8FFF7A3FB194B22689A422BD11023FB
:1028A00008A8089300F0D6FE8020154B4001D96B94
:1028B00000240143D9630821DA6B02400192019A96
:1028C0005A6B10480A435A635B6B05940B400293A2
:1028D000029B03230393013B049303A90233079351
:1028E000069401F033FB1E202200210000F08CFF33
:1028F0001E2000F0B3FF10B010BDC04600640040C1
:1029000000100240000C005030B5040091B01422B9
:10291000002103A8FFF762FB2022002108A8FFF78F
:102920005DFB1D4B22689A4233D1012408A808940C
:1029300000F090FE80200225184BC001196C014365
:1029400019641A6C03A902400092009A5A6BA020E5
:1029500022435A635A6BC00522400192019A5A6B76
:1029600000242A435A635B6B03952B400293029B1E
:102970000423049507930594069401F0E7FA402395
:10298000074803A90393049505940694079401F05E
:10299000DDFA11B030BDC0460038014000100240E1
:1029A0000004005007B50B4B02689A4211D18020F9
:1029B000094A0002116C01431164136C00220340A8
:1029C000019313201100019B00F01EFF132000F063
:1029D00045FF07BD00200040001002400120704765
:1029E00010B501F079FF162303600120404210BDAD
:1029F00010B501F071FF16230360FEE770B50E00FD
:102A000014000025A54201DB200070BD00E000BFDE
:102A100070550135F6E770B50E0014000025A5428B
:102A200001DB200070BD705DFFF7DCFB0135F6E7D0
:102A300001204042704780239B0100204B6070477B
:102A400001207047002070470B4A0C490300891A87
:102A50000B4A10B51068002801D10A4810601068B0
:102A6000C3188B4206D901F037FF0C230360012005
:102A7000404210BD1360FCE700040000FC7700201A
:102A8000F8070020280800208022024B12059A60D7
:102A90007047C04600ED00E0F8B504000120002CAE
:102AA00000D1C1E025005C352B78DAB2002B05D1CE
:102AB00023005D3320001A70FFF7E0FE102122682A
:102AC000082793698B43936100F098FE0600236802
:102AD0009A693A4200D08EE001269A6932439A619F
:102AE00000F08CFE070023689A69324200D18FE023
:102AF000022299690A439A6161685B4A1160217CEC
:102B00004022012900D090E0996991439961627C4B
:102B1000012A00D08DE080229969D2010A439A618E
:102B2000A27C012A00D088E09A6950490A409A6143
:102B30009A694F48A1680240A4200A439A619A69A1
:102B400082439A611A69943882431A61E268012AC1
:102B500000D077E09869033202439A61A269E06984
:102B6000013A0138000252060243206A013802434A
:102B70006069013800040243DA61C0229200914288
:102B80000ED1E26A216B013A0139090112020A43AE
:102B9000A16A01390A43616A013909040A43DA600A
:102BA0001900C0310A68E06B043302430A60D96F30
:102BB000626B304E3048314012040A432064DA67B9
:102BC0002E4AD96F62642E4EA26B314012060A4320
:102BD000DA67D4222B4B0021A3642B4B9200E364D1
:102BE0002A4B23652A4B6365FFF7F8F90020012380
:102BF000A06520660AE000F001FE801B0A2800D8CC
:102C000065E70120236E0343236603232B700BE04B
:102C100000F0F4FDC01B0A2800D864E7236E0120F1
:102C20001E43032326662B70F8BD99690A439A61F7
:102C30006DE79A6917490A4071E780229969520144
:102C40000A4374E7002A00D188E7022A09D08026C7
:102C50009F693E439E611E6930431861032A00D07C
:102C60007CE72022986977E700650040FFEFFFFFCF
:102C7000FFFCFFFFFFFFE0FF00B4004070B4004026
:102C8000FFFFFFF0B0B4004088B5004060B60040E0
:102C900078B60040FFBFFFFF030070B55C331B78C0
:102CA000013B012B1AD88A68CB680D694E699407DD
:102CB00006C9002909D1DB061C43006C26432D04FC
:102CC00092002E431650002070BD416CD2005B076D
:102CD00052181D43344315605460F4E70223026E1A
:102CE000134303660120EFE730B50C0001005C31AF
:102CF000097801290FD15900039B006819433F232C
:102D00000430C56F92001143240121439D432943A0
:102D1000C167002030BD0423026E13430366012007
:102D2000F8E703005C331A78D1B2012A09D10132E5
:102D30001A70026893698B4393610023036618003D
:102D400070470423026E134303660120F8E7000076
:102D50000300F7B55C331B78022B57D105682B00B5
:102D6000C4331C68A40206D58023026E9B00134363
:102D70000366012033E01C680F69A403A30F4C68AD
:102D800001938E680B68002C2AD137439B041F43A4
:102D9000BC4648268C69CB6923434C6923430C6AA3
:102DA0002706019C1F436643CB68446D1B043619FC
:102DB0003B4373600823370064465B423460083746
:102DC0009E1B144CCB68E35C9C46BB1963450ED339
:102DD0000123019ACC3593402B6083650020FEBD12
:102DE0003B4333438026F6051E43B446D1E7D378F0
:102DF0001B069C46644693781B04234314782343A4
:102E0000547804322402234308C7DAE70823026E09
:102E1000ADE7C04674640008F7B5040001935C3464
:102E20002478022C00D07FE004680F252700402979
:102E30005AD190373E682E4206D18023026E5B0045
:102E40001343036601204EE00126B44663463D6805
:102E50002D0E2E401D4203D00434E66F760A1E402C
:102E600048243D68836CAD05AD0FAD196C438027D8
:102E7000E4182368FF051F4057602668F600002FFE
:102E800049D1760D166080262368B6051E409660EF
:102E90002368DE0FF607166163689EB2D661636829
:102EA0001E03360FD6608026636876031E40566187
:102EB00080266368B6031E40966163685E00760EE6
:102EC000166263680834DE0F194B56629C46002672
:102ED0006346D768DF5DB7421FD80368402921D118
:102EE000943300201D60FEBD98373E682E42A4D06A
:102EF0003D682B0E1E0001252E402B4203D00434CA
:102F0000E66F360A2E4048243D68C36CAD05AD0F10
:102F1000AD196C43ABE7F608B4E7A75D019B9F557D
:102F20000136D5E79C33DCE70823026E88E7C0460C
:102F3000746400080368C433186807231840704796
:102F4000030070B55C331B78013B012B00D96DE0A9
:102F500007240D0000682540836D214201D0DC0765
:102F600022D53824214201D09C071DD5E0246400DD
:102F7000214201D05C0717D5F0246401214201D021
:102F80001C0711D5E0242402214201D0DC060BD518
:102F9000C024A402214201D09C0605D5FC242404AF
:102FA000214205D05C0603D40124C66D3443C465B8
:102FB000002D01D0DC0722D43824214201D09C0707
:102FC0001DD4E0246400214201D05C0717D4F02412
:102FD0006401214201D01C0711D4E02424022142C3
:102FE00001D0DC060BD4C024A402214201D09C06EF
:102FF00005D4FC242404214205D05B0603D502231A
:10300000C46D2343C3650B0604D50400DC34236878
:1030100013432360CB0504D50400E03423681A432E
:103020002260436D19434165002070BD0223026E8A
:10303000134303660120F8E77047704770477047F5
:103040007047704770477047704770470368F0B526
:103050001A6D5F6D196D1740E022520117405A6DCD
:1030600085B00A4007210A400092196D5A6D04008C
:103070000A4038210A400192196D5A6D0A40F12127
:1030800009040A400292196D5A6D5D6D0A40E021F3
:103090001E6D09030A4003920122710606D5A90993
:1030A000114203D03F321A65FFF7CDFF0123F2052D
:1030B00010D52A0A1A420DD0236880201A00190060
:1030C000D832E031126809684000186511402000CC
:1030D000FFF7B6FF002F05D02368390020001F65D9
:1030E000FFF7AAFF009B002B06D0009A236811006F
:1030F00020001A65FFF754F8019B002B06D0019AB7
:103100002368110020001A65FFF797FF0123B2051D
:1031100009D56A0A1A4206D080222368920020004C
:103120001A65FFF78BFF012332060FD5EA091A4211
:103130000CD0236880201A001900D432DC311268C8
:103140000968186511402000FFF779FF0123B204D8
:1031500009D56A0B1A4206D080222368920120000A
:103160001A65FFF76EFF0123320409D5EA0B1A42F4
:1031700006D080222368120220001A65FFF762FF42
:10318000012372040AD5AD0B1D4207D080222368AB
:10319000D2011A658023226E13432366039B002B02
:1031A00006D0039A2368110020001A65FFF74DFF2F
:1031B000029B002B05D02368029A1A65236E1343E5
:1031C0002366236E002B02D02000FFF73DFF05B0E1
:1031D000F0BD0000F8B5051E01D10120F8BD03685F
:1031E000DB070DD42B689B074FD42B681B0700D53A
:1031F000A5E004222B68134200D0D0E00020EDE7C8
:103200003821864C4368A2680A40082A02D1002B64
:10321000E8D1E2E780225202934211D1226813439F
:10322000236000F0EBFA80270600BF0223683B42D0
:10323000D8D100F0E3FA801B6428F7D90320CDE74A
:10324000A021C9028B4208D180232168DB020B43F5
:10325000236023681A432260E3E7226870490A402A
:10326000226022686F490A402260002BD9D100F009
:10327000C5FA80270600BF0223683B42B2D000F0A7
:10328000BDFA801B6428F7D9D8E73822634CEB6875
:10329000A16811421DD1002B9FD062686B69624901
:1032A0001B020A40134363602368604A13402A6983
:1032B0001343236023685E4A9B045B0FDA401300CC
:1032C0005C4A13605C4B186800F058FA00288CD0F8
:1032D00083E7002B20D02368544A802713402A69B3
:1032E000FF0013432360802322685B0013432360A5
:1032F00000F084FA060023683B4207D062686B69DD
:1033000049491B020A40134363606EE700F076FAF6
:10331000801B0228EFD991E72368484A8027134091
:10332000236000F06BFA0600FF0023683B4200D1E7
:103330005BE700F063FA801B0228F6D97EE73821AC
:10334000364CAA69A3680B40182B03D1002A00D081
:103350004FE742E70123002A10D0226E02271343D1
:10336000236600F04BFA0600236E3B4200D040E794
:1033700000F044FA801B0228F6D95FE7226E02278C
:103380009A43226600F03AFA0600236E3B4200D1CF
:103390002FE700F033FA801B0228F6D94EE73821D8
:1033A0001E4CA868A3680B40202B03D14342584110
:1033B000C0B213E7E36D012810D11843E06500F0B7
:1033C0001DFA02260500E36D334200D016E700F037
:1033D00015FA1B4B401B9842F5D92FE7052806D15B
:1033E0001A430123E265E26D1343E365E7E7012138
:1033F0008B43E365E36D9343E3650028DFD100F081
:10340000FDF902260500E36D334200D1F6E600F037
:10341000F5F90B4B401B9842F5D90FE7001002401D
:10342000FFFFFEFFFFFFFBFFFF80FFFFFFC7FFFF68
:10343000006CDC020004002008040020FFFEFFFFF7
:103440008813000007203822124B10B519689C68B9
:10345000890801400131144207D11B68DB0A03408F
:103460000D48D840FEF7E6FB10BD986810400828CC
:103470000BD098681040202809D09B6800201A4083
:10348000182AEFD1FA20C001ECE70448EAE78020CF
:103490000002E7E700100240006CDC0200127A0034
:1034A000F7B504000D00002801D10120FEBD07275B
:1034B0004B4E33683B408B422AD321688B073BD469
:1034C000CB074AD4072733683B40AB420AD933685D
:1034D000BB432B43336000F091F9019033683B40CC
:1034E000AB426DD123683F4D5B0771D4FFF7AAFF54
:1034F000AB683D4A1B051B0F9B009B581F221340C6
:10350000D8403A4B18603A4B186800F037F9CDE7CD
:103510003368BB430B43336000F070F901903368AC
:103520003B40AB42C9D000F069F9019BC01A314B56
:103530009842F4D90320B9E72A4A4B0706D5936885
:103540002D481840B0231B010343936093682B4818
:103550000340E06803439360B2E71C22214F3B68BD
:103560009343A26813433B606268012A19D13B6808
:103570009B039AD50721BB688B431343BB6000F0C4
:103580003DF901903823BA681A406368DB009A421B
:1035900098D000F033F9019BC01A164B9842F1D92C
:1035A000C8E7002A03D13B685B05E3D47DE702232B
:1035B000032A03D1396E1942DCD176E7F96DFAE7B7
:1035C00000F01CF9019BC01A0A4B984286D9B1E75A
:1035D000AB680B4A134022691343AB6086E7C046D1
:1035E0000020024000100240146400080004002083
:1035F0000804002088130000FF84FFFFFFF0FFFF96
:10360000FF8FFFFF10B5FFF71DFF064B064A9B68B3
:103610001B051B0F9B009B581F221340D840034BD8
:10362000186010BD0010024014640008000400205F
:1036300010B5FFF7E7FF054B054A9B685B045B0F7E
:103640009B009B581F221340D84010BD0010024021
:1036500054640008F0B505002B68002085B05B06B7
:1036600022D580223E4C5205E36B0600134207D15F
:10367000E36B01361343E363E36B13400393039B54
:10368000E26DC02311009B00364F19401A4244D10D
:103690000020E36D1F40EB691F43E765012E03D156
:1036A000E36B314A1340E3632A68D30706D503244A
:1036B0002B494B6DA343AC6823434B65930706D559
:1036C00027492A4C4B6D2340EC6823434B659306F6
:1036D00006D52349AC694B6D9B009B0823434B6582
:1036E000D30606D51E491F4C4B6D23406C692343FE
:1036F0004B65530706D51A491D4C4B6D23402C6969
:1037000023434B65130606D5E021154A13688B4306
:1037100069680B43136005B0F0BDEB699942B7D0FF
:103720008023E26DE06D11005B020343E365E36D0E
:10373000104839400340E365E165D307A8D500F0A0
:103740005DF801900222E36D1342A1D100F056F81A
:10375000019BC01A084B9842F4D903209EE7C0464B
:1037600000100240FFFCFFFFFFFFFFEFFFCFFFFF56
:10377000FF3FFFFFFFFFFEFF8813000070B5104BF7
:1037800005001978002901D1012070BDFA208000C0
:10379000FEF750FA0B4B01001868FEF74BFA00F0E9
:1037A00077F8041EF0D1032DEED802000120290085
:1037B000404200F029F8044B20001D60E5E7C046B8
:1037C00004040020000400200804002010B500209C
:1037D000FFF7D4FF041E03D1FFF738F8200010BD17
:1037E0000124FBE7034A044B11681B785B18136044
:1037F0007047C046FC07002004040020014B1868F5
:103800007047C046FC07002030B5FF2503242A007E
:103810000440E400A24089012940D243A140C3B240
:1038200000280ADBC0240B4B80088000C018A400CD
:1038300003591A401143015130BD0F200340083B8A
:1038400005489B089B001B18D86902401143D961A9
:10385000F2E7C04600E100E000ED00E0002805DBF3
:103860001F2318401E3B8340014A13607047C04627
:1038700000E100E0BFF34F8F034B044ADA60BFF36F
:103880004F8FC046FDE7C04600ED00E00400FA059A
:103890008022431E5204012093420DD2C021074AC8
:1038A00007485360036A09061B021B0A0B430362A5
:1038B00000200723906013607047C04610E000E0CE
:1038C00000ED00E0F8B5436E0400002B02D10D4B73
:1038D0008366F8BD03680C4E9F689B680B4D5B0FB9
:1038E000F05CE95CC000FEF72FFA23006A33188011
:1038F0003B015B0FF05CE95CC000FEF725FA683421
:103900002080E6E7010001008C6400088464000860
:1039100070B504008434227803000220012A11D0FB
:103920001D002422012688352A601A681168106853
:10393000B043106004480140002058662023116005
:103940002B60207070BDC046FFFFFFDFF8B504009C
:10395000250084352A7808000223012A18D0012185
:10396000260029702268883622333360176813686E
:103970008B4313609368DB00D908014391602000FA
:10398000FFF7A0FF23681F602023336000232B7004
:103990001800F8BDF8B5050084352B7804000A003E
:1039A0000220012B18D026002423013828708836E5
:1039B000336023681F681968814319609968074854
:1039C0000140114320009960FFF77CFF236800202D
:1039D0001F60202333602870F8BDC046FFFFFFF151
:1039E00030B5EFF31084012282F310880168134D83
:1039F0000B682B400B6084F31088EFF3108182F387
:103A0000108802680E4C93682340936081F31088FD
:103A1000C36E012B0AD1EFF3108183F310881024B9
:103A200002681368A343136081F310880300202207
:103A30008C331A600023C366436730BDDFFEFFFF8F
:103A4000FEFFFFEF70B504002569A16802682943F5
:103A50006569C36929431068534D194328400143E0
:103A6000116051685148256A0140E0680143516086
:103A7000A169906829434E4D284001430F20916071
:103A8000D16A8143606A0143D1624A498A4217D1AF
:103A90000320802548492D024A6D0240013A022A3E
:103AA00000D979E04548805CAB4221D0082800D994
:103AB00070E0FEF7ABF8736F4E6F696F6F6F6C005D
:103AC0003F498A4205D03F498A4202D03E498A4254
:103AD00060D180221202934260D1FFF7A9FD031E3C
:103AE00017D10020394BA36600236367A36770BD1D
:103AF00008284FD8FEF780F8F14E054E2A4E4E4E5C
:103B00000D00096832480906490F0131FEF792F8A5
:103B10000300626A2F495200515A1800FEF78AF8D2
:103B2000656840006B08C0182900FEF783F80200A2
:103B3000294B103A9A422DD80F23020000079A43CE
:103B400093B2400F22681843D060CAE7FFF77AFCAF
:103B5000C5E709681E480906490F0131FEF76AF8F2
:103B6000636A1C4A5B00995AFEF764F865686B0843
:103B7000C0182900FEF75EF80200174B103A9A426F
:103B800008D82368D860ACE7FFF75CFC08E0802029
:103B90000002E5E70120A5E7AB429ED0FFF748FD14
:103BA00000289ED0DCE7C046F369FFCFFFCFFFFFC0
:103BB000FFF4FF1100380140001002409464000837
:103BC0000044004000480040004C0040010001005B
:103BD000006CDC0298640008EFFF0000836A30B5D7
:103BE0001A0706D50168284C4A682240846B224394
:103BF0004A60DA0706D50168244C4A682240C46A44
:103C000022434A609A0706D50168214C4A6822403F
:103C1000046B22434A605A0706D501681D4C4A6866
:103C20002240446B22434A60DA0606D501681A4CEA
:103C30008A682240C46B22438A609A0606D50168CE
:103C4000164C8A682240046C22438A605A0610D5BA
:103C50000168134D4A68446C2A4022434A6080221E
:103C60005203944205D14A680E4C2240846C224390
:103C70004A601B0606D502680B4953680B40C16CAD
:103C80000B43536030BDC046FF7FFFFFFFFFFDFFCA
:103C9000FFFFFEFFFFFFFBFFFFEFFFFFFFDFFFFF69
:103CA000FFFFEFFFFFFF9FFFFFFFF7FFF7B50400E8
:103CB0000D00170000932268D3692B405B1B59420B
:103CC0004B41BB4201D0002027E0089B0133F3D0D9
:103CD000FFF794FD009BC01A089B98422ED8002B3A
:103CE0002CD0042123681A680A42E4D02A003C310F
:103CF000403A8A43DFD0DA69082611003140019149
:103D000032420BD020001E62FFF76AFE2300903380
:103D10001E600023012084342370FEBD8022D969F7
:103D200012011142C7D01A622000FFF759FE23008A
:103D3000202290331A60019B843423700320ECE727
:103D4000F0B51600020085B08832039313680400B2
:103D50000D000220202B3AD10138002937D0002E47
:103D600035D08023A1685B01994204D12369002BDF
:103D700001D105422BD1230000219033196021236A
:103D80001360FFF73BFD230054331E8002331E8077
:103D900002938023A268070000265B019A4204D1A7
:103DA0002369B34201D12E001D00230056331B8826
:103DB0009AB2002B0DD1039B2000009340213B00C1
:103DC000FFF774FF20238834236000280ED105B04C
:103DD000F0BD039B0022009380213B002000FFF7F1
:103DE00065FF002804D02023883423600320EEE7F9
:103DF0002268002D0BD133880236DB05DB0D936280
:103E0000029B029A1B88013B9BB21380CDE72B7863
:103E100001359362F4E700000300F7B500270400C2
:103E200090331F60FFF7EAFC2600236805001B683B
:103E300084361B071CD58021284B3A000093890348
:103E400003002000FFF732FFB84211D0EFF31081DA
:103E5000012383F310888020226813688343136052
:103E600081F3108820238834236037700320FEBD3F
:103E7000270023688C371B685B0725D58021174BEB
:103E80000022009320002B00C903FFF70FFF00283A
:103E90001AD0EFF31080012282F310882168104DB0
:103EA0000B682B400B6080F31088EFF3108082F3D7
:103EB000108821688B6893438B6080F310882023DF
:103EC0003B6000233370D1E722000020202388329A
:103ED00013603B60E06620673070C8E7FFFFFF01BA
:103EE000DFFEFFFF70B5041E01D1012070BD05008B
:103EF00088352B68002B04D1020084321370FEF742
:103F000003FD2423012122682B6013688B43136077
:103F1000A36A002B02D02000FFF760FE2000FFF70D
:103F200091FD0128E1D0236807495A6820000A4022
:103F30002A215A609A688A439A60012219680A43C2
:103F40001A60FFF769FFD1E7FFB7FFFF524AF0B5EC
:103F50008218541EA241002387B0053202910592B7
:103F6000029A12681400DC4001D107B0F0BD0124B0
:103F70009C4003940399144001940A4200D189E0C3
:103F8000029A102452681500A5430495022D10D101
:103F90000F27072539001D40AD00A940DC08A4000B
:103FA0000419266A8E43029909690F40AF403743CE
:103FB0002762032421005D00A9401440AC4006683C
:103FC000CF438E432643049C0660013C012C0ED84F
:103FD00002998668CC683E40AC4034438460D40685
:103FE000E40F9C40466803998E4334434460032A9F
:103FF00050D0C46802993C408F68AF402743C760E7
:10400000D10047D503271E003E40BE400F24B440D8
:1040100022499D08AD006D18296EA1430391A0218E
:104020000024C90588420CD01D490134884208D0BB
:104030001C490134884204D01B493C00884200D00E
:10404000059CB44003990C4301992C660E00174C53
:10405000CD43E76F3E43D10301D43E002E40E667D7
:10406000134E019FF46F2743910301D42C40270086
:104070000A4CF7672768019E3E43D10201D43E00F7
:104080002E4026606668019F3743920201D42E407D
:1040900037006760013363E700ECFFAF00180240B0
:1040A0000004005000080050000C005004180240AA
:1040B00008180240002A01D0816170478162FCE744
:1040C000426913000B401B049143194381617047FF
:1040D000044A05495369C0000B401843034B184379
:1040E000506170470020024007FCFFFF0200010002
:1040F000F7B5204F05003B7802240191012B18D021
:104100000123FA203B70002380007B6000F056F80A
:10411000041E0CD12B68042B0DD1FA20164A174B24
:10412000516980000B43536100F048F804000023FC
:104130003B702000FEBD0123019A5B4213606E6854
:104140006B68AA689B18B3420BD93000FFF7C0FF19
:10415000FA20800000F032F8002808D00400019B0B
:104160001E600221044A53698B435361DFE7013625
:10417000E6E7C046000800200020024004000100DD
:104180000020054B5A69824205DA044A9A60044AC3
:104190009A605869C00F70470020024023016745AC
:1041A000AB89EFCD8022044B120659690A435A614C
:1041B0005869C043C00F704700200240F8B50500A1
:1041C0008027FFF71BFB7F024619114C23693B42F6
:1041D00005D0FFF713FBB042F7D3032007E02369B4
:1041E0000C4A1340236103D001200B4A5360F8BDF1
:1041F000FFF704FB80262D18F602236918003040D3
:104200003342F4D0FFF7FAFA8542F6D8E5E7C04624
:1042100000200240FAC3000000080020F7B5174E46
:104220000193337804000D0002200092012B1ED070
:104230000123FA203370002380007360FFF7BEFF74
:10424000002812D10E4F012C12D17B6923437B61D0
:10425000009B2B60BFF36F8F019B6B60FA20800087
:10426000FFF7ACFF7B69A3437B6100233370FEBD86
:104270002800009901F0DCFDF0E7C04600080020AE
:10428000002002400200030001203D3211788142EB
:104290001CD1022111701B680F4A934209D0802261
:1042A000D205934205D00D4A934202D00C4A934264
:1042B0000DD19A680B4900200A40062A06D007391A
:1042C0008A4203D0012219680A431A6070471A68AB
:1042D000104318600020F9E7002C01400004004062
:1042E0000040014007000100224A10B503689042D7
:1042F00006D08024E405A04202D01F4CA0420CD17D
:104300007024A3434C682343904212D08024E405D8
:10431000A0420ED0184CA0420BD0184CA04208D09E
:10432000174CA04205D0174CA04202D0164CA04218
:1043300003D1164C2340CC6823438024A3434C690B
:1043400023438C68C4620C688462904208D00C4A93
:10435000904205D00B4A904202D00B4A904201D1C4
:104360000A690263042201680A4302600122426171
:10437000036010BD002C01400004004000200040FC
:10438000004001400044014000480140FFFCFFFFA5
:1043900070B504000120002C23D025003D352B787A
:1043A000DAB2002B05D123003C3320001A70FEF74F
:1043B000F9FA02232B702068211DFFF795FF2200D8
:1043C000012300204832137047340A3A13705370A7
:1043D0009370D370137153719371D37113722370EF
:1043E0002B7070BD302313B50B4369460B706B46C1
:1043F00004004A700021D81C05229970FDF7EEFDDB
:10440000082269462068FDF7F5FD13BDF0B50E00E2
:10441000040011001D00A3B0002807D13248FDF7A9
:10442000E5FD01256D42280023B0F0BD0389AB42B4
:104430000AD22E48FDF7DAFD2A0023892C4902A86A
:1044400000F0F0FD0325EDE7431C0193DB7F012B1A
:1044500004D12848FDF7CAFD0225E3E7002745817E
:104460002A008781406800F05BFA65890F20616847
:10447000072D15D802AB28402A001870581C00F0F0
:104480004FFA072202AB0133521B58193900FDF7CE
:10449000A5FD0822300002A9FDF7ACFD0500C2E72A
:1044A00002AB5D702D0A0540102005431D700622E9
:1044B000981C00F035FA0822300002A9FDF79AFD99
:1044C000051EB0D10126A389A6730633A3812061FE
:1044D000FDF7A6FD6061FDF7A3FD019B6430A061BF
:1044E000E561DE779FE7C046B0640008BE6400085F
:1044F0000F6500083C65000810B513000A0001684C
:10450000FFF784FF10BD0000F0B5931E04001500F6
:1045100085B0062B31D802A800F002FA082202ABBF
:10452000E8180021521BFDF759FD02AB1B78180952
:104530003F2B22D8FDF76AFB02235FAD27003C37F3
:104540003B78012B0DD00023A36302AB1E78330709
:1045500003D03607360FB54206D86E48FDF746FD44
:104560000BE006235B42EFE702AB591C3200A06A66
:1045700000F0D6F90223E6853B7005B0F0BD2700B8
:104580003C373B78012B05D00023A363082D04D0D2
:104590006148E3E706235B42F7E702AB1E785B78EE
:1045A0003607360DF6185D48072ED7D9A38DB342CE
:1045B0000CD25B48FDF71AFD0823002202215B4262
:1045C000A3633A702000FFF70DFFD6E702AB991CFA
:1045D0000622A06A00F0A4F90123E6853B70514B46
:1045E0002A00002120002363FFF7FCFEFDF718FDE1
:1045F00064306063C1E723003C3301931B78012BD7
:1046000003D006235B42A363B7E7270002AB1B7806
:1046100032373A781B071B0F9A422ED1208EE38D3A
:104620001B1A9BB21E1C072B00D90726B6B2B54237
:1046300001DC3D4892E7A36A3200181802AB591C0E
:1046400000F06EF9238EF61826863B780133DBB234
:104650000F2B00D900233B70FDF7E2FC228EE38D87
:10466000643060639A420FD22300333319780139E2
:10467000C9B200290AD019707FE704235B42A36303
:104680000023019A137078E70223FAE708221A70D0
:1046900098E7671CFE7F012E00D06EE7022D0ED03A
:1046A000FDF7BEFC0F2202AB1B786430A061134003
:1046B000022B06D108225242E261FB775DE71B48DC
:1046C0004CE7012B0BD1E37C0133DBB2E374012B0C
:1046D00000D852E707235B42E3610933EDE7002B83
:1046E00000D04AE702AB5B78002B10D09BB223824C
:1046F00002AB9B781A000F32D2B2082A03D95EB2FD
:10470000F643F6171E400023A674E37435E7084B02
:10471000EDE7C0466F6500088E650008B7650008C4
:10472000E365000806000108186600083566000801
:10473000FFFF0000F8B5040026003C361D0033786A
:104740000800022B0CD1E38D1F1C934200D9171CCB
:10475000A16ABAB200F0E4F800202F803070F8BDF2
:1047600005204042FBE7F7B504000E00150000935A
:1047700008AB04CB00210192083038221F88FDF7D6
:104780002DFC009B26602381019B6560A785A362A9
:10479000F7BD000073B5461CF37F0400012B1DD14B
:1047A000038A002B10D0837C002B08D16389072B50
:1047B00024D87521354B364A364800F06FF84569E4
:1047C000FDF72EFC2D1AF1D4A569FDF729FC2D1A51
:1047D00004D502235B42E3610433F37726003C36C1
:1047E0003378012B09D1656BFDF71AFC2D1A04D51E
:1047F00003235B42A3630023337073BD0F21A27BAD
:10480000114020220A4369460A70A1895B1A9BB2B3
:104810001D1C072B00D907256368ADB259186B46DC
:104820002A00581C00F07CF86B4607220133002157
:10483000521B5819FDF7D2FB082269462068FDF784
:10484000D9FB00281ED1A389ED18A37BA5810133D4
:10485000DBB20F2B18D9A073238A0F4A934201D0E1
:10486000013B2382FDF7DCFB6430A061FDF7D8FB40
:10487000A37CA2891B18636163899A42A4D3002395
:10488000F377A1E70223FBE7A373E5E7536600088C
:104890009D66000867660008FFFF000030B5140041
:1048A0001A00094B05001B6885B0D868074B002C1F
:1048B00001D1074B1C00019300912B000549029484
:1048C00000F010F800F09CFC00000020716B000864
:1048D0003B6500087E6B0008014B18687047C046B6
:1048E000000000200EB403B5010003AB044804CB64
:1048F0000068019300F044F802B008BC03B0184708
:104900000000002030B500240139A24201D100206E
:1049100005E0035D01340D5DAB42F6D0581B30BDA0
:10492000002310B59A4200D110BDCC5CC4540133B1
:10493000F8E7936810B5013B9360002B04DA9469A3
:10494000A34207DB0A2905D01368581C10601970B0
:10495000080010BD00F086FB0100F9E7F8B506007D
:104960000F001400D518AC4201D1002007E02178D7
:104970003A003000FFF7DDFF0134431CF3D1F8BDEE
:10498000F0B5A1B006000C001F000392002804D06F
:104990008369002B01D100F069FD8E4B9C421CD134
:1049A0007468636EDB0705D4A3899B0502D4A06DF0
:1049B00000F0FDFDA3891B0702D52369002B1DD143
:1049C0002100300000F0A4FB002817D0636EDB0745
:1049D0000DD50120404221B0F0BD7F4B9C4201D15A
:1049E000B468DEE77D4B9C42DBD1F468D9E7A3894C
:1049F0009B05EED4A06D00F0DBFDEAE7002308ADD7
:104A00006B6120336B761033AB760797039F3B784F
:104A1000002B01D0252B4ED1039BFB1A0593039B42
:104A20009F420DD0059B21003000039AFFF796FFAF
:104A3000431C00D1B5E06A69059B944663446B61F1
:104A40003B78002B00D1ACE001227B1C03930023B8
:104A500052426A6004A9543252182B60EB60AB607A
:104A60001370AB65039B052219785D4800F00EFEBC
:104A7000039B5F1C002820D12A68D30604D553234A
:104A800004A95B1820211970130704D5532304A926
:104A90005B182B211970039B1B782A2B16D0002141
:104AA000EB68039F3A78781C303A8446092A4FD93C
:104AB000002911D117E00137A9E7494B2A68C01A2C
:104AC0000123834013432B600397CBE7079B191DFA
:104AD0001B680791002B01DB0B9304E05B42EB604A
:104AE000022313432B603B782E2B0AD17B782A2B91
:104AF00037D1079B02371A1D1B680792002B2DDB4D
:104B0000099303223978374800F0C0FD002807D008
:104B1000344B2A68C01A40238340134301372B606B
:104B200039787B1C062230480393297600F0AEFDCD
:104B3000002845D02D4B002B27D10722079B073398
:104B40009343083307936B69049A9B186B615DE785
:104B50000A214B4367469B180939A3E701235B42AF
:104B6000CEE700231A0001376B603978781C3039A2
:104B70008446092903D9002BC3D00992C1E70A232F
:104B80005A4367465218093BEFE707AB00932200F0
:104B900029003000164B00E000BF0490049B013355
:104BA000D1D1636EDB0705D4A3899B0502D4A06D28
:104BB00000F0FEFCA3895B0600D50AE70D980AE722
:104BC00007AB0093220029003000094B00F082F867
:104BD000E3E7C046006C0008206C0008E06B0008AA
:104BE000AD6B0008B36B0008B76B00080000000055
:104BF0005D490008F7B5150001938A680B690C0040
:104C00000090934200DA130022002B6043321278A6
:104C1000002A01D001332B6023689B0602D52B6844
:104C200002332B602268062317001F401A4227D048
:104C3000230043331B785A1E93412268920630D4D6
:104C4000220001990098089E4332B047431C25D0AA
:104C5000062320682A68E16800250340042B03D15D
:104C60008D1AEB43DB171D40A3682269934201DDD7
:104C70009B1AED180027BD4220D1002010E001371B
:104C8000E3682A689B1ABB42D2DD22000123019906
:104C90000098089E1932B047431CF0D101204042D1
:104CA000FEBD3020E1184331087021005A1C453107
:104CB0000978A218433202331170C1E722000123A0
:104CC00001990098089E1A32B047431CE6D001377C
:104CD000D1E70000F0B58BB006920A00433207938B
:104CE000059004920A7E0C00109B782A07D8622A4D
:104CF00009D8002A00D1C1E0582A00D18CE0260052
:104D00004236327022E0100063381528F7D8FCF7DD
:104D100087FF16001F00F6FFF6FFF6FFF6FF1F00E5
:104D2000F6FFF6FFF6FFF6FFA80036009A00F6FF42
:104D3000F6FFB900F6FF3600F6FFF6FF9E002600EC
:104D40001A684236111D1960136833700123A7E0F9
:104D5000086819680A1D05060BD50D681A60002D34
:104D600003DA2D23049A6D421370614B0A270393D3
:104D70001BE00D681A604106F1D52DB2EFE70D6812
:104D80001968081D18602E0601D50D6803E06D0630
:104D9000FBD50D68ADB2564B082703936F2A00D0A0
:104DA00002372300002243331A706368A360002B8C
:104DB00003DB0422216891432160002D02D1049E6F
:104DC000002B0CD0049E28003900FCF7B9FF039B90
:104DD000013E5B5C33702B0005009F42F3D9082F26
:104DE00009D12368DB0706D563682269934202DC98
:104DF0003023013E3370049B9B1B2361079B2100E2
:104E000000930598069B09AAFFF7F4FE431C4CD1BA
:104E1000012040420BB0F0BD45310A70344A039284
:104E20001A68216820CA1A60080616D5CB0702D571
:104E30002023194321601027002DB2D1202322689E
:104E40009A432260ADE7202209680A4322602200CB
:104E5000782145321170274AE1E74806E6D5ADB220
:104E6000E4E71A680D68101D4969186013682E067A
:104E700001D5196002E06D06FBD519800023049E60
:104E80002361BBE71A68111D196016680021300004
:104E9000626800F0FBFB002801D0801B6060636843
:104EA00023610023049A1370A8E72369320006994E
:104EB0000598079DA847431CAAD023689B0715D4D3
:104EC000099BE0689842A5DA1800A3E722000123B5
:104ED00006990598079E1932B047431C98D00135B2
:104EE000E368099A9B1AAB42F0DCE9E70025F7E793
:104EF000BE6B0008CF6B00080FB40B4B13B51C68DA
:104F0000002C05D0A369002B02D1200000F0AEFADE
:104F100005AB2000049AA1680193FFF731FD16BC90
:104F200008BC04B01847C0460000002070B505005A
:104F30000E00002804D08369002B01D100F096FAFE
:104F4000AB69AC68002B02D1280000F08FFA2D4B22
:104F50009C4222D16C68636EDB0705D4A3899B0554
:104F600002D4A06D00F023FBA3891B0702D523699F
:104F7000002B29D12100280000F0CAF8002823D0F6
:104F800001256D42636EDB0705D4A3899B0502D41E
:104F9000A06D00F00DFB280070BD1B4B9C4201D1A1
:104FA000AC68D8E7194B9C42D5D1EC68D3E7013601
:104FB000A360002B04DAA2699A4216DC0A2914D0F5
:104FC00023685A1C22601970A3683178013B0029BC
:104FD000EDD1A360002B0FDA280022000A3100F087
:104FE00041F80A25431CCDD1CAE72200280000F071
:104FF00039F8431CE8D1C3E70A2523685A1C22600C
:105000001D70BFE7006C0008206C0008E06B000812
:1050100010B5034B01001868FFF788FF10BDC046AC
:10502000000000200EB400B50B499CB01DAB0290EF
:105030000690079104910948094904CB059100683D
:1050400002A9019300F0B4FC0023029A13701CB073
:1050500008BC03B01847C046FFFFFF7F00000020D8
:105060000802FFFFF8B505000E001400002804D068
:105070008369002B01D100F0F9F9224B9C422ED11B
:105080006C68A369A360A3891B0732D52369002B31
:105090002FD023682269F7B2981A6369F6B2834267
:1050A00005DC2100280000F03FF9002827D1A36883
:1050B0000130013BA36023685A1C22601F706369A2
:1050C000834204D0A389DB0707D50A2E05D121002E
:1050D000280000F029F9002811D13000F8BD0A4B52
:1050E0009C4201D1AC68CCE7084B9C42C9D1EC682A
:1050F000C7E72100280000F00BF80028C9D00126DE
:105100007642EAE7006C0008206C0008E06B0008BB
:10511000374B70B51D6806000C00002D05D0AB693B
:10512000002B02D1280000F0A1F9324B9C420FD194
:105130006C680C23E25E93B211072DD4D90611D40A
:1051400009230120336037331343A381404270BDEC
:10515000294B9C4201D1AC68EBE7284B9C42E8D13B
:10516000EC68E6E75B0713D5616B002908D02300E4
:105170004433994202D0300000F0A6FA0023636362
:105180002422A3899343A3810023636023692360BE
:105190000823A2891343A3812369002B0BD1A021EB
:1051A0008022A389890092000B40934203D0210002
:1051B000300000F027FA0C22A35E01201A0099B2F9
:1051C000024003420FD00022A26062695242A261F3
:1051D000002022698242BAD10A06B8D54022134380
:1051E000A3810138B3E7880700D46269A260EFE7C2
:1051F00000000020006C0008206C0008E06B000834
:10520000062010B500F010FD0120FDF7F1FB0000B5
:10521000F7B58B8905000C001A075FD44A68002A8D
:1052200004DC0A6C002A01DC0020FEBDE76A002FC6
:10523000FAD0002280212E682A601A0049010A4013
:105240000B4234D0606DA3895B0706D56368C01A32
:10525000636B002B01D0236CC01A0200216A00236B
:105260002800E76AB847A189431C06D12B681D2B8B
:1052700031D82C4ADA40D3072DD500236360236947
:105280002360CB0405D5431C02D12B68002B00D131
:105290006065616B2E600029C6D0230044339942BB
:1052A00002D0280000F010FA00206063BDE701235F
:1052B0002800216AB847431CC5D12B68002BC2D0F7
:1052C0001D2B01D0162B01D12E60ADE74023A28902
:1052D0001343A381A9E740230B43FAE70F69002F8B
:1052E000A2D00A680F60D21B019200229B0700D156
:1052F0004A69A260019B002B00DC95E73A00280078
:10530000019B216AA66AB047002806DC40230120E1
:10531000A28940421343A38187E7019B3F181B1AD0
:105320000193E7E7010040200B6970B505000C0010
:10533000002B02D10025280070BD002804D083690D
:10534000002B01D100F092F8144B9C421BD16C68E9
:105350000C22A35E002BEDD0626ED20704D49B0515
:1053600002D4A06D00F023F928002100FFF750FFC0
:10537000636E0500DB07DED4A3899B05DBD4A06D3B
:1053800000F016F9D7E7064B9C4201D1AC68DFE785
:10539000044B9C42DCD1EC68DAE7C046006C0008A4
:1053A000206C0008E06B0008002310B504000360C7
:1053B00043608360818143661900C2810361436158
:1053C000836108225C30FCF709FE054B24626362AE
:1053D000044BA362044BE362044B236310BDC0463D
:1053E000695C0008915C0008C95C0008F55C000875
:1053F00010B5024900F0BAF810BDC04629530008A4
:1054000070B568254A1E55430E002900743100F01E
:10541000C7F9041E08D000212A00016046600C3044
:10542000A0606832FCF7DAFD200070BD10B50248BC
:1054300000F0BDF810BDC0461908002010B50248A4
:1054400000F0B6F810BDC0461908002010B502489B
:1054500000F0ADF810BDC0461A08002010B5024893
:1054600000F0A6F810BDC0461A08002013B50400CD
:10547000FFF7ECFFA369002B02D0FFF7EFFF13BD8E
:10548000A364E3642365134B134A1B68A262019370
:10549000A34201D10123A361200000F01FF8606046
:1054A000200000F01BF8A060200000F017F8002298
:1054B0000421E0606068FFF777FF01220921A068FE
:1054C000FFF772FF02221221E068FFF76DFF012350
:1054D000A361D2E7D0610008F1530008F8B50700D6
:1054E000FFF7A4FF1F4B1E68B369002B02D13000E9
:1054F000FFF7BCFF4836B4687368013B04D53368D6
:10550000002B22D03668F6E70C22A55E002D1AD1BA
:105510002000154B5830E360656600F047F8FFF750
:105520008DFF2000082229002560A56065602561A7
:105530006561A5615C30FCF751FD6563A563A564F9
:10554000E5642000F8BD6834D7E704213800FFF790
:1055500057FF041E3060D5D1FFF770FF0C233B606E
:10556000EFE7C046D06100080100FFFFF7B5040077
:1055700006000027019148346368A5680093009BEA
:10558000013B009304D52468002CF5D13800FEBD02
:10559000AB89012B08D90E22AB5E013304D0290060
:1055A0003000019B984707436835E8E7704770472C
:1055B0007047000070B50E001D000E23C95E140078
:1055C00096B0002908DA0C22B35E00222A601B067E
:1055D00011D48023DB000FE06A4600F0B7FB0028FF
:1055E000F1DBF02301991B021940054BC9184B420E
:1055F00059412960EDE740230020236016B070BDBB
:1056000000E0FFFFF7B502268B8905000C0033424E
:1056100006D0230047332360236101236361F7BD74
:105620006A4601ABFFF7C6FF00990700280000F0AB
:10563000B7F8002808D10C22A35E9A05EFD4032204
:1056400093431E43A681E4E70F4BAB628023A289FC
:1056500020601343A381009B20616361019B002BA9
:105660000DD028000E23E15E00F082FB002806D05A
:105670000322A38993431A0001231343A381A08922
:105680000743A781CBE7C046F1530008C9B282188F
:10569000904201D10020704703788B42FBD001304B
:1056A000F6E710B5884202D98B18984203D300233D
:1056B00007E08B5C8354013AFBD210BDCC5CC45430
:1056C00001339A42FAD1F8E770B50500002910D0ED
:1056D0000C1F2368002B00DAE418280000F06EFB92
:1056E0001D4A1368002B05D163601460280000F088
:1056F0006DFB70BDA34208D9216860188342F3D1C5
:1057000018685B6841182160EEE71A005B68002B9F
:1057100001D0A342F9D911685018A0420BD12068DA
:105720000918501811608342E0D118685B6841186D
:1057300011605360DAE7A04202D90C232B60D5E751
:1057400021686018834203D118685B6841182160A2
:1057500063605460CAE7C0461C08002070B50F4E55
:105760000D0031680400002902D100F021FA3060F8
:105770002900200000F01CFA431C0AD00323C51C9A
:105780009D43A84207D0291A200000F011FA431CBB
:1057900001D101256D42280070BDC04620080020BF
:1057A000F7B50322CB1C9343083306001F000C2BD4
:1057B00032D20C27B94231D8300000F0FFFA324D16
:1057C0002B681C00002C2ED139003000FFF7C6FFDB
:1057D0000400431C1ED12C682500002D4AD12368EB
:1057E0002900E3183000019300F0E2F9019B8342A5
:1057F00043D123680337FF1A03239F4308370C2F35
:1058000000D20C2739003000FFF7A8FF431C34D02A
:105810002368DF19276013E0002BCBDA0C23002567
:1058200033602800FEBD2268D11B20D40B2917D974
:10583000E2192760A34211D12A60636811605360A6
:105840003000250000F0C2FA07220B35231D9543D6
:10585000EA1A9D42E5D05B1BA350E2E75A60ECE7F1
:105860006268A34201D12A60EAE75A60E8E72300B0
:105870006468A7E72C006D68AFE70C233000336045
:1058800000F0A4FACDE7C0461C080020F7B50700D9
:105890000E001400002905D11100FFF781FF05005B
:1058A0002800FEBD002A03D1FFF70EFF2500F7E711
:1058B00000F094FA0190844203D835004308A342D3
:1058C000EED321003800FFF76BFF051EE8D0019BE7
:1058D00022009C4200D91A0031002800FFF720F86E
:1058E00031003800FFF7F0FEDAE70000F0B58E680F
:1058F00085B007000C00039201939E423CD8902390
:105900008A89DB001A4234D00969236860695B1A0E
:10591000029303234343DD0FED18019B02980133EB
:105920001B186D10AB4200D91D00530532D529005C
:105930003800FFF735FF061E09D10C233B604023DA
:105940000120A28940421343A38105B0F0BD029A11
:105950002169FEF7E5FFA389144A1A408023134307
:10596000A381029B2661F61826606561019EED1AEF
:10597000A560019B9E4200D9019E320003992068D8
:10598000FFF78FFEA36800209B1BA36023689E196E
:105990002660DAE72A003800FFF778FF061EE0D11C
:1059A00038002169FFF790FEC7E7C0467FFBFFFF85
:1059B000F0B5A1B003901D008B890F0016001B06E7
:1059C00011D50B69002B0ED14021FFF7E9FE38609D
:1059D0003861002805D10C23039A0138136021B0E7
:1059E000F0BD40237B61002308AC63612033637604
:1059F0001033A376079535002B78002B01D0252B8B
:105A000047D1AB1B0593B5420CD032003900039847
:105A1000FFF76CFF431C00D1AEE06269059B944622
:105A2000634463612B78002B00D1A5E001220023A1
:105A30005242626004A9543252186E1C2360E36023
:105A4000A3601370A365052231785448FFF71EFE4A
:105A5000751C00281FD12268D30604D5532304A93E
:105A60005B1820211970130704D5532304A95B1870
:105A70002B21197033782A2B16D0350000210A20EB
:105A8000E3682A786E1C303A092A4ED9002911D1D0
:105A900017E00135B0E7414B2268C01A012383406B
:105AA00013432E002360CEE7079B191D1B68079147
:105AB000002B01DB0B9304E05B42E3600223134302
:105AC00023602B782E2B0AD16B782A2B35D1079B9C
:105AD00002351A1D1B680792002B2BDB0993304EF1
