:020000040801F1
:10000000FC7700208D4501087944010881440108EE
:1000100000000000000000000000000000000000E0
:100020000000000000000000000000008D440108F6
:100030000000000000000000954401085144010840
:100040009D44010800000000A5440108AD440108DA
:10005000B5440108BD440108C5440108CD44010868
:1000600000000000D5440108DD440108E544010812
:10007000ED440108F5440108FD4401080545010867
:100080000D450108000000000000000015450108B2
:10009000354501083D450108454501084D45010824
:1000A000554501085D450108654501086D45010894
:1000B000754501087D450108614401088545010831
:1000C00080B582B000AF78607B68002B05D1144BFF
:1000D000144A1548082108F0A1F87B681B7E012B03
:1000E00005D0124B0F4A1048092108F097F87B6899
:1000F0001B68002B05D10E4B0A4A0B480A2108F059
:100100008DF87B681B681B68002B05D1094B054ADD
:1001100005480B2108F082F8C046BD4602B080BDFC
:10012000949A0108DC9B0108A89A0108CC9A01085E
:10013000E89A0108049B010880B584B000AF78609C
:1001400000220023BA60FB607B681800FFF7B8FF4D
:100150007B681B681B79042B21DC032B16DA012B2F
:1001600002D0022B09D01AE07B681B681B689847F5
:100170000300BB600023FB6017E07B681B681B6803
:1001800098470300BB600023FB600EE07B681B68A0
:100190001B6898470300BB600023FB6005E0064B2B
:1001A000064A0748202108F039F8BA68FB681000B1
:1001B0001900BD4604B080BD309B0108CC9B0108EE
:1001C000A89A0108F0B58DB000AF78620022002334
:1001D000BA62FB627B6A1800FFF772FF7B6A1B68DA
:1001E0001B79042B52D000DD72E0032B36D000DDEA
:1001F0006EE0012B02D0022B18D069E07B6A1869EF
:10020000596902000B00140E1D02FD61FD692543B2
:10021000FD611302BB61BA69FB69121A8B41B86AAE
:10022000F96A12184B41BA62FB6257E07B6A18699F
:10023000596902000B00140C1D047D617D69254382
:100240007D6113043B613A697B69121A8B41B86A7C
:10025000F96A12184B41BA62FB623FE07B6A186987
:10026000596902000B00140A1D06FD60FD68254354
:10027000FD601306BB60BA68FB68121A8B41B86A4E
:10028000F96A12184B41BA62FB6227E07B6A18696F
:100290005969B861F96102000B00160C1904796004
:1002A00079683143796013043B603A687B68B869C8
:1002B000F969121A8B41110C1D040D431404121913
:1002C0006B41B86AF96A12184B41BA62FB6205E0E9
:1002D0000A4B0B4A0B483B2107F0A0FF7B6A1A69C7
:1002E0005B69B86AF96A12184B41BA62FB62BA6A72
:1002F000FB6A10001900BD460DB0F0BD309B01082F
:10030000EC9B0108A89A010880B582B000AF786024
:1003100039607B68002B05D1254B264A26484821A9
:1003200007F07CFF3B68002B05D1244B214A224873
:10033000492107F073FF3B681B68002B05D1204B58
:100340001C4A1D484A2107F069FF3B681B79002BB6
:1003500005D11C4B174A18484B2107F05FFF3B683B
:100360001B79042B05D9184B124A13484C2107F06E
:1003700055FF7B6820220021180003F079FC7B6880
:100380003A681A607968002200230A614B617B6831
:1003900001221A767B681800FFF7CEFE02000B00E0
:1003A00079688A60CB60C046BD4602B080BDC04659
:1003B000949A0108BC9B0108A89A0108389B01087F
:1003C000489B0108689B0108949B010880B582B096
:1003D00000AF78607B681800FFF772FE7B689A6850
:1003E000DB687968080000F007F802000B001000D5
:1003F0001900BD4602B080BD80B588B000AFF8607E
:100400003A607B60FB681800FFF75AFEFB68180033
:10041000FFF792FE02000B003A617B61002200238D
:10042000BA61FB61FB681800FFF7CCFE3A697B6993
:1004300012184B413A617B617A687B699A4207D80E
:100440007A687B699A420ED13A683B699A420AD926
:10045000386979693A687B68801A994102000B0013
:10046000BA61FB6109E0386979693A687B68801A8A
:10047000994102000B00BA61FB61BA69FB69100087
:100480001900BD4608B080BD80B582B000AF78606D
:100490007B68002B05D10A4B0A4A0B48702107F0F4
:1004A000BDFE7B681A695B690120002112184B416F
:1004B00079680A614B61C046BD4602B080BDC04646
:1004C000949A0108049C0108A89A010880B500AF1D
:1004D000044A054B11001800FFF716FFC046BD4641
:1004E00080BDC04604020020C004002080B500AFDB
:1004F000044B1800FFF76AFF02000B001000190000
:10050000BD4680BDC004002080B582B000AF386019
:1005100079603A687B6805490800FFF76DFF0200C3
:100520000B0010001900BD4602B080BDC0040020C1
:1005300080B500AF034B1800FFF7A6FFC046BD46CD
:1005400080BDC046C0040020B0B584B000AF786064
:1005500008001100FB1C021C1A70BB1C0A1C1A703C
:100560007B68002B05D1314B314A32480D2107F011
:1005700055FE7B685B68002B05D12F4B2C4A2D481C
:100580000E2107F04BFE7B685B68DB68002B05D112
:100590002A4B274A27480F2107F040FE7B685B68FB
:1005A0009B69002B05D1264B214A2248102107F0D8
:1005B00035FE7B685B685B69002B05D1214B1C4ACB
:1005C0001C48112107F02AFE0F257B1903221A70FF
:1005D0007B685B681B7C7A1912789A4221D87B6809
:1005E0005B68DB687F221A707B685B68DB680133BD
:1005F000FA1C12781A707B685B68DB680233BA1CDD
:1006000012781A707B685B689C697B685B685869C4
:100610007B685B68D9687B191B789BB21A00A0477E
:1006200000E0C046BD4604B0B0BDC046149C010801
:1006300064A00108289C0108489C0108649C0108EA
:10064000889C0108BC9C010880B586B000AFF860AA
:1006500008007A6019000B23FB18021C1A700A2389
:10066000FB180A1C1A70FB68002B05D12B4B2C4A77
:100670002C482C2107F0D2FD7B68002B05D12A4B9A
:10068000274A28482D2107F0C9FD1723FB1800220F
:100690001A701623FB18FF221A701523FB1800226C
:1006A0001A7017E015217B181B785BB27A68D31893
:1006B0001A78FB681B7A9A4205D11623FB187A1820
:1006C00012781A7010E015217B181B780133DAB20A
:1006D0007B181A701523FA180A23FB18127852B2E5
:1006E0001B785BB29A42DDDB1623FB181B785BB2EA
:1006F000013308D10B23FB181978FB687E22180000
:10070000FFF722FF03E01723FB1801221A701723BB
:10071000FB181B781800BD4606B080BD149C01086C
:1007200074A00108289C0108EC9C010880B584B0E5
:1007300000AF78607B68002B05D14D4B4D4A4E4889
:10074000472107F06BFD7B685B68002B05D14B4BA5
:10075000484A4948482107F061FD7B685B68DB69CE
:10076000002B05D1464B434A4348492107F056FD2B
:100770007B685B685B68002B05D1424B3D4A3E4875
:100780004A2107F04BFD0D217B1802221A700F231E
:10079000FB18FF221A707B689B7A7A1812789A42AB
:1007A00008D97B68132210211800FFF7CDFE012322
:1007B0005B4258E00E23FB1800221A701FE07B6892
:1007C0005B68DA690E217B181B785BB25B00D3187B
:1007D0001A787B685B685B6801331B789A4205D1A5
:1007E0000F23FB187A1812781A7012E00E217B186A
:1007F0001B785BB2DBB20133DAB27B181A707B680C
:100800005B6820229B560E22BA18127852B29A4286
:10081000D5DB0F23FB181B785BB2013308D17B6853
:10082000122210211800FFF78FFE01235B421AE00D
:100830007B685B68DA690F23FB181B785BB25B008F
:10084000D3185A787B68DB7A9A4208D97B683322BE
:1008500010211800FFF778FE01235B4203E00F230D
:10086000FB181B785BB21800BD4604B080BDC046C3
:10087000149C010890A00108289C0108489C0108CC
:10088000049D0108389D0108B0B584B000AF7860C0
:100890007B68002B05D1314B314A3248792107F072
:1008A000BDFC7B685B68002B05D12F4B2C4A2D4883
:1008B0007A2107F0B3FC7B685B68DB69002B05D10C
:1008C0002A4B274A27487B2107F0A8FC7B685B68F6
:1008D0001B7801221340DBB2002B05D17B6811226B
:1008E00010211800FFF730FE0F257C197B681800D7
:1008F000FFF71CFF0300237029007B181B787F2B58
:1009000028D87B685B68DA697B181B785BB25B0070
:10091000D3181A787B681A727B685A7A7B681B7ABC
:100920009A420BD07B685B685B6A002B06D07B68C1
:100930005B685B6A7A68127A100098477B68197A5C
:100940007B685B681A8D7B685B685B8D786802F0FA
:10095000E2F900E0C046BD4604B0B0BD149C0108F9
:10096000A8A00108289C0108489C0108049D0108D2
:1009700080B582B000AF78607B68002B05D1134B47
:10098000134A14489E2107F049FC7B685B68002BE2
:1009900005D1114B0E4A0F489F2107F03FFC7B68A1
:1009A0005B681B7802221340DBB2002B05D17B6809
:1009B00011223E211800FFF7C7FD7B68180002F0E6
:1009C0003DFAC046BD4602B080BDC046149C010839
:1009D000B8A00108289C0108489C0108F0B585B022
:1009E00000AF78607B68002B05D1804B804A81483E
:1009F000AE2107F013FC7B685B68002B05D17E4BB2
:100A00007B4A7C48AF2107F009FC7B685B685B6828
:100A1000002B05D1794B764A7648B02107F0FEFBD2
:100A20007B685B681B6B002B05D1754B704A714866
:100A3000B12107F0F3FB7B685B68DB6A002B05D113
:100A4000704B6B4A6B48B22107F0E8FB7B685B6830
:100A50001B7804221340DBB2002B05D17B681122E6
:100A600011211800FFF770FD0D217B1802221A706A
:100A70000F23FB18FF221A700C23FB1800221A7098
:100A80007B689B7A7A1812789A4206D97B6813227F
:100A900011211800FFF758FDA5E00E23FB180022D6
:100AA0001A7022E07B685B68196B0E203B180022ED
:100AB0009A5613005B009B189B00CB181A787B6832
:100AC0005B685B6801331B789A4205D10F23FB18E2
:100AD0003A1812781A7012E00E217B181B785BB25C
:100AE000DBB20133DAB27B181A707B685B683422A0
:100AF0009B560E22BA18127852B29A42D2DB0F23BA
:100B0000FB181B785BB2013306D17B6812221121DE
:100B10001800FFF719FD66E07B685B68196B0F230F
:100B2000FB1800229A5613005B009B189B00CB1801
:100B30005A787B68DB7A9A4206D97B683322112186
:100B40001800FFF701FD4EE07B685B68196B0F260C
:100B5000BB1900229A5613005B009B189B00CB1810
:100B60005D687B685B68196BBB1900229A5613009D
:100B70005B009B189B00CB181B7A5BB20C22BC1845
:100B800078682A001121FFF75FFD030023700C2213
:100B9000BB181B7801225340DBB2002B22D17B68AB
:100BA0005B68196BBB1900229A5613005B009B18F7
:100BB0009B00CB181A787B681100180002F0A4F98A
:100BC0007B685B68D96A7B685B68186BBB1900221D
:100BD0009A5613005B009B189B00C3181B781800E3
:100BE000884700E0C046BD4605B0F0BD149C010832
:100BF000D0A00108289C0108489C0108389D0108E4
:100C00005C9D0108889D0108F0B585B000AF786053
:100C10000A00FB1C1A707B68002B05D1804B814AAF
:100C20008148FB2107F0FAFA7B685B68002B05D14D
:100C30007E4B7C4A7C48FC2107F0F0FA7B685B68BD
:100C4000DB6B002B05D17A4B764A7748FD2107F004
:100C5000E5FA7B685B689B6C002B05D1754B714A8C
:100C60007148FE2107F0DAFA0F23FB18FF221A70F1
:100C70000D23FB1800221A700E23FB1800221A7095
:100C80001FE07B685B68D96B0E203B1800229A56E8
:100C900013005B009B18DB00CB181B78FA1C127842
:100CA0009A4205D10F23FB183A1812781A7012E0F5
:100CB0000E217B181B785BB2DBB20133DAB27B18F2
:100CC0001A707B685B6840229B560E22BA18127815
:100CD00052B29A42D5DB0F23FB181B787F2B06D923
:100CE0007B68122227211800FFF72EFC94E07B6816
:100CF0005B68D96B0F203B1800229A5613005B00EB
:100D00009B18DB00CB185B68002B0ED07B685B6800
:100D1000D96B3B1800229A5613005B009B18DB002E
:100D2000CB181B7B5BB2002B06DC7B6826222721BD
:100D30001800FFF709FC6FE07B685B68D96B0F2632
:100D4000BB1900229A5613005B009B18DB00CB18DE
:100D50001D697B685B68D96BBB1900229A5613002A
:100D60005B009B18DB00CB181B7D5BB20D22BC180F
:100D700078682A002721FFF767FC030023700D2203
:100D8000BB181B7801225340DBB2002B43D17B6898
:100D90005B689C6C7B685B68D96BBB1900229A56B8
:100DA00013005B009B18DB00CB1858687B685B68FE
:100DB000D96BBB1900229A5613005B009B18DB000D
:100DC000CB181B7B5BB2DAB2FB1C1B78010018004E
:100DD000A0477B685B68D96BBB1900229A56130049
:100DE0005B009B18DB00CB185C687B685B68D96B89
:100DF000BB1900229A5613005B009B18DB00CB182E
:100E00001B7B5BB2DAB2FB1C1978786813002200F6
:100E100002F0E4F800E0C046BD4605B0F0BDC046B3
:100E2000149C0108E0A00108289C0108489C0108C6
:100E3000B89D0108E49D0108F0B589B002AF786063
:100E40000A00FB1C1A707B68002B06D1C04BC14AFC
:100E50009D214900C04807F0E1F97B685B68002BE1
:100E600006D1BE4BBB4A3C21FF31BB4807F0D6F947
:100E70007B685B68DB6B002B06D1B94BB54A9E21C2
:100E80004900B54807F0CAF97B685B685B6C002BCA
:100E900006D1B44BAF4A3E21FF31AF4807F0BEF94F
:100EA0001723FB18FF221A701523FB1800221A7053
:100EB00001235B423B610F23FB1802221A701623A9
:100EC000FB1800221A701FE07B685B68D96B162044
:100ED0003B1800229A5613005B009B18DB00CB18CE
:100EE0005B78FA1C12789A4205D11723FB183A183E
:100EF00012781A7012E016217B181B785BB2DBB2F5
:100F00000133DAB27B181A707B685B6840229B560B
:100F10001622BA18127852B29A42D5DB7B685B6807
:100F2000D96B1723FB1800229A5613005B009B18FD
:100F3000DB00CB181B7B5BB2D9B20F203B183A18F1
:100F400012788A181A707B689B7A3A1812789A423B
:100F500006D07B68132227211800FFF7F5FAF4E08A
:100F60001723FB181B787F2B06D97B6812222721B9
:100F70001800FFF7E9FAE8E07B685B68D96B172097
:100F80003B1800229A5613005B009B18DB00CB181D
:100F90009B68002B0ED07B685B68D96B3B180022E6
:100FA0009A5613005B009B18DB00CB185B7B5BB28F
:100FB000002B06DC7B68262227211800FFF7C4FAE5
:100FC000C3E07B685B68D96B1726BB1900229A5671
:100FD00013005B009B18DB00CB181D697B685B6806
:100FE000D96BBB1900229A5613005B009B18DB00DB
:100FF000CB181B7D5BB21522BC1878682A0027210C
:10100000FFF722FB030023701522BB181B78012277
:101010005340DBB2002B00D096E07B685B685C6CD1
:101020007B685B68D96BBB1900229A5613005B0082
:101030009B18DB00CB1818787B685B68D96BBB19F1
:1010400000229A5613005B009B18DB00CB185D68EA
:101050007B685B68D96BBB1900229A5613005B0052
:101060009B18DB00CB189E687B685B68D96B1723E5
:10107000FB1800229A5613005B009B18DB00CB186C
:101080001B7B5BB2DAB294467B685B68D96B172333
:10109000FB1800229A5613005B009B18DB00CB184C
:1010A0005B7B5BB2DBB20093634632002900A04752
:1010B0007B685B685B68981C7B685B68D96B1725ED
:1010C0007B1900229A5613005B009B18DB00CB189B
:1010D0009C687B685B68D96B7B1900229A56130069
:1010E0005B009B18DB00CB185B7B5BB21A00210016
:1010F00007F0C8F803003B613B69002B06D07B6812
:10110000352227211800FFF71FFA1EE0FB1C1A7872
:101110007B681100180001F0EBFF7B68FA1C127865
:10112000DA727B685B689B6B002B0ED07B681A7B46
:101130007B68DB7A9A4208D07B685B689B6B7A6835
:10114000D27A1000984700E0C046BD4607B0F0BD17
:10115000149C0108FCA00108289C0108489C010877
:10116000B89D01081C9E0108F0B585B000AF7860FD
:101170007B68002B06D1654B654AD0214900654844
:1011800007F04CF87B685B68002B06D1624B604A25
:10119000A221FF315F4807F041F87B685B685B681C
:1011A000002B06D15D4B5A4AD1214900594807F01E
:1011B00035F87B685B68DB6B002B06D1584B544AD3
:1011C000A421FF31534807F029F87B685B685B6C0A
:1011D000002B06D1534B4E4AD22149004D4807F00F
:1011E0001DF87B685B689B6C002B06D14E4B484A10
:1011F000A621FF31474807F011F87B685B681B7830
:1012000008221340DBB2002B05D17B681122272175
:101210001800FFF799F90F26BB1902221A700E2148
:101220007B1800221A707B685B68DB6B1A697B682D
:101230005B68DB6B1B7D5BB20D007C187868272137
:10124000FFF702FA030023707B191B780122534039
:10125000DBB2002B56D17B689B7ABA1912789A427E
:1012600006D97B68132227211800FFF76DF94AE0A1
:101270007B685B685A680D217B1852781A700A00E7
:10128000BB181B78012B0FD0BB181B78032B0BD07E
:10129000BB181B78052B07D0BB181B78062B0CD965
:1012A000BB181B78412B08D80D23FB181A787B68D4
:1012B00011001800FFF7A8FC25E00D22BB181B78D1
:1012C000022B0FD0BB181B78042B0BD0BB181B783C
:1012D000062B07D0BB181B78072B0CD9BB181B7823
:1012E000422B08D80D23FB181A787B6811001800D0
:1012F000FFF7A2FD07E07B68122227211800FFF705
:1013000023F900E0C046BD4605B0F0BD149C0108BD
:1013100018A10108289C0108489C0108389D010873
:10132000B89D01081C9E0108E49D0108F0B589B034
:1013300002AF78607B68002B06D1D64BD64AEC21F1
:10134000FF31D64806F06AFF7B685B68002B06D148
:10135000D34BD14AF6214900D04806F05FFF7B68A5
:101360005B685B68002B06D1CE4BCB4AEE21FF3188
:10137000CA4806F053FF7B685B681B781022134055
:10138000DBB2002B05D17B68112231211800FFF759
:10139000DBF815217B1804221A701223FB18012296
:1013A00052421A801023FB1800221A801723FB18C0
:1013B000FF221A700F23FB1800221A707B689B7A99
:1013C0007A1812789A4206D97B68132231211800C4
:1013D000FFF7BAF8B7E17B685B685A680E23FB1821
:1013E00052781A707B689B7A9AB21523FB181B7887
:1013F0009BB2D31A9AB21223FB181A807B685B68DF
:101400001B6D002B04D07B685B685B6D002B06DCDA
:101410007B68112231211800FFF796F893E17B6871
:101420005B685B6802331B781B021AB27B685B68DF
:101430005B6803331B781BB213431AB21023FB18EB
:101440001A801623FB1800221A7020E07B685B6864
:10145000196D16203B1800229A5613005B009B184A
:101460001B01CB185B881022BA1812889A4205D14A
:101470001723FB183A1812781A7011E016217B18FE
:101480001B785BB2DBB20133DAB27B181A70162319
:10149000FB1800229A567B685B685B6D9A42D5DB2D
:1014A0001723FB181B785BB2013306D17B6811222E
:1014B00031211800FFF748F845E17B685B68196D3A
:1014C0001723FB1800229A5613005B009B181B0180
:1014D000CB189A7B7B68DB7A9A4206D97B683322E9
:1014E00031211800FFF730F82DE17B685B68196D3A
:1014F00017203B1800229A5613005B009B181B0113
:10150000CB181D697B685B68196D3B1800229A56E1
:1015100013005B009B181B01CB181B7D5BB20F26D1
:10152000BC1978682A003121FFF78EF80300237078
:10153000BB191B7801225340DBB2002B00D001E124
:101540000E23FB181B78012B03D0032B00D1AFE037
:10155000F1E01223FB1800229B5E002B06DA7B6869
:10156000132231211800FEF7EFFFECE012243B19A3
:1015700000229B5E002B16DD7B685B68196D1723CC
:10158000FB1800229A5613005B009B181B01CB1816
:1015900058687B685B685B68191D3B1900229B5E7D
:1015A0001A0006F07DFE1223FB180021595E7B68AD
:1015B0005B68186D1723FB1800229A5613005B0016
:1015C0009B181B01C3181B7B994206D07B68132212
:1015D00031211800FEF7B8FFB5E07B685B68196D34
:1015E00017203B1800229A5613005B009B181B0122
:1015F000CB181B7B002B13D07B685B68196D3B18E5
:1016000000229A5613005B009B181B01CB185B68E5
:10161000002B05D1244B204A2449204806F0FEFD2A
:101620007B685B68196D1723FB1800229A5613001C
:101630005B009B181B01CB181B78032B06D07B6823
:10164000212231211800FEF77FFF7CE07B685B6878
:10165000196D17243B1900229A5613005B009B1842
:101660001B01CB1800221A707B685B68D86C7B6802
:101670005B68196D3B1900229A5613005B009B189A
:101680001B01CC18FEF7A2FE02000B00226263626F
:1016900059E0C046149C010830A10108289C0108AB
:1016A000489C0108389D0108509E0108690200000D
:1016B0007B685B68196D1723FB1800229A5613008C
:1016C0005B009B181B01CB181B78032B06D07B6893
:1016D000212231211800FEF737FF34E07B685B6878
:1016E000196D17203B1800229A5613005B009B18B7
:1016F0001B01CB185C887B685B68196D3B18002266
:101700009A5613005B009B181B01CB189D687B68E1
:101710005B68196D3B1800229A5613005B009B18FA
:101720001B01CB185B7B786800932B002200032100
:1017300001F048FD07E07B68122231211800FEF716
:1017400003FF00E0C046BD4607B0F0BDB0B588B0AD
:1017500002AF78607B68002B05D17E4B7E4A7F49C3
:101760007F4806F05BFD7B685B68002B05D17D4BF5
:10177000794A7D497A4806F051FD7B685B685B6D6C
:10178000002B0ADD7B685B681B6D002B05D1774B56
:10179000714A7749724806F041FD00220023BA6081
:1017A000FB6000237B616BE07B685B68196D7A6985
:1017B00013005B009B181B01CB181B78032B5CD01C
:1017C0007B6801225A737B685B68196D7A69130024
:1017D0005B009B181B01CB189B6A002B05D1654B46
:1017E0005D4A65495E4806F019FD7B685B68196DC6
:1017F0007A6913005B009B181B01CB18996A7B6800
:101800005B68186D7A6913005B009B181B01C31895
:10181000180088477B685B68D86C7B685B68196DCB
:101820007A6913005B009B181B01CB181A6A5B6A6C
:10183000FEF7E2FD02000B00BA60FB607B685B68AC
:10184000196D7A6913005B009B181B01CB189A690C
:10185000DB69F968994205D8F96899420DD1B968F0
:1018600091420AD97B685B68196D7A6913005B0045
:101870009B181B01CB1804221A707B6901337B6112
:101880007B685B685B6D7A699A428DDB00233B6104
:1018900054E07B685B68196D3A6913005B009B1824
:1018A0001B01CB181B78022B13D0042B42D17B6871
:1018B000262231211800FEF747FE7B685B68196D10
:1018C0003A6913005B009B181B01CB1803221A70A6
:1018D00031E07B685B68196D3A6913005B009B1807
:1018E0001B01CB185C887B685B68196D3A69130033
:1018F0005B009B181B01CB189D687B685B68196DAA
:101900003A6913005B009B181B01CB185B7B78685E
:1019100000932B002200012101F054FC7B685B68DE
:10192000196D3A6913005B009B181B01CB18032249
:101930001A7000E0C0463B6901333B617B685B681D
:101940005B6D3A699A42A4DBC046C046BD4606B00C
:10195000B0BDC046149C010844A101089A020000D1
:10196000289C0108489C01089B020000509E010829
:10197000A1020000589E0108AA020000F0B587B03D
:1019800000AF78607B68002B05D1A24BA24AA34927
:10199000A34806F043FC7B685B68002B05D1A14B94
:1019A0009D4AA1499E4806F039FC7B685B685B68EC
:1019B000002B05D19D4B984A9D49994806F02EFC75
:1019C0007B685B681B7820221340DBB2002B05D1BB
:1019D0007B6811222E211800FEF7B6FD0F217B181F
:1019E00003221A7001235B427B610E23FB18002245
:1019F0001A700C23FB18012252421A807B689B7AD2
:101A00007A1812789A4206D97B6813222E21180080
:101A1000FEF79AFDFBE07B685B685B6801331B782F
:101A20001B021AB27B685B685B6802331B781BB2CF
:101A300013431AB20A23FB181A8000233B6114E0F7
:101A40007B685B68996D3A6913009B009B189B004B
:101A5000CB181B880A22BA1812889A4202D13B6915
:101A60007B6108E03B6901333B617B685B68DB6D50
:101A70003A699A42E4DB7B69013306D17B68312203
:101A80002E211800FEF760FDC1E07B685B68996D50
:101A90007A6913009B009B189B00CB189A7A7B688D
:101AA000DB7A9A4206D97B6833222E211800FEF792
:101AB0004BFDACE07B685B68996D7A6913009B0015
:101AC0009B189B00CB18DD687B685B68996D7A6911
:101AD00013009B009B189B00CB181B7C5BB20E264F
:101AE000BC1978682A002E21FEF7AEFD0300237092
:101AF000BB191B7801225340DBB2002B00D085E0DC
:101B00007B685B68996D7A6913009B009B189B004A
:101B1000CB181B7A002B11D07B685B68996D7A69B2
:101B200013009B009B189B00CB185B68002B05D112
:101B3000404B394A40493A4806F070FB7B689B7A33
:101B40009AB20F23FB181B789BB2D31A9AB20C21BE
:101B50007B181A807B1800229B5E002B06DA7B68BC
:101B600013222E211800FEF7EFFC50E00C23FB1887
:101B70000021595E7B685B68986D7A6913009B0051
:101B80009B189B00C3181B7A994206D07B681322CE
:101B90002E211800FEF7D8FC39E07B685B68996D50
:101BA0007A6913009B009B189B00CB185B7A01227B
:101BB0005340DBB2002B06D07B6826222E21180072
:101BC000FEF7C2FC23E00C243B1900229B5E002B95
:101BD00013DD7B685B68996D7A6913009B009B1825
:101BE0009B00CB1858687B685B685B68D91C3B1905
:101BF00000229B5E1A0006F053FB0A23FB181A888A
:101C00007B681100180001F077FB00E0C046BD467C
:101C100007B0F0BD149C010860A10108DD020000BE
:101C2000289C0108489C0108DE020000389D01083C
:101C3000DF020000509E010826030000F0B591B0BD
:101C400000AF78637B6B002B05D1CB4BCB4ACC49E3
:101C5000CC4806F0E3FA7B6B5B68002B06D1CA4BDD
:101C6000C64AD5218900C74806F0D8FA7B6B5B6865
:101C70001B6E002B05D1C54BC04AC549C14806F0B3
:101C8000CDFA7B6B5B681A787F239A431300DBB233
:101C9000002B05D17B6B112234211800FEF754FC78
:101CA0000D2328201B180822BA189A180023137035
:101CB0000C210B180822BA189A18032313700B234F
:101CC0001B180822BA189A18002313700A231B182D
:101CD0000822BA189A18002313707B6B9A7A0B1893
:101CE00008218C46BC4463441B78934206D97B6B25
:101CF000132234211800FEF727FCCBE17B6B5B68D5
:101D00005B6802331A787B6B59680F231340DBB290
:101D100078228B547B6B5B685B6802331A787B6B31
:101D200059681309DBB279228B547B6B5A6878238C
:101D3000D15C7B6B5A687923D35CCB18DAB20C2068
:101D40002824031908217918591803190825AC46C5
:101D5000BC4463441B78D3180B707B6B9A7A0319CD
:101D600008218C46BC4463441B78934206D07B6BAD
:101D7000132234211800FEF7E7FB8BE17B6B5A68D6
:101D80007C23D25C7B6BDB7A9A4206D97B6B332255
:101D900031211800FEF7D8FB7CE17B6B5A68802369
:101DA000D1587B6B5A688423D3560D2228255219AB
:101DB000082038181418786B0A003121FEF744FC0B
:101DC000030023700D222800131808229446BC44F7
:101DD00063441A7801235340DBB2002B00D058E152
:101DE0007B6B5968002200238A66CB660F231B1881
:101DF0000822BA189A180023137060E07B6B5A68A7
:101E00007823D25C0F242825631908218C46BC4412
:101E100063441B78D31ADBB20B22521908218C467B
:101E2000BC446244023313707B6B5B68986ED96E5E
:101E30007B6B5B685A680B235B190826B446BC446D
:101E400063441B78D3181B783B6200237B626319C1
:101E500008229446BC4463441B78DA001300203BFC
:101E6000002B03DB3C6A9C40FC620AE020239B1AA7
:101E70003C6ADC4023007C6A9440FC62FC6A1C43A0
:101E8000FC623B6A9340BB627B6B5B68BA6A02434D
:101E90003A61FA6A0A437A6139697A699966DA6657
:101EA0000F222821531808208446BC4463441B7821
:101EB000521808218C46BC446244013313707B6B7A
:101EC0005A687823D25C0F2328201B1808218C46DF
:101ED000BC4463441B78934290D37B6B59680022C7
:101EE00000230A674B670E231B1808229446BC4444
:101EF000634400221A7077E07B6B5B6878229A5CFF
:101F00007B6B5B6879215B5CD318DAB20E242821E5
:101F1000631808208446BC4463441B78D31ADAB2A1
:101F20000B230D005B1808218C46BC44634402322D
:101F30001A707B6B5B681A6F5B6F796B49684868D6
:101F40000B214E1908217918711809784118097860
:101F5000B9610021F9612900611808208446BC4458
:101F600061440978C90008002038002812DBBC69E8
:101F700084407C6019E0C046149C010878A10108E7
:101F800053030000289C0108489C01088C9E01080E
:101F9000550300002020401ABC69C4402000FC69A1
:101FA0008C407C607C6804437C60B8698840386001
:101FB000796B496810003C682043B8607A68134325
:101FC000FB60BB68FC680B674C670E2128200B1870
:101FD00008229446BC4463441A780B1808218C46A6
:101FE000BC44634401321A707B6B5B6879229B5C52
:101FF0000E222821521808218C46BC4462441278D3
:102000009A4200D278E77B6B5B689A6EDB6E1100B8
:10201000194306D07B6B5B681A6F5B6F1100194325
:1020200006D17B6B132234211800FEF78DFA31E0C4
:102030007B6B5B681A6E7B6B5B6860330A252826B6
:10204000A919082038180C181800904703002370AD
:10205000AB1908229446BC4463441B7801225340C8
:10206000DBB2002B06D07B6B262234211800FEF752
:102070006BFA0FE07B6B5B689A6EDB6E796B0A61C3
:102080004B617B6B01229A737B6B180001F04EFA57
:1020900000E0C046BD4611B0F0BDB0B584B000AFA1
:1020A00078607B68002B05D1344B354A354936487A
:1020B00006F0B4F87B685B68002B05D1334B304ADF
:1020C0003349314806F0AAF87B685B685B68002BEF
:1020D00006D1304B2A4AF22189002B4806F09EF89F
:1020E0007B685B685B7801221340DBB2002B05D173
:1020F0007B68112237211800FEF726FA0F23FB1800
:1021000000221A707B685B688C229A5C7B68DB7AA1
:102110009A4206D97B68332237211800FEF714FA59
:1021200029E07B685B6890229A587B685B68942101
:102130005B560F257C1978683721FEF785FA030076
:1021400023707B191B7801225340DBB2002B11D185
:102150007B685B6888229B58984779680022002337
:102160000A614B617B6800229A737B68180001F05A
:1021700079FA00E0C046BD4604B0B0BD149C010829
:102180008CA10108C6030000289C0108489C010896
:10219000C7030000389D0108F0B585B000AF786036
:1021A0007B68002B05D1714B714A7249724806F069
:1021B00035F87B685B68002B05D1704B6C4A704921
:1021C0006D4806F02BF87B685B685B68002B06D1D6
:1021D0006C4B674AFD218900674806F01FF87B6851
:1021E0005B68A0229B58002B05D1674B604A67496A
:1021F000614806F013F87B685B685B780222134045
:10220000DBB2002B05D17B68112236211800FEF7C6
:102210009BF90F23FB1800221A700E217B18022253
:102220001A707B689B7A1A007B181B78D31ABB60E4
:10223000BB68002B06DA7B68132236211800FEF7F4
:1022400083F98FE07B685B689C229B5A1A00BB680D
:10225000934202DCBB68002B06DA7B683122362110
:102260001800FEF771F97DE07B685B68A4229A5C38
:102270007B68DB7A9A4206D97B68332236211800C4
:10228000FEF762F96EE07B685B68A8229A587B686B
:102290005B68AC215B560F217E1878683621FEF70B
:1022A000D3F9030033700F217B181B7801225340B0
:1022B000DBB2002B55D17B685B68BA6891B29E2275
:1022C00099527B685B68982298587B685B685B686A
:1022D0000233BA68190005F0E3FF7B685B685A684F
:1022E0007B685B685178AD2299547B689A7B7B68E8
:1022F0005B68AD215B5C9A4206D07B687322362115
:102300001800FEF721F92DE07B6859687B681A698F
:102310005B69B0310A604B607B685B68A0229A58A9
:102320007B685B689833180090477B685B68AD22D8
:102330009A5C7B681100180001F0EEF97B689B7BCA
:102340000133DAB27B689A737B681A695B69B96892
:102350000C00C9170D0012196B4179680A614B61B5
:1023600000E0C046BD4605B0F0BDC046149C010863
:10237000A4A10108F2030000289C0108489C010860
:10238000F3030000389D0108C49E0108F503000016
:10239000F0B587B000AF78607B68002B05D16F4B3C
:1023A0006F4A7049704805F039FF7B685B68002B05
:1023B00005D16E4B6A4A6E496B4805F02FFF7B686A
:1023C0005B685B68002B05D16A4B654A6A496648C1
:1023D00005F024FF7B685B681B7840221340DBB26A
:1023E000002B06D17B68112222211800FEF7ACF8E1
:1023F000B1E00F217B1803221A7001235B427B613D
:102400000E23FB1800221A707B689B7A7A181278C8
:102410009A4206D97B68132222211800FEF794F80D
:1024200099E07B685B685B6801331B781B021AB21A
:102430007B685B685B6802331B781BB213431AB27C
:102440000C23FB181A8000233B6114E07B685B6857
:10245000996D3A6913009B009B189B00CB181B8851
:102460000C22BA1812889A4202D13B697B6108E0BB
:102470003B6901333B617B685B68DB6D3A699A427B
:10248000E4DB7B69013306D17B683122222118000D
:10249000FEF75AF85FE07B685B68996D7A69130014
:1024A0009B009B189B00CB189A7A7B68DB7A9A4238
:1024B00006D97B68332222211800FEF745F84AE04E
:1024C0007B685B68996D7A6913009B009B189B0081
:1024D000CB18DD687B685B68996D7A6913009B0097
:1024E0009B189B00CB181B7C5BB20E26BC1978682E
:1024F0002A002221FEF7A8F803002370BB191B78DD
:1025000001225340DBB2002B24D17B685B68996DBC
:102510007A6913009B009B189B00CB181B7A002B39
:102520000BD07B685B68996D7A6913009B009B18E0
:102530009B00CB185B68002B05D1104B084A104953
:10254000094805F06BFE7A697B681100180000F0FD
:1025500047FF00E0C046BD4607B0F0BD149C01082F
:10256000B8A101084D040000289C0108489C0108FE
:102570004E040000389D01084F040000509E0108E1
:102580009304000090B587B000AF78607B68002BA3
:1025900005D1424B424A4349434805F03FFE7B6820
:1025A0005B68002B05D1414B3D4A41493E4805F04F
:1025B00035FE7B685B685B68002B05D13D4B384A74
:1025C0003D49394805F02AFE0F217B1803221A7075
:1025D0001723FB1800221A700E23FB1800221A7012
:1025E0007B689B7A7A1812789A4206D97B68132204
:1025F00019211800FDF7A8FF4DE07B685B685A6859
:102600000E23FB1892781A7000233B612BE07B6845
:102610005B68BC229A583B699B00D3181B780E223A
:10262000BA1812781340DBB2002B19D07B685B68B4
:10263000BC229A583B699B00D31819787B681C7E92
:102640007B685B68BC229A583B699B00D3180133B6
:102650007868220001F0CEF81723FB1801221A70C7
:102660003B6901333B617B685B68C0229B583A69D8
:102670009A42CCDB1723FB181B7801225340DBB2B4
:10268000002B08D07B681A7E0E23FB181978786817
:10269000002301F0AFF8BD4607B090BD149C0108BF
:1026A000D0A101089B040000289C0108489C010857
:1026B0009C040000389D01089D04000080B584B092
:1026C00000AF78607B68002B05D1294B294A2A4945
:1026D0002A4805F0A3FD7B685B68002B05D1284BD9
:1026E000244A2849254805F099FD7B685B685B68AA
:1026F000002B05D1244B1F4A2449204805F08EFDAC
:102700000F23FB1802221A707B685B685B78042237
:102710001340DBB2002B06D17B681122192118006F
:10272000FDF712FF20E07B689B7A0F22BA1812781F
:102730009A4206D97B68132219211800FDF704FF7D
:1027400012E07B685B685B6801331B78022B04D165
:102750007B681800FFF716FF06E07B68122219213C
:102760001800FDF7F1FEC046BD4604B080BDC0466E
:10277000149C0108ECA10108CD040000289C01086C
:10278000489C0108CE040000389D0108CF040000D9
:1027900080B582B000AF78607B68002B05D1424BDA
:1027A000424A4349434805F039FD7B681B78012BB9
:1027B00006D0414B3D4A9F21C9003E4805F02EFD01
:1027C0007B6800225A737B681800FEF7BFFF7B68A6
:1027D0005B7B002B61D17B689B7A002B5FD07B6891
:1027E0005B685B681B78103B2E2B3BD89A00334B01
:1027F000D3181B689F467B681800FEF745F83BE03E
:102800007B681800FEF7B4F836E07B681800FEF726
:10281000E5F831E07B681800FEF7A6FC2CE07B6849
:102820001800FEF783FD27E07B681800FFF7A6F885
:1028300022E07B681800FFF701FA1DE07B681800B2
:10284000FFF72BFC18E07B681800FFF7A5FC13E0EE
:102850007B681800FFF79CFD0EE07B681800FFF70F
:102860002DFF09E07B685B685B6819787B68112243
:102870001800FDF769FEC0467B6800229A727B68EB
:102880005B685B6800221A707B681A7A7B685A72F0
:102890007B68DA7A7B681A7302E0C04600E0C046C3
:1028A000BD4602B080BDC046149C010800A20108CC
:1028B000F7040000289C0108F89E0108149F0108F5
:1028C00080B500AF034B1800FFF762FFC046BD465E
:1028D00080BDC0462006002080B582B000AF786081
:1028E00039607B68002B05D12E4B2F4A2F49304889
:1028F00005F094FC3B68002B06D12E4B2A4AA821F8
:10290000C9002B4805F08AFC7B683A685A603B682E
:10291000B9229A5C7B681A723B68B9229A5C7B6820
:102920005A727B6800229A723B68B8229A5C7B6874
:10293000DA723B68B8229A5C7B681A737B68002263
:102940001A767B681A7E08210A431A767B681A7EFB
:1029500001210A431A767B6801221A703B68C4225F
:102960009B5C002B0AD07B685B681A8D7B685B6878
:102970005B8D7868022100F0CEF90EE03B68C5223D
:102980009B5C002B09D07B685B681A8D7B685B6859
:102990005B8D7868032100F0BEF9C046BD4602B0E9
:1029A00080BDC046149C010810A201083F0500002C
:1029B000289C0108D09F010880B500AF044A054B50
:1029C00011001800FFF788FFC046BD4680BDC04615
:1029D000880200202006002080B582B000AF786019
:1029E0007B68002B05D10B4B0B4A0C490C4805F0BA
:1029F00015FC7B685B68002B05D10A4B064A0A4927
:102A0000074805F00BFC7B685B681800BD4602B008
:102A100080BDC046149C01081CA201086A05000084
:102A2000289C0108489C01086B05000080B500AF98
:102A3000014B1800BD4680BD8802002080B584B0DF
:102A400000AFF860B960FB1D1A70FB68002B05D160
:102A50001E4B1F4A1F49204805F0E0FBFB681B780E
:102A6000012B06D01D4B1A4AAF21C9001A4805F0A8
:102A7000D5FBBB68002B05D1194B154A19491648DF
:102A800005F0CCFBFB1D1B78002B05D1164B104A23
:102A90001649114805F0C2FBFB685B681B7AFA1DFA
:102AA00012789A420DD8FB685B685868FB1D1A784B
:102AB000BB68190005F0F4FBFB68FA1D12789A72E6
:102AC00000E0C046BD4604B080BDC046149C01086D
:102AD00030A2010877050000289C0108F89E010833
:102AE000E09F010879050000F49F01087A050000C5
:102AF00080B582B000AF78600A00FB1C1A70FB1C26
:102B00001A787968034B1800FFF798FFC046BD4656
:102B100002B080BD2006002080B582B000AF786092
:102B20007B68002B05D1064B064A0749074805F08C
:102B300075FB7B681B7A1800BD4602B080BDC0469D
:102B4000149C010844A2010894050000289C010877
:102B500080B500AF034B1800FFF7DEFF030018003D
:102B6000BD4680BD2006002080B582B000AF7860F1
:102B70007B68002B06D1064B064AB421C9000648E3
:102B800005F04CFB7B68DB7A1800BD4602B080BDC7
:102B9000149C010858A20108289C010880B500AFC8
:102BA000034B1800FFF7E0FF03001800BD4680BD8F
:102BB0002006002080B584B000AFF860B960FB1D2E
:102BC0001A70FB68002B06D1314B324AB621C9007E
:102BD000314805F023FBFB685B68002B05D12F4BC8
:102BE0002C4A2F492C4805F019FBFB685B68BC2276
:102BF0009B58002B05D12B4B264A2B49264805F024
:102C00000DFBBB68002B05DA284B224A28492248D5
:102C100005F004FBFB685B68C0229B58BA689A42C7
:102C200005DB244B1B4A24491B4805F0F7FAFB1D22
:102C30001B78002B1FD0FB685B68BC229A58BB68CE
:102C40009B00D31800221A70FB685B68BC229A585C
:102C5000BB689B00D3181A7808210A431A70FB68D6
:102C60005B68BC229A58BB689B00D3181A78012174
:102C70000A431A7008E0FB685B68BC229A58BB687C
:102C80009B00D31800221A70C046BD4604B080BD18
:102C9000149C010874A20108289C0108489C0108A2
:102CA000B105000004A00108B20500002CA0010835
:102CB000B30500003CA00108B405000080B582B057
:102CC00000AF78600A00FB1C1A70FB1C1A78796848
:102CD000034B1800FFF76EFFC046BD4602B080BD33
:102CE0002006002090B583B000AF78600A00FB1C7E
:102CF0001A707B685B689C697B685B6858697B6855
:102D00005B68D968FB1C1B789BB21A00A047C046C1
:102D1000BD4603B090BD90B587B000AFF8600C0021
:102D2000100019000B23FB18221C1A700823FB1833
:102D3000021C1A80BB1D0A1C1A801723FB180622CE
:102D40001A70FB68002B05D1354B364A36481E21D8
:102D500005F064FAFB685B68002B05D1334B314A00
:102D600031481F2105F05AFAFB685B68DB68002BCD
:102D700005D12F4B2B4A2C48202105F04FFAFB6838
:102D80005B689B69002B05D12A4B264A26482121E6
:102D900005F044FAFB685B681B7C1722BA181278AE
:102DA0009A4205D3244B1F4A1F48222105F036FAC8
:102DB00000233B61FB685B68DB683B613B69502239
:102DC0001A703B6901330B22BA1812781A70082165
:102DD0007B181B881B0A9AB23B690233D2B21A7065
:102DE0003B6903337A181288D2B21A70BB1D1B8854
:102DF0001B0A9AB23B690433D2B21A703B6905339D
:102E0000BA1D1288D2B21A701723FB181A78FB6801
:102E100011001800FFF766FFC046BD4607B090BD21
:102E200088A2010898A301089CA20108C0A2010879
:102E3000DCA2010800A3010834A3010880B584B016
:102E400000AF78600F23FB1802221A707B68002BFA
:102E500005D1264B264A2748362105F0DFF97B6845
:102E60005B68002B05D1244B214A2248372105F00D
:102E7000D5F97B685B68DB68002B05D11F4B1C4ACA
:102E80001C48382105F0CAF97B685B689B69002BF8
:102E900005D11B4B164A1748392105F0BFF97B684D
:102EA0005B681B7C0F22BA1812789A4205D3154B27
:102EB0000F4A10483A2105F0B1F90023BB607B6846
:102EC0005B68DB68BB60BB687E221A70BB6801333D
:102ED00000221A700F23FB181A787B681100180063
:102EE000FFF700FFC046BD4604B080BD88A20108C0
:102EF000ACA301089CA20108C0A20108DCA2010841
:102F000000A3010834A3010880B584B000AF786045
:102F10000A00FB1C1A700F23FB1802221A707B6830
:102F2000002B05D1264B274A27484D2105F076F97D
:102F30007B685B68002B05D1244B224A22484E2136
:102F400005F06CF97B685B68DB68002B05D1204BD2
:102F50001C4A1D484F2105F061F97B685B689B693D
:102F6000002B05D11B4B174A1748502105F056F985
:102F70007B685B681B7C0F22BA1812789A4205D3D3
:102F8000154B104A1048512105F048F90023BB6049
:102F90007B685B68DB68BB60BB6851221A70BB68EA
:102FA0000133FA1C12781A700F23FB181A787B6809
:102FB00011001800FFF796FEC046BD4604B080BD64
:102FC00088A20108C8A301089CA20108C0A20108A8
:102FD000DCA2010800A3010834A3010880B586B073
:102FE00000AFF86008007A6019000B23FB18021C80
:102FF0001A700A203B180A1C1A701723FB183A187B
:10300000127802321A70FB68002B05D1304B314A1E
:103010003148672105F002F97B68002B05D12F4B61
:103020002C4A2D48682105F0F9F8FB685B68002BF5
:1030300005D12B4B274A2848692105F0EFF8FB689A
:103040005B68DB68002B05D1264B224A22486A21A7
:1030500005F0E4F8FB685B689B69002B05D1224B07
:103060001C4A1D486B2105F0D9F8FB685B681B7C86
:103070001722BA1812789A4205D31C4B154A1648E3
:103080006C2105F0CBF800233B61FB685B68DB68D3
:103090003B613B6967221A703B6901330B22BA1806
:1030A00012781A703B69981C0A23FB181A787B68FF
:1030B000190005F0F5F81723FB181A78FB681100C2
:1030C0001800FFF70FFEC046BD4606B080BDC046E3
:1030D00088A20108DCA301089CA201085CA30108E6
:1030E000C0A20108DCA2010800A3010834A3010862
:1030F00080B584B000AF78600A00FB1C1A700F2303
:10310000FB1802221A707B68002B05D1264B274A38
:103110002748802105F082F87B685B68002B05D189
:10312000244B224A2248812105F078F87B685B68AD
:10313000DB68002B05D1204B1C4A1D48822105F07D
:103140006DF87B685B689B69002B05D11B4B174AA8
:103150001748832105F062F87B685B681B7C0F22AF
:10316000BA1812789A4205D3154B104A1048842198
:1031700005F054F80023BB607B685B68DB68BB60CC
:10318000BB6867221A70BB680133FA1C12781A7088
:103190000F23FB181A787B6811001800FFF7A2FDB7
:1031A000C046BD4604B080BD88A20108F4A3010852
:1031B0009CA20108C0A20108DCA2010800A301082A
:1031C00034A3010880B586B000AFF8600800110094
:1031D0007B600B23FB18021C1A700823FB180A1CC7
:1031E0001A801723FB1804221A70FB68002B05D1E4
:1031F0003A4B3B4A3B489B2105F010F8FB685B6863
:10320000002B05D1384B364A36489C2105F006F88C
:10321000FB685B68DB68002B05D1344B304A3148D2
:103220009D2104F0FBFFFB685B689B69002B05D1C7
:103230002F4B2B4A2B489E2104F0F0FF17203A1801
:1032400039182023FB1809781B78CB181370FB68FA
:103250005B681B7C3A1812789A4205D3254B204AAA
:103260002048A22104F0DAFF00233B61FB685B6881
:10327000DB683B613B6971221A703B6901330B22A9
:10328000BA1812781A7008217B181B881B0A9AB288
:103290003B690233D2B21A703B6903337A18128841
:1032A000D2B21A702022BB181B78002B0AD07B6880
:1032B000002B07D03B69181DBB181A787B681900D2
:1032C00004F0EEFF1723FB181A78FB6811001800B2
:1032D000FFF708FDC046BD4606B080BD88A20108C4
:1032E0000CA401089CA20108C0A20108DCA20108EC
:1032F00000A3010834A3010880B584B000AF786052
:103300000A00BB1C1A800F23FB1803221A707B686B
:10331000002B05D12B4B2C4A2C48BB2104F07EFFFF
:103320007B685B68002B05D1294B274A2748BC21C5
:1033300004F074FF7B685B68DB68002B05D1254BCC
:10334000214A2248BD2104F069FF7B685B689B69C4
:10335000002B05D1204B1C4A1C48BE2104F05EFF07
:103360007B685B681B7C0F22BA1812789A4205D3DF
:103370001A4B154A1548BF2104F050FF0023BB60CB
:103380007B685B68DB68BB60BB686E221A70BB1C25
:103390001B881B0A9AB2BB680133D2B21A70BB6891
:1033A0000233BA1C1288D2B21A700F23FB181A7893
:1033B0007B6811001800FFF795FCC046BD4604B0BD
:1033C00080BDC04688A2010824A401089CA201086F
:1033D000C0A20108DCA2010800A3010834A301086F
:1033E00090B585B000AF786039607B685B68996D97
:1033F0003A6813009B009B189B00CB181A7A0F2386
:10340000FB1803321A707B68002B05D1404B414AF0
:103410004148D42104F002FF7B685B68002B05D192
:103420003E4B3C4A3C48D52104F0F8FE7B685B6883
:10343000DB68002B05D13A4B364A3748D62104F0D9
:10344000EDFE7B685B689B69002B05D1354B314AEB
:103450003148D72104F0E2FE7B685B681B7C0F22B9
:10346000BA1812789A4205D32F4B2A4A2A48D821F3
:1034700004F0D4FE0023BB607B685B68DB68BB6044
:10348000BB6862221A707B685B68996D3A681300AA
:103490009B009B189B00CB181B881B0A9AB2BB6829
:1034A0000133D2B21A707B685B68996D3A68130079
:1034B0009B009B189B00CB181A88BB680233D2B2C2
:1034C0001A70BB68D81C7B685B68996D3A681300FA
:1034D0009B009B189B00CB185C687B685B68996DB0
:1034E0003A6813009B009B189B00CB181B7A1A00AC
:1034F000210004F0D5FE0F23FB181A787B68110019
:103500001800FFF7EFFBC046BD4605B090BDC046B2
:1035100088A2010840A401089CA20108C0A20108D9
:10352000DCA2010800A3010834A3010880B584B01F
:1035300000AF78607B68002B05D1434B434A444879
:10354000EA2104F06BFE7B685B68002B05D1414BE0
:103550003E4A3F48EB2104F061FE7B685B68DB6814
:10356000002B05D13C4B394A3948EC2104F056FE7A
:103570007B685B689B69002B05D1384B334A344824
:10358000ED2104F04BFE0E217B1802221A700D2053
:103590003B187A18127802321A707B685B681B7CC1
:1035A0003A1812789A4205D32D4B284A2848F6211A
:1035B00004F034FE7B685B68DB6874221A700E23AB
:1035C000FB181B781A017B685B68DB680133D2B299
:1035D0001A700F23FB1800221A7020E07B685B68CA
:1035E0007A229B5A9A1C0E23FB181B78591E0F2017
:1035F0003B181B78CB1ADB001A410C217B181A7080
:103600007B685B68DB683A18127802329B187A187C
:1036100012781A703B181A783B1801321A700F236F
:10362000FA180E23FB1812781B789A42D6D30D2372
:10363000FB181A787B6811001800FFF753FBC0468F
:10364000BD4604B080BDC04688A201085CA4010844
:103650009CA20108C0A20108DCA2010800A3010885
:1036600034A3010880B582B000AF78607B68002B7E
:1036700006D1224B224A83214900224804F0CEFD84
:103680007B685B68002B06D11F4B1D4A0821FF3168
:103690001C4804F0C3FD7B685B68DB68002B06D127
:1036A0001A4B174A84214900164804F0B7FD7B687D
:1036B0005B689B69002B06D1154B114A0A21FF312B
:1036C000104804F0ABFD7B685B681B7C012B06D8BF
:1036D000104B0B4A0C21FF310A4804F09FFD7B6818
:1036E0005B68DB6877221A707B6801211800FFF79E
:1036F000F9FAC046BD4602B080BDC04688A20108A6
:1037000078A401089CA20108C0A20108DCA201085B
:1037100000A3010870A3010880B584B000AF7860F1
:103720000A00FB1C1A707B68002B06D12A4B2B4A1F
:103730008A2149002A4804F071FD7B685B68002BF0
:1037400006D1284B254A1621FF31254804F066FD95
:103750007B685B68DB68002B06D1234B1F4A8B21FB
:1037600049001F4804F05AFD7B685B689B69002B89
:1037700006D11E4B194A1821FF31194804F04EFD9D
:103780000F217B1802221A707B685B681B7C7A18F9
:1037900012789A4206D3164B104A1E21FF31104868
:1037A00004F03CFD0023BB607B685B68DB68BB60AA
:1037B000BB6876221A70BB680133FA1C12781A7043
:1037C0000F23FB181A787B6811001800FFF78AFA9C
:1037D000C046BD4604B080BD88A2010894A401087B
:1037E0009CA20108C0A20108DCA2010800A30108F4
:1037F00034A3010880B586B000AFF860080011005E
:103800007B600B23FB18021C1A700A23FB180A1C8E
:103810001A70FB68002B06D13C4B3D4A97214900AA
:103820003C4804F0FBFCFB685B68002B06D13A4B7C
:10383000374A3021FF31374804F0F0FCFB685B6801
:10384000DB68002B06D1354B314A982149003148BD
:1038500004F0E4FCFB685B689B69002B06D1304BED
:103860002B4A3221FF312B4804F0D8FC17217B185A
:1038700003221A70FB685B681B7C7A1812789A42E4
:1038800006D3284B224A9C214900224804F0C6FC5A
:1038900000233B61FB685B68DB683B613B69592245
:1038A0001A703B69013302221A703B6902330A2203
:1038B000BA1812781A707B68002B1AD03B69033350
:1038C0007A6812781A703B6904337A6852781A70F1
:1038D0003B6905337A6892781A703B6906330B228C
:1038E000BA1812781A701722BB18BA181278043254
:1038F0001A701723FB181A78FB6811001800FFF7DD
:10390000F1F9C046BD4606B080BDC04688A2010898
:10391000ACA401089CA20108C0A20108DCA2010815
:1039200000A3010834A30108002243088B4274D38A
:1039300003098B425FD3030A8B4244D3030B8B42B0
:1039400028D3030C8B420DD3FF22090212BA030CB9
:103950008B4202D31212090265D0030B8B4219D39A
:1039600000E0090AC30B8B4201D3CB03C01A5241BA
:10397000830B8B4201D38B03C01A5241430B8B4202
:1039800001D34B03C01A5241030B8B4201D30B03EB
:10399000C01A5241C30A8B4201D3CB02C01A524112
:1039A000830A8B4201D38B02C01A5241430A8B42D5
:1039B00001D34B02C01A5241030A8B4201D30B02BE
:1039C000C01A5241CDD2C3098B4201D3CB01C01AD8
:1039D000524183098B4201D38B01C01A52414309E2
:1039E0008B4201D34B01C01A524103098B4201D3D0
:1039F0000B01C01A5241C3088B4201D3CB00C01A3D
:103A0000524183088B4201D38B00C01A52414308B4
:103A10008B4201D34B00C01A5241411A00D20146D9
:103A2000524110467047FFE701B5002000F0F0F862
:103A300002BDC0460029F7D076E7704703460B4326
:103A40007FD4002243088B4274D303098B425FD397
:103A5000030A8B4244D3030B8B4228D3030C8B42C3
:103A60000DD3FF22090212BA030C8B4202D31212A9
:103A7000090265D0030B8B4219D300E0090AC30B7E
:103A80008B4201D3CB03C01A5241830B8B4201D32B
:103A90008B03C01A5241430B8B4201D34B03C01A14
:103AA0005241030B8B4201D30B03C01A5241C30A8C
:103AB0008B4201D3CB02C01A5241830A8B4201D3FD
:103AC0008B02C01A5241430A8B4201D34B02C01AE7
:103AD0005241030A8B4201D30B02C01A5241CDD28C
:103AE000C3098B4201D3CB01C01A524183098B42D7
:103AF00001D38B01C01A524143098B4201D34B01C0
:103B0000C01A524103098B4201D30B01C01A524122
:103B1000C3088B4201D3CB00C01A524183088B42A9
:103B200001D38B00C01A524143088B4201D34B0092
:103B3000C01A5241411A00D2014652411046704704
:103B40005DE0CA0F00D04942031000D34042534009
:103B500000229C4603098B422DD3030A8B4212D3C9
:103B6000FC22890112BA030A8B420CD389019211FB
:103B70008B4208D3890192118B4204D389013AD038
:103B8000921100E08909C3098B4201D3CB01C01A0D
:103B9000524183098B4201D38B01C01A5241430920
:103BA0008B4201D34B01C01A524103098B4201D30E
:103BB0000B01C01A5241C3088B4201D3CB00C01A7B
:103BC000524183088B4201D38B00C01A5241D9D293
:103BD00043088B4201D34B00C01A5241411A00D214
:103BE0000146634652415B10104601D34042002B10
:103BF00000D54942704763465B1000D3404201B58F
:103C0000002000F005F802BD0029F8D016E7704743
:103C10007047C04603B47146490840004900095E38
:103C200049008E4403BC704770B500260C4D0D4C06
:103C3000641BA410A64209D1002605F0ABFD0A4D75
:103C40000A4C641BA410A64205D170BDB300EB580A
:103C500098470136EEE7B300EB5898470136F2E794
:103C60000000000000000000000000000000000054
:103C700003008218934200D1704719700133F9E7AD
:103C80000FB480B500AFC046BD4680BC08BC04B0D0
:103C90001847000080B586B000AFF860B960FB1D22
:103CA0001A70FB1D1A780B4B5A63BA680A490B4B02
:103CB000180001F0B6F9094B180001F005FB0300EC
:103CC0007B617B69002BF6D000231800BD4606B04F
:103CD00080BDC046640000208C0000200C04002041
:103CE00080B500AF02F030FB03001800BD4680BD78
:103CF00080B588B002AF3B0000221A603B00002272
:103D00005A603B0002229A603B000122DA603B00CD
:103D1000EC22D2001A613B000E4A5A613A000E4B67
:103D20001100180001F0CAF80B480023009300238B
:103D30000222022101F01FF9074B00220121180085
:103D400001F0D2FA044B180001F045F9C046BD4617
:103D500006B080BDFF0700000C04002090B583B0C2
:103D600000AFFC1D00F0CEF903002370FB1D1B7893
:103D7000002B1AD0224B1B78FA1D12789A4214D0CD
:103D8000204B1B780133DAB21E4B1A701D4B1B7887
:103D9000022B02D91B4B00221A70FCF7A7FB020072
:103DA0000B0019490A604B601FE0FB1D1B78002BBC
:103DB0001BD0134B1B78FA1D12789A4215D1124B67
:103DC0001A685B6810001900FCF79EFB02000B00EC
:103DD000002B03D109D10D498A4206D9094B032290
:103DE0001A7001210020FEF769FF054BFA1D1278B9
:103DF0001A70044B1B781800BD4603B090BDC04636
:103E000060030020000200206803002088130000E7
:103E1000B0B582B000AF384B1A685B68100019006B
:103E2000FCF772FB04000D0000F0E2FC03003B60B5
:103E300000237B603A687B681900A94257D81900B3
:103E4000A94202D11300A34251D8FCF74FFB020054
:103E50000B0029490A604B60284B1B785A1E93417E
:103E6000DBB201225340DBB21A1C01231340DAB249
:103E7000224B1A70FFF772FF0300022B17D021DCD0
:103E8000002B02D0012B09D01CE01C4B1B78180022
:103E900000F018F9002000F0F7F828E0002000F00A
:103EA00011F9164B1B78180000F0EEF81FE0134BC9
:103EB0001B78180000F006F9104B1B78180000F072
:103EC000E3F814E00D4B1B785A1E9341DBB201223C
:103ED0005340DBB21A1C01231340DBB2180000F080
:103EE000F1F8064B1B78180000F0CEF8C046C0462B
:103EF000BD4602B0B0BDC0467003002001020020E4
:103F000090B5C5B002AF364B842464001B19DB1991
:103F100000221A600433FB2200211800FFF7A8FEDC
:103F2000304B1B19DB1900221A8002F099F900F0BE
:103F3000FBF800F03FF900F0C5F900F001FA00F0DD
:103F400057FA294B180003F0DFFAFFF7D1FE274A92
:103F50002749284880230193274B0093802304F0AE
:103F6000AFF8FCF7B3FA254B1A68E4235B009A42DA
:103F70000AD1224B00221A60214BC52201219954FB
:103F80001F4BB92203219954FEF716FD1D4B180053
:103F900004F0FEFC62B6C046164B180004F0BEF8F2
:103FA000BB1C391D1348FF2204F055F803007A1D8D
:103FB000FF3213607B1DFF331B68002B0BD1094BB5
:103FC000842252009B18DB191B88DAB23B1D1100BA
:103FD0001800FEF78DFDFEF773FCFFF719FFDBE716
:103FE000FCFEFFFFFAFEFFFF7004002070010020BE
:103FF00061070000B0000020F0000020FC770020E6
:1040000088020020AC97010880B582B000AF7860CC
:1040100039603B68012213401AD00F4B0F4A786871
:10402000402101F043F8031E13D10C4B1A68EC2316
:10403000DB009A420DD1094B5B68002B09D1074B7D
:10404000DB68DAB20449064B180003F09DFE00E07D
:10405000C046BD4602B080BDF001002064000020D3
:10406000B000002080B582B000AF786001235B42D1
:10407000391D0448012202F0D5FB7B681800BD46BB
:1040800002B080BD7803002080B582B000AF02008E
:10409000FB1D1A70FB1D1B78002B07D0A023DB052E
:1040A00001222021180003F0BAF906E0A023DB0565
:1040B00000222021180003F0B2F9C046BD4602B02C
:1040C00080BD000080B582B000AF0200FB1D1A70F9
:1040D000FB1D1B78002B07D080239B000848002283
:1040E000190003F09CF906E080239B00044801229C
:1040F000190003F094F9C046BD4602B080BDC04629
:104100000008005080B500AF80239B01054A1900CC
:10411000100003F067F903005A425341DBB2180064
:10412000BD4680BD0008005090B58DB000AF14248E
:104130003B1918001C231A000021FFF799FD3B00D2
:10414000180014231A000021FFF792FD184B1B687A
:10415000072293431A00164B01210A431A603B19A8
:1041600002221A603B1980225200DA603B190022B9
:104170001A613B1940225A613B19180001F002FCF8
:104180003B0007221A603B0000225A603B000022DD
:104190009A603B000022DA603B0000221A613B007B
:1041A0000121180001F0D2FDC046BD460DB090BD02
:1041B0000020024090B58BB000AF14243B191800CA
:1041C00014231A000021FFF753FD3C4B5A6B3B4B65
:1041D00001210A435A63394B5B6B012213403B6157
:1041E0003B69364B5A6B354B08210A435A63334BB4
:1041F0005B6B08221340FB60FB68304B5A6B2F4B04
:1042000002210A435A632D4B5B6B02221340BB60B1
:10421000BB682A4B5A6B294B04210A435A63274B2C
:104220005B6B042213407B607B6880239B002448E7
:104230000022190003F0F3F8A023DB05002220215F
:10424000180003F0ECF83B19802292001A603B1929
:1042500011225A603B1900229A603B190022DA6051
:104260003B19174A1900100002F04AFF3B1920229F
:104270001A603B1901225A603B1900229A603B19CF
:104280000022DA603A19A023DB051100180002F0C1
:1042900037FF21007B18802292011A607B180022D0
:1042A0005A607B1801229A607B18054A1900100099
:1042B00002F026FFC046BD460BB090BD0010024084
:1042C0000008005080B500AF1B4B1C4A1A601A4B07
:1042D000E12252025A60184B00229A60164B0022CB
:1042E000DA60154B00221A61134B0C225A61124BF3
:1042F00000229A61104B0022DA610F4B00221A62F1
:104300000D4B00225A620C4B00229A620A4B180095
:1043100002F032FA084B0021180002F04DF9064B6A
:104320000021180002F088F9034B180002F00AF986
:10433000C046BD4680BDC04678030020003801401D
:1043400080B500AF274B942227499950254B9822DE
:1043500000219950234B9C2200219950214BA022EF
:10436000002199501F4BA422012199541D4BA522D5
:10437000012199541B4BA62200219954194BA822C4
:1043800001219950174BAC220C219950154BB022AA
:1043900023219950134BB4220C219950114BB82270
:1043A000012199500F4BBC22062199500D4BC02280
:1043B000112199500B4BC42206219950094BC82258
:1043C00001219950074BCC2200219950054BD02256
:1043D00000219950054B180000F010FCC046BD4666
:1043E00080BDC04678030020006400400C0400201B
:1043F00080B500AF114BF822114999500F4BFC22A8
:10440000104999500D4A80235B000021D1500B4A7E
:1044100082235B000C49D150084A84235B000021B1
:10442000D150064A88235B008021D150074B1800E9
:1044300003F012F8C046BD4680BDC0467803002098
:10444000002000407FBB0000FFFF00007004002040
:1044500080B500AF01F066FFC046BD4680BD0000DC
:1044600080B500AF034B180001F014F8C046BD46FC
:1044700080BDC0460C04002080B500AFC046FDE7FB
:1044800080B500AF02F04DF8C046FDE780B500AF43
:10449000C046FDE780B500AFC046FDE780B500AF80
:1044A000C046FDE780B500AFC046FDE780B500AF70
:1044B000C046FDE780B500AFC046FDE780B500AF60
:1044C000C046FDE780B500AFC046FDE780B500AF50
:1044D000C046FDE780B500AFC046FDE780B500AF40
:1044E000C046FDE780B500AFC046FDE780B500AF30
:1044F000C046FDE780B500AFC046FDE780B500AF20
:10450000C046FDE780B500AFC046FDE780B500AF0F
:10451000C046FDE780B500AF054BF8229B5802224C
:1045200052421A61FCF704F8C046BD4680BDC04641
:104530007803002080B500AFC046FDE780B500AF2E
:10454000C046FDE780B500AFC046FDE780B500AFCF
:10455000C046FDE780B500AFC046FDE780B500AFBF
:10456000C046FDE780B500AFC046FDE780B500AFAF
:10457000C046FDE780B500AFC046FDE780B500AF9F
:10458000C046FDE780B500AFC046FDE70D48854653
:1045900000F028FB002103E00B4B5B584350043133
:1045A0000A480B4B42189A42F6D30A4A02E000230B
:1045B00013600432084B9A42F9D3FFF735FBFFF73B
:1045C0009FFCFEE7FC770020ACA60108000000205D
:1045D0005C030020600300205806002080B500AF77
:1045E000024B5B6A9BB21800BD4680BD00200040B4
:1045F00080B582B000AF0200FB1D1A70FB1D1A7857
:10460000094B1100180004F037F9FB1D1B78022B31
:1046100006D1064B7B221A6001F083FFC046FDE7FE
:10462000C046BD4602B080BDC0970108FC7700209F
:1046300080B582B000AF0200FB1D1A70FB1D1A7816
:10464000044B1100180004F017F901F06AFFC0468E
:10465000FDE7C046CC97010880B582B000AF0200EC
:10466000FB1D1A70FB1D1A78044B1100180004F092
:1046700003F9C046BD4602B080BDC046D8970108C8
:1046800080B586B000AFB9607A6019000F23FB18BF
:10469000021C1A700E23FB180A1C1A70BB68002B30
:1046A00005D12C4B2C4A2D48402103F0B7FD7B68E7
:1046B000002B05D12A4B284A2848412103F0AEFDA2
:1046C0000E23FB181B78002B05D1264B224A2348CA
:1046D000422103F0A3FD2023FB181B78002B05D1FA
:1046E000214B1D4A1D48432103F098FD0E23FA1863
:1046F0002023FB1812781B789A4205D01B4B164AD0
:104700001648442103F08AFD00237B6116E00E2346
:10471000FB181B785A1E7B69D31A3B617B69BA6808
:10472000D31819783B697A68D3180F22BA1812780F
:104730008A18D2B21A707B6901337B610E23FB1891
:104740001B787A699A42E2DBC046C046BD4606B095
:1047500080BDC046E4970108CCA40108F897010881
:1047600030980108409801085098010860980108A5
:1047700080B584B000AF39601100FB1D021C1A70B7
:10478000BB1D0A1C1A703B68002B05D1144B154A3F
:104790001548522103F042FDBB1D1B78002B05D1AB
:1047A000124B104A1048532103F038FD0023FB60E0
:1047B0000CE0FB68D9B2FB683A68D318FA1D12788E
:1047C0008A18D2B21A70FB680133FB60BB1D1B78DC
:1047D000FA689A42EDDBC046C046BD4604B080BDD3
:1047E000E4970108E0A40108F8970108409801083F
:1047F00080B500AF024B1B881800BD4680BDC04687
:104800005802002080B582B000AF0F4B1A6C0E4BDF
:1048100001210A431A640C4B1B6C012213407B607C
:104820007B68094BDA6B084B802149050A43DA6340
:10483000054BDA6B80235B0513403B603B68C04649
:10484000BD4602B080BDC04600100240B0B592B077
:1048500000AF786034243B19180014231A0000219B
:10486000FFF706FA14257B19180020231A000021EF
:10487000FFF7FEF97B681B68244A934241D17B19FC
:1048800010221A607B1900225A617B19180001F06E
:10489000EDFB1F4BDA6B1E4B802149010A43DA63A3
:1048A0001B4BDA6B80235B0113403B613B69184B68
:1048B0005A6B174B08210A435A63154B5B6B08224E
:1048C0001340FB60FB6821007B1803221A607B18F1
:1048D00002225A607B1800229A607B180022DA605C
:1048E0007B1804221A617B180A4A1900100002F092
:1048F00007FC002200211E2001F0EEFD1E2001F029
:1049000000FEC046BD4612B0B0BDC04600640040C7
:1049100000100240000C0050B0B592B000AF7860BB
:1049200034243B19180014231A000021FFF7A0F9C2
:1049300014257B19180020231A000021FFF798F98D
:104940007B681B68314A93425BD17B1901221A6054
:104950007B1900229A607B19180001F087FB2C4B11
:104960001A6C2B4B8021C9010A431A64284B1A6C1C
:104970008023DB0113403B613B69254B5A6B244B81
:1049800001210A435A63224B5B6B01221340FB60F7
:10499000FB681F4B5A6B1E4B02210A435A631C4B88
:1049A0005B6B02221340BB60BB683B1902221A609A
:1049B0003B1902225A603B1900229A603B190022DF
:1049C000DA603B1904221A613A19A023DB051100B1
:1049D000180002F095FB21007B1840221A607B181A
:1049E00002225A607B1800229A607B180022DA604B
:1049F0007B1800221A617B18064A1900100002F089
:104A00007FFBC046BD4612B0B0BDC0460038014075
:104A1000001002400004005080B584B000AF786000
:104A20007B681B680E4A934215D10E4B1A6C0D4BD6
:104A3000802109020A431A640A4B1A6C80231B0264
:104A40001340FB60FB6800220021132001F044FDAD
:104A5000132001F056FDC046BD4604B080BDC046DF
:104A6000002000400010024080B500AF0123180074
:104A7000BD4680BD80B582B000AF7860396003F07C
:104A8000EBFB030016221A6001235B421800BD46AF
:104A900002B080BD80B582B000AF786001235A4279
:104AA0007B6811001800FFF7E5FFFEE780B586B0D0
:104AB00000AFF860B9607A6000237B610AE000E033
:104AC00000BF0100BB685A1CBA60CAB21A707B6989
:104AD00001337B617A697B689A42F0DB7B6818005E
:104AE000BD4606B080BD80B586B000AFF860B96045
:104AF0007A6000237B6109E0BB685A1CBA601B78AE
:104B00001800FFF7AFFA7B6901337B617A697B6834
:104B10009A42F1DB7B681800BD4606B080BD80B5C7
:104B200082B000AF786001235B421800BD4602B03E
:104B300080BD80B582B000AF786039603B6880226C
:104B400092015A6000231800BD4602B080BD80B5B6
:104B500082B000AF786001231800BD4602B080BD6E
:104B600080B584B000AFF860B9607A6000231800A7
:104B7000BD4604B080BD000080B586B000AF78604F
:104B8000144A154BD31A7B617B693B61134B1B683D
:104B9000002B02D1114B124A1A60104B1A687B6825
:104BA000D3183A699A4207D203F056FB03000C224D
:104BB0001A6001235B4209E0084B1B68FB60074B4E
:104BC0001A687B68D218054B1A60FB681800BD464E
:104BD00006B080BDFC7700200004000040060020E5
:104BE0005806002080B500AF024B034A9A60C046C9
:104BF000BD4680BD00ED00E00000010880B584B036
:104C000000AF78607B68002B01D1012349E17B680C
:104C10005C229B5CDBB2002B07D17B685D2200210C
:104C200099547B681800FFF711FE7B681B689A692E
:104C30007B681B6810218A439A6101F085FB0300A1
:104C4000FB6012E001F080FB0200FB68D31A0A2B24
:104C50000BD97B681B6E01221A437B681A667B683E
:104C60005C220321995401231BE17B681B689B692B
:104C700008221340082BE5D07B681B689A697B6883
:104C80001B6801210A439A6101F05EFB0300FB608F
:104C900012E001F059FB0200FB68D31A0A2B0BD972
:104CA0007B681B6E01221A437B681A667B685C2254
:104CB000032199540123F4E07B681B689B6901225E
:104CC0001340E6D07B681B689A697B681B680221E9
:104CD0000A439A61754A7B685B6813607B681B7C3A
:104CE000012B08D17B681B689A697B681B6840218F
:104CF0008A439A6107E07B681B689A697B681B6836
:104D000040210A439A617B685B7C012B09D17B6857
:104D10001B689A697B681B688021C9010A439A61F4
:104D200007E07B681B689A697B681B6860490A40DA
:104D30009A617B689B7C012B08D17B681B689A6910
:104D40007B681B685B490A409A6108E07B681B68C6
:104D50009A697B681B68802149010A439A617B68D4
:104D60001B689B69544A134019007B689A687B68EA
:104D70001B680A439A617B681B689A697B681B6899
:104D8000A4218A439A617B681B681A697B681B6847
:104D900010218A431A617B68DB68012B08D17B688C
:104DA0001B689A697B681B6804210A439A612CE09E
:104DB0007B68DB68002B28D07B68DB68022B1CD06B
:104DC0007B681B689A697B681B6880210A439A612B
:104DD0007B681B681A697B681B6810210A431A618B
:104DE0007B68DB68032B10D17B681B689A697B6842
:104DF0001B6820210A439A6107E07B681B689A6957
:104E00007B681B6820210A439A617B689B69013B90
:104E10005A067B68DB69013B1B021A437B681B6AED
:104E2000013B1A4311007B685B69013B1A047B68F4
:104E30001B680A43DA617B689A68C0239B009A4228
:104E400015D17B689B6A5A1E7B68DB6A013B1B029B
:104E50001A437B681B6B013B1B011A4311007B68E3
:104E60005B6A013B1A047B681B680A43DA607B6853
:104E70001B68C02299587B68DA6B7B681B680A4301
:104E8000C0215A507B68180000F0A0FC7B6800220B
:104E90009A657B6800221A667B685C22012199541E
:104EA00000231800BD4604B080BDC0460065004028
:104EB000FFBFFFFFFFEFFFFFFFFCFFFF80B586B0E6
:104EC00000AF7860396017203B187A685C21525C2B
:104ED0001A700200BB181B78012B03D0BB181B787B
:104EE000022B3DD13B681B68002B19D13B689B68A6
:104EF0009A073B68DB68DB061A433B681B691B04A7
:104F00001A433B685B6913433B617B681A6C3B68DF
:104F10005B689B00D318BB60BB683A691A601DE0F0
:104F20003B68DB685A073B681B6913433B613B687E
:104F30009B689A073B685B691343FB607B685A6C0C
:104F40003B685B68DB00D318BB60BB683A691A60DA
:104F5000BB680433BB60BB68FA681A60002306E0D4
:104F60007B681B6E02221A437B681A6601231800B5
:104F7000BD4606B080BD80B584B000AFF860B960B2
:104F80007A603B60FB685C229B5CDBB2012B17D133
:104F9000FB681B6880229B583F2293431900BB6823
:104FA0001A017B689B001A433B685B001A43BB698C
:104FB0001A43FB681B680A4380215A50002306E00D
:104FC000FB681B6E04221A43FB681A660123180053
:104FD000BD4604B080BD80B582B000AF78607B680C
:104FE0005C229B5CDBB2012B10D17B685C2202212E
:104FF00099547B681B689A697B681B6801218A4306
:105000009A617B6800221A66002306E07B681B6EAB
:1050100004221A437B681A6601231800BD4602B0B9
:1050200080BD80B586B000AFF860B9607A60FB687B
:105030005C229B5CDBB2022B2DD1FB681B68C42277
:105040009A5880239B03134008D0FB681B6E802274
:1050500092001A43FB681A66012323E0FB681B6871
:10506000C4229B581B0C032213407B617B697A6826
:10507000B968F86800F00AFCFB681B6801217A69CE
:1050800091400A00CC215A5001227B699A40FB686A
:105090009A65002306E0FB681B6E08221A43FB6832
:1050A0001A6601231800BD4606B080BD80B58AB0DF
:1050B00000AFF860B9607A603B600023FB611B20A1
:1050C0003B18FA685C21525C1A703B181B78022B63
:1050D00000D0ECE0BB68402B37D1FB681B68902206
:1050E0009B580F22134008D1FB681B6E8022520090
:1050F0001A43FB681A660123E0E0FB681B689022F4
:105100009B581B0E01221340012B0AD1FB681B6820
:1051100080229B585B0A01221340012B01D10123FD
:10512000FB61FB681B6890229B581B0A03221340FB
:10513000FA69D318FB61FB68996CFA691300DB000C
:105140009B18DB00CB187B6236E0FB681B6898225B
:105150009B580F22134008D1FB681B6E802252001F
:105160001A43FB681A660123A8E0FB681B689822B3
:105170009B581B0E01221340012B0AD1FB681B68B0
:1051800080229B581B0A01221340012B01D10123CD
:10519000FB61FB681B6898229B581B0A0322134083
:1051A000FA69D318FB61FB68D96CFA691300DB005C
:1051B0009B18DB00CB187B627B6A1A688023DB05B7
:1051C0001A407B685A607B685B68002B07D17B6A5A
:1051D0001B689B0C5B055A0D7B681A6005E07B6AB7
:1051E0001B68DB00DA087B681A607B6A1A68802318
:1051F0009B051A407B689A607B6A1B68DB0FDA07A5
:105200007B681A617B6A04337B627B6A1B681B04C0
:105210001A0C7B68DA617B6A1B681B0C0F221A4030
:105220007B68DA607B6A1A6880235B031A407B68BC
:105230005A617B6A1A6880239B031A407B689A61D3
:105240007B6A1B681B0E7F221A407B681A627B6A8E
:105250001B68DA0F7B685A627B6A04337B627B6A65
:105260007B6100233B620AE07A693B6AD2183968A5
:105270003B6ACB1812781A703B6A01333B627B6839
:10528000DB68104AD35C1A003B6A9342ECD3BB68DC
:10529000402B05D1FB681B689421FA695A5004E041
:1052A000FB681B689C21FA695A50002306E0FB68E2
:1052B0001B6E08221A43FB681A6601231800BD46BC
:1052C0000AB080BD58A5010880B584B000AF7860F1
:1052D0007B681B68C4229B5807221340FB60FB6855
:1052E0001800BD4604B080BD80B586B000AFF86040
:1052F000B9607A6017203B18FA685C21525C1A701A
:105300000200BB181B78012B04D0BB181B78022BA2
:1053100000D0B4E0FB681B689B6D3B61BB68072253
:10532000134003D03B690122134034D0BB683822BC
:10533000134003D03B69022213402CD0BA68E0230B
:105340005B00134003D03B690422134023D0BA68AA
:10535000F0235B01134003D03B69082213401AD0AD
:10536000BA68E0231B02134003D03B6910221340AC
:1053700011D0BA68C0239B02134003D03B6920229E
:10538000134008D0BA68FC231B0413400BD03B69C0
:105390004022134007D1FB681B68DA6DFB681B686D
:1053A00001210A43DA65BB680722134003D03B6939
:1053B0000122134034D1BB683822134003D03B692B
:1053C000022213402CD1BA68E0235B00134003D0C3
:1053D0003B690422134023D1BA68F0235B011340D8
:1053E00003D03B69082213401AD1BA68E0231B029C
:1053F000134003D03B691022134011D1BA68C02377
:105400009B02134003D03B692022134008D1BA68A5
:10541000FC231B0413400BD03B694022134007D0F0
:10542000FB681B68DA6DFB681B6802210A43DA65BA
:10543000BB688022134009D0FB681B68DC229958A6
:10544000FB681B687A680A43DC215A50BA688023DB
:105450005B00134009D0FB681B68E0229958FB6889
:105460001B687A680A43E0215A50FB681B68596D33
:10547000FB681B68BA680A435A65002306E0FB68AC
:105480001B6E02221A43FB681A6601231800BD46F0
:1054900006B080BD80B58CB000AF78607B681B68BB
:1054A0001A6DE0235B011340FB627B681B685A6D39
:1054B000FB6A1340FB627B681B681B6D072213406D
:1054C000BB627B681B685A6DBB6A1340BB627B681A
:1054D0001B681B6D382213407B627B681B685A6D0A
:1054E0007B6A13407B627B681B681A6DF1231B0487
:1054F00013403B627B681B685A6D3B6A13403B62FA
:105500007B681B681A6DE0231B031340FB617B68FB
:105510001B685A6DFB691340FB617B681B685B6D00
:10552000BB617B681B681B6D7B617B699B091A00F3
:10553000012313400DD0BB699B091A0001231340BE
:1055400007D07B681B6840221A657B68180000F052
:1055500024F97B691B0A1A00012313401CD0BB6984
:105560001B0A1A000123134016D07B681B68D8223F
:105570009B583B617B681B68E0229A583B6913404B
:105580003B617B681B68802252001A653A697B6820
:105590001100180000F0E8F8FB6A002B09D07B68C6
:1055A0001B68FA6A1A65FA6A7B681100180000F035
:1055B000B8F8BB6A002B09D07B681B68BA6A1A6509
:1055C000BA6A7B6811001800FEF71EFD7B6A002B8B
:1055D00009D07B681B687A6A1A657A6A7B68110051
:1055E000180000F0A7F87B695B0A1A00012313403A
:1055F0000ED0BB695B0A1A000123134008D07B68F8
:105600001B68802292001A657B68180000F09BF8E6
:105610007B69DB091A00012313401BD0BB69DB093E
:105620001A000123134015D07B681B68D4229B58B5
:10563000FB607B681B68DC229A58FB681340FB60A8
:105640007B681B6880221A65FA687B681100180065
:1056500000F081F87B695B0B1A00012313400ED028
:10566000BB695B0B1A000123134008D07B681B68E1
:10567000802292011A657B68180000F07EF87B6931
:10568000DB0B1A00012313400ED0BB69DB0B1A00A1
:105690000123134008D07B681B68802212021A6520
:1056A0007B68180000F071F87B699B0B1A000123DE
:1056B000134010D0BB699B0B1A00012313400AD082
:1056C0007B681B688022D2011A657B681B6E802272
:1056D0001A437B681A66FB69002B09D07B681B683C
:1056E000FA691A65FA697B681100180000F065F81C
:1056F0003B6A002B09D07B681B683A6A1A657B6895
:105700001A6E3B6A1A437B681A667B681B6E002B15
:1057100003D07B68180000F048F8C046BD460CB0C6
:1057200080BD80B582B000AF78603960C046BD46AC
:1057300002B080BD80B582B000AF78603960C046ED
:10574000BD4602B080BD80B582B000AF7860C04673
:10575000BD4602B080BD80B582B000AF78603960D0
:10576000C046BD4602B080BD80B582B000AF786053
:105770003960C046BD4602B080BD80B582B000AF82
:105780007860C046BD4602B080BD80B582B000AF33
:105790007860C046BD4602B080BD80B582B000AF23
:1057A0007860C046BD4602B080BD80B582B000AF13
:1057B0007860C046BD4602B080BD80B582B000AF03
:1057C00078603960C046BD4602B080BD80B584B007
:1057D00000AF78602A4BBB607B68BA681A647B684C
:1057E0001B6880229B58274A134019007B685B6B1B
:1057F0001A047B681B680A4380215A50BB687033C7
:105800001A007B685A647B681B6880229B581E4A7A
:10581000134019007B689B6B1A067B681B680A4360
:1058200080215A50BB68B0331A007B689A64BB6809
:105830008933FF331A007B68DA64BB6898229200D0
:105840009A187B681A65BB689E2292009A187B683A
:105850005A65BB68FB6005E0FB6800221A60FB68C4
:105860000433FB60BB68D422920094466344FA6818
:105870009A42F1D3C046C046BD4604B080BDC04682
:1058800000B40040FFFFE0FFFFFFFFF080B588B0ED
:1058900000AFF860B9607A603B60BB685B68002B62
:1058A0000AD1BB681A69BB689B681A43BB681B684E
:1058B0009B041343FB610BE0BB681A69BB689B68E0
:1058C0001A43BB681B6813438022D2051343FB6154
:1058D000BB681B6A1A06BB68DB691A43BB689B6915
:1058E0001A43BB685B691A43BB68DB681B0413433C
:1058F0003B61FB68596D3A681300DB009B18DB00C5
:10590000CB18BB61BB69FA691A60BB690433BB6120
:10591000BB693A691A60BB690433BB6100237B61D0
:1059200020E07B6903337A68D3181B781A067B69F9
:1059300002337968CB181B781B041A437B69013347
:105940007968CB181B781B02134379687A698A1827
:1059500012781A43BB691A60BB690433BB617B6967
:1059600004337B61BB68DB68054AD35C1A007B6942
:105970009342D6D3C046C046BD4608B080BDC0469F
:1059800058A5010880B586B000AF78607B68002B11
:1059900001D10123D0E17B681B680122134000D1B3
:1059A00069E0C84B9B68382213407B617B69082BF8
:1059B00005D17B685B68002B5DD10123BCE17B686E
:1059C0005A6880235B029A4207D1BE4B1A68BD4BCE
:1059D000802149020A431A6020E07B685A68A023AC
:1059E000DB029A420ED1B74B1A68B64B8021C9022E
:1059F0000A431A60B34B1A68B24B802149020A432A
:105A00001A600BE0AF4B1A68AE4BAF490A401A6000
:105A1000AC4B1A68AB4BAD490A401A607B685B68B7
:105A2000002B14D000F090FC03003B6108E000F074
:105A30008BFC02003B69D31A642B01D903237BE161
:105A4000A04B1A6880239B021340F0D013E000F0B3
:105A50007BFC03003B6108E000F076FC02003B6940
:105A6000D31A642B01D9032366E1964B1A6880236D
:105A70009B021340F0D17B681B680222134000D1C7
:105A800086E0904B9B68382213407B617B69002B3A
:105A90002FD17B68DB68002B01D101234CE1894BBE
:105AA0005B688B4A134019007B685B691A02854B5F
:105AB0000A435A607B69002B12D1824B1B68854ACE
:105AC000134019007B681A697E4B0A431A607D4BAC
:105AD0001B68DB0A072213407F4ADA407F4B1A60BB
