:020000040801F1
:10000000BC770020ED250108552501085925010878
:1000100000000000000000000000000000000000E0
:10002000000000000000000000000000632501083F
:100030000000000000000000672501083D250108C0
:100040006B250108000000006F25010873250108D9
:10005000772501087B2501087F25010883250108F4
:1000600000000000872501088B2501088F25010865
:1000700093250108972501089B2501089F25010864
:10008000A32501080000000000000000A9250108C8
:10009000C1250108C5250108C9250108CD2501088C
:1000A000D1250108D5250108D9250108DD2501083C
:1000B000E1250108E525010845250108E925010894
:1000C00010B5002805D108210D4B0E4A0E4804F04A
:1000D000B9FB037E002B03D109210C4B094AF5E73C
:1000E0000368002B03D10A21094B064AEEE71B687F
:1000F000002B03D10B21074B024AE7E710BDC04696
:10010000BE660108E85D01084F65010873650108D6
:100110008F650108AB65010810B50400FFF7D0FF3B
:1001200022681379022B0CD008D8012B09D0074A7A
:100130002021074B07480F3204F084FB033B012BBF
:10014000F5D813689847002110BDC046E85D010846
:10015000D56501084F65010870B504000D00002841
:1001600006D14821184A194B1F32194804F06AFB7E
:10017000002904D1144A4921164B1F32F5E70B68B8
:10018000002B04D1104A4A21134B1F32EDE70B79A3
:10019000002B04D10C4A4B21104B1F32E5E7042BF6
:1001A00004D9094A4C210E4B1F32DEE71C220021E4
:1001B000043001F013FF0123256020002376FFF7B0
:1001C000ABFFA060E16070BDE85D0108BE6601089C
:1001D0004F6501089B650108B7650108DB650108EB
:1001E000046601087FB5060003930292FFF768FFDB
:1001F0003000FFF791FF009030000191FFF760FFA2
:1002000033681879013803282AD83469756901F0F0
:10021000FDFC020B1F24FF2230697169002301F0ED
:100220008BFE02000B0005E0210C2B040B43220483
:10023000121BAB4120002900029C039D001BA94119
:10024000009C019D001969418018594104B070BD9E
:10025000210A2B060B432206EAE701225242DBE782
:10026000034A3B21034B04482E3204F0EBFAC0460C
:10027000E85D0108D56501084F65010810B5040067
:10028000FFF71EFFA268E3682000FFF7ABFF10BD79
:1002900070B5002806D1084A7021084B084844323E
:1002A00004F0D0FA012204694569002312196B4158
:1002B0000261436170BDC046E85D0108BE66010889
:1002C0004F65010810B502490248FFF745FF10BD10
:1002D000100200200805002010B50248FFF7CEFFED
:1002E00010BDC0460805002010B502000B000248F2
:1002F000FFF778FF10BDC0460805002010B5024882
:10030000FFF7C6FF10BDC0460805002070B50028E5
:1003100005D10D21194B1A4A1A4804F093FA436883
:10032000002B03D10E21184B154AF5E7DC68002C91
:1003300003D10F21154B124AEEE79D69002D03D121
:100340001021134B0E4AE7E75D69002D03D11121FF
:10035000104B0B4AE0E71B7C022B0DD97F23237047
:100360004368DB6859704368DB689A70436803220E
:100370009C69D9685869A04770BDC046BE6601082F
:100380003A5E01082C6601088F6501084C66010879
:1003900070660108A266010870B5002806D12C21FC
:1003A0000E4A0F4B0F320F4804F04CFA0024A242C1
:1003B00009D10A4A2D210C4B0F32F4E7155D067A5C
:1003C0000134AE4207D065B2AB42F7DC7E22FFF7C4
:1003D0009DFF002000E0012070BDC0463A5E01088C
:1003E000BE6601082C660108DB67010870B5041EB3
:1003F00006D1404A404B41492B32414804F022FA91
:100400004368002B04D13B4A3E4B3F492B32F4E773
:100410005A68002A05D1FD21364A3C4B2B3289000F
:10042000EBE71A00A0321268002A04D1314A384B97
:1004300038492B32E1E75B789B0703D41122362140
:10044000FFF764FFA57A1322023D06D46268130009
:100450009C331B88AB4205DA312236212000FFF79E
:1004600055FF70BD1300A4331978E37A994201D97E
:100470003322F2E71300AC331B78A8323621200078
:1004800012685BB2FFF788FF0028EAD063681A00A1
:1004900059689E321580063A106802312A0004F02D
:1004A00013FA636819005A68AD3152780A70A17B5B
:1004B000914201D07322D0E71A0020696169B032FD
:1004C000106051601800A0331B689830984763682B
:1004D0002000AD33197801F0BBFA206961692A0068
:1004E000A37B0133A373EB1712184B4122616361A5
:1004F000B7E7C0463A5E0108BE660108F203000095
:100500002C6601088F650108F3030000D16601081D
:10051000F5660108F5030000F8B5041E06D12F4A60
:100520002F4B30493F32304804F08CF941680029A4
:1005300004D12A4A2D4B2E493F32F4E74A68002A5B
:1005400004D1264A2B4B2C493F32ECE70B785B0653
:1005500005D4112222212000FFF7D8FE36E0837A4D
:10056000022B01D81322F5E7507893781422002546
:1005700094461B0203435BBACF6D9BB2AF4201DCD2
:100580003122E7E766466E43886D8219805B9842A8
:100590001DD00135F2E710232221D3562000D26866
:1005A000FFF7FAFE002811D063689B6D9E19337A1D
:1005B000002B02D07368002B04D1084A0F4B10495E
:1005C0003F32B0E72900200001F06AF9F8BD917AC6
:1005D000E37A9942DFD93322BCE7C0463A5E01088C
:1005E000BE6601084D0400002C6601088F650108F5
:1005F0004E040000D16601084F040000D5650108D3
:1006000093040000F8B5041E06D1204A204B21496E
:100610005532214804F016F94368002B04D11B4AD7
:100620001E4B1F495532F4E75B68002B04D1174A73
:100630001C4B1D495532ECE7827A022A04D813225A
:100640001921FFF763FEF8BD00259E7801272B00D6
:1006500062681100C0310968A94207DC002BF2D1A1
:1006600031002000227E01F035FAECE7BC3212683E
:10067000A9005018515C0E4205D0431C227E200078
:1006800001F028FA3B000135E2E7C0463A5E010876
:10069000BE6601089B0400002C6601088F650108F6
:1006A0009C040000D16601089D04000010B50028DC
:1006B00006D11F4A1F4B20496F32204804F0C2F870
:1006C0004368002B04D11A4A1D4B1E496F32F4E7D0
:1006D0005A68002A04D1164A1B4B1C496F32ECE7BA
:1006E0005978490704D411221921FFF70FFE1DE0A4
:1006F0001900C8310968002904D10D4A144B154965
:100700006F32DAE7C4331B68002B04D1084A124B5E
:1007100012496F32D1E7837A012B01D81322E3E724
:1007200053781222022BDFD1FFF76CFF10BDC046B9
:100730003A5E0108BE660108CD0400002C6601087F
:100740008F650108CE040000D1660108CF040000C7
:1007500028670108DE0400005B670108DF04000071
:10076000F7B5041E06D1394A394B3A4903323A48A3
:1007700004F068F84368002B04D1344A374B3849F9
:100780000332F4E75A68002A04D1304A354B36491F
:100790000332ECE75978090705D41122142120000F
:1007A000FFF7B4FDF7BD1900C8310968002904D16D
:1007B000264A2E4B2E490332D9E71900C4310D6861
:1007C000002D04D1214A2B4B2B490332CFE7817AEC
:1007D000032901D81322E1E7977856783900D278B7
:1007E00031401140FF292DD019000020C031096887
:1007F000BC33019101998842D4DA1C6881006118E8
:100800004C78B44220D18C78BC421DD1CC78944233
:100810001AD1002301220B70A847C3E71900BC318D
:100820000968AA0089180022C43328000A701B68CE
:1008300001329847013563681A00C0321268AA4233
:10084000ECDCAFE70025F6E70130D3E7BA5E01083C
:10085000BE660108FA0400002C6601088F650108D5
:10086000FB040000D1660108FC04000028670108B1
:100870000E0500005B6701080F050000F0B50400DD
:1008800087B0002806D1A94AA94BAA491932AA481B
:1008900003F0D8FF0378002B04D1A44AA74BA84942
:1008A0001932F4E7002543684573AB4204D19F4AEF
:1008B000A44BA5492732EAE75A6D002A4BDD1B6D90
:1008C000002B48D1994AA14BA1492732DFE73026B6
:1008D0006E431B6D98199B5D032B1DD0836A677354
:1008E000002B04D1914A9B4B9B492732CFE7984775
:1008F00061680B6DC86C9B191A6A5B6AFFF772FC22
:1009000063681B6D9E19F3698B4203D304D1B369ED
:10091000834201D204233370013563685A6D9542D6
:10092000D5DB0025032763685A6D954215DB627B92
:10093000002A00D0C4E0A27A002A00D1C0E05A68A0
:1009400011783E2905D82D2923D8192948D80F29EF
:1009500036D8112288E00127DFE730266E431A6D72
:100960009319925D022A0BD0042A07D1312120006D
:100970002232FFF7CBFC63681B6D9F550135D2E730
:10098000597B5A880091200001219B6800F0F4FEF9
:10099000F1E708002E381028DBD801F041F97D027C
:1009A000DAFFDAFFFD01DAFFDAFFE402DAFFA7037C
:1009B0007A03DAFFDAFFDAFFDAFFDAFFDAFF930011
:1009C000080010380928C4D801F02AF91900880055
:1009D000C3FFC3FF9C03C3FFC3FFC3FFC3FF980351
:1009E000222900D186E32729B3D1DA6B002A00D06F
:1009F000E5E0A4214D4A594B7832FF3147E7DA69E7
:100A0000002A04D1494A7B21554B42323FE71B78EB
:100A1000DB0704D4112210212000FFF777FC616866
:100A2000002904D1414A474B523248312FE7CB6964
:100A3000002B04D13D4A4921494B523227E74D68EA
:100A4000002D04D1394A4A21464B52321FE7A27A7F
:100A5000012A07D91F264A1C96570022B24207DBFB
:100A6000122200E0132210212000FFF74FFC1EE0AD
:100A700018781F00844668780233604502D001323E
:100A800052B2EBE77A78E37A9A4201D93322EAE765
:100A9000637A2072834203D04B6A002B00D09847C0
:100AA00062682000538D217A128D00F010FD002322
:100AB0006268A37252681370237A6372E37A2373B5
:100AC00007B0F0BD1B789B0704D411223E21200003
:100AD000FFF71CFC200000F03BFDE8E71A6B002A42
:100AE00004D1124AB121204B6832D0E6DA6A002ADA
:100AF00004D10E4AB2211D4B6832C8E61B785B0751
:100B000004D4112220001100FFF700FCA37A012B6E
:100B100009D9342600220C276068865753B29E42BA
:100B200026DC122200E0132211219DE7BA5E0108A3
:100B3000BE660108410500002C66010873650108C6
:100B4000420500008F6501089B020000D565010881
:100B5000A10200008F670108AA0200004C6801088A
:100B6000C0670108D1660108F16701081C68010827
:100B70003D005543036B013259195B5D9C46436848
:100B80005B789C45CAD14A78E37A9A4201D93322EC
:100B9000CAE708234A68CB5620001121FFF7FCFB67
:100BA000002800D183E7636820001B6B595D00F0CB
:100BB00011FD63681A6BDB6A505D984777E75A6CE2
:100BC000002A05D1D221BB4ABB4B783249005EE6F0
:100BD0009A6C002A04D1B74AA621B84B78320CE7A8
:100BE0001B781B0704D4112227212000FFF78EFB5E
:100BF00063682721DA6B14232000D3561269FFF7AC
:100C0000CBFB002800D152E7A07A012802D813229A
:100C1000272129E763685A68557802222900914301
:100C2000012904D0052D02D0EA1F3A2A44D8DA6BF4
:100C3000002A04D1A24AFD21A24B0E3227E6996C6C
:100C4000002907D040201856002359B2884206DCFC
:100C50001222DDE79A4AFE21984B0E3217E6110068
:100C600018260F785E4318320133AF42EDD14B683E
:100C7000002B01D12622CBE70C23CB56002BF9DD2C
:100C800014230A69CB5620002721FFF785FB002893
:100C900000D10CE761682800CB6B8F6C9B191A7B25
:100CA0005968B84763682900DA6B20009219137BF2
:100CB000526800F0CFFCFAE6042229009143022991
:100CC00005D0042D03D02A00083A3A2AC0D8DA6B9E
:100CD000002A04D17A4A9E217A4B293276E7596C50
:100CE00000294BD040269E570023511CB3424ADBBB
:100CF00001235B4218265E439219117B0231C9B26F
:100D0000884284D1002BA3DB9368002BB2D00D2343
:100D1000D356002BAEDD14232721D35620001269B1
:100D2000FFF73AFB002800D1C1E66268D36B99193E
:100D30004F7B0B7B08780097576C8A684968B847E7
:100D40006368DA6B586896190D22B168B2560230A2
:100D500003F0ACFD3522002800D059E7290020001F
:100D600000F0CAFC6368E5729B6B002B00D19EE625
:100D7000227BAA4200D19AE628001EE7504A3E2173
:100D80004D4B293239E618310F00183F3F78AF42FA
:100D9000B0D001335BB2A9E71B78DB0604D4112283
:100DA00031212000FFF7B2FAA57A032D02D81322D1
:100DB000312159E663681F6D002F03D05A6D0392ED
:100DC000002A01DC1122F3E75968CB788E781B02E8
:100DD00033435BBA9BB20493002330265E43BA19B7
:100DE000508884460498844505D00133039A5BB249
:100DF0009A42F2DCE6E70133E4D0907BE37A984252
:100E000001D93322D4E714234F78D356312120005F
:100E10001269FFF7C1FA002800D148E6012F03D07C
:100E2000032F2BD01222C3E7043DADB2002D08D012
:100E30006268136D51689B192A005868043103F0E9
:100E400043FD63681A6D9619327B9542AFD1002A33
:100E500007D07268002A04D1194A1B4B1B49433240
:100E600015E53278032A01D02122A1E70022327051
:100E7000D86CFFF703FA3062716218E663681A6D86
:100E8000915D93190329EFD1587B5A8800909B6894
:100E9000200000F071FC0AE61B789B0604D41122A6
:100EA0002E212000FFF732FAA37A022B10D813224A
:100EB0002E21D9E5BA5E010875680108A868010805
:100EC0003A5F01084C680108D56501086902000015
:100ED00062685368D76D9D7859782D020D431421AF
:100EE00000238C466DBAADB2BB4201DB3122DFE795
:100EF00066465E43906D8119805BA84200D105E192
:100F00000133F1E71023CA68CB5620002E21FFF7EA
:100F100043FA002800D1CAE56768BB6D9E19327A92
:100F2000002A07D07368002B04D17C4A7C4B7D4992
:100F30005632ACE4A17A033908B20029B7DB9042FB
:100F4000B5D1717A002902D126222E318CE5002AF2
:100F500004D079687068033103F0B6FC29002000E2
:100F600000F05CFCA3E51A6E002A04D16B4A6E4BBC
:100F70006E496D328BE41B787F2B04D8112234210B
:100F80002000FFF7C3F9A07A022802D813223421E7
:100F90006AE50F25636859688A782A401D0078350C
:100FA0002A70897809095218033269709042EDD18C
:100FB0001A007C321178E27A914200D921E71A1D99
:100FC00084331B7831212000D26F5BB2FFF7E4F944
:100FD000002800D16BE50023002265680027AA667F
:100FE000EB662B0078331B789E1C0393F6B2AB6E36
:100FF0000493EB6E0593022E1FD1002300222A6773
:101000006B672B00002779331E78039B9B190233F3
:10101000DBB20393FBB29E421FD8049B059A134395
:10102000B4D02B6F6A6F1343B0D028002B6E6030A2
:101030009847002822D12622A9E76B683A00985DDC
:10104000002100F06DFF049B013E1843059BA8663C
:101050001943E966F6B20837C9E7039A0021D31AA3
:101060006A68DBB2D05CFA0000F05AFF2B6F0137E0
:1010700018436B6F286719436967CBE763682000E3
:101080009A6EDB6E226163610123A37300F04EFC54
:101090000DE55B78DB0704D4112237212000FFF730
:1010A00035F9626813008C331978E37A994202D9D2
:1010B00033223721D8E4130094331B789032372140
:1010C000200012685BB2FFF767F9002800D1EEE458
:1010D000636888331B68984700220023226163619C
:1010E00000232000A37300F071FCE0E42000FFF770
:1010F0007DF9DCE42000FFF70FFAD8E42000FFF7C9
:10110000D5FAD4E42000FFF72BFBD0E48A7AE37A07
:101110009A4200D8F6E63322CAE6C0463A5F010892
:10112000D565010826030000DF68010855030000AB
:1011300010B50248FFF7A2FB10BDC04640050020D5
:1011400070B5051E05D11D4B1D4A1E491E4803F0F2
:1011500079FB4368002B03D11C4B194A1C49F5E766
:101160001A00BC321268002A03D11A4B144A1A49D9
:10117000ECE71A00C8321268002A03D1174B104A54
:101180001749E3E70024C4331B68A3420FD1B221FF
:10119000144B0B4AC900D9E71900BC310968A200F9
:1011A000C833200089181B680122984701346B68F6
:1011B0001A00C0321268A242EEDC70BDBE660108A1
:1011C000BA5F01088C0500002C6601088F650108D4
:1011D0008D050000156901088E05000028670108CB
:1011E0008F0500005B67010870B504000D00002842
:1011F00006D11D4A1D4B1E490F321E4803F022FB2B
:10120000002904D1184A1C4B1C490F32F5E70B008A
:101210004160B9331B7803724372002383720B0061
:10122000B8331B78C3720373092303764B785B07CB
:1012300001D5FFF785FF012323702B00CC331B78EA
:10124000002B07D002216268538D128D200000F020
:101250003EF970BDCD352B78002BFAD062680321A2
:10126000538D128DF2E7C046BA5F0108BE660108D1
:101270009D0500002C6601089B6501089E05000085
:1012800010B502490248FFF7AFFF10BD90020020E1
:101290004005002010B5002806D1084A084B09492E
:1012A0001A32094803F0CEFA4068002804D1034AF4
:1012B000064B07491A32F4E710BDC046BA5F010871
:1012C000BE660108CC0500002C6601088F65010888
:1012D000CD050000004870479002002070B5040062
:1012E0001500002806D1134A134B14492C32144818
:1012F00003F0A8FA0378002B04D10E4A114B1249CF
:101300002C32F4E7002904D10A4A104B10492C3240
:10131000EDE7002A04D1074A0E4B0F492C32E6E7CD
:1013200043681A7AAA4204D32A00586803F0CCFA18
:10133000A57270BDBA5F0108BE660108D90500003C
:101340002C66010873650108DA0500002C620108AB
:10135000DB0500003D620108DC05000010B50A0055
:1013600001000248FFF7BAFF10BDC046400500204B
:1013700010B5002806D1044A044B054905484032FF
:1013800003F060FA007A10BDBA5F0108BE6601087A
:10139000F60500002C660108014B187A7047C0461C
:1013A0004005002010B5002806D1044A044B054929
:1013B0000548543203F046FAC07A10BDBA5F0108FE
:1013C000BE660108020600002C660108014BD87AAF
:1013D0007047C04640050020030010B50800002BF0
:1013E00006D1234A234B24496D32244803F02AFABC
:1013F0005B68002B04D11E4A214B22496D32F4E771
:101400001900BC310968002904D1194A1E4B1F4933
:101410006D32EAE7002804DA154A1D4B1D496D328A
:10142000E3E71C00C0342468844204DC104A1A4BF1
:101430001A496D32D9E71C00C8342468002C04D145
:101440000B4A174B17496D32CFE7C4331B68002B8B
:1014500005D1C321064A144B6D32C900C5E784008B
:101460000919002A00D009220A700122984710BDEC
:10147000BA5F0108BE660108120600002C6601086A
:101480008F650108130600001569010814060000A5
:101490003E690108150600004B69010816060000A8
:1014A00028670108170600005B67010810B50A00ED
:1014B00001000248FFF790FF10BDC0464005002024
:1014C00010B50A008369C1684069984710BD70B5BE
:1014D000002805D11E21174B174A184803F0B2F90E
:1014E0004568002D03D11F21154B134AF5E7EC6821
:1014F000002C03D12021134B0F4AEEE7AE69002EDA
:1015000003D12121104B0C4AE7E72D7C062D03D88F
:1015100022210E4B084AE0E750256170E270110A63
:101520001A0A2570A1702271637106214068FFF7C5
:10153000C7FF70BDBE660108386001087669010802
:101540008F6501084C660108706601089A690108F8
:1015500010B5002806D13621174A184B1432184806
:1015600003F070F94368002B04D1134A3721154B5F
:101570001432F4E7DA68002A04D10F4A3821124BFA
:101580001432ECE79969002904D10B4A0F4B14324D
:101590003931E4E71B7C022B04D8074A3A210C4B73
:1015A0001432DCE77E23137000235370022140685D
:1015B000FFF786FF10BDC04638600108BE6601080F
:1015C000766901088F6501084C660108706601089C
:1015D0009A69010810B5002806D14D21164A174B0B
:1015E0002D32174803F02EF94368002B04D1124A1C
:1015F0004E21144B2D32F4E7DA68002A04D10E4A4A
:101600004F21114B2D32ECE79C69002C04D10A4A82
:1016100050210E4B2D32E4E71B7C022B04D8064AE6
:1016200051210B4B2D32DCE75123517013700221F5
:101630004068FFF745FF10BD38600108BE6601082D
:10164000766901088F6501084C660108706601081B
:101650009A690108F8B59D1C0E0004001100EDB256
:101660001A00002806D167211B4A1C4B41321C4836
:1016700003F0E8F8002904D1174A1A4B41326831C7
:10168000F5E74368002B04D1134A6921164B413218
:10169000EDE7D868002804D10F4A6A21134B413284
:1016A000E5E79F69002F04D10B4A6B21104B4132B3
:1016B000DDE71B7CAB4204D8074A6C210D4B41325D
:1016C000D5E7672303704670023003F0FDF8290068
:1016D0006068FFF7F5FEF8BD38600108BE660108D6
:1016E00076690108906101088F6501084C66010860
:1016F000706601089A69010810B5002806D180219A
:10170000164A174B5832174803F09CF84368002BD1
:1017100004D1124A8121144B5832F4E7DA68002AC6
:1017200004D10E4A8221114B5832ECE79C69002CFF
:1017300004D10A4A83210E4B5832E4E71B7C022B6A
:1017400004D8064A84210B4B5832DCE767235170DA
:10175000137002214068FFF7B3FE10BD3860010826
:10176000BE660108766901088F6501084C660108AC
:10177000706601089A690108F8B50F00190006ABF8
:10178000050010001A78002D06D19B211C4A1D4B24
:101790006E321D4803F056F86B68002B04D1184ACE
:1017A0009C211A4B6E32F4E7DC68002C04D1144AF9
:1017B0009D21174B6E32ECE79E69002E04D1104A32
:1017C0009E21144B6E32E4E7161D1B7CF6B2B34229
:1017D00004D80B4AA221104B6E32DAE77123237032
:1017E000030A6770A370E070002A04D0002902D0B9
:1017F000201D03F069F831006868FFF761FEF8BD4D
:1018000038600108BE660108766901088F65010825
:101810004C660108706601089A69010810B5002835
:1018200006D1BB21174A184B0532184803F00AF8B5
:101830004268002A04D1134ABC21154B0532F4E753
:10184000D368002B04D10F4ABD21124B0532ECE7BF
:101850009469002C04D10B4ABE210F4B0532E4E7FA
:10186000127C032A04D8074ABF210C4B0532DCE75F
:101870006E221A700A0A99705A7003214068FFF7A5
:101880001FFE10BDB8600108BE6601087669010838
:101890008F6501084C660108706601089A690108A5
:1018A000142270B55143436804009A6DD8685218E9
:1018B000157A0335EDB2002806D1D621164A174B0A
:1018C0002032174802F0BEFF9A69002A04D1124A5A
:1018D000D721144B2032F4E71B7CAB4204D80E4ACC
:1018E000D821114B2032ECE76223037063689B6DB3
:1018F0005B5A1B0A437063689B6D5B5A8370636815
:1019000003309B6D59180A7A496802F0DDFF2900FF
:101910006068FFF7D5FD70BDB86001084C6601082E
:1019200076690108706601089A69010810B50028F7
:1019300006D1EA211E4A1F4B3A321F4802F082FFAD
:101940004368002B04D11A4AEB211C4B3A32F4E7CE
:10195000DA68002A04D1164AEC21194B3A32ECE736
:101960009969002904D1124A164B3A32ED31E4E765
:101970001B7C042B04D80E4AF621134B3A32DCE7C9
:1019800074231370202243680421DB685A70436873
:10199000DA687A331B8802331B1293704368DA6863
:1019A0007A331B880233D3704068FFF789FD10BD7E
:1019B000B8600108BE660108766901088F650108F4
:1019C0004C660108706601089A69010810B5002884
:1019D00005D18321174A184B5532490007E0436867
:1019E000002B07D10821134A144B5532FF311448FC
:1019F00002F028FFDA68002A04D10E4A8421114B34
:101A00005532EAE79969002904D10A4A0A210E4BA6
:101A10005532EBE71B7C012B04D8064A0C210B4BFB
:101A20005532E3E77723137001214068FFF748FD43
:101A300010BDC046B8600108BE6601088F65010888
:101A4000766901084C66010870660108C2690108E0
:101A500010B5002805D18A21174A184B7132490068
:101A600007E04368002B07D11621134A144B71324B
:101A7000FF31144802F0E6FEDA68002A04D10E4A6B
:101A80008B21114B7132EAE79C69002C04D10A4A80
:101A900018210E4B7132EBE71B7C022B04D8064A4F
:101AA0001E210B4B7132E3E7762351701370022134
:101AB0004068FFF705FD10BDB8600108BE6601086B
:101AC0008F650108766901084C6601087066010897
:101AD0009A69010870B50E00002805D197211E4AA9
:101AE0001E4B0932490007E04568002D07D130211F
:101AF000194A1B4B0932FF311A4802F0A3FEEC6869
:101B0000002C04D1144A9821174B0932EAE7A9693D
:101B1000002904D1104A3221144B0932EBE7297C09
:101B2000032904D80C4A9C21114B0932DAE75921C8
:101B3000217057396170A2700131002B07D01A78DB
:101B40000431E2705A7822719B78A6716371406803
:101B5000FFF7B6FC70BDC04638610108BE660108DB
:101B60008F650108766901084C66010870660108F6
:101B70009A69010810B5002805D14E21174A184B63
:101B80002432FF3107E04368002B07D1A721134A15
:101B9000144B24324900144802F054FEDA68002A3B
:101BA00004D10E4A5021114B2432EAE799690029E9
:101BB00004D10A4A0E4B24325131E2E71B7C012B3F
:101BC00004D8064A54210B4B2432DAE7542313700D
:101BD00001214068FFF774FC10BDC0463861010860
:101BE000BE6601088F650108766901084C66010828
:101BF000706601089A69010802B4714649084900F3
:101C0000095649008E4402BC7047C04602B4714672
:101C100049084900095C49008E4402BC7047C0462F
:101C200003B47146490840004900095E49008E44EA
:101C300003BC7047002243088B4274D303098B42D4
:101C40005FD3030A8B4244D3030B8B4228D3030C8C
:101C50008B420DD3FF22090212BA030C8B4202D32E
:101C60001212090265D0030B8B4219D300E0090A56
:101C7000C30B8B4201D3CB03C01A5241830B8B425F
:101C800001D38B03C01A5241430B8B4201D34B0348
:101C9000C01A5241030B8B4201D30B03C01A5241AD
:101CA000C30A8B4201D3CB02C01A5241830A8B4232
:101CB00001D38B02C01A5241430A8B4201D34B021B
:101CC000C01A5241030A8B4201D30B02C01A52417F
:101CD000CDD2C3098B4201D3CB01C01A5241830933
:101CE0008B4201D38B01C01A524143098B4201D36D
:101CF0004B01C01A524103098B4201D30B01C01A98
:101D00005241C3088B4201D3CB00C01A5241830811
:101D10008B4201D38B00C01A524143088B4201D33E
:101D20004B00C01A5241411A00D20146524110469E
:101D30007047FFE701B5002000F0F0F802BDC04693
:101D40000029F7D076E7704703460B437FD4002283
:101D500043088B4274D303098B425FD3030A8B423F
:101D600044D3030B8B4228D3030C8B420DD3FF22A9
:101D7000090212BA030C8B4202D31212090265D077
:101D8000030B8B4219D300E0090AC30B8B4201D32A
:101D9000CB03C01A5241830B8B4201D38B03C01A71
:101DA0005241430B8B4201D34B03C01A5241030BE8
:101DB0008B4201D30B03C01A5241C30A8B4201D399
:101DC000CB02C01A5241830A8B4201D38B02C01A44
:101DD0005241430A8B4201D34B02C01A5241030ABB
:101DE0008B4201D30B02C01A5241CDD2C3098B42A0
:101DF00001D3CB01C01A524183098B4201D38B011D
:101E0000C01A524143098B4201D34B01C01A5241BF
:101E100003098B4201D30B01C01A5241C3088B4204
:101E200001D3CB00C01A524183088B4201D38B00EF
:101E3000C01A524143088B4201D34B00C01A524191
:101E4000411A00D201465241104670475DE0CA0F68
:101E500000D04942031000D34042534000229C4628
:101E600003098B422DD3030A8B4212D3FC22890132
:101E700012BA030A8B420CD3890192118B4208D308
:101E8000890192118B4204D389013AD0921100E06A
:101E90008909C3098B4201D3CB01C01A524183097E
:101EA0008B4201D38B01C01A524143098B4201D3AB
:101EB0004B01C01A524103098B4201D30B01C01AD6
:101EC0005241C3088B4201D3CB00C01A5241830850
:101ED0008B4201D38B00C01A5241D9D243088B42A6
:101EE00001D34B00C01A5241411A00D20146634649
:101EF00052415B10104601D34042002B00D54942AD
:101F0000704763465B1000D3404201B5002000F0EB
:101F100005F802BD0029F8D016E770477047C046A3
:101F20009140030090409C46203A9340194352420E
:101F30006346D34019437047F0B5CE46474680B557
:101F4000070099463B0C9C4613041B0C1D000E0019
:101F500061460004140C000C45434B43604361434D
:101F6000C0182C0C20188C46834203D980235B02B6
:101F70009846C444494679437243030C63442D0494
:101F80002D0CC918000440198918C0BCB946B046C8
:101F9000F0BDC04670B500260C4D0D4C641BA4105E
:101FA000A64209D1002603F009FF0A4D0A4C641B22
:101FB000A410A64205D170BDB300EB589847013676
:101FC000EEE7B300EB5898470136F2E70000000057
:101FD0000000000000000000000000000300821864
:101FE000934200D1704719700133F9E70FB404B080
:101FF0007047000010B5074B074C5A6320000A00D9
:10200000064900F07BFE200000F06AFF0028FAD0AD
:10201000002010BD64000020540400208C0000202B
:1020200010B501F0C1FB10BDF0B50024CBB0FB2210
:1020300021000BA80A94FFF7D1FF6B46764DDC8197
:1020400001F09AFB00F06EF900F098F900F0F0F959
:1020500000F014FA00F056FA704802F0E7F8402257
:102060006F49704802F030FC6F4E2B68B34205D0C8
:10207000402221006B48FFF7B1FF2E60EC230024C3
:1020800002270125694EDB000893694B04A9300043
:102090000697099304940594079500F0D3FD230057
:1020A0003A0039003000009400F0F4FD22002900CD
:1020B000300000F01BFF300000F009FE80235D4A75
:1020C0005D4F5E490193380000925D4A02F01FFBAC
:1020D000FEF7F8F8E4225B4B52001968914207D1F1
:1020E0001C60594B1A00CD3215700322B9331A7097
:1020F000FFF7C6F8554802F05FFF62B601234022A1
:102100005B4247494748049302F0D0FB002816D0B1
:1021100002F00AF84E4B4F4A4F481A6104A901F0E9
:10212000BBFF404C4D49226861186368012002F0F2
:1021300049F8444B08349C42F4D102F007F83800C7
:1021400002F0FCFA0E23FF2238006B440AA902F0C9
:10215000C5FA002804D16B460AA8997BFFF7FEF860
:10216000FEF7E6FF3E4E30687168FEF7BDF80D00E1
:10217000040000F03BFB002D01D1A042BED8FEF7C9
:10218000ABF80123374C30607160227853402370E4
:1021900000F0BCF8051E0FD0334B344E1A78002ADD
:1021A0001DD133780133DBB2022B16D83370FEF722
:1021B00093F82F4B186059602B4B1D702B4B1D78DB
:1021C000012D1DD0022D20D0002D20D1207800F02F
:1021D0008FF8280000F080F890E73270E7E7244B92
:1021E00018685968FEF780F8002902D1214B9842FF
:1021F000E2D90323012100203370FFF757F9DBE711
:10220000002000F075F82078E4E72078F9E7012055
:1022100023785840F5E7C046F8770020B80400203E
:1022200000F80308BC7700207856341254040020CC
:10223000FF070000F0000020B00000206107000050
:1022400070010020FC770020900200207C610108D2
:10225000002002403180000000020020448003E89A
:10226000B80300200D020020A80300200C0200206B
:10227000B00300208813000070B5CB0716D50C4DB5
:102280000C4C2B002200402100F09CFD00280DD1B9
:10229000EC232268DB009A4208D16368002B05D149
:1022A000E26829000448D2B202F002F970BDC046CB
:1022B000F001002064000020B0000020012307B5D9
:1022C0005B4201900122034801A901F00FFD019832
:1022D0000EBDC046C0030020020010B5002800D08B
:1022E0000122A0202021C00501F0C0FE10BD000089
:1022F000002210B5002800D1012280210248890067
:1023000001F0B4FE10BDC04600080050802110B599
:102310000348890101F0A4FE43425841C0B210BDF8
:102320000008005070B5072601258CB01822002146
:1023300006A8FFF753FE002114226846FFF74EFE61
:102340000D4A0024136805A8B3432B4313600223EE
:102350000593FE330893C03B0A93099400F010FFE5
:10236000290068460096019402940394049401F0B5
:102370006DF80CB070BDC04600200240F0B50125DC
:102380008BB01422002105A8FFF728FE0820264B59
:1023900080245A6BA0272A435A635A6B234E2A4043
:1023A0000192019A596BA400014359635A6BFF05CE
:1023B00002400292029A596B063801435963042184
:1023C0005A6B02400392039A5A6B30000A435A63D5
:1023D0005B6B00220B4004932100049B01F046FE3E
:1023E00000223800202101F041FE11230594002431
:1023F000300005A906930794089401F07DFD202381
:10240000380005A9059306950794089401F074FD1A
:10241000802330009B0105A905930694079501F0E0
:102420006BFD0BB0F0BDC04600100240000800502C
:1024300070B5104B104C00252360E1235B026360F4
:102440000C2320006361A560E5602561A561E5615D
:1024500025626562A56201F01BFD2900200001F0E4
:102460004BFA2900200001F06BFA200001F026FA57
:1024700070BDC04600380140C00300201F4B204AF9
:1024800018001900943070B50260002298310A607B
:1024900019009C310A601900A0310A600224190059
:1024A000FF34A4310C8019001C00A6310A700121F0
:1024B0001D00A83421600C24AC352C601D0023269F
:1024C000B0352E601D00B4352C601C001D00B834E2
:1024D00021600624BC352C601D00123EC0352E60E4
:1024E0001D00C4352C601C00C83421601900D03395
:1024F000CC310A601A6000F0A5FA70BDC00300205C
:1025000000640040094B0A4A1800F83010B5026018
:10251000084AFC331A60002207495A60DA608032A8
:1025200099605A6101F008FF10BDC046C003002049
:10253000002000407FBB0000FFFF000010B501F04D
:1025400027F910BD10B5024800F056FD10BDC04679
:1025500054040020C046FDE710B501F061F9C04603
:10256000FDE7C046FDE7C046FDE7C046FDE7C046C3
:10257000FDE7C046FDE7C046FDE7C046FDE7C046B3
:10258000FDE7C046FDE7C046FDE7C046FDE7C046A3
:10259000FDE7C046FDE7C046FDE7C046FDE7C04693
:1025A000FDE7C046FDE700000222044B10B5F833FA
:1025B0001B6852421A61FDF7A1FE10BDC003002046
:1025C000C046FDE7C046FDE7C046FDE7C046FDE763
:1025D000C046FDE7C046FDE7C046FDE7C046FDE753
:1025E000C046FDE7C046FDE7C046FDE70D4885460D
:1025F00000F020FA002103E00B4B5B5843500431FC
:102600000A480B4B42189A42F6D30A4A02E00023CA
:1026100013600432084B9A42F9D3FFF7BBFCFFF773
:1026200003FDFEE7BC770020B86A01080000002027
:10263000A8030020A8030020B0060020014B586A20
:1026400080B270470020004070B504AC25780029A6
:1026500005D1154B154A4031154802F0F3F8002A10
:1026600003D14121134B114AF6E7002B03D142213C
:10267000114B0E4AF0E7002D03D143210F4B0B4ABB
:10268000EAE70024AB4204D15D1E5219A34204DCE8
:1026900070BD44210A4B054ADEE70D5D66424519CF
:1026A00095550134F2E7C046906101089762010830
:1026B000A1610108D7610108E7610108F56101081E
:1026C0000262010810B50100014802F0E9FB10BDEB
:1026D00018620108010010B5034802F0E1FB01F0A7
:1026E0009FF8C046FDE7C0462262010810B50029E8
:1026F00005D1094B094A5231094802F0A3F80023D9
:102700009A4203D15321074B044AF5E7C418CC542D
:1027100001339A42FADC10BD90610108826201081F
:10272000A1610108E7610108030010B5081E05D189
:10273000DC210B4B0B4A0C4802F084F8002A03D131
:10274000DD210A4B074AF6E73F2B03D9DE21084B70
:10275000044AF0E70749591802F0B6F810BDC04620
:102760002C62010879620108A16101083D6201083B
:102770004B620108BC77002010B5002905D10B4B36
:102780000B4AD2310B4802F05DF8002A03D1D32165
:10279000094B074AF6E73F2803D9D421074B044ADF
:1027A000F0E7074BC01802F08FF810BD2C6201084B
:1027B0006F620108A16101083D6201084B620108D6
:1027C000BC77002010B501000400064802F068FB49
:1027D000022C06D17B22044B1A6001F021F8C0467E
:1027E000FDE710BD66620108FC770020014B1888E8
:1027F0007047C0463002002001200A4B82B0196C9D
:102800000143196480211A6C490502400092009A24
:10281000DA6B0A43DA63DB6B0B400193019B02B076
:102820007047C0460010024010B5040090B014225A
:10283000002103A8FFF7D2FB2022002108A8FFF700
:10284000CDFB194B22689A422BD1102308A808937C
:1028500000F0D6FE8020154B4001D96B00240143C7
:10286000D9630821DA6B02400192019A5A6B104831
:102870000A435A635B6B05940B400293029B03234C
:102880000393013B049303A902330793069401F0D9
:1028900033FB1E202200210000F08CFF1E2000F0E0
:1028A000B3FF10B010BDC0460064004000100240ED
:1028B000000C005030B5040091B01422002103A890
:1028C000FFF78CFB2022002108A8FFF787FB1D4B98
:1028D00022689A4233D1012408A8089400F090FE9F
:1028E00080200225184BC001196C014319641A6C31
:1028F00003A902400092009A5A6BA02022435A6317
:102900005A6BC00522400192019A5A6B00242A4357
:102910005A635B6B03952B400293029B042304953F
:1029200007930594069401F0E7FA4023074803A9AA
:102930000393049505940694079401F0DDFA11B011
:1029400030BDC04600380140001002400004005075
:1029500007B50B4B02689A4211D18020094A000248
:10296000116C01431164136C002203400193132086
:102970001100019B00F01EFF132000F045FF07BD72
:1029800000200040001002400120704710B501F007
:1029900077FF162303600120404210BD10B501F0FF
:1029A0006FFF16230360FEE770B50E0014000025CC
:1029B000A54201DB200070BD00E000BF705501356D
:1029C000F6E770B50E0014000025A54201DB2000DB
:1029D00070BD705DFFF772FC0135F6E701204042E3
:1029E000704780239B0100204B6070470120704797
:1029F000002070470B4A0C490300891A0B4A10B596
:102A00001068002801D10A4810601068C3188B4272
:102A100006D901F035FF0C2303600120404210BDB0
:102A20001360FCE700040000BC7700208006002053
:102A3000B0060020014B024A9A60704700ED00E0AA
:102A400000000108F8B504000120002C00D1C1E00D
:102A500025005C352B78DAB2002B05D123005D33DD
:102A600020001A70FFF7E0FE102122680827936902
:102A70008B43936100F098FE060023689A693A42FE
:102A800000D08EE001269A6932439A6100F08CFEF4
:102A9000070023689A69324200D18FE002229969C7
:102AA0000A439A6161685B4A1160217C40220129D6
:102AB00000D090E0996991439961627C012A00D02D
:102AC0008DE080229969D2010A439A61A27C012A91
:102AD00000D088E09A6950490A409A619A694F4843
:102AE000A1680240A4200A439A619A6982439A61CC
:102AF0001A69943882431A61E268012A00D077E0AB
:102B00009869033202439A61A269E069013A013887
:102B1000000252060243206A01380243606901380C
:102B200000040243DA61C022920091420ED1E26AAF
:102B3000216B013A0139090112020A43A16A0139E4
:102B40000A43616A013909040A43DA601900C03195
:102B50000A68E06B043302430A60D96F626B304E3F
:102B60003048314012040A432064DA672E4AD96F94
:102B700062642E4EA26B314012060A43DA67D422F9
:102B80002B4B0021A3642B4B9200E3642A4B23655B
:102B90002A4B6365FFF722FA00200123A065206617
:102BA0000AE000F001FE801B0A2800D865E701203A
:102BB000236E0343236603232B700BE000F0F4FD28
:102BC000C01B0A2800D864E7236E01201E4303239C
:102BD00026662B70F8BD99690A439A616DE79A6978
:102BE00017490A4071E78022996952010A4374E744
:102BF000002A00D188E7022A09D080269F693E4337
:102C00009E611E6930431861032A00D07CE72022B0
:102C1000986977E700650040FFEFFFFFFFFCFFFFCB
:102C2000FFFFE0FF00B4004070B40040FFFFFFF082
:102C3000B0B4004088B5004060B6004078B60040AF
:102C4000FFBFFFFF030070B55C331B78013B012B16
:102C50001AD88A68CB680D694E69940706C900299D
:102C600009D1DB061C43006C26432D0492002E4341
:102C70001650002070BD416CD2005B0752181D43F6
:102C8000344315605460F4E70223026E1343036675
:102C90000120EFE730B50C0001005C310978012913
:102CA0000FD15900039B006819433F230430C56FBF
:102CB00092001143240121439D432943C167002011
:102CC00030BD0423026E134303660120F8E70300BE
:102CD0005C331A78D1B2012A09D101321A70026824
:102CE00093698B43936100230366180070470423A4
:102CF000026E134303660120F8E700000300F7B5F6
:102D00005C331B78022B57D105682B00C4331C6839
:102D1000A40206D58023026E9B00134303660120A4
:102D200033E01C680F69A403A30F4C6801938E68FD
:102D30000B68002C2AD137439B041F43BC4648260E
:102D40008C69CB6923434C6923430C6A2706019C99
:102D50001F436643CB68446D1B0436193B437360C5
:102D60000823370064465B42346008379E1B144CCE
:102D7000CB68E35C9C46BB1963450ED30123019AE3
:102D8000CC3593402B6083650020FEBD3B4333432D
:102D90008026F6051E43B446D1E7D3781B069C4631
:102DA000644693781B0423431478234354780432F5
:102DB0002402234308C7DAE70823026EADE7C046C2
:102DC00008630108F7B5040001935C342478022CF1
:102DD00000D07FE004680F25270040295AD19037A2
:102DE0003E682E4206D18023026E5B0013430366C9
:102DF00001204EE00126B44663463D682D0E2E406C
:102E00001D4203D00434E66F760A1E4048243D6814
:102E1000836CAD05AD0FAD196C438027E4182368B2
:102E2000FF051F4057602668F600002F49D1760D38
:102E3000166080262368B6051E4096602368DE0F64
:102E4000F607166163689EB2D66163681E03360F8B
:102E5000D6608026636876031E40566180266368CC
:102E6000B6031E40966163685E00760E1662636864
:102E70000834DE0F194B56629C4600266346D7681D
:102E8000DF5DB7421FD80368402921D19433002069
:102E90001D60FEBD98373E682E42A4D03D682B0EC3
:102EA0001E0001252E402B4203D00434E66F360A63
:102EB0002E4048243D68C36CAD05AD0FAD196C4381
:102EC000ABE7F608B4E7A75D019B9F550136D5E750
:102ED0009C33DCE70823026E88E7C04608630108DC
:102EE0000368C4331868072318407047030070B59F
:102EF0005C331B78013B012B00D96DE007240D00EA
:102F000000682540836D214201D0DC0722D538249A
:102F1000214201D09C071DD5E0246400214201D04C
:102F20005C0717D5F0246401214201D01C0711D59C
:102F3000E0242402214201D0DC060BD5C024A402E7
:102F4000214201D09C0605D5FC242404214205D051
:102F50005C0603D40124C66D3443C465002D01D042
:102F6000DC0722D43824214201D09C071DD4E02460
:102F70006400214201D05C0717D4F024640121428F
:102F800001D01C0711D4E0242402214201D0DC0628
:102F90000BD4C024A402214201D09C0605D4FC24F9
:102FA0002404214205D05B0603D50223C46D2343CC
:102FB000C3650B0604D50400DC3423681343236087
:102FC000CB0504D50400E03423681A432260436D26
:102FD00019434165002070BD0223026E134303664E
:102FE0000120F8E770477047704770477047704797
:102FF00070477047704770470368F0B51A6D5F6D92
:10300000196D1740E022520117405A6D85B00A40F1
:1030100007210A400092196D5A6D04000A403821B8
:103020000A400192196D5A6D0A40F12109040A40C3
:103030000292196D5A6D5D6D0A40E0211E6D090303
:103040000A4003920122710606D5A909114203D054
:103050003F321A65FFF7CDFF0123F20510D52A0A8A
:103060001A420DD0236880201A001900D832E031AE
:10307000126809684000186511402000FFF7B6FF8C
:10308000002F05D02368390020001F65FFF7AAFF35
:10309000009B002B06D0009A2368110020001A65BF
:1030A000FFF7EAF8019B002B06D0019A2368110074
:1030B00020001A65FFF797FF0123B20509D56A0AB8
:1030C0001A4206D080222368920020001A65FFF77A
:1030D0008BFF012332060FD5EA091A420CD0236870
:1030E00080201A001900D432DC3112680968186592
:1030F00011402000FFF779FF0123B20409D56A0BC4
:103100001A4206D080222368920120001A65FFF738
:103110006EFF0123320409D5EA0B1A4206D0802241
:103120002368120220001A65FFF762FF0123720470
:103130000AD5AD0B1D4207D080222368D2011A6543
:103140008023226E13432366039B002B06D0039A31
:103150002368110020001A65FFF74DFF029B002B2A
:1031600005D02368029A1A65236E13432366236EE3
:10317000002B02D02000FFF73DFF05B0F0BD00009E
:10318000F8B5051E01D10120F8BD0368DB070DD499
:103190002B689B074FD42B681B0700D5A5E00422A2
:1031A0002B68134200D0D0E00020EDE73821864C98
:1031B0004368A2680A40082A02D1002BE8D1E2E75E
:1031C00080225202934211D122681343236000F0FF
:1031D000EBFA80270600BF0223683B42D8D100F0FB
:1031E000E3FA801B6428F7D90320CDE7A021C902A8
:1031F0008B4208D180232168DB020B4323602368C4
:103200001A432260E3E7226870490A40226022687C
:103210006F490A402260002BD9D100F0C5FA8027FF
:103220000600BF0223683B42B2D000F0BDFA801B0B
:103230006428F7D9D8E73822634CEB68A1681142BB
:103240001DD1002B9FD062686B6962491B020A4046
:10325000134363602368604A13402A691343236061
:1032600023685E4A9B045B0FDA4013005C4A1360DC
:103270005C4B186800F058FA00288CD083E7002BCC
:1032800020D02368544A802713402A69FF00134343
:103290002360802322685B001343236000F084FADC
:1032A000060023683B4207D062686B6949491B02EC
:1032B0000A40134363606EE700F076FA801B022831
:1032C000EFD991E72368484A80271340236000F034
:1032D0006BFA0600FF0023683B4200D15BE700F079
:1032E00063FA801B0228F6D97EE73821364CAA699A
:1032F000A3680B40182B03D1002A00D04FE742E708
:103300000123002A10D0226E02271343236600F007
:103310004BFA0600236E3B4200D040E700F044FA2F
:10332000801B0228F6D95FE7226E02279A432266A5
:1033300000F03AFA0600236E3B4200D12FE700F07E
:1033400033FA801B0228F6D94EE738211E4CA868B4
:10335000A3680B40202B03D143425841C0B213E76E
:10336000E36D012810D11843E06500F01DFA022634
:103370000500E36D334200D016E700F015FA1B4B51
:10338000401B9842F5D92FE7052806D11A4301239F
:10339000E265E26D1343E365E7E701218B43E365F3
:1033A000E36D9343E3650028DFD100F0FDF90226C9
:1033B0000500E36D334200D1F6E600F0F5F90B4B62
:1033C000401B9842F5D90FE700100240FFFFFEFFB7
:1033D000FFFFFBFFFF80FFFFFFC7FFFF006CDC026A
:1033E000640300206C030020FFFEFFFF8813000031
:1033F00007203822124B10B519689C6889080140D3
:103400000131144207D11B68DB0A03400D48D84044
:10341000FEF710FC10BD9868104008280BD0986883
:103420001040202809D09B6800201A40182AEFD1AC
:10343000FA20C001ECE70448EAE780200002E7E751
:1034400000100240006CDC0200127A00F7B50400A4
:103450000D00002801D10120FEBD07274B4E336827
:103460003B408B422AD321688B073BD4CB074AD4FD
:10347000072733683B40AB420AD93368BB432B4331
:10348000336000F091F9019033683B40AB426DD15D
:1034900023683F4D5B0771D4FFF7AAFFAB683D4A35
:1034A0001B051B0F9B009B581F221340D8403A4B13
:1034B00018603A4B186800F037F9CDE73368BB4322
:1034C0000B43336000F070F9019033683B40AB422E
:1034D000C9D000F069F9019BC01A314B9842F4D968
:1034E0000320B9E72A4A4B0706D593682D481840B0
:1034F000B0231B010343936093682B480340E068AB
:1035000003439360B2E71C22214F3B689343A268B8
:1035100013433B606268012A19D13B689B039AD52B
:103520000721BB688B431343BB6000F03DF901905A
:103530003823BA681A406368DB009A4298D000F0DA
:1035400033F9019BC01A164B9842F1D9C8E7002AFB
:1035500003D13B685B05E3D47DE70223032A03D153
:10356000396E1942DCD176E7F96DFAE700F01CF903
:10357000019BC01A0A4B984286D9B1E7AB680B4A47
:10358000134022691343AB6086E7C0460020024027
:1035900000100240A8620108640300206C030020B0
:1035A00088130000FF84FFFFFFF0FFFFFF8FFFFF86
:1035B00010B5FFF71DFF064B064A9B681B051B0F46
:1035C0009B009B581F221340D840034B186010BD2E
:1035D00000100240A86201086403002010B5FFF744
:1035E000E7FF054B054A9B685B045B0F9B009B58FC
:1035F0001F221340D84010BD00100240E8620108AD
:10360000F0B505002B68002085B05B0622D580222E
:103610003E4C5205E36B0600134207D1E36B0136C3
:103620001343E363E36B13400393039BE26DC023F7
:1036300011009B00364F19401A4244D10020E36D1F
:103640001F40EB691F43E765012E03D1E36B314A4D
:103650001340E3632A68D30706D503242B494B6D37
:10366000A343AC6823434B65930706D527492A4CEF
:103670004B6D2340EC6823434B65930606D52349E5
:10368000AC694B6D9B009B0823434B65D30606D565
:103690001E491F4C4B6D23406C6923434B655307F8
:1036A00006D51A491D4C4B6D23402C6923434B65AD
:1036B000130606D5E021154A13688B4369680B434E
:1036C000136005B0F0BDEB699942B7D08023E26D7D
:1036D000E06D11005B020343E365E36D1048394080
:1036E0000340E365E165D307A8D500F05DF80190DC
:1036F0000222E36D1342A1D100F056F8019BC01ADB
:10370000084B9842F4D903209EE7C04600100240BF
:10371000FFFCFFFFFFFFFFEFFFCFFFFFFF3FFFFFBC
:10372000FFFFFEFF8813000070B5104B05001978ED
:10373000002901D1012070BDFA208000FEF77AFA3D
:103740000B4B01001868FEF775FA00F077F8041EBD
:10375000F0D1032DEED8020001202900404200F0F4
:1037600029F8044B20001D60E5E7C04668030020EF
:10377000640300206C03002010B50020FFF7D4FF85
:10378000041E03D1FFF738F8200010BD0124FBE729
:10379000034A044B11681B785B1813607047C046DE
:1037A0008406002068030020014B18687047C0465B
:1037B0008406002030B5FF2503242A000440E400DD
:1037C000A24089012940D243A140C3B200280ADBAC
:1037D000C0240B4B80088000C018A40003591A4075
:1037E0001143015130BD0F200340083B05489B08A1
:1037F0009B001B18D86902401143D961F2E7C0460B
:1038000000E100E000ED00E0002805DB1F23184088
:103810001E3B8340014A13607047C04600E100E050
:10382000BFF34F8F034B044ADA60BFF34F8FC0469C
:10383000FDE7C04600ED00E00400FA058022431ECB
:103840005204012093420DD2C021074A0748536019
:10385000036A09061B021B0A0B43036200200723AD
:10386000906013607047C04610E000E000ED00E09B
:10387000F8B5436E0400002B02D10D4B8366F8BDF2
:1038800003680C4E9F689B680B4D5B0FF05CE95C16
:10389000C000FEF759FA23006A3318803B015B0F22
:1038A000F05CE95CC000FEF74FFA68342080E6E780
:1038B00001000100206301081863010870B50400CD
:1038C0008434227803000220012A11D01D00242212
:1038D000012688352A601A6811681068B0431060A4
:1038E0000448014000205866202311602B6020709E
:1038F00070BDC046FFFFFFDFF8B50400250084352A
:103900002A7808000223012A18D0012126002970F4
:103910002268883622333360176813688B4313603C
:103920009368DB00D908014391602000FFF7A0FFF6
:1039300023681F602023336000232B701800F8BD1C
:10394000F8B5050084352B7804000A000220012B0D
:1039500018D0260024230138287088363360236865
:103960001F6819688143196099680748014011432D
:1039700020009960FFF77CFF236800201F60202350
:1039800033602870F8BDC046FFFFFFF130B5EFF39C
:103990001084012282F310880168134D0B682B40BC
:1039A0000B6084F31088EFF3108182F310880268B3
:1039B0000E4C93682340936081F31088C36E012BF3
:1039C0000AD1EFF3108183F3108810240268136882
:1039D000A343136081F31088030020228C331A6004
:1039E0000023C366436730BDDFFEFFFFFEFFFFEF2E
:1039F00070B504002569A168026829436569C36937
:103A000029431068534D1943284001431160516800
:103A10005148256A0140E06801435160A1699068FE
:103A200029434E4D284001430F209160D16A8143C4
:103A3000606A0143D1624A498A4217D10320802536
:103A400048492D024A6D0240013A022A00D979E024
:103A50004548805CAB4221D0082800D970E0FEF7D1
:103A6000D5F8736F4E6F696F6F6F6C003F498A4274
:103A700005D03F498A4202D03E498A4260D1802225
:103A80001202934260D1FFF7A9FD031E17D1002057
:103A9000394BA36600236367A36770BD08284FD81E
:103AA000FEF7AAF8F14E054E2A4E4E4E0D0009685B
:103AB00032480906490F0131FEF7BCF80300626A7B
:103AC0002F495200515A1800FEF7B4F865684000BB
:103AD0006B08C0182900FEF7ADF80200294B103A18
:103AE0009A422DD80F23020000079A4393B2400F49
:103AF00022681843D060CAE7FFF77AFCC5E7096877
:103B00001E480906490F0131FEF794F8636A1C4A02
:103B10005B00995AFEF78EF865686B08C01829009B
:103B2000FEF788F80200174B103A9A4208D823682B
:103B3000D860ACE7FFF75CFC08E080200002E5E716
:103B40000120A5E7AB429ED0FFF748FD00289ED09C
:103B5000DCE7C046F369FFCFFFCFFFFFFFF4FF11A3
:103B60000038014000100240286301080044004072
:103B700000480040004C004001000100006CDC02E5
:103B80002C630108EFFF0000836A30B51A0706D5E1
:103B90000168284C4A682240846B22434A60DA0755
:103BA00006D50168244C4A682240C46A22434A6010
:103BB0009A0706D50168214C4A682240046B2243CB
:103BC0004A605A0706D501681D4C4A682240446B7A
:103BD00022434A60DA0606D501681A4C8A682240F8
:103BE000C46B22438A609A0606D50168164C8A681F
:103BF0002240046C22438A605A0610D50168134D96
:103C00004A68446C2A4022434A608022520394420C
:103C100005D14A680E4C2240846C22434A601B0640
:103C200006D502680B4953680B40C16C0B435360C7
:103C300030BDC046FF7FFFFFFFFFFDFFFFFFFEFF20
:103C4000FFFFFBFFFFEFFFFFFFDFFFFFFFFFEFFFC8
:103C5000FFFF9FFFFFFFF7FFF7B504000D00170000
:103C600000932268D3692B405B1B59424B41BB42F6
:103C700001D0002027E0089B0133F3D0FFF794FD2B
:103C8000009BC01A089B98422ED8002B2CD00421F0
:103C900023681A680A42E4D02A003C31403A8A4339
:103CA000DFD0DA69082611003140019132420BD091
:103CB00020001E62FFF76AFE230090331E6000237F
:103CC000012084342370FEBD8022D9691201114283
:103CD000C7D01A622000FFF759FE2300202290333C
:103CE0001A60019B843423700320ECE7F0B51600C2
:103CF000020085B088320393136804000D0002208F
:103D0000202B3AD10138002937D0002E35D080231E
:103D1000A1685B01994204D12369002B01D10542BE
:103D20002BD1230000219033196021231360FFF76A
:103D30003BFD230054331E8002331E8002938023F8
:103D4000A268070000265B019A4204D12369B342AE
:103D500001D12E001D00230056331B889AB2002B80
:103D60000DD1039B2000009340213B00FFF774FF1F
:103D700020238834236000280ED105B0F0BD039BBA
:103D80000022009380213B002000FFF765FF002800
:103D900004D02023883423600320EEE72268002D1E
:103DA0000BD133880236DB05DB0D9362029B029A4E
:103DB0001B88013B9BB21380CDE72B7801359362C2
:103DC000F4E700000300F7B50027040090331F60FC
:103DD000FFF7EAFC2600236805001B6884361B07F2
:103DE0001CD58021284B3A00009389030300200052
:103DF000FFF732FFB84211D0EFF31081012383F3B4
:103E000010888020226813688343136081F3108830
:103E100020238834236037700320FEBD27002368E9
:103E20008C371B685B0725D58021174B0022009338
:103E300020002B00C903FFF70FFF00281AD0EFF373
:103E40001080012282F310882168104D0B682B40EE
:103E50000B6080F31088EFF3108082F310882168E4
:103E60008B6893438B6080F3108820233B60002392
:103E70003370D1E7220000202023883213603B609A
:103E8000E06620673070C8E7FFFFFF01DFFEFFFF3D
:103E900070B5041E01D1012070BD050088352B6866
:103EA000002B04D1020084321370FEF703FD24239B
:103EB000012122682B6013688B431360A36A002BD7
:103EC00002D02000FFF760FE2000FFF791FD0128DF
:103ED000E1D0236807495A6820000A402A215A6025
:103EE0009A688A439A60012219680A431A60FFF7A8
:103EF00069FFD1E7FFB7FFFF524AF0B58218541EA1
:103F0000A241002387B0053202910592029A1268FD
:103F10001400DC4001D107B0F0BD01249C400394A3
:103F20000399144001940A4200D189E0029A1024B6
:103F300052681500A5430495022D10D10F270725BF
:103F400039001D40AD00A940DC08A4000419266A10
:103F50008E43029909690F40AF403743276203241B
:103F600021005D00A9401440AC400668CF438E4359
:103F70002643049C0660013C012C0ED802998668F9
:103F8000CC683E40AC4034438460D406E40F9C408F
:103F9000466803998E4334434460032A50D0C46872
:103FA00002993C408F68AF402743C760D10047D596
:103FB00003271E003E40BE400F24B44022499D0806
:103FC000AD006D18296EA1430391A0210024C905FD
:103FD00088420CD01D490134884208D01C49013464
:103FE000884204D01B493C00884200D0059CB44064
:103FF00003990C4301992C660E00174CCD43E76FD3
:104000003E43D10301D43E002E40E667134E019F8C
:10401000F46F2743910301D42C4027000A4CF76723
:104020002768019E3E43D10201D43E002E40266007
:104030006668019F3743920201D42E4037006760C3
:10404000013363E700ECFFAF0018024000040050AA
:1040500000080050000C00500418024008180240EC
:1040600000690840431E9841C0B27047002A01D041
:10407000816170478162FCE7044A05495369C000C9
:104080000B401843034B1843506170470020024017
:1040900007FCFFFF02000100F7B5204F05003B7849
:1040A00002240191012B18D00123FA203B70002338
:1040B00080007B6000F056F8041E0CD12B68042BA6
:1040C0000DD1FA20164A174B516980000B435361FA
:1040D00000F048F8040000233B702000FEBD0123DF
:1040E000019A5B4213606E686B68AA689B18B342C2
:1040F0000BD93000FFF7C0FFFA20800000F032F843
:10410000002808D00400019B1E600221044A536964
:104110008B435361DFE70136E6E7C046880600209F
:1041200000200240040001000020054B5A69824231
:1041300005DA044A9A60044A9A605869C00F7047C9
:104140000020024023016745AB89EFCD8022044B5C
:10415000120659690A435A615869C043C00F704733
:1041600000200240F8B505008027FFF71DFB7F0205
:104170004619114C23693B4205D0FFF715FBB042AD
:10418000F7D3032007E023690C4A1340236103D0CF
:1041900001200B4A5360F8BDFFF706FB80262D185F
:1041A000F6022369180030403342F4D0FFF7FCFADE
:1041B0008542F6D8E5E7C04600200240FAC3000079
:1041C00088060020F7B5174E0193337804000D00E0
:1041D00002200092012B1ED00123FA20337000230D
:1041E00080007360FFF7BEFF002812D10E4F012C34
:1041F00012D17B6923437B61009B2B60BFF36F8FE0
:10420000019B6B60FA208000FFF7ACFF7B69A34342
:104210007B6100233370FEBD2800009901F0DCFDB6
:10422000F0E7C0468806002000200240020003009C
:1042300001203D32117881421CD1022111701B688E
:104240000F4A934209D08022D205934205D00D4AED
:10425000934202D00C4A93420DD19A680B49002038
:104260000A40062A06D007398A4203D0012219687B
:104270000A431A6070471A68104318600020F9E773
:10428000002C0140000400400040014007000100F4
:10429000224A10B50368904206D08024E405A0426B
:1042A00002D01F4CA0420CD17024A3434C6823437E
:1042B000904212D08024E405A0420ED0184CA042B7
:1042C0000BD0184CA04208D0174CA04205D0174C78
:1042D000A04202D0164CA04203D1164C2340CC6819
:1042E00023438024A3434C6923438C68C4620C6835
:1042F0008462904208D00C4A904205D00B4A90420A
:1043000002D00B4A904201D10A690263042201687B
:104310000A43026001224261036010BD002C01408B
:1043200000040040002000400040014000440140E3
:1043300000480140FFFCFFFF70B504000120002C85
:1043400023D025003D352B78DAB2002B05D1230090
:104350003C3320001A70FEF7FBFA02232B70206812
:10436000211DFFF795FF2200012300204832137022
:1043700047340A3A137053709370D37013715371AA
:104380009371D371137223702B7070BD302313B5EA
:104390000B4369460B706B4604004A700021D81C21
:1043A00005229970FDF71AFE082269462068FDF77C
:1043B00021FE13BDF0B50E00040011001D00A3B0D6
:1043C000002807D13248FDF711FE01256D42280073
:1043D00023B0F0BD0389AB420AD22E48FDF706FE9A
:1043E0002A0023892C4902A800F0F0FD0325EDE7FF
:1043F000431C0193DB7F012B04D12848FDF7F6FD18
:104400000225E3E7002745812A008781406800F004
:104410005BFA65890F206168072D15D802AB28402B
:104420002A001870581C00F04FFA072202AB013323
:10443000521B58193900FDF7D1FD0822300002A99E
:10444000FDF7D8FD0500C2E702AB5D702D0A0540FF
:10445000102005431D700622981C00F035FA082232
:10446000300002A9FDF7C6FD051EB0D10126A389C3
:10447000A6730633A3812061FDF7D2FD6061FDF7CD
:10448000CFFD019B6430A061E561DE779FE7C04608
:104490004463010852630108A3630108D063010863
:1044A00010B513000A000168FFF784FF10BD00007B
:1044B000F0B5931E0400150085B0062B31D802A874
:1044C00000F002FA082202ABE8180021521BFDF7A7
:1044D00085FD02AB1B7818093F2B22D8FDF796FB10
:1044E00002235FAD27003C373B78012B0DD0002322
:1044F000A36302AB1E78330703D03607360FB542ED
:1045000006D86E48FDF772FD0BE006235B42EFE72D
:1045100002AB591C3200A06A00F0D6F90223E685EE
:104520003B7005B0F0BD27003C373B78012B05D030
:104530000023A363082D04D06148E3E706235B4210
:10454000F7E702AB1E785B783607360DF6185D4844
:10455000072ED7D9A38DB3420CD25B48FDF746FD99
:104560000823002202215B42A3633A702000FFF778
:104570000DFFD6E702AB991C0622A06A00F0A4F951
:104580000123E6853B70514B2A0000212000236364
:10459000FFF7FCFEFDF744FD64306063C1E72300D4
:1045A0003C3301931B78012B03D006235B42A363AA
:1045B000B7E7270002AB1B7832373A781B071B0F8F
:1045C0009A422ED1208EE38D1B1A9BB21E1C072B04
:1045D00000D90726B6B2B54201DC3D4892E7A36A8E
:1045E0003200181802AB591C00F06EF9238EF61831
:1045F00026863B780133DBB20F2B00D900233B70BA
:10460000FDF70EFD228EE38D643060639A420FD277
:104610002300333319780139C9B200290AD019703F
:104620007FE704235B42A3630023019A137078E7BA
:104630000223FAE708221A7098E7671CFE7F012E12
:1046400000D06EE7022D0ED0FDF7EAFC0F2202AB80
:104650001B786430A0611340022B06D1082252421D
:10466000E261FB775DE71B484CE7012B0BD1E37C54
:104670000133DBB2E374012B00D852E707235B421E
:10468000E3610933EDE7002B00D04AE702AB5B782A
:10469000002B10D09BB2238202AB9B781A000F3202
:1046A000D2B2082A03D95EB2F643F6171E400023A1
:1046B000A674E37435E7084BEDE7C04603640108D0
:1046C000226401084B6401087764010806000108B0
:1046D000AC640108C9640108FFFF0000F8B50400DC
:1046E00026003C361D0033780800022B0CD1E38DE8
:1046F0001F1C934200D9171CA16ABAB200F0E4F85B
:1047000000202F803070F8BD05204042FBE7F7B550
:1047100004000E001500009308AB04CB00210192A9
:10472000083038221F88FDF759FC009B2660238142
:10473000019B6560A785A362F7BD000073B5461CA9
:10474000F37F0400012B1DD1038A002B10D0837C42
:10475000002B08D16389072B24D87521354B364AA5
:10476000364800F06FF84569FDF75AFC2D1AF1D470
:10477000A569FDF755FC2D1A04D502235B42E361C0
:104780000433F37726003C363378012B09D1656B6F
:10479000FDF746FC2D1A04D503235B42A3630023D7
:1047A000337073BD0F21A27B114020220A4369465A
:1047B0000A70A1895B1A9BB21D1C072B00D9072523
:1047C0006368ADB259186B462A00581C00F07CF89B
:1047D0006B46072201330021521B5819FDF7FEFBDF
:1047E000082269462068FDF705FC00281ED1A38930
:1047F000ED18A37BA5810133DBB20F2B18D9A07371
:10480000238A0F4A934201D0013B2382FDF708FC23
:104810006430A061FDF704FCA37CA2891B186361CE
:1048200063899A42A4D30023F377A1E70223FBE72D
:10483000A373E5E7E764010832650108FB6401083A
:10484000FFFF000030B514001A00094B05001B687B
:1048500085B0D868074B002C01D1074B1C00019391
:1048600000912B000549029400F010F800F09CFC28
:1048700000000020E7690108CF630108F46901081E
:10488000014B18687047C046000000200EB403B505
:10489000010003AB044804CB0068019300F044F826
:1048A00002B008BC03B018470000002030B5002457
:1048B0000139A24201D1002005E0035D01340D5D04
:1048C000AB42F6D0581B30BD002310B59A4200D140
:1048D00010BDCC5CC4540133F8E7936810B5013BBC
:1048E0009360002B04DA9469A34207DB0A2905D000
:1048F0001368581C10601970080010BD00F086FB8A
:104900000100F9E7F8B506000F001400D518AC4215
:1049100001D1002007E021783A003000FFF7DDFFE9
:104920000134431CF3D1F8BDF0B5A1B006000C0072
:104930001F000392002804D08369002B01D100F0EE
:1049400069FD8E4B9C421CD17468636EDB0705D4F5
:10495000A3899B0502D4A06D00F0FDFDA3891B0770
:1049600002D52369002B1DD12100300000F0A4FBEB
:10497000002817D0636EDB070DD50120404221B01F
:10498000F0BD7F4B9C4201D1B468DEE77D4B9C4279
:10499000DBD1F468D9E7A3899B05EED4A06D00F0C4
:1049A000DBFDEAE7002308AD6B6120336B76103343
:1049B000AB760797039F3B78002B01D0252B4ED178
:1049C000039BFB1A0593039B9F420DD0059B21007F
:1049D0003000039AFFF796FF431C00D1B5E06A69E7
:1049E000059B944663446B613B78002B00D1ACE09F
:1049F00001227B1C0393002352426A6004A95432B3
:104A000052182B60EB60AB601370AB65039B052203
:104A100019785D4800F00EFE039B5F1C002820D132
:104A20002A68D30604D5532304A95B1820211970E2
:104A3000130704D5532304A95B182B211970039B7A
:104A40001B782A2B16D00021EB68039F3A78781C3C
:104A5000303A8446092A4FD9002911D117E001378D
:104A6000A9E7494B2A68C01A0123834013432B60EE
:104A70000397CBE7079B191D1B680791002B01DBF0
:104A80000B9304E05B42EB60022313432B603B7803
:104A90002E2B0AD17B782A2B37D1079B02371A1D80
:104AA0001B680792002B2DDB0993032239783748C6
:104AB00000F0C0FD002807D0344B2A68C01A4023FC
:104AC0008340134301372B6039787B1C0622304822
:104AD0000393297600F0AEFD002845D02D4B002B26
:104AE00027D10722079B07339343083307936B694A
:104AF000049A9B186B615DE70A214B4367469B183C
:104B00000939A3E701235B42CEE700231A000137EE
:104B10006B603978781C30398446092903D9002B19
:104B2000C3D00992C1E70A235A4367465218093B8A
:104B3000EFE707AB0093220029003000164B00E09E
:104B400000BF0490049B0133D1D1636EDB0705D411
:104B5000A3899B0502D4A06D00F0FEFCA3895B062F
:104B600000D50AE70D980AE707AB00932200290059
:104B70003000094B00F082F8E3E7C046786A01088C
:104B8000986A0108586A0108236A0108296A01081D
:104B90002D6A01080000000005490108F7B515005D
:104BA00001938A680B690C000090934200DA1300AD
:104BB00022002B6043321278002A01D001332B608F
:104BC00023689B0602D52B6802332B6022680623DC
:104BD00017001F401A4227D0230043331B785A1E68
:104BE00093412268920630D4220001990098089ED1
:104BF0004332B047431C25D0062320682A68E16869
:104C000000250340042B03D18D1AEB43DB171D4015
:104C1000A3682269934201DD9B1AED180027BD426B
:104C200020D1002010E00137E3682A689B1ABB42BC
:104C3000D2DD2200012301990098089E1932B04765
:104C4000431CF0D101204042FEBD3020E118433129
:104C5000087021005A1C45310978A21843320233EA
:104C60001170C1E72200012301990098089E1A32B1
:104C7000B047431CE6D00137D1E70000F0B58BB058
:104C800006920A0043320793059004920A7E0C00B4
:104C9000109B782A07D8622A09D8002A00D1C1E0DF
:104CA000582A00D18CE026004236327022E01000F3
:104CB00063381528F7D8FCF7B3FF16001F00F6FF7E
:104CC000F6FFF6FFF6FF1F00F6FFF6FFF6FFF6FF12
:104CD000A80036009A00F6FFF6FFB900F6FF36008E
:104CE000F6FFF6FF9E0026001A684236111D196075
:104CF000136833700123A7E0086819680A1D0506C8
:104D00000BD50D681A60002D03DA2D23049A6D422D
:104D10001370614B0A2703931BE00D681A6041066C
:104D2000F1D52DB2EFE70D681968081D18602E0641
:104D300001D50D6803E06D06FBD50D68ADB2564B8D
:104D4000082703936F2A00D0023723000022433341
:104D50001A706368A360002B03DB0422216891436F
:104D60002160002D02D1049E002B0CD0049E28004F
:104D70003900FCF7E5FF039B013E5B5C33702B00C1
:104D800005009F42F3D9082F09D12368DB0706D518
:104D900063682269934202DC3023013E3370049B36
:104DA0009B1B2361079B210000930598069B09AA82
:104DB000FFF7F4FE431C4CD1012040420BB0F0BD84
:104DC00045310A70344A03921A68216820CA1A6071
:104DD000080616D5CB0702D52023194321601027DA
:104DE000002DB2D1202322689A432260ADE7202211
:104DF00009680A4322602200782145321170274A4F
:104E0000E1E74806E6D5ADB2E4E71A680D68101D83
:104E10004969186013682E0601D5196002E06D0615
:104E2000FBD519800023049E2361BBE71A68111D7E
:104E30001960166800213000626800F0FBFB002852
:104E400001D0801B6060636823610023049A1370A3
:104E5000A8E72369320006990598079DA847431CD7
:104E6000AAD023689B0715D4099BE0689842A5DA6D
:104E70001800A3E72200012306990598079E19321E
:104E8000B047431C98D00135E368099A9B1AAB429E
:104E9000F0DCE9E70025F7E7346A0108456A010814
:104EA0000FB40B4B13B51C68002C05D0A369002B65
:104EB00002D1200000F0AEFA05AB2000049AA168F0
:104EC0000193FFF731FD16BC08BC04B01847C0467B
:104ED0000000002070B505000E00002804D0836992
:104EE000002B01D100F096FAAB69AC68002B02D11F
:104EF000280000F08FFA2D4B9C4222D16C68636E23
:104F0000DB0705D4A3899B0502D4A06D00F023FB29
:104F1000A3891B0702D52369002B29D12100280072
:104F200000F0CAF8002823D001256D42636EDB072C
:104F300005D4A3899B0502D4A06D00F00DFB2800C9
:104F400070BD1B4B9C4201D1AC68D8E7194B9C4209
:104F5000D5D1EC68D3E70136A360002B04DAA2694F
:104F60009A4216DC0A2914D023685A1C2260197050
:104F7000A3683178013B0029EDD1A360002B0FDA43
:104F8000280022000A3100F041F80A25431CCDD147
:104F9000CAE72200280000F039F8431CE8D1C3E733
:104FA0000A2523685A1C22601D70BFE7786A010831
:104FB000986A0108586A010810B5034B0100186887
:104FC000FFF788FF10BDC046000000200EB400B5FA
:104FD0000B499CB01DAB02900690079104910948C3
:104FE000094904CB0591006802A9019300F0B4FCC3
:104FF0000023029A13701CB008BC03B01847C046C7
:10500000FFFFFF7F000000200802FFFFF8B505004A
:105010000E001400002804D08369002B01D100F099
:10502000F9F9224B9C422ED16C68A369A360A38935
:105030001B0732D52369002B2FD023682269F7B2D2
:10504000981A6369F6B2834205DC2100280000F05B
:105050003FF9002827D1A3680130013BA3602368F2
:105060005A1C22601F706369834204D0A389DB0746
:1050700007D50A2E05D12100280000F029F90028C3
:1050800011D13000F8BD0A4B9C4201D1AC68CCE78D
:10509000084B9C42C9D1EC68C7E72100280000F00A
:1050A0000BF80028C9D001267642EAE7786A0108A1
:1050B000986A0108586A0108374B70B51D680600E8
:1050C0000C00002D05D0AB69002B02D1280000F0A8
:1050D000A1F9324B9C420FD16C680C23E25E93B273
:1050E00011072DD4D90611D4092301203360373399
:1050F0001343A381404270BD294B9C4201D1AC684F
:10510000EBE7284B9C42E8D1EC68E6E75B0713D558
:10511000616B002908D023004433994202D030004B
:1051200000F0A6FA002363632422A3899343A3819A
:1051300000236360236923600823A2891343A381AA
:105140002369002B0BD1A0218022A3898900920022
:105150000B40934203D02100300000F027FA0C22CC
:10516000A35E01201A0099B2024003420FD0002230
:10517000A26062695242A261002022698242BAD1D1
:105180000A06B8D540221343A3810138B3E7880744
:1051900000D46269A260EFE700000020786A01088D
:1051A000986A0108586A0108062010B500F010FD41
:1051B0000120FDF7F3FB0000F7B58B8905000C001B
:1051C0001A075FD44A68002A04DC0A6C002A01DC52
:1051D0000020FEBDE76A002FFAD0002280212E6851
:1051E0002A601A0049010A400B4234D0606DA3893D
:1051F0005B0706D56368C01A636B002B01D0236C74
:10520000C01A0200216A00232800E76AB847A18972
:10521000431C06D12B681D2B31D82C4ADA40D3070A
:105220002DD50023636023692360CB0405D5431C7F
:1052300002D12B68002B00D16065616B2E600029C4
:10524000C6D023004433994202D0280000F010FA5F
:1052500000206063BDE701232800216AB847431C92
:10526000C5D12B68002BC2D01D2B01D0162B01D12C
:105270002E60ADE74023A2891343A381A9E7402311
:105280000B43FAE70F69002FA2D00A680F60D21B08
:10529000019200229B0700D14A69A260019B002B6A
:1052A00000DC95E73A002800019B216AA66AB04716
:1052B000002806DC40230120A28940421343A38139
:1052C00087E7019B3F181B1A0193E7E70100402085
:1052D0000B6970B505000C00002B02D100252800D9
:1052E00070BD002804D08369002B01D100F092F832
:1052F000144B9C421BD16C680C22A35E002BEDD09A
:10530000626ED20704D49B0502D4A06D00F023F98D
:1053100028002100FFF750FF636E0500DB07DED495
:10532000A3899B05DBD4A06D00F016F9D7E7064BE7
:105330009C4201D1AC68DFE7044B9C42DCD1EC68B5
:10534000DAE7C046786A0108986A0108586A0108D5
:10535000002310B5040003604360836081814366CD
:105360001900C28103614361836108225C30FCF74C
:1053700035FE054B24626362044BA362044BE36277
:10538000044B236310BDC046115C0108395C010861
:10539000715C01089D5C010810B5024900F0BAF883
:1053A00010BDC046D152010870B568254A1E55434C
:1053B0000E002900743100F0C7F9041E08D0002146
:1053C0002A00016046600C30A0606832FCF706FEDF
:1053D000200070BD10B5024800F0BDF810BDC046F9
:1053E000A106002010B5024800F0B6F810BDC04676
:1053F000A106002010B5024800F0ADF810BDC0466F
:10540000A206002010B5024800F0A6F810BDC04664
:10541000A206002013B50400FFF7ECFFA369002BE0
:1054200002D0FFF7EFFF13BDA364E3642365134BC2
:10543000134A1B68A2620193A34201D10123A36115
:10544000200000F01FF86060200000F01BF8A06052
:10545000200000F017F800220421E0606068FFF7E8
:1054600077FF01220921A068FFF772FF02221221B3
:10547000E068FFF76DFF0123A361D2E778610108BF
:1054800099530108F8B50700FFF7A4FF1F4B1E68EA
:10549000B369002B02D13000FFF7BCFF4836B46877
:1054A0007368013B04D53368002B22D03668F6E7D9
:1054B0000C22A55E002D1AD12000154B5830E36058
:1054C000656600F047F8FFF78DFF200008222900ED
:1054D0002560A560656025616561A5615C30FCF7AC
:1054E0007DFD6563A563A564E5642000F8BD6834AF
:1054F000D7E704213800FFF757FF041E3060D5D1ED
:10550000FFF770FF0C233B60EFE7C04678610108AE
:105510000100FFFFF7B504000600002701914834A1
:105520006368A5680093009B013B009304D5246841
:10553000002CF5D13800FEBDAB89012B08D90E2215
:10554000AB5E013304D029003000019B984707432C
:105550006835E8E7704770477047000070B50E0087
:105560001D000E23C95E140096B0002908DA0C2233
:10557000B35E00222A601B0611D48023DB000FE0FB
:105580006A4600F0B7FB0028F1DBF02301991B020B
:105590001940054BC9184B4259412960EDE740239A
:1055A0000020236016B070BD00E0FFFFF7B50226B3
:1055B0008B8905000C00334206D02300473323605B
:1055C000236101236361F7BD6A4601ABFFF7C6FFA4
:1055D00000990700280000F0B7F8002808D10C2235
:1055E000A35E9A05EFD4032293431E43A681E4E70A
:1055F0000F4BAB628023A28920601343A381009BE1
:1056000020616361019B002B0DD028000E23E15E19
:1056100000F082FB002806D00322A38993431A00DE
:1056200001231343A381A0890743A781CBE7C04689
:1056300099530108C9B28218904201D100207047E5
:1056400003788B42FBD00130F6E710B5884202D9CF
:105650008B18984203D3002307E08B5C8354013AF4
:10566000FBD210BDCC5CC45401339A42FAD1F8E7A6
:1056700070B50500002910D00C1F2368002B00DA3C
:10568000E418280000F06EFB1D4A1368002B05D1BA
:1056900063601460280000F06DFB70BDA34208D960
:1056A000216860188342F3D118685B684118216053
:1056B000EEE71A005B68002B01D0A342F9D911680C
:1056C0005018A0420BD1206809185018116083426D
:1056D000E0D118685B68411811605360DAE7A042B6
:1056E00002D90C232B60D5E721686018834203D1CF
:1056F00018685B684118216063605460CAE7C0465F
:10570000A406002070B50F4E0D003168040000297A
:1057100002D100F021FA30602900200000F01CFACC
:10572000431C0AD00323C51C9D43A84207D0291A55
:10573000200000F011FA431C01D101256D42280020
:1057400070BDC046A8060020F7B50322CB1C9343CA
:10575000083306001F000C2B32D20C27B94231D877
:10576000300000F0FFFA324D2B681C00002C2ED1C7
:1057700039003000FFF7C6FF0400431C1ED12C681F
:105780002500002D4AD123682900E3183000019339
:1057900000F0E2F9019B834243D123680337FF1AEB
:1057A00003239F4308370C2F00D20C273900300009
:1057B000FFF7A8FF431C34D02368DF19276013E0EC
:1057C000002BCBDA0C23002533602800FEBD2268B5
:1057D000D11B20D40B2917D9E2192760A34211D17C
:1057E0002A606368116053603000250000F0C2FA3F
:1057F00007220B35231D9543EA1A9D42E5D05B1B1A
:10580000A350E2E75A60ECE76268A34201D12A6044
:10581000EAE75A60E8E723006468A7E72C006D68B0
:10582000AFE70C233000336000F0A4FACDE7C046A8
:10583000A4060020F7B507000E001400002905D1CA
:105840001100FFF781FF05002800FEBD002A03D1EB
:10585000FFF70EFF2500F7E700F094FA019084426D
:1058600003D835004308A342EED321003800FFF7E8
:105870006BFF051EE8D0019B22009C4200D91A0054
:1058800031002800FFF720F831003800FFF7F0FE64
:10589000DAE70000F0B58E6885B007000C000392CF
:1058A00001939E423CD890238A89DB001A4234D06F
:1058B0000969236860695B1A029303234343DD0F80
:1058C000ED18019B029801331B186D10AB4200D9F3
:1058D0001D00530532D529003800FFF735FF061E9D
:1058E00009D10C233B6040230120A289404213438D
:1058F000A38105B0F0BD029A2169FEF7E5FFA389F7
:10590000144A1A4080231343A381029B2661F61890
:1059100026606561019EED1AA560019B9E4200D93B
:10592000019E320003992068FFF78FFEA3680020D4
:105930009B1BA36023689E192660DAE72A003800C3
:10594000FFF778FF061EE0D138002169FFF790FECF
:10595000C7E7C0467FFBFFFFF0B5A1B003901D0075
:105960008B890F0016001B0611D50B69002B0ED179
:105970004021FFF7E9FE38603861002805D10C238B
:10598000039A0138136021B0F0BD40237B610023EE
:1059900008AC6361203363761033A3760795350036
:1059A0002B78002B01D0252B47D1AB1B0593B5429B
:1059B0000CD0320039000398FFF76CFF431C00D174
:1059C000AEE06269059B9446634463612B78002BCB
:1059D00000D1A5E0012200235242626004A95432A2
:1059E00052186E1C2360E360A3601370A365052248
:1059F00031785448FFF71EFE751C00281FD122681D
:105A0000D30604D5532304A95B182021197013076A
:105A100004D5532304A95B182B21197033782A2B42
:105A200016D0350000210A20E3682A786E1C303A2F
:105A3000092A4ED9002911D117E00135B0E7414BB1
:105A40002268C01A0123834013432E002360CEE74F
:105A5000079B191D1B680791002B01DB0B9304E0CA
:105A60005B42E3600223134323602B782E2B0AD181
:105A70006B782A2B35D1079B02351A1D1B680792BC
:105A8000002B2BDB0993304E032230002978FFF7DF
:105A9000D1FD002806D04023801B834022680135B9
:105AA000134323602978062228486E1C2176FFF7CD
:105AB000C1FD00283CD0264B002B25D10722079B97
:105AC00007339343083307936369049A9B18636110
:105AD00065E74343350001219B18A6E701235B429C
