:020000040801F1
:10000000BC770020915C0108F95B0108FD5B0108E9
:1000100000000000000000000000000000000000E0
:10002000000000000000000000000000075C010864
:1000300000000000000000000B5C0108E15B01080B
:100040000F5C010800000000135C0108175C010848
:100050001B5C01081F5C0108235C0108275C010888
:10006000000000002B5C01082F5C0108335C0108D4
:10007000375C01083B5C01083F5C0108435C0108F8
:10008000475C010800000000000000004D5C010812
:10009000655C0108695C01086D5C0108715C010820
:1000A000755C0108795C01087D5C0108815C0108D0
:1000B000855C0108895C0108E95B01088D5C010829
:1000C00080B582B000AF78607B68002B05D1144BFF
:1000D000144A1548082107F011FF7B681B7E012B8D
:1000E00005D0124B0F4A1048092107F007FF7B6823
:1000F0001B68002B05D10E4B0A4A0B480A2107F05A
:10010000FDFE7B681B681B68002B05D1094B054A67
:1001100005480B2107F0F2FEC046BD4602B080BD87
:10012000A0940108E8950108B4940108D894010846
:10013000F49401081095010880B584B000AF786090
:1001400000220023BA60FB607B681800FFF7B8FF4D
:100150007B681B681B79042B21DC032B16DA012B2F
:1001600002D0022B09D01AE07B681B681B689847F5
:100170000300BB600023FB6017E07B681B681B6803
:1001800098470300BB600023FB600EE07B681B68A0
:100190001B6898470300BB600023FB6005E0064B2B
:1001A000064A0748202107F0A9FEBA68FB6810003C
:1001B0001900BD4604B080BD3C950108D8950108E2
:1001C000B4940108F0B58DB000AF7862002200232E
:1001D000BA62FB627B6A1800FFF772FF7B6A1B68DA
:1001E0001B79042B52D000DD72E0032B36D000DDEA
:1001F0006EE0012B02D0022B18D069E07B6A1869EF
:10020000596902000B00140E1D02FD61FD692543B2
:10021000FD611302BB61BA69FB69121A8B41B86AAE
:10022000F96A12184B41BA62FB6257E07B6A18699F
:10023000596902000B00140C1D047D617D69254382
:100240007D6113043B613A697B69121A8B41B86A7C
:10025000F96A12184B41BA62FB623FE07B6A186987
:10026000596902000B00140A1D06FD60FD68254354
:10027000FD601306BB60BA68FB68121A8B41B86A4E
:10028000F96A12184B41BA62FB6227E07B6A18696F
:100290005969B861F96102000B00160C1904796004
:1002A00079683143796013043B603A687B68B869C8
:1002B000F969121A8B41110C1D040D431404121913
:1002C0006B41B86AF96A12184B41BA62FB6205E0E9
:1002D0000A4B0B4A0B483B2107F010FE7B6A1A6958
:1002E0005B69B86AF96A12184B41BA62FB62BA6A72
:1002F000FB6A10001900BD460DB0F0BD3C95010829
:10030000F8950108B494010880B582B000AF786018
:1003100039607B68002B05D1254B264A26484821A9
:1003200007F0ECFD3B68002B05D1244B214A224805
:10033000492107F0E3FD3B681B68002B05D1204BEA
:100340001C4A1D484A2107F0D9FD3B681B79002B48
:1003500005D11C4B174A18484B2107F0CFFD3B68CD
:100360001B79042B05D9184B124A13484C2107F06E
:10037000C5FD7B6820220021180005F07DF97B680F
:100380003A681A607968002200230A614B617B6831
:1003900001221A767B681800FFF7CEFE02000B00E0
:1003A00079688A60CB60C046BD4602B080BDC04659
:1003B000A0940108C8950108B49401084495010867
:1003C0005495010874950108A095010880B582B084
:1003D00000AF78607B681800FFF772FE7B689A6850
:1003E000DB687968080000F007F802000B001000D5
:1003F0001900BD4602B080BD80B588B000AFF8607E
:100400003A607B60FB681800FFF75AFEFB68180033
:10041000FFF792FE02000B003A617B61002200238D
:10042000BA61FB61FB681800FFF7CCFE3A697B6993
:1004300012184B413A617B617A687B699A4207D80E
:100440007A687B699A420ED13A683B699A420AD926
:10045000386979693A687B68801A994102000B0013
:10046000BA61FB6109E0386979693A687B68801A8A
:10047000994102000B00BA61FB61BA69FB69100087
:100480001900BD4608B080BD80B582B000AF78606D
:100490007B68002B05D10A4B0A4A0B48702107F0F4
:1004A0002DFD7B681A695B690120002112184B4100
:1004B00079680A614B61C046BD4602B080BDC04646
:1004C000A094010810960108B494010880B500AF0B
:1004D000044A054B11001800FFF716FFC046BD4641
:1004E00080BDC046100200202805002080B500AF66
:1004F000044B1800FFF76AFF02000B001000190000
:10050000BD4680BD2805002080B582B000AF3860B0
:1005100079603A687B6805490800FFF76DFF0200C3
:100520000B0010001900BD4602B080BD2805002058
:1005300080B500AF034B1800FFF7A6FFC046BD46CD
:1005400080BDC04628050020B0B584B000AF7860FB
:1005500008001100FB1C021C1A70BB1C0A1C1A703C
:100560007B68002B05D1314B314A32480D2107F011
:10057000C5FC7B685B68002B05D12F4B2C4A2D48AE
:100580000E2107F0BBFC7B685B68DB68002B05D1A4
:100590002A4B274A27480F2107F0B0FC7B685B688D
:1005A0009B69002B05D1264B214A2248102107F0D8
:1005B000A5FC7B685B685B69002B05D1214B1C4A5D
:1005C0001C48112107F09AFC0F257B1903221A7091
:1005D0007B685B681B7C7A1912789A4221D87B6809
:1005E0005B68DB687F221A707B685B68DB680133BD
:1005F000FA1C12781A707B685B68DB680233BA1CDD
:1006000012781A707B685B689C697B685B685869C4
:100610007B685B68D9687B191B789BB21A00A0477E
:1006200000E0C046BD4604B0B0BDC04620960108FB
:10063000E09A010834960108549601087096010862
:1006400094960108C896010880B586B000AFF8609E
:1006500008007A6019000B23FB18021C1A700A2389
:10066000FB180A1C1A70FB68002B05D12B4B2C4A77
:100670002C482C2107F042FC7B68002B05D12A4B2B
:10068000274A28482D2107F039FC1723FB180022A0
:100690001A701623FB18FF221A701523FB1800226C
:1006A0001A7017E015217B181B785BB27A68D31893
:1006B0001A78FB681B7A9A4205D11623FB187A1820
:1006C00012781A7010E015217B181B780133DAB20A
:1006D0007B181A701523FA180A23FB18127852B2E5
:1006E0001B785BB29A42DDDB1623FB181B785BB2EA
:1006F000013308D10B23FB181978FB687E22180000
:10070000FFF722FF03E01723FB1801221A701723BB
:10071000FB181B781800BD4606B080BD2096010866
:10072000F09A010834960108F896010880B584B063
:1007300000AF78607B68002B05D14D4B4D4A4E4889
:10074000472107F0DBFB7B685B68002B05D14B4B37
:10075000484A4948482107F0D1FB7B685B68DB6960
:10076000002B05D1464B434A4348492107F0C6FBBD
:100770007B685B685B68002B05D1424B3D4A3E4875
:100780004A2107F0BBFB0D217B1802221A700F23B0
:10079000FB18FF221A707B689B7A7A1812789A42AB
:1007A00008D97B68132210211800FFF7CDFE012322
:1007B0005B4258E00E23FB1800221A701FE07B6892
:1007C0005B68DA690E217B181B785BB25B00D3187B
:1007D0001A787B685B685B6801331B789A4205D1A5
:1007E0000F23FB187A1812781A7012E00E217B186A
:1007F0001B785BB2DBB20133DAB27B181A707B680C
:100800005B6820229B560E22BA18127852B29A4286
:10081000D5DB0F23FB181B785BB2013308D17B6853
:10082000122210211800FFF78FFE01235B421AE00D
:100830007B685B68DA690F23FB181B785BB25B008F
:10084000D3185A787B68DB7A9A4208D97B683322BE
:1008500010211800FFF778FE01235B4203E00F230D
:10086000FB181B785BB21800BD4604B080BDC046C3
:10087000209601080C9B0108349601085496010843
:100880001097010844970108B0B584B000AF7860B4
:100890007B68002B05D1314B314A3248792107F072
:1008A0002DFB7B685B68002B05D12F4B2C4A2D4814
:1008B0007A2107F023FB7B685B68DB69002B05D19D
:1008C0002A4B274A27487B2107F018FB7B685B6887
:1008D0001B7801221340DBB2002B05D17B6811226B
:1008E00010211800FFF730FE0F257C197B681800D7
:1008F000FFF71CFF0300237029007B181B787F2B58
:1009000028D87B685B68DA697B181B785BB25B0070
:10091000D3181A787B681A727B685A7A7B681B7ABC
:100920009A420BD07B685B685B6A002B06D07B68C1
:100930005B685B6A7A68127A100098477B68197A5C
:100940007B685B681A8D7B685B685B8D786802F0FA
:100950002CFE00E0C046BD4604B0B0BD20960108A4
:10096000249B010834960108549601081097010849
:1009700080B582B000AF78607B68002B05D1134B47
:10098000134A14489E2107F0B9FA7B685B68002B74
:1009900005D1114B0E4A0F489F2107F0AFFA7B6833
:1009A0005B681B7802221340DBB2002B05D17B6809
:1009B00011223E211800FFF7C7FD7B68180002F0E6
:1009C00087FEC046BD4602B080BDC04620960108E5
:1009D000349B01083496010854960108F0B585B09F
:1009E00000AF78607B68002B05D1804B804A81483E
:1009F000AE2107F083FA7B685B68002B05D17E4B44
:100A00007B4A7C48AF2107F079FA7B685B685B68BA
:100A1000002B05D1794B764A7648B02107F06EFA63
:100A20007B685B681B6B002B05D1754B704A714866
:100A3000B12107F063FA7B685B68DB6A002B05D1A4
:100A4000704B6B4A6B48B22107F058FA7B685B68C1
:100A50001B7804221340DBB2002B05D17B681122E6
:100A600011211800FFF770FD0D217B1802221A706A
:100A70000F23FB18FF221A700C23FB1800221A7098
:100A80007B689B7A7A1812789A4206D97B6813227F
:100A900011211800FFF758FDA5E00E23FB180022D6
:100AA0001A7022E07B685B68196B0E203B180022ED
:100AB0009A5613005B009B189B00CB181A787B6832
:100AC0005B685B6801331B789A4205D10F23FB18E2
:100AD0003A1812781A7012E00E217B181B785BB25C
:100AE000DBB20133DAB27B181A707B685B683422A0
:100AF0009B560E22BA18127852B29A42D2DB0F23BA
:100B0000FB181B785BB2013306D17B6812221121DE
:100B10001800FFF719FD66E07B685B68196B0F230F
:100B2000FB1800229A5613005B009B189B00CB1801
:100B30005A787B68DB7A9A4206D97B683322112186
:100B40001800FFF701FD4EE07B685B68196B0F260C
:100B5000BB1900229A5613005B009B189B00CB1810
:100B60005D687B685B68196BBB1900229A5613009D
:100B70005B009B189B00CB181B7A5BB20C22BC1845
:100B800078682A001121FFF75FFD030023700C2213
:100B9000BB181B7801225340DBB2002B22D17B68AB
:100BA0005B68196BBB1900229A5613005B009B18F7
:100BB0009B00CB181A787B681100180002F0EEFD3C
:100BC0007B685B68D96A7B685B68186BBB1900221D
:100BD0009A5613005B009B189B00C3181B781800E3
:100BE000884700E0C046BD4605B0F0BD209601082C
:100BF0004C9B01083496010854960108449701085B
:100C00006897010894970108F0B585B000AF786047
:100C10000A00FB1C1A707B68002B05D1804B814AAF
:100C20008148FB2107F06AF97B685B68002B05D1DE
:100C30007E4B7C4A7C48FC2107F060F97B685B684E
:100C4000DB6B002B05D17A4B764A7748FD2107F004
:100C500055F97B685B689B6C002B05D1754B714A1D
:100C60007148FE2107F04AF90F23FB18FF221A7082
:100C70000D23FB1800221A700E23FB1800221A7095
:100C80001FE07B685B68D96B0E203B1800229A56E8
:100C900013005B009B18DB00CB181B78FA1C127842
:100CA0009A4205D10F23FB183A1812781A7012E0F5
:100CB0000E217B181B785BB2DBB20133DAB27B18F2
:100CC0001A707B685B6840229B560E22BA18127815
:100CD00052B29A42D5DB0F23FB181B787F2B06D923
:100CE0007B68122227211800FFF72EFC94E07B6816
:100CF0005B68D96B0F203B1800229A5613005B00EB
:100D00009B18DB00CB185B68002B0ED07B685B6800
:100D1000D96B3B1800229A5613005B009B18DB002E
:100D2000CB181B7B5BB2002B06DC7B6826222721BD
:100D30001800FFF709FC6FE07B685B68D96B0F2632
:100D4000BB1900229A5613005B009B18DB00CB18DE
:100D50001D697B685B68D96BBB1900229A5613002A
:100D60005B009B18DB00CB181B7D5BB20D22BC180F
:100D700078682A002721FFF767FC030023700D2203
:100D8000BB181B7801225340DBB2002B43D17B6898
:100D90005B689C6C7B685B68D96BBB1900229A56B8
:100DA00013005B009B18DB00CB1858687B685B68FE
:100DB000D96BBB1900229A5613005B009B18DB000D
:100DC000CB181B7B5BB2DAB2FB1C1B78010018004E
:100DD000A0477B685B68D96BBB1900229A56130049
:100DE0005B009B18DB00CB185C687B685B68D96B89
:100DF000BB1900229A5613005B009B18DB00CB182E
:100E00001B7B5BB2DAB2FB1C1978786813002200F6
:100E100002F02EFD00E0C046BD4605B0F0BDC04664
:100E2000209601085C9B010834960108549601083D
:100E3000C4970108F0970108F0B589B002AF786057
:100E40000A00FB1C1A707B68002B06D1C04BC14AFC
:100E50009D214900C04807F051F87B685B68002B72
:100E600006D1BE4BBB4A3C21FF31BB4807F046F8D8
:100E70007B685B68DB6B002B06D1B94BB54A9E21C2
:100E80004900B54807F03AF87B685B685B6C002B5B
:100E900006D1B44BAF4A3E21FF31AF4807F02EF8E0
:100EA0001723FB18FF221A701523FB1800221A7053
:100EB00001235B423B610F23FB1802221A701623A9
:100EC000FB1800221A701FE07B685B68D96B162044
:100ED0003B1800229A5613005B009B18DB00CB18CE
:100EE0005B78FA1C12789A4205D11723FB183A183E
:100EF00012781A7012E016217B181B785BB2DBB2F5
:100F00000133DAB27B181A707B685B6840229B560B
:100F10001622BA18127852B29A42D5DB7B685B6807
:100F2000D96B1723FB1800229A5613005B009B18FD
:100F3000DB00CB181B7B5BB2D9B20F203B183A18F1
:100F400012788A181A707B689B7A3A1812789A423B
:100F500006D07B68132227211800FFF7F5FAF4E08A
:100F60001723FB181B787F2B06D97B6812222721B9
:100F70001800FFF7E9FAE8E07B685B68D96B172097
:100F80003B1800229A5613005B009B18DB00CB181D
:100F90009B68002B0ED07B685B68D96B3B180022E6
:100FA0009A5613005B009B18DB00CB185B7B5BB28F
:100FB000002B06DC7B68262227211800FFF7C4FAE5
:100FC000C3E07B685B68D96B1726BB1900229A5671
:100FD00013005B009B18DB00CB181D697B685B6806
:100FE000D96BBB1900229A5613005B009B18DB00DB
:100FF000CB181B7D5BB21522BC1878682A0027210C
:10100000FFF722FB030023701522BB181B78012277
:101010005340DBB2002B00D096E07B685B685C6CD1
:101020007B685B68D96BBB1900229A5613005B0082
:101030009B18DB00CB1818787B685B68D96BBB19F1
:1010400000229A5613005B009B18DB00CB185D68EA
:101050007B685B68D96BBB1900229A5613005B0052
:101060009B18DB00CB189E687B685B68D96B1723E5
:10107000FB1800229A5613005B009B18DB00CB186C
:101080001B7B5BB2DAB294467B685B68D96B172333
:10109000FB1800229A5613005B009B18DB00CB184C
:1010A0005B7B5BB2DBB20093634632002900A04752
:1010B0007B685B685B68981C7B685B68D96B1725ED
:1010C0007B1900229A5613005B009B18DB00CB189B
:1010D0009C687B685B68D96B7B1900229A56130069
:1010E0005B009B18DB00CB185B7B5BB21A00210016
:1010F00006F038FF03003B613B69002B06D07B689C
:10110000352227211800FFF71FFA1EE0FB1C1A7872
:101110007B681100180002F035FC7B68FA1C12781D
:10112000DA727B685B689B6B002B0ED07B681A7B46
:101130007B68DB7A9A4208D07B685B689B6B7A6835
:10114000D27A1000984700E0C046BD4607B0F0BD17
:1011500020960108789B01083496010854960108EE
:10116000C497010828980108F0B585B000AF7860F1
:101170007B68002B06D1654B654AD0214900654844
:1011800006F0BCFE7B685B68002B06D1624B604AB0
:10119000A221FF315F4806F0B1FE7B685B685B68A7
:1011A000002B06D15D4B5A4AD1214900594806F01F
:1011B000A5FE7B685B68DB6B002B06D1584B544A5D
:1011C000A421FF31534806F099FE7B685B685B6C95
:1011D000002B06D1534B4E4AD22149004D4806F010
:1011E0008DFE7B685B689B6C002B06D14E4B484A9A
:1011F000A621FF31474806F081FE7B685B681B78BB
:1012000008221340DBB2002B05D17B681122272175
:101210001800FFF799F90F26BB1902221A700E2148
:101220007B1800221A707B685B68DB6B1A697B682D
:101230005B68DB6B1B7D5BB20D007C187868272137
:10124000FFF702FA030023707B191B780122534039
:10125000DBB2002B56D17B689B7ABA1912789A427E
:1012600006D97B68132227211800FFF76DF94AE0A1
:101270007B685B685A680D217B1852781A700A00E7
:10128000BB181B78012B0FD0BB181B78032B0BD07E
:10129000BB181B78052B07D0BB181B78062B0CD965
:1012A000BB181B78412B08D80D23FB181A787B68D4
:1012B00011001800FFF7A8FC25E00D22BB181B78D1
:1012C000022B0FD0BB181B78042B0BD0BB181B783C
:1012D000062B07D0BB181B78072B0CD9BB181B7823
:1012E000422B08D80D23FB181A787B6811001800D0
:1012F000FFF7A2FD07E07B68122227211800FFF705
:1013000023F900E0C046BD4605B0F0BD20960108B7
:10131000949B0108349601085496010844970108EB
:10132000C497010828980108F0970108F0B589B022
:1013300002AF78607B68002B06D1D64BD64AEC21F1
:10134000FF31D64806F0DAFD7B685B68002B06D1DA
:10135000D34BD14AF6214900D04806F0CFFD7B6837
:101360005B685B68002B06D1CE4BCB4AEE21FF3188
:10137000CA4806F0C3FD7B685B681B7810221340E7
:10138000DBB2002B05D17B68112231211800FFF759
:10139000DBF815217B1804221A701223FB18012296
:1013A00052421A801023FB1800221A801723FB18C0
:1013B000FF221A700F23FB1800221A707B689B7A99
:1013C0007A1812789A4206D97B68132231211800C4
:1013D000FFF7BAF8B7E17B685B685A680E23FB1821
:1013E00052781A707B689B7A9AB21523FB181B7887
:1013F0009BB2D31A9AB21223FB181A807B685B68DF
:101400001B6D002B04D07B685B685B6D002B06DCDA
:101410007B68112231211800FFF796F893E17B6871
:101420005B685B6802331B781B021AB27B685B68DF
:101430005B6803331B781BB213431AB21023FB18EB
:101440001A801623FB1800221A7020E07B685B6864
:10145000196D16203B1800229A5613005B009B184A
:101460001B01CB185B881022BA1812889A4205D14A
:101470001723FB183A1812781A7011E016217B18FE
:101480001B785BB2DBB20133DAB27B181A70162319
:10149000FB1800229A567B685B685B6D9A42D5DB2D
:1014A0001723FB181B785BB2013306D17B6811222E
:1014B00031211800FFF748F845E17B685B68196D3A
:1014C0001723FB1800229A5613005B009B181B0180
:1014D000CB189A7B7B68DB7A9A4206D97B683322E9
:1014E00031211800FFF730F82DE17B685B68196D3A
:1014F00017203B1800229A5613005B009B181B0113
:10150000CB181D697B685B68196D3B1800229A56E1
:1015100013005B009B181B01CB181B7D5BB20F26D1
:10152000BC1978682A003121FFF78EF80300237078
:10153000BB191B7801225340DBB2002B00D001E124
:101540000E23FB181B78012B03D0032B00D1AFE037
:10155000F1E01223FB1800229B5E002B06DA7B6869
:10156000132231211800FEF7EFFFECE012243B19A3
:1015700000229B5E002B16DD7B685B68196D1723CC
:10158000FB1800229A5613005B009B181B01CB1816
:1015900058687B685B685B68191D3B1900229B5E7D
:1015A0001A0006F0EDFC1223FB180021595E7B683F
:1015B0005B68186D1723FB1800229A5613005B0016
:1015C0009B181B01C3181B7B994206D07B68132212
:1015D00031211800FEF7B8FFB5E07B685B68196D34
:1015E00017203B1800229A5613005B009B181B0122
:1015F000CB181B7B002B13D07B685B68196D3B18E5
:1016000000229A5613005B009B181B01CB185B68E5
:10161000002B05D1244B204A2449204806F06EFCBB
:101620007B685B68196D1723FB1800229A5613001C
:101630005B009B181B01CB181B78032B06D07B6823
:10164000212231211800FEF77FFF7CE07B685B6878
:10165000196D17243B1900229A5613005B009B1842
:101660001B01CB1800221A707B685B68D86C7B6802
:101670005B68196D3B1900229A5613005B009B189A
:101680001B01CC18FEF7A2FE02000B00226263626F
:1016900059E0C04620960108AC9B01083496010829
:1016A00054960108449701085C98010869020000FB
:1016B0007B685B68196D1723FB1800229A5613008C
:1016C0005B009B181B01CB181B78032B06D07B6893
:1016D000212231211800FEF737FF34E07B685B6878
:1016E000196D17203B1800229A5613005B009B18B7
:1016F0001B01CB185C887B685B68196D3B18002266
:101700009A5613005B009B181B01CB189D687B68E1
:101710005B68196D3B1800229A5613005B009B18FA
:101720001B01CB185B7B786800932B002200032100
:1017300002F092F907E07B68122231211800FEF7CF
:1017400003FF00E0C046BD4607B0F0BDB0B588B0AD
:1017500002AF78607B68002B05D17E4B7E4A7F49C3
:101760007F4806F0CBFB7B685B68002B05D17D4B87
:10177000794A7D497A4806F0C1FB7B685B685B6DFE
:10178000002B0ADD7B685B681B6D002B05D1774B56
:10179000714A7749724806F0B1FB00220023BA6013
:1017A000FB6000237B616BE07B685B68196D7A6985
:1017B00013005B009B181B01CB181B78032B5CD01C
:1017C0007B6801225A737B685B68196D7A69130024
:1017D0005B009B181B01CB189B6A002B05D1654B46
:1017E0005D4A65495E4806F089FB7B685B68196D58
:1017F0007A6913005B009B181B01CB18996A7B6800
:101800005B68186D7A6913005B009B181B01C31895
:10181000180088477B685B68D86C7B685B68196DCB
:101820007A6913005B009B181B01CB181A6A5B6A6C
:10183000FEF7E2FD02000B00BA60FB607B685B68AC
:10184000196D7A6913005B009B181B01CB189A690C
:10185000DB69F968994205D8F96899420DD1B968F0
:1018600091420AD97B685B68196D7A6913005B0045
:101870009B181B01CB1804221A707B6901337B6112
:101880007B685B685B6D7A699A428DDB00233B6104
:1018900054E07B685B68196D3A6913005B009B1824
:1018A0001B01CB181B78022B13D0042B42D17B6871
:1018B000262231211800FEF747FE7B685B68196D10
:1018C0003A6913005B009B181B01CB1803221A70A6
:1018D00031E07B685B68196D3A6913005B009B1807
:1018E0001B01CB185C887B685B68196D3A69130033
:1018F0005B009B181B01CB189D687B685B68196DAA
:101900003A6913005B009B181B01CB185B7B78685E
:1019100000932B002200012102F09EF87B685B6897
:10192000196D3A6913005B009B181B01CB18032249
:101930001A7000E0C0463B6901333B617B685B681D
:101940005B6D3A699A42A4DBC046C046BD4606B00C
:10195000B0BDC04620960108C09B01089A02000055
:1019600034960108549601089B0200005C98010817
:10197000A102000064980108AA020000F0B587B037
:1019800000AF78607B68002B05D1A24BA24AA34927
:10199000A34806F0B3FA7B685B68002B05D1A14B26
:1019A0009D4AA1499E4806F0A9FA7B685B685B687E
:1019B000002B05D19D4B984A9D49994806F09EFA07
:1019C0007B685B681B7820221340DBB2002B05D1BB
:1019D0007B6811222E211800FEF7B6FD0F217B181F
:1019E00003221A7001235B427B610E23FB18002245
:1019F0001A700C23FB18012252421A807B689B7AD2
:101A00007A1812789A4206D97B6813222E21180080
:101A1000FEF79AFDFBE07B685B685B6801331B782F
:101A20001B021AB27B685B685B6802331B781BB2CF
:101A300013431AB20A23FB181A8000233B6114E0F7
:101A40007B685B68996D3A6913009B009B189B004B
:101A5000CB181B880A22BA1812889A4202D13B6915
:101A60007B6108E03B6901333B617B685B68DB6D50
:101A70003A699A42E4DB7B69013306D17B68312203
:101A80002E211800FEF760FDC1E07B685B68996D50
:101A90007A6913009B009B189B00CB189A7A7B688D
:101AA000DB7A9A4206D97B6833222E211800FEF792
:101AB0004BFDACE07B685B68996D7A6913009B0015
:101AC0009B189B00CB18DD687B685B68996D7A6911
:101AD00013009B009B189B00CB181B7C5BB20E264F
:101AE000BC1978682A002E21FEF7AEFD0300237092
:101AF000BB191B7801225340DBB2002B00D085E0DC
:101B00007B685B68996D7A6913009B009B189B004A
:101B1000CB181B7A002B11D07B685B68996D7A69B2
:101B200013009B009B189B00CB185B68002B05D112
:101B3000404B394A40493A4806F0E0F97B689B7AC5
:101B40009AB20F23FB181B789BB2D31A9AB20C21BE
:101B50007B181A807B1800229B5E002B06DA7B68BC
:101B600013222E211800FEF7EFFC50E00C23FB1887
:101B70000021595E7B685B68986D7A6913009B0051
:101B80009B189B00C3181B7A994206D07B681322CE
:101B90002E211800FEF7D8FC39E07B685B68996D50
:101BA0007A6913009B009B189B00CB185B7A01227B
:101BB0005340DBB2002B06D07B6826222E21180072
:101BC000FEF7C2FC23E00C243B1900229B5E002B95
:101BD00013DD7B685B68996D7A6913009B009B1825
:101BE0009B00CB1858687B685B685B68D91C3B1905
:101BF00000229B5E1A0006F0C3F90A23FB181A881C
:101C00007B681100180001F0C1FF00E0C046BD462E
:101C100007B0F0BD20960108DC9B0108DD02000042
:101C20003496010854960108DE020000449701082A
:101C3000DF0200005C98010826030000F0B591B0B7
:101C400000AF78637B6B002B05D1CB4BCB4ACC49E3
:101C5000CC4806F053F97B6B5B68002B06D1CA4B6E
:101C6000C64AD5218900C74806F048F97B6B5B68F6
:101C70001B6E002B05D1C54BC04AC549C14806F0B3
:101C80003DF97B6B5B681A787F239A431300DBB2C4
:101C9000002B05D17B6B112234211800FEF754FC78
:101CA0000D2328201B180822BA189A180023137035
:101CB0000C210B180822BA189A18032313700B234F
:101CC0001B180822BA189A18002313700A231B182D
:101CD0000822BA189A18002313707B6B9A7A0B1893
:101CE00008218C46BC4463441B78934206D97B6B25
:101CF000132234211800FEF727FCCBE17B6B5B68D5
:101D00005B6802331A787B6B59680F231340DBB290
:101D100078228B547B6B5B685B6802331A787B6B31
:101D200059681309DBB279228B547B6B5A6878238C
:101D3000D15C7B6B5A687923D35CCB18DAB20C2068
:101D40002824031908217918591803190825AC46C5
:101D5000BC4463441B78D3180B707B6B9A7A0319CD
:101D600008218C46BC4463441B78934206D07B6BAD
:101D7000132234211800FEF7E7FB8BE17B6B5A68D6
:101D80007C23D25C7B6BDB7A9A4206D97B6B332255
:101D900031211800FEF7D8FB7CE17B6B5A68802369
:101DA000D1587B6B5A688423D3560D2228255219AB
:101DB000082038181418786B0A003121FEF744FC0B
:101DC000030023700D222800131808229446BC44F7
:101DD00063441A7801235340DBB2002B00D058E152
:101DE0007B6B5968002200238A66CB660F231B1881
:101DF0000822BA189A180023137060E07B6B5A68A7
:101E00007823D25C0F242825631908218C46BC4412
:101E100063441B78D31ADBB20B22521908218C467B
:101E2000BC446244023313707B6B5B68986ED96E5E
:101E30007B6B5B685A680B235B190826B446BC446D
:101E400063441B78D3181B783B6200237B626319C1
:101E500008229446BC4463441B78DA001300203BFC
:101E6000002B03DB3C6A9C40FC620AE020239B1AA7
:101E70003C6ADC4023007C6A9440FC62FC6A1C43A0
:101E8000FC623B6A9340BB627B6B5B68BA6A02434D
:101E90003A61FA6A0A437A6139697A699966DA6657
:101EA0000F222821531808208446BC4463441B7821
:101EB000521808218C46BC446244013313707B6B7A
:101EC0005A687823D25C0F2328201B1808218C46DF
:101ED000BC4463441B78934290D37B6B59680022C7
:101EE00000230A674B670E231B1808229446BC4444
:101EF000634400221A7077E07B6B5B6878229A5CFF
:101F00007B6B5B6879215B5CD318DAB20E242821E5
:101F1000631808208446BC4463441B78D31ADAB2A1
:101F20000B230D005B1808218C46BC44634402322D
:101F30001A707B6B5B681A6F5B6F796B49684868D6
:101F40000B214E1908217918711809784118097860
:101F5000B9610021F9612900611808208446BC4458
:101F600061440978C90008002038002812DBBC69E8
:101F700084407C6019E0C04620960108F49B01086B
:101F800053030000349601085496010898980108FC
:101F9000550300002020401ABC69C4402000FC69A1
:101FA0008C407C607C6804437C60B8698840386001
:101FB000796B496810003C682043B8607A68134325
:101FC000FB60BB68FC680B674C670E2128200B1870
:101FD00008229446BC4463441A780B1808218C46A6
:101FE000BC44634401321A707B6B5B6879229B5C52
:101FF0000E222821521808218C46BC4462441278D3
:102000009A4200D278E77B6B5B689A6EDB6E1100B8
:10201000194306D07B6B5B681A6F5B6F1100194325
:1020200006D17B6B132234211800FEF78DFA31E0C4
:102030007B6B5B681A6E7B6B5B6860330A252826B6
:10204000A919082038180C181800904703002370AD
:10205000AB1908229446BC4463441B7801225340C8
:10206000DBB2002B06D07B6B262234211800FEF752
:102070006BFA0FE07B6B5B689A6EDB6E796B0A61C3
:102080004B617B6B01229A737B6B180001F098FE09
:1020900000E0C046BD4611B0F0BDB0B584B000AFA1
:1020A00078607B68002B05D1344B354A354936487A
:1020B00005F024FF7B685B68002B05D1334B304A69
:1020C0003349314805F01AFF7B685B685B68002B79
:1020D00006D1304B2A4AF22189002B4805F00EFF29
:1020E0007B685B685B7801221340DBB2002B05D173
:1020F0007B68112237211800FEF726FA0F23FB1800
:1021000000221A707B685B688C229A5C7B68DB7AA1
:102110009A4206D97B68332237211800FEF714FA59
:1021200029E07B685B6890229A587B685B68942101
:102130005B560F257C1978683721FEF785FA030076
:1021400023707B191B7801225340DBB2002B11D185
:102150007B685B6888229B58984779680022002337
:102160000A614B617B6800229A737B68180001F05A
:10217000C3FE00E0C046BD4604B0B0BD20960108D5
:10218000089C0108C6030000349601085496010813
:10219000C703000044970108F0B585B000AF786030
:1021A0007B68002B05D1714B714A7249724805F06A
:1021B000A5FE7B685B68002B05D1704B6C4A7049AB
:1021C0006D4805F09BFE7B685B685B68002B06D161
:1021D0006C4B674AFD218900674805F08FFE7B68DC
:1021E0005B68A0229B58002B05D1674B604A67496A
:1021F000614805F083FE7B685B685B7802221340D0
:10220000DBB2002B05D17B68112236211800FEF7C6
:102210009BF90F23FB1800221A700E217B18022253
:102220001A707B689B7A1A007B181B78D31ABB60E4
:10223000BB68002B06DA7B68132236211800FEF7F4
:1022400083F98FE07B685B689C229B5A1A00BB680D
:10225000934202DCBB68002B06DA7B683122362110
:102260001800FEF771F97DE07B685B68A4229A5C38
:102270007B68DB7A9A4206D97B68332236211800C4
:10228000FEF762F96EE07B685B68A8229A587B686B
:102290005B68AC215B560F217E1878683621FEF70B
:1022A000D3F9030033700F217B181B7801225340B0
:1022B000DBB2002B55D17B685B68BA6891B29E2275
:1022C00099527B685B68982298587B685B685B686A
:1022D0000233BA68190005F053FE7B685B685A68E0
:1022E0007B685B685178AD2299547B689A7B7B68E8
:1022F0005B68AD215B5C9A4206D07B687322362115
:102300001800FEF721F92DE07B6859687B681A698F
:102310005B69B0310A604B607B685B68A0229A58A9
:102320007B685B689833180090477B685B68AD22D8
:102330009A5C7B681100180001F038FE7B689B7B7B
:102340000133DAB27B689A737B681A695B69B96892
:102350000C00C9170D0012196B4179680A614B61B5
:1023600000E0C046BD4605B0F0BDC046209601085D
:10237000209C0108F20300003496010854960108DD
:10238000F303000044970108D0980108F50300000A
:10239000F0B587B000AF78607B68002B05D16F4B3C
:1023A0006F4A7049704805F0A9FD7B685B68002B97
:1023B00005D16E4B6A4A6E496B4805F09FFD7B68FC
:1023C0005B685B68002B05D16A4B654A6A496648C1
:1023D00005F094FD7B685B681B7840221340DBB2FC
:1023E000002B06D17B68112222211800FEF7ACF8E1
:1023F000B1E00F217B1803221A7001235B427B613D
:102400000E23FB1800221A707B689B7A7A181278C8
:102410009A4206D97B68132222211800FEF794F80D
:1024200099E07B685B685B6801331B781B021AB21A
:102430007B685B685B6802331B781BB213431AB27C
:102440000C23FB181A8000233B6114E07B685B6857
:10245000996D3A6913009B009B189B00CB181B8851
:102460000C22BA1812889A4202D13B697B6108E0BB
:102470003B6901333B617B685B68DB6D3A699A427B
:10248000E4DB7B69013306D17B683122222118000D
:10249000FEF75AF85FE07B685B68996D7A69130014
:1024A0009B009B189B00CB189A7A7B68DB7A9A4238
:1024B00006D97B68332222211800FEF745F84AE04E
:1024C0007B685B68996D7A6913009B009B189B0081
:1024D000CB18DD687B685B68996D7A6913009B0097
:1024E0009B189B00CB181B7C5BB20E26BC1978682E
:1024F0002A002221FEF7A8F803002370BB191B78DD
:1025000001225340DBB2002B24D17B685B68996DBC
:102510007A6913009B009B189B00CB181B7A002B39
:102520000BD07B685B68996D7A6913009B009B18E0
:102530009B00CB185B68002B05D1104B084A104953
:10254000094805F0DBFC7A697B681100180001F08E
:1025500091FB00E0C046BD4607B0F0BD20960108E3
:10256000349C01084D04000034960108549601087B
:102570004E040000449701084F0400005C980108D5
:1025800093040000B0B586B000AF78607B68002B84
:1025900005D1474B474A4849484805F0AFFC7B689E
:1025A0005B68002B05D1464B424A4649434805F03B
:1025B000A5FC7B685B685B68002B05D1424B3D4AFC
:1025C00042493E4805F09AFC0F217B1803221A70FD
:1025D0001723FB1800221A700E23FB1800221A7012
:1025E0007B689B7A7A1812789A4206D97B68132204
:1025F00019211800FDF7A8FF57E07B685B685A684F
:102600000E23FB1892781A7000233B6135E07B683B
:102610005B68BC2299583A6913005B009B189B00C9
:10262000CB181B780E22BA1812781340DBB2002B9D
:1026300020D07B685B68BC2299583A6913005B0024
:102640009B189B00CB181C787B681D7E7B685B68A1
:10265000BC2299583A6913005B009B189B00CB1869
:10266000013378682A00210001F00EFD1723FB18C2
:1026700001221A703B6901333B617B685B68C022B1
:102680009B583A699A42C2DB1723FB181B78012238
:102690005340DBB2002B08D07B681A7E0E23FB1858
:1026A00019787868002301F0EFFCBD4606B0B0BD94
:1026B000209601084C9C01089B04000034960108F8
:1026C000549601089C040000449701089D040000F2
:1026D00080B586B000AF78607B68002B05D1464B93
:1026E000464A4749474805F009FC7B685B68002B70
:1026F00005D1454B414A4549424805F0FFFB7B68FF
:102700005B685B68002B05D1414B3C4A41493D4821
:1027100005F0F4FB0F217B1806221A7001235B429F
:102720007B617B689B7A7A1812789A4206D97B681B
:10273000132219211800FDF707FF59E000233B6120
:102740003BE07B685B68BC2299583A6913005B00E8
:102750009B189B00CB185A787B685B685B680233D8
:102760001B789A4226D17B685B68BC2299583A69EB
:1027700013005B009B189B00CB189A787B685B6802
:102780005B6803331B789A4214D17B685B68BC2278
:1027900099583A6913005B009B189B00CB18DA78B4
:1027A0007B685B685B6804331B789A4202D13B69A3
:1027B0007B6109E03B6901333B617B685B68C02258
:1027C0009B583A699A42BCDB7B69013306D17B682E
:1027D000312219211800FDF7B7FE09E07B685B681C
:1027E0005B6805331A7879697B68180001F09AFDF7
:1027F000BD4606B080BDC04620960108689C010811
:10280000CD0400003496010854960108CE0400005F
:1028100044970108CF04000080B584B000AF786011
:102820007B68002B05D1394B394A3A493A4805F0C3
:1028300065FB7B685B68002B05D1384B344A38490F
:10284000354805F05BFB7B685B685B68002B05D156
:10285000344B2F4A3449304805F050FB0F23FB1806
:1028600002221A707B685B685B7804221340DBB23B
:10287000002B06D17B68112219211800FDF764FE98
:1028800040E07B685B68C8229B58002B05D1274B32
:102890001F4A2749204805F031FB7B685B68C4224A
:1028A0009B58002B05D1234B194A23491A4805F0A0
:1028B00025FB7B689B7A0F22BA1812789A4206D9B8
:1028C0007B68132219211800FDF73EFE1AE07B6891
:1028D0005B685B6801331B78022B02D0042B05D0A8
:1028E00009E07B681800FFF74DFE0BE07B681800DD
:1028F000FFF7EEFE06E07B68122219211800FDF7B3
:1029000023FEC046BD4604B080BDC04620960108E7
:10291000909C0108010500003496010854960108B6
:10292000020500004497010803050000049901080E
:1029300012050000389901081305000090B587B012
:1029400000AF78607B68002B05D1824B824A8349B7
:10295000834805F0D3FA7B685B68002B05D1814B77
:102960007D4A81497E4805F0C9FA7B685B685B68EF
:10297000002B05D17D4B784A7D49794805F0BEFA98
:102980000F23FB1804221A700C23FB1818000323D2
:102990001A00002102F070FE7B685B685B780822F9
:1029A0001340DBB2002B06D17B68112214211800E2
:1029B000FDF7CAFDCAE07B685B68C8229B58002B04
:1029C00005D16C4B644A6C49654805F097FA7B6801
:1029D0005B68C4229B58002B05D1684B5E4A68494E
:1029E0005F4805F08BFA7B689B7A0F22BA18127841
:1029F0009A4206D97B68132214211800FDF7A4FD22
:102A0000A4E07B685B685B685A780C217B181A70BD
:102A10007B685B685B689A787B185A707B685B6838
:102A20005B68DA787B189A707B181B78FF2B33D1A0
:102A30007B185B78FF2B2FD17B189B78FF2B2BD13A
:102A400000237B6120E07B685B68BC2299587A692F
:102A500013005B009B189B00CB1800221A707B6848
:102A60005B68C4229C5878697B685B68BC22995873
:102A70007A6913005B009B189B00CB180122190098
:102A8000A0477B6901337B617B685B68C0229B58F0
:102A90007A699A42D7DB59E000233B614FE07B68BB
:102AA0005B68BC2299583A6913005B009B189B0035
:102AB000CB185A780C203B181B789A423CD17B6883
:102AC0005B68BC2299583A6913005B009B189B0015
:102AD000CB189A783B185B789A422DD17B685B685B
:102AE000BC2299583A6913005B009B189B00CB18D5
:102AF000DA783B189B789A421ED17B685B68BC22CF
:102B000099583A6913005B009B189B00CB18002270
:102B10001A707B685B68C4229C5838697B685B6864
:102B2000BC2299583A6913005B009B189B00CB1894
:102B300001221900A04709E03B6901333B617B6832
:102B40005B68C0229B583A699A42A8DBBD4607B031
:102B500090BDC04620960108A49C010831050000E4
:102B60003496010854960108320500004497010884
:102B70003305000004990108450500003899010853
:102B80004605000080B582B000AF78607B68002BFE
:102B900006D1444B444AAF21C900444805F0AEF980
:102BA0007B681B78012B05D0414B3F4A41493F4888
:102BB00005F0A4F97B6800225A737B681800FEF7C1
:102BC000C5FD7B685B7B002B66D17B689B7A002B05
:102BD00064D07B685B685B681B78103B2E2B40D809
:102BE0009A00354BD3181B689F467B681800FDF789
:102BF0004BFE40E07B681800FDF7BAFE3BE07B68C7
:102C00001800FDF7EBFE36E07B681800FEF7ACFA23
:102C100031E07B681800FEF789FB2CE07B68180028
:102C2000FEF7ACFE27E07B681800FFF707F822E00C
:102C30007B681800FFF731FA1DE07B681800FFF78A
:102C4000ABFA18E07B681800FFF7A2FB13E07B6883
:102C50001800FFF7E1FD0EE07B681800FFF76EFE3D
:102C600009E07B685B685B6819787B681122180053
:102C7000FDF76AFCC0467B6800229A727B685B683D
:102C80005B6800221A707B681A7A7B685A727B68CC
:102C9000DA7A7B681A7302E0C04600E0C046BD469F
:102CA00002B080BD20960108BC9C01083496010842
:102CB0006C990108790500008899010880B500AF7A
:102CC000034B1800FFF75EFFC046BD4680BDC046FF
:102CD0006805002090B585B000AF78607B68002B58
:102CE00005D12C4B2C4A2D492D4805F007F97B685E
:102CF0005B68002B05D12B4B274A2B49284805F050
:102D0000FDF87B685B68BC229B58002B05D1274BE4
:102D1000214A2749224805F0F1F87B685B68C82200
:102D20009B58002B05D1234B1B4A23491C4805F017
:102D3000E5F87B685B68C4229B58002B05D11F4BCC
:102D4000154A1F49164805F0D9F80023FB6014E026
:102D50007B685B68C8229C58F8687B685B68BC220B
:102D60009958FA6813005B009B189B00CB1801224E
:102D70001900A047FB680133FB607B685B68C022D9
:102D80009B58FA689A42E3DBC046C046BD4605B090
:102D900090BDC04620960108CC9C0108C3050000E8
:102DA0003496010854960108C4050000449A0108AD
:102DB000C505000004990108C605000038990108FE
:102DC000C705000080B582B000AF786039607B68CD
:102DD000002B05D1334B344A3449354805F08EF881
:102DE0003B68002B05D1334B2F4A3349304805F05F
:102DF00085F87B683A685A603B68B9229A5C7B68C0
:102E00001A723B68B9229A5C7B685A727B6800220E
:102E10009A723B68B8229A5C7B68DA723B68B82287
:102E20009A5C7B681A737B6800221A767B681A7E2C
:102E300008210A431A767B681A7E01210A431A7612
:102E40003B685B7804221340DBB2002B03D07B6825
:102E50001800FFF73FFF7B6801221A703B68CC2205
:102E60009B5C002B0AD07B685B681A8D7B685B6873
:102E70005B8D7868022100F098FB0EE03B68CD2264
:102E80009B5C002B09D07B685B681A8D7B685B6854
:102E90005B8D7868032100F088FBC046BD4602B018
:102EA00080BDC04620960108DC9C0108D4050000C6
:102EB00034960108709A0108D505000080B500AF6E
:102EC000044A054B11001800FFF77CFFC046BD46C1
:102ED00080BDC046B00200206805002080B582B0E9
:102EE00000AF78607B68002B05D10B4B0B4A0C4977
:102EF0000C4805F003F87B685B68002B05D10A4B92
:102F0000064A0A49074804F0F9FF7B685B68180025
:102F1000BD4602B080BDC04620960108E89C01086D
:102F200003060000349601085496010804060000C8
:102F300080B500AF014B1800BD4680BDB002002037
:102F400080B584B000AFF860B960FB1D1A70FB68F3
:102F5000002B06D11E4B1F4AC221C9001E4804F097
:102F6000CDFFFB681B78012B05D01C4B194A1C496F
:102F7000194804F0C3FFBB68002B05D1194B154A53
:102F80001949154804F0BAFFFB1D1B78002B05D129
:102F9000164B104A1649104804F0B0FFFB685B68F6
:102FA0001B7AFA1D12789A420DD8FB685B68586844
:102FB000FB1D1A78BB68190004F0E2FFFB68FA1DDC
:102FC00012789A7200E0C046BD4604B080BDC0468B
:102FD00020960108FC9C0108349601086C990108B0
:102FE00011060000809A010812060000949A010858
:102FF0001306000080B582B000AF78600A00FB1CA9
:103000001A70FB1C1A787968034B1800FFF798FFB9
:10301000C046BD4602B080BD6805002080B582B0C4
:1030200000AF78607B68002B05D1064B064A074944
:10303000074804F063FF7B681B7A1800BD4602B0A6
:1030400080BDC04620960108109D01082D06000095
:103050003496010880B500AF034B1800FFF7DEFF80
:1030600003001800BD4680BD6805002080B582B011
:1030700000AF78607B68002B05D1064B064A0749F4
:10308000074804F03BFF7B68DB7A1800BD4602B0BE
:1030900080BDC04620960108249D01083906000025
:1030A0003496010880B500AF034B1800FFF7DEFF30
:1030B00003001800BD4680BD6805002080B586B0BD
:1030C00000AF786039607B68002B05D14C4B4D4ACE
:1030D0004D494E4804F012FF7B685B68002B05D118
:1030E0004B4B484A4B49494804F008FF7B685B68F2
:1030F000BC229B58002B05D1474B424A47494348C5
:1031000004F0FCFE3B68002B06DA454B3D4AC92122
:10311000C9003E4804F0F2FE7B685B68C0229B5801
:103120003A689A4205DB3F4B364A3F49374804F03C
:10313000E5FE7B685B68C0229B587B6100233B6196
:1031400054E00023FB603FE07B685B68BC22995839
:103150003A6913005B009B189B00CB185B68002B3F
:103160002ED07B685B68BC2299583A6913005B00DB
:103170009B189B00CB181B89002B21D07B685B68B8
:10318000BC2299583A6913005B009B189B00CB182E
:103190005A68FB685B00D2180A203B1812881A8014
:1031A0007B685B68996D3B181A8813009B009B181D
:1031B0009B00CB181B7A1A007B699B187B6100E08F
:1031C000C046FB680133FB607B685B68BC22995892
:1031D0003A6913005B009B189B00CB181B891A00EF
:1031E000FB689342B0D33B6901333B613B683A696A
:1031F0009A42A6D37B691800BD4606B080BDC04682
:1032000020960108409D01084506000034960108FB
:103210005496010846060000449A0108470600003B
:10322000A49A0108B49A010849060000B0B588B014
:1032300000AFF860B960FB1D1A70FB68002B05D168
:10324000B34BB44AB449B54804F058FEFB685B6818
:10325000002B05D1B24BAF4AB249B04804F04EFE44
:10326000FB685B68BC229B58002B05D1AE4BA94A7A
:10327000AE49AA4804F042FEBB68002B06DAAC4B0C
:10328000A44ACD21C900A54804F038FEFB685B685C
:10329000C0229B58BA689A4205DBA64B9D4AA649B4
:1032A0009E4804F02BFEFB685B68C8229B58002BED
:1032B00005D1A24B974AA249984804F01FFEFB682B
:1032C0005B68C4229B58002B05D19E4B914A9E49B6
:1032D000924804F013FE0023FB611123FB18002227
:1032E0001A70FB1D1B78002B28D0FB685B68BC2282
:1032F0009958BA6813005B009B189B00CB180022FA
:103300001A70FB685B68BC229958BA6813005B00AE
:103310009B189B00CB181A7808210A431A70FB6887
:103320005B68BC229958BA6813005B009B189B002D
:10333000CB181A7801210A431A700BE0FB685B680E
:10334000BC229958BA6813005B009B189B00CB18ED
:1033500000221A70FB685B68C4229C58B868FB683E
:103360005B68BC229958BA6813005B009B189B00ED
:10337000CB1801221900A047FB685B68BC22995852
:10338000BA6813005B009B189B00CB185B68002B8E
:1033900000D1B9E0FB685B68BC229958BA68130099
:1033A0005B009B189B00CB181B89002B00D1ABE066
:1033B000BA68FB6811001800FFF780FE0300FB618C
:1033C0000023BB618FE0FB685B68BC229958BA6838
:1033D00013005B009B189B00CB185A68BB695B000D
:1033E000D21812203B1812881A80FB685B68996D0E
:1033F0003B181A8813009B009B189B00CB181B7A64
:10340000002B13D0FB685B68996D3B181A8813007A
:103410009B009B189B00CB185B68002B06D14B4B85
:103420003C4AD221C9003D4804F068FDFB1D1B78D1
:10343000002B20D0FB685B68C4229C58FB685B684B
:10344000996D12257B191A8813009B009B189B000D
:10345000CB185868FB685B68996D7B191A88130054
:103460009B009B189B00CB181B7A9AB2FB6901004A
:103470001800A04724E01123FB1800221A70002333
:103480007B610DE0FB685B68C4229B58F9697A692F
:1034900088181122B918012298477B6901337B6192
:1034A000FB685B68996D1223FB181A8813009B0058
:1034B0009B189B00CB181B7A1A007B699342E1D3BF
:1034C000FB685B68996D1223FB181A8813009B0038
:1034D0009B189B00CB181B7A1A00FB699B18FB6199
:1034E000BB690133BB61FB685B68BC229958BA6851
:1034F00013005B009B189B00CB181B891A00BB694B
:10350000934200D25FE700E0C046BD4608B0B0BDC0
:10351000209601085C9D01086506000034960108AC
:103520005496010866060000449A010867060000E8
:10353000A49A0108B49A01086906000004990108D8
:103540006A060000389901086B0600005C980108C3
:1035500080B582B000AF78600A00FB1C1A70FB1CBB
:103560001A787968034B1800FFF760FEC046BD4625
:1035700002B080BD6805002090B583B000AF7860D0
:103580000A00FB1C1A707B685B689C697B685B683F
:1035900058697B685B68D968FB1C1B789BB21A0072
:1035A000A047C046BD4603B090BD90B587B000AF00
:1035B000F8600C00100019000B23FB18221C1A7075
:1035C0000823FB18021C1A80BB1D0A1C1A80172333
:1035D000FB1806221A70FB68002B05D1354B364AC2
:1035E00036481E2104F08AFCFB685B68002B05D17D
:1035F000334B314A31481F2104F080FCFB685B6883
:10360000DB68002B05D12F4B2B4A2C48202104F0DE
:1036100075FCFB685B689B69002B05D12A4B264A29
:103620002648212104F06AFCFB685B681B7C17229A
:10363000BA1812789A4205D3244B1F4A1F482221F8
:1036400004F05CFC00233B61FB685B68DB683B616A
:103650003B6950221A703B6901330B22BA18127869
:103660001A7008217B181B881B0A9AB23B69023327
:10367000D2B21A703B6903337A181288D2B21A7028
:10368000BB1D1B881B0A9AB23B690433D2B21A7065
:103690003B690533BA1D1288D2B21A701723FB1882
:1036A0001A78FB6811001800FFF766FFC046BD4698
:1036B00007B090BD709D0108F09E0108849D01082F
:1036C000A89D0108C49D0108E89D01081C9E0108F1
:1036D00080B584B000AF78600F23FB1802221A7007
:1036E0007B68002B05D1264B264A2748362104F05B
:1036F00005FC7B685B68002B05D1244B214A2248DE
:10370000372104F0FBFB7B685B68DB68002B05D18D
:103710001F4B1C4A1C48382104F0F0FB7B685B6897
:103720009B69002B05D11B4B164A1748392104F021
:10373000E5FB7B685B681B7C0F22BA1812789A4203
:1037400005D3154B0F4A10483A2104F0D7FB00234C
:10375000BB607B685B68DB68BB60BB687E221A70FD
:10376000BB68013300221A700F23FB181A787B689C
:1037700011001800FFF700FFC046BD4604B080BD31
:10378000709D0108049F0108849D0108A89D0108FF
:10379000C49D0108E89D01081C9E010880B584B005
:1037A00000AF78600A00FB1C1A700F23FB1802227E
:1037B0001A707B68002B05D1264B274A27484D21DC
:1037C00004F09CFB7B685B68002B05D1244B224AEC
:1037D00022484E2104F092FB7B685B68DB68002B7B
:1037E00005D1204B1C4A1D484F2104F087FB7B6804
:1037F0005B689B69002B05D11B4B174A174850216A
:1038000004F07CFB7B685B681B7C0F22BA18127883
:103810009A4205D3154B104A1048512104F06EFB13
:103820000023BB607B685B68DB68BB60BB685122C0
:103830001A70BB680133FA1C12781A700F23FB1838
:103840001A787B6811001800FFF796FEC046BD4647
:1038500004B080BD709D0108209F0108849D01086F
:10386000A89D0108C49D0108E89D01081C9E01084F
:1038700080B586B000AFF86008007A6019000B23AD
:10388000FB18021C1A700A203B180A1C1A70172316
:10389000FB183A18127802321A70FB68002B05D117
:1038A000304B314A3148672104F028FB7B68002BFC
:1038B00005D12F4B2C4A2D48682104F01FFBFB68D3
:1038C0005B68002B05D12B4B274A2848692104F05F
:1038D00015FBFB685B68DB68002B05D1264B224A91
:1038E00022486A2104F00AFBFB685B689B69002B95
:1038F00005D1224B1C4A1D486B2104F0FFFAFB68DE
:103900005B681B7C1722BA1812789A4205D31C4BAD
:10391000154A16486C2104F0F1FA00233B61FB685C
:103920005B68DB683B613B6967221A703B69013366
:103930000B22BA1812781A703B69981C0A23FB18DC
:103940001A787B68190004F01BFB1723FB181A7800
:10395000FB6811001800FFF70FFEC046BD4606B019
:1039600080BDC046709D0108349F0108849D0108F8
:10397000449E0108A89D0108C49D0108E89D010816
:103980001C9E010880B584B000AF78600A00FB1C63
:103990001A700F23FB1802221A707B68002B05D1C6
:1039A000264B274A2748802104F0A8FA7B685B68E9
:1039B000002B05D1244B224A2248812104F09EFA93
:1039C0007B685B68DB68002B05D1204B1C4A1D48D7
:1039D000822104F093FA7B685B689B69002B05D118
:1039E0001B4B174A1748832104F088FA7B685B68F1
:1039F0001B7C0F22BA1812789A4205D3154B104A35
:103A00001048842104F07AFA0023BB607B685B686D
:103A1000DB68BB60BB6867221A70BB680133FA1CA5
:103A200012781A700F23FB181A787B68110018009F
:103A3000FFF7A2FDC046BD4604B080BD709D0108E1
:103A40004C9F0108849D0108A89D0108C49D0108A0
:103A5000E89D01081C9E010880B586B000AFF860A3
:103A6000080011007B600B23FB18021C1A7008234E
:103A7000FB180A1C1A801723FB1804221A70FB6813
:103A8000002B05D13A4B3B4A3B489B2104F036FAC8
:103A9000FB685B68002B05D1384B364A36489C21C1
:103AA00004F02CFAFB685B68DB68002B05D1344B13
:103AB000304A31489D2104F021FAFB685B689B691C
:103AC000002B05D12F4B2B4A2B489E2104F016FAD0
:103AD00017203A1839182023FB1809781B78CB18BF
:103AE0001370FB685B681B7C3A1812789A4205D306
:103AF000254B204A2048A22104F000FA00233B6114
:103B0000FB685B68DB683B613B6971221A703B694B
:103B100001330B22BA1812781A7008217B181B88FF
:103B20001B0A9AB23B690233D2B21A703B69033363
:103B30007A181288D2B21A702022BB181B78002B78
:103B40000AD07B68002B07D03B69181DBB181A7878
:103B50007B68190004F014FA1723FB181A78FB6825
:103B600011001800FFF708FDC046BD4606B080BD35
:103B7000709D0108649F0108849D0108A89D0108AB
:103B8000C49D0108E89D01081C9E010880B584B011
:103B900000AF78600A00BB1C1A800F23FB180322B9
:103BA0001A707B68002B05D12B4B2C4A2C48BB216B
:103BB00004F0A4F97B685B68002B05D1294B274AE8
:103BC0002748BC2104F09AF97B685B68DB68002B0E
:103BD00005D1254B214A2248BD2104F08FF97B688D
:103BE0005B689B69002B05D1204B1C4A1C48BE21F9
:103BF00004F084F97B685B681B7C0F22BA1812788A
:103C00009A4205D31A4B154A1548BF2104F076F99C
:103C10000023BB607B685B68DB68BB60BB686E22AF
:103C20001A70BB1C1B881B0A9AB2BB680133D2B244
:103C30001A70BB680233BA1C1288D2B21A700F23F2
:103C4000FB181A787B6811001800FFF795FCC04636
:103C5000BD4604B080BDC046709D01087C9F010830
:103C6000849D0108A89D0108C49D0108E89D0108E4
:103C70001C9E010890B585B000AF786039607B6804
:103C80005B68996D3A6813009B009B189B00CB18EA
:103C90001A7A0F23FB1803321A707B68002B05D1A8
:103CA000404B414A4148D42104F028F97B685B68C5
:103CB000002B05D13E4B3C4A3C48D52104F01EF96F
:103CC0007B685B68DB68002B05D13A4B364A374886
:103CD000D62104F013F97B685B689B69002B05D142
:103CE000354B314A3148D72104F008F97B685B68CD
:103CF0001B7C0F22BA1812789A4205D32F4B2A4AFE
:103D00002A48D82104F0FAF80023BB607B685B687E
:103D1000DB68BB60BB6862221A707B685B68996D68
:103D20003A6813009B009B189B00CB181B881B0A4A
:103D30009AB2BB680133D2B21A707B685B68996D26
:103D40003A6813009B009B189B00CB181A88BB682D
:103D50000233D2B21A70BB68D81C7B685B68996D5D
:103D60003A6813009B009B189B00CB185C687B682B
:103D70005B68996D3A6813009B009B189B00CB18F9
:103D80001B7A1A00210004F0FBF80F23FB181A78A5
:103D90007B6811001800FFF7EFFBC046BD4605B079
:103DA00090BDC046709D0108989F0108849D010840
:103DB000A89D0108C49D0108E89D01081C9E0108FA
:103DC00080B584B000AF78607B68002B05D1434B91
:103DD000434A4448EA2104F091F87B685B68002B71
:103DE00005D1414B3E4A3F48EB2104F087F87B6800
:103DF0005B68DB68002B05D13C4B394A3948EC2124
:103E000004F07CF87B685B689B69002B05D1384B1C
:103E1000334A3448ED2104F071F80E217B18022258
:103E20001A700D203B187A18127802321A707B68CB
:103E30005B681B7C3A1812789A4205D32D4B284AAE
:103E40002848F62104F05AF87B685B68DB68742226
:103E50001A700E23FB181B781A017B685B68DB68FD
:103E60000133D2B21A700F23FB1800221A7020E01F
:103E70007B685B687A229B5A9A1C0E23FB181B787E
:103E8000591E0F203B181B78CB1ADB001A410C215E
:103E90007B181A707B685B68DB683A18127802320C
:103EA0009B187A1812781A703B181A783B1801324E
:103EB0001A700F23FA180E23FB1812781B789A42F7
:103EC000D6D30D23FB181A787B6811001800FFF772
:103ED00053FBC046BD4604B080BDC046709D01087E
:103EE000B49F0108849D0108A89D0108C49D010894
:103EF000E89D01081C9E010880B582B000AF786083
:103F00007B68002B06D1224B224A8321490022489C
:103F100003F0F4FF7B685B68002B06D11F4B1D4A42
:103F20000821FF311C4803F0E9FF7B685B68DB6810
:103F3000002B06D11A4B174A84214900164803F07A
:103F4000DDFF7B685B689B69002B06D1154B114A2E
:103F50000A21FF31104803F0D1FF7B685B681B7CAE
:103F6000012B06D8104B0B4A0C21FF310A4803F0F5
:103F7000C5FF7B685B68DB6877221A707B6801216C
:103F80001800FFF7F9FAC046BD4602B080BDC04632
:103F9000709D0108D09F0108849D0108A89D01081B
:103FA000C49D0108E89D0108589E010880B584B0B1
:103FB00000AF78600A00FB1C1A707B68002B06D1EA
:103FC0002A4B2B4A8A2149002A4803F097FF7B6835
:103FD0005B68002B06D1284B254A1621FF31254866
:103FE00003F08CFF7B685B68DB68002B06D1234BFA
:103FF0001F4A8B2149001F4803F080FF7B685B68E4
:104000009B69002B06D11E4B194A1821FF31194814
:1040100003F074FF0F217B1802221A707B685B6823
:104020001B7C7A1812789A4206D3164B104A1E212E
:10403000FF31104803F062FF0023BB607B685B68C0
:10404000DB68BB60BB6876221A70BB680133FA1C60
:1040500012781A700F23FB181A787B681100180069
:10406000FFF78AFAC046BD4604B080BD709D0108C6
:10407000EC9F0108849D0108A89D0108C49D0108CA
:10408000E89D01081C9E010880B586B000AFF8606D
:10409000080011007B600B23FB18021C1A700A2316
:1040A000FB180A1C1A70FB68002B06D13C4B3D4ADA
:1040B000972149003C4803F021FFFB685B68002B17
:1040C00006D13A4B374A3021FF31374803F016FF0B
:1040D000FB685B68DB68002B06D1354B314A9821C1
:1040E0004900314803F00AFFFB685B689B69002BBD
:1040F00006D1304B2B4A3221FF312B4803F0FEFE14
:1041000017217B1803221A70FB685B681B7C7A18E6
:1041100012789A4206D3284B224A9C214900224811
:1041200003F0ECFE00233B61FB685B68DB683B61EE
:104130003B6959221A703B69013302221A703B69AC
:1041400002330A22BA1812781A707B68002B1AD030
:104150003B6903337A6812781A703B6904337A68D2
:1041600052781A703B6905337A6892781A703B6905
:1041700006330B22BA1812781A701722BB18BA1815
:10418000127804321A701723FB181A78FB68110092
:104190001800FFF7F1F9C046BD4606B080BDC04625
:1041A000709D010804A00108849D0108A89D0108D4
:1041B000C49D0108E89D01081C9E010880B586B0D9
:1041C00000AF786039607B68002B06D14E4B4F4AB8
:1041D0004E21FF314E4803F091FE7B685B68002B57
:1041E00006D14C4B494AA7214900494803F086FEB5
:1041F0007B685B68BC229B58002B06D1464B434A28
:104200005021FF31424803F079FE3B68002B06DA6B
:10421000424B3E4AA82149003D4803F06FFE7B68AF
:104220005B68C0229B583A689A4206DB3C4B374A8F
:104230005221FF31364803F061FE7B685B68C02283
:104240009B587B6100233B6154E00023FB603FE00F
:104250007B685B68BC2299583A6913005B009B1825
:104260009B00CB185B68002B2ED07B685B68BC2260
:1042700099583A6913005B009B189B00CB181B8967
:10428000002B21D07B685B68BC2299583A691300E7
:104290005B009B189B00CB185A68FB685B00D21828
:1042A0000A203B1812881A807B685B68996D3B185E
:1042B0001A8813009B009B189B00CB181B7A1A00CE
:1042C0007B699B187B6100E0C046FB680133FB60A3
:1042D0007B685B68BC2299583A6913005B009B18A5
:1042E0009B00CB181B891A00FB689342B0D33B6933
:1042F00001333B613B683A699A42A6D37B69180057
:10430000BD4606B080BDC046709D010820A00108D2
:10431000849D0108A89D0108809E0108AC9E0108AB
:10432000BC9E0108F0B58BB000AFF860B960FB1D12
:104330001A70FB68002B06D1B74BB84A6E21FF31CB
:10434000B74803F0DBFDFB685B68002B06D1B54B7B
:10435000B24AB7214900B24803F0D0FDFB685B6860
:10436000DB68002B06D1B04BAC4A7021FF31AC4862
:1043700003F0C4FDFB685B689B69002B06D1AB4B67
:10438000A64AB8214900A64803F0B8FD27217B18AA
:1043900008221A70FB685B681B7C7A1812789A42B4
:1043A00006D3A34B9D4A7A21FF319D4803F0A6FD19
:1043B0000023FB612423FB1800221A802223FB1810
:1043C00000221A800023BB61BA68FB681100180044
:1043D000FFF7F4FE0300BB61FB685B68DB68FB6111
:1043E000FB6959221A70FB69013304221A70FB68B9
:1043F0005B68BC229958BA6813005B009B189B004D
:10440000CA18FB69023352781A70FB685B68BC22D9
:104410009958BA6813005B009B189B00CA18FB6987
:10442000033392781A70FB685B68BC229958BA68AB
:1044300013005B009B189B00CA18FB690433D278F9
:104440001A70FB685B68C8229B58B868FA69511DEE
:1044500001229847FB690633FA1D12781A70FB682F
:104460005B68BC229958BA6813005B009B189B00DC
:10447000CB181A89FB690733D2B21A702023FB18B4
:1044800000221A80ABE0FB685B68BC229958BA68CE
:1044900013005B009B189B00CB185A682023FB1865
:1044A0001B885B00D21816217B1812881A807B1893
:1044B0001A88FB685B68DB6D9A4206DB5D4B574AE6
:1044C000CF214900564803F019FDFB685B68996DE0
:1044D00016203B181A8813009B009B189B00CA18D3
:1044E00014243B1912881A803B191B881B0A9AB2A4
:1044F0002426BB191B8808331900FB695B18D2B24C
:104500001A70BB191B880933FA69D3183A19128833
:10451000D2B21A70BB19BA19128802321A80272235
:10452000BB18BA18127802321A70FB685B68C8228E
:104530009C5822217B181A88BB69D018BB191B888C
:1045400008331A00FB699D18FB685B68996D162398
:10455000FB181A8813009B009B189B00CB181B7A32
:104560009BB21A002900A047FB685B68996D162072
:104570003B181A8813009B009B189B00CB181B7AD2
:1045800099B2BB19BA1912888A181A80FB685B683D
:10459000996D3B181A8813009B009B189B00CB1841
:1045A000197A2722BB18BA1812788A181A70FB6871
:1045B0005B68996D3B181A8813009B009B189B0041
:1045C000CB181B7A99B22222BB18BA1812888A1803
:1045D0001A8020217B181A887B1801321A80FB6808
:1045E0005B68BC229958BA6813005B009B189B005B
:1045F000CB181B892022BA1812889A4200D242E7AF
:104600002723FB181A78FB6811001800FEF7B4FF87
:10461000C046BD460BB0F0BD709D010840A001082A
:10462000849D0108A89D0108C49D0108E89D01081A
:104630001C9E0108E89E010880B584B000AF786038
:104640007B68002B06D1284B284ADC2149002848EA
:1046500003F054FC7B685B68002B06D1254B234A92
:10466000BA21FF31224803F049FC7B685B68DB68B4
:10467000002B06D1204B1D4ADD2149001C4803F0C8
:104680003DFC7B685B689B69002B06D11B4B174A7E
:10469000BC21FF31164803F031FC0F217B180122A9
:1046A0001A707B685B681B7C7A1812789A4206D372
:1046B000134B0E4ADF2149000D4803F01FFC002375
:1046C000BB607B685B68DB68BB60BB6854221A70A8
:1046D0000F23FB181A787B6811001800FEF74CFFB7
:1046E000C046BD4604B080BD709D01086CA00108A5
:1046F000849D0108A89D0108C49D0108E89D01084A
:104700001C9E010802B47146490849000956490037
:104710008E4402BC7047C04602B471464908490045
:10472000095C49008E4402BC7047C0460022430821
:104730008B4274D303098B425FD3030A8B4244D369
:10474000030B8B4228D3030C8B420DD3FF220902AB
:1047500012BA030C8B4202D31212090265D0030B6A
:104760008B4219D300E0090AC30B8B4201D3CB0360
:10477000C01A5241830B8B4201D38B03C01A5241A2
:10478000430B8B4201D34B03C01A5241030B8B42A4
:1047900001D30B03C01A5241C30A8B4201D3CB028F
:1047A000C01A5241830A8B4201D38B02C01A524174
:1047B000430A8B4201D34B02C01A5241030A8B4277
:1047C00001D30B02C01A5241CDD2C3098B4201D38F
:1047D000CB01C01A524183098B4201D38B01C01A0D
:1047E000524143098B4201D34B01C01A5241030984
:1047F0008B4201D30B01C01A5241C3088B4201D333
:10480000CB00C01A524183088B4201D38B00C01ADF
:10481000524143088B4201D34B00C01A5241411A06
:1048200000D20146524110467047FFE701B5002013
:1048300000F0F0F802BDC0460029F7D076E77047D7
:1048400003460B437FD4002243088B4274D30309F1
:104850008B425FD3030A8B4244D3030B8B4228D392
:10486000030C8B420DD3FF22090212BA030C8B42B8
:1048700002D31212090265D0030B8B4219D300E058
:10488000090AC30B8B4201D3CB03C01A5241830BDD
:104890008B4201D38B03C01A5241430B8B4201D38D
:1048A0004B03C01A5241030B8B4201D30B03C01AB6
:1048B0005241C30A8B4201D3CB02C01A5241830A30
:1048C0008B4201D38B02C01A5241430A8B4201D35F
:1048D0004B02C01A5241030A8B4201D30B02C01A89
:1048E0005241CDD2C3098B4201D3CB01C01A5241F0
:1048F00083098B4201D38B01C01A524143098B4279
:1049000001D34B01C01A524103098B4201D30B0161
:10491000C01A5241C3088B4201D3CB00C01A524186
:1049200083088B4201D38B00C01A524143088B424B
:1049300001D34B00C01A5241411A00D201465241E4
:10494000104670475DE0CA0F00D04942031000D303
:104950004042534000229C4603098B422DD3030A58
:104960008B4212D3FC22890112BA030A8B420CD368
:10497000890192118B4208D3890192118B4204D391
:1049800089013AD0921100E08909C3098B4201D311
:10499000CB01C01A524183098B4201D38B01C01A4B
:1049A000524143098B4201D34B01C01A52410309C2
:1049B0008B4201D30B01C01A5241C3088B4201D371
:1049C000CB00C01A524183088B4201D38B00C01A1E
:1049D0005241D9D243088B4201D34B00C01A5241F5
:1049E000411A00D20146634652415B10104601D382
:1049F0004042002B00D54942704763465B1000D30C
:104A0000404201B5002000F005F802BD0029F8D0B1
:104A100016E770477047C04670B50600080000F002
:104A2000B9FD0022064B00F049FB0D0004003000E8
:104A300000F0B0FD2B00220000F004F870BDC0466D
:104A40000000F041F0B54F464646D6460D00040042
:104A5000C0B51F0011002803620F400A10437A00FE
:104A6000520DE3003C039146640AFA0F4F0F6E00AB
:104A700027439246B846760DED0FC900954200D106
:104A800099E04C46341BA446002C00DC7CE04A46EE
:104A9000002A00D1B8E0C54A964200D11CE180222C
:104AA0003C0012041443A0466246382A00DD61E14E
:104AB0001F2A00DDCCE164462022121B44469440AC
:104AC0000F00A14664469140E7404C464A1E914182
:104AD0003C43424621436446E240801A5C1AA342AA
:104AE0009B415F42C71B3B0200D4D0E07F027F0A9C
:104AF000002F00D1FFE0380000F072FD01000839FE
:104B0000202322005B1A8F40DA408C401743B142C9
:104B100000DAFFE0891B4B1C1F2B00DDA8E02022E0
:104B20003900D21A200094409140D840621E94412E
:104B3000DF40002601430C43630709D00F232340C5
:104B4000042B05D0231DA342A44164423F191C003D
:104B50003B0200D49EE0954B01369E4200D1B7E067
:104B6000934AE40817407B0771057F0223433F0BFC
:104B70004A0D12053A43ED072A4318001100E0BC24
:104B8000BA46B146A846F0BD002C4BD04C46A41BFB
:104B9000A446002E00D023E104001C4300D1AFE165
:104BA0006246541E012A00D115E2804DAC4500D169
:104BB000C8E1A4461BE14A46B21A9446002A00DC2A
:104BC000ACE04A46002A43D0784A964200D1AFE191
:104BD00080223C0012041443A0466246382A67DC57
:104BE0001F2A00DC5FE14746203AD7406246202A70
:104BF00005D064464022121B4446944021434A1E7D
:104C000091410C003C4357E03A000A4300D105E1D2
:104C10002200013A012C00D182E1644CA4455BD012
:104C2000944641E7634C771C274200D0C4E004005F
:104C30001C43002E00D069E1002C00D1BFE14446A6
:104C40000C4300D0D0E14207DB081343C00829E041
:104C50003A000A4300D170E162466446013A012CF1
:104C600000D1E0E0514CA44500D161E19446B4E7A5
:104C70003A001F39CA401100202B03D04022D31A1A
:104C80009F403C43631E9C41002700260C43630762
:104C900000D053E7B446E4087B072343F808434AAF
:104CA00094451DD06246070352053F0B520D60E745
:104CB00044460C43621E9441E4189C429B415F426F
:104CC0003F183B02E3D5394B01369E4200D0B5E098
:104CD0003200002700234CE74207DB081343C008DB
:104CE0001A00024300D1E1E180273F0307433F035D
:104CF0002E4A3F0B3DE7200000F072FC0100183106
:104D00001F2900DCFCE60838844027000024B1425B
:104D100000DBFFE6264A761A17400DE7002A2FD05F
:104D20004A46921B9446002E00D1ADE01F4A9145A1
:104D300000D10FE18022120410436246382A00DDC0
:104D40000FE11F2A00DD80E1644620221E00121BB5
:104D50006746040093409440FE405A1E9341F84039
:104D600034431C43804464188C42BF417F424E460A
:104D70004744A6E742460A4311004A1E9141ADE668
:104D80000C4C721C224200D0A1E002001A43002EFB
:104D900000D0FAE0002A00D145E13A000A4300D0F1
:104DA00046E14207DB081343C0087BE7FF0700002A
:104DB000FFFF7FFFFE07000047465C1AC21BA342AD
:104DC000BF417F42B94617004A46BF1A3A0200D592
:104DD0008DE023003B4300D08AE60020002561E7F8
:104DE000B44CA14500D1ADE08024240420436446A6
:104DF000382C3DDC62461F2C00DDB7E020251E006C
:104E00002D1B0400AB40AC40D640D04042465D1E56
:104E1000AB413443121A904623432CE04207DB088F
:104E20001343C0083BE75C189C429B4140445B42F3
:104E3000C71801263B0200D429E702269E4A6308D0
:104E40001740012214401C43FB071C437F0873E6F4
:104E50004446203AD4406246202A05D06746402284
:104E6000D21B4746974039434A1E9141214335E6BC
:104E70000343581E8341CC1AA142BF4143467F429F
:104E800055464E46DF1B2EE602001A4300D1BDE018
:104E900062466446013A012C00D1E5E0854CA44508
:104EA00058D0944649E764462022121B4446944059
:104EB0000F00A14664469140E7404C464A1E91418E
:104EC0003C4342460C436146CA408018F4E6794CA4
:104ED000A24200D1FDE6591899429B4140445F42ED
:104EE000C719FC07490816000C437F08CFE6CC1A07
:104EF000A142BF4143467F42181A5546C71BF7E5FA
:104F0000C9087B0755460B43F808C8E6002C00D0BB
:104F100081E043460B4315D1802000250003E3E6E2
:104F20005C1AA3429B41C71B5B420126FF1ADAE5CC
:104F30004207DB081343C008D2E64207DB081343ED
:104F4000C008ACE643464246C9085B0755460B43DA
:104F5000D008C5E6434642465B07C9080B43D00864
:104F6000BEE603431C00631E9C41FCE60200203C9D
:104F7000E24014006246202A03D04025AD1AA84022
:104F80000343581E8341234375E7002AE2D03A00C9
:104F90000A43CDD04207DB0813438022C008120326
:104FA000104206D0FC08144203D12000CB087A0737
:104FB00013435A0FDB005207DB08134390E64346C6
:104FC0000B4300D109E743464246C9085B075546F3
:104FD0000B43D00866E6CC1AA14289413F1A4942E8
:104FE000554601267F1A7EE542465C1A871AA3427F
:104FF00092415242BF1A3A023DD5CC1AA142894190
:10500000434649421F1A55467F1A95E57B07C90852
:105010000B43F80843E64446DB080C4330D1420713
:105020001343C0085CE67B07C9080B43F80839E660
:105030005C189C429B4140445B42C7183B0200D431
:1050400025E61D4B01261F4021E60400203AD440EE
:105050006246202A04D040226646921B90400343B9
:105060005A1E93411C437EE65C188C4289414044A1
:1050700049424718DDE623003B4300D1ADE606E692
:10508000440723438024C0082403204208D042461A
:10509000D608264204D155463000CB0851070B43B1
:1050A0005A0FDB00DB085207134319E60023014ABD
:1050B0001F005EE5FF070000FFFF7FFFF0B55746CA
:1050C0004E464546DE46E0B598460C034B000600CA
:1050D000924687B0240B5B0DCF0F002B00D15CE113
:1050E000D94A934200D175E1420FE4001443802273
:1050F00012041443D54AC500944663440093002328
:1051000099469B46434642461E03D20F5B005046DB
:105110009046360B5B0D00D120E1CB4A934200D183
:1051200062E1CA49420F8C4600996344F6008C46FE
:10513000164380229C44120463461643C20000209A
:1051400000930099434601318C4649467B400193C8
:105150000F2926D8BE4B890059588F4643460193E4
:105160003400150083465B46022B16D0032B00D17A
:1051700003E2012B00D0CDE0002200240025019B9A
:1051800012052243DB071A432800110007B0F0BCC8
:10519000BB46B246A946A046F0BD00240025AA4A57
:1051A000EDE7280C2D042D0C2B00110C1204120C11
:1051B0005343984613002F00434399464F434F44AF
:1051C000BB4647460B003F0CBA464343DA440293C2
:1051D000D14504D980277F02B9464B4402935346F8
:1051E0001B0C9B4653461F0443461B041B0C98464E
:1051F0003B0043440493330C3604360C984633008A
:1052000043439946434643432F009A4643467743D8
:105210005D43380C4D444519A94503D980235B02F1
:105220009946CA443F04280C3F0C2D04ED19270C65
:105230002404240C0300200050437A4391463A0092
:1052400053440593030C9A464A43614349445144ED
:10525000AB44894503D980235B0299464A44000444
:105260000B0C000C090409182000994643467043B2
:105270005C437E435F43030C9846A41944444A446C
:105280000397A64204D980235B02984647440397BC
:105290002304029E9A46059B5E449846AE42AD4169
:1052A00076188E4289410004000C504440446D42FF
:1052B0004719B846934649428946C344D94498425F
:1052C0008041A845AD4193459241894589416D4250
:1052D00040422843240C524249420A43039B00198E
:1052E0008018C7184B46DC0D049B75021D436A1ECF
:1052F00095414B46F60D7F0235435A023C43154318
:10530000FB0100D41CE101216A080D401543E207AE
:10531000154364084F496144002900DCB0E06B0785
:1053200009D00F222A40042A05D02A1DAA42AD41E5
:105330006D4264191500E30104D58021464AC90075
:1053400014406144454A914200DD26E76207ED08BA
:10535000640249051543240B4A0D10E752463243B7
:1053600000D17FE0002E00D1DCE0300000F038F901
:1053700002000B3A1D2301009B1A52460839DA40FD
:105380008E40164352468A40009B3549181A030046
:105390008C46634400200093D3E6250005434AD0A1
:1053A000002C00D1B0E0200000F01AF9010002004A
:1053B0000B391D2310005B1A31003500083884407A
:1053C000D94085400C432648831A00930023994610
:1053D0009B4697E60500254326D108220093022329
:1053E000002491469B468DE65246009B324310D1E5
:1053F000154900268C46634449460093022319430D
:10540000894602209DE65B460197022B00D0ADE65F
:10541000C3E60D4A0320944663444A46009303239F
:105420001A43914652468CE60C2200930323050052
:1054300091469B4666E60423994600230093013378
:1054400000249B465EE6C046FF07000001FCFFFF0C
:1054500088A00108FF030000FFFFFFFEFE07000019
:105460000DFCFFFF49460123194389460026012010
:1054700067E6002380240025434A019324037EE647
:105480000120401A382800DD76E61F285BDD1F2248
:1054900023005242511ACB401900202803D03B4A26
:1054A0006244944025436A1E95412A000A4307211D
:1054B0000D000024154011425BD00F210024114043
:1054C000042953D0111D914292415242A4180A005E
:1054D00023024BD501220024002550E680231B0324
:1054E0001C4209D01E4207D133431C03434615001A
:1054F000240B254A019342E680221203144324031D
:10550000214A240B01973AE600F06AF801000200F4
:10551000153120321C2900DC4BE734000838002507
:10552000844050E700F05CF803001A001532203088
:105530001C2A00DC1EE75646083B00229E4023E75B
:10554000009B9C46E6E61249220061442E008D40F5
:105550008A40C640691E8D4132432A43C4405307E6
:10556000B6D00F2111400429ACD1B1E76507640220
:10557000240BD2081543002201E6802212031443B3
:105580002403014A240BFAE5FF0700003E04000053
:105590001E04000010B5041E10D000F021F80F4BBF
:1055A0001B1A0A2811DC0B222100121AD1401530D7
:1055B0000A035B058440120B5B0D01E0002300220F
:1055C0001B0513432000190010BD22000B38824038
:1055D0005B0512030024120B5B0DF1E71E040000B3
:1055E0001C2101231B04984201D3000C10391B0A13
:1055F000984201D3000A08391B09984201D30009D7
:10560000043902A2105C40187047C046040302022D
:1056100001010101000000000000000003B4714618
:10562000490840004900095E49008E4403BC7047A8
:1056300070B500260C4D0D4C641BA410A64209D178
:10564000002603F017FF0A4D0A4C641BA410A64263
:1056500005D170BDB300EB5898470136EEE7B300B3
:10566000EB5898470136F2E7000000000000000008
:10567000000000000000000003008218934200D1E7
:10568000704719700133F9E70FB404B07047000098
:1056900010B5074B074C5A6320000A00064900F07A
:1056A00089FE200000F078FF0028FAD0002010BD0D
:1056B00064000020740400208C00002010B501F06C
:1056C000CFFB10BDF0B50024CBB0FB2221000BA80E
:1056D0000A94FFF7D1FF6B46784DDC8101F0A8FBFF
:1056E00000F072F900F09CF900F0F4F900F018FAFB
:1056F00000F05AFA724802F0F5F8402271497248F7
:1057000002F03EFC714E2B68B34205D040222100CE
:105710006D48FFF7B1FF2E60EC230024022701251E
:105720006B4EDB0008936B4B04A93000069709937E
:1057300004940594079500F0E1FD23003A00390038
:105740003000009400F002FE22002900300000F03A
:1057500029FF300000F017FE80235F4A5F4F604949
:105760000193380000925F4A02F02DFBFAF7AEFE7B
:10577000E4225D4B52001968914207D11C605B4BDB
:105780001A00CD3215700322B9331A70FDF796FB5B
:10579000574802F06DFF62B6012340225B4249493F
:1057A0004948049302F0DEFB002816D002F018F8F6
:1057B000504B514A51481A6104A901F0C9FF424CAB
:1057C0004F49226861186368012002F057F8464B80
:1057D00008349C42F4D102F015F8380002F00AFBBC
:1057E0000E23FF2238006B440AA902F0D3FA0028E6
:1057F00004D16B460AA8997BFDF7FCFBFDF75EFA26
:10580000404E30687168FAF77FFE0D00040000F02A
:105810003FFB002D01D1A0422CD8FAF767FE0123EF
:10582000394C3060716022785340237000F0C0F82A
:10583000051E0FD0354B364E1A78002A21D1337809
:105840000133DBB2022B1AD83370FAF74FFE314B1B
:10585000186059602D4B1D702D4B1D78012D21D0E6
:10586000022D24D0002D24D1207800F093F82800B8
:1058700000F084F8FAF73AFE00F010FB8CE7327083
:10588000E3E7244B18685968FAF73EFE002902D175
:10589000214B9842DED90323012100203370FDF70C
:1058A00057FED7E7002000F075F82078E0E7207871
:1058B000F9E7012023785840F5E7C046F877002043
:1058C000D804002000F80308BC7700207856341272
:1058D00074040020FF070000F0000020B00000204A
:1058E0006107000070010020FC770020B00200205A
:1058F000CCA00108002002403180000000020020FE
:10590000448003E8D80300200D020020C8030020D3
:105910000C020020D00300208813000070B5CB07D4
:1059200016D50C4D0C4C2B002200402100F0A6FD9A
:1059300000280DD1EC232268DB009A4208D163686D
:10594000002B05D1E26829000448D2B202F00CF91C
:1059500070BDC046F001002064000020B0000020AF
:10596000012307B55B4201900122034801A901F020
:1059700019FD01980EBDC046E0030020020010B5DD
:10598000002800D00122A0202021C00501F0CAFE7D
:1059900010BD0000002210B5002800D10122802196
:1059A0000248890001F0BEFE10BDC046000800504C
:1059B000802110B50348890101F0AEFE43425841F1
:1059C000C0B210BD0008005070B5072601258CB08C
:1059D0001822002106A8FFF74FFE00211422684676
:1059E000FFF74AFE0D4A0024136805A8B3432B4372
:1059F000136002230593FE330893C03B0A93099476
:105A000000F01AFF2900684600960194029403945E
:105A1000049401F077F80CB070BDC046002002403D
:105A2000F0B501258BB01422002105A8FFF724FE54
:105A30000820264B80245A6BA0272A435A635A6BAE
:105A4000234E2A400192019A596BA40001435963E5
:105A50005A6BFF0502400292029A596B06380143C5
:105A6000596304215A6B02400392039A5A6B300027
:105A70000A435A635B6B00220B4004932100049B92
:105A800001F050FE00223800202101F04BFE1123CE
:105A900005940024300005A906930794089401F0AA
:105AA00087FD2023380005A90593069507940894DF
:105AB00001F07EFD802330009B0105A9059306942B
:105AC000079501F075FD0BB0F0BDC0460010024017
:105AD0000008005070B5104B104C00252360E123E6
