:020000040800F2
:10000000FC770020AD2100089D200008A5200008F5
:1000100000000000000000000000000000000000E0
:10002000000000000000000000000000AD200008FB
:100030000000000000000000B52000087520000846
:10004000BD20000800000000C5200008CD200008E9
:10005000D5200008DD200008E5200008ED2000087C
:1000600000000000F5200008FD2000080521000820
:100070000D210008152100081D2100082521000878
:100080002D210008000000000000000035210008BC
:10009000552100085D210008652100086D21000838
:1000A000752100087D210008852100088D210008A8
:1000B000952100089D21000885200008A521000841
:1000C00010B5002805D108210D4B0E4A0E4806F048
:1000D0000BFA037E002B03D109210C4B094AF5E7EB
:1000E0000368002B03D10A21094B064AEEE71B687F
:1000F000002B03D10B21074B024AE7E710BDC04696
:1001000070840008F77E000801830008258300083A
:10011000418300085D83000810B50400FFF7D0FF9D
:1001200022681379022B0CD008D8012B09D0074A7A
:100130002021074B07480F3206F0D6F9033B012B6D
:10014000F5D813689847002110BDC046F77E000817
:10015000878300080183000870B504000D000028A3
:1001600006D14821184A194B1F32194806F0BCF92C
:10017000002904D1144A4921164B1F32F5E70B68B8
:10018000002B04D1104A4A21134B1F32EDE70B79A3
:10019000002B04D10C4A4B21104B1F32E5E7042BF6
:1001A00004D9094A4C210E4B1F32DEE71C220021E4
:1001B000043001F055FC0123256020002376FFF771
:1001C000ABFFA060E16070BDF77E0008708400089E
:1001D000018300084D830008698300088D830008AF
:1001E000B68300087FB5060003930292FFF768FF0D
:1001F0003000FFF791FF009030000191FFF760FFA2
:1002000033681879013803282AD83469756901F0F0
:100210003FFA020B1F24FF2230697169002301F0AD
:10022000CDFB02000B0005E0210C2B040B43220444
:10023000121BAB4120002900029C039D001BA94119
:10024000009C019D001969418018594104B070BD9E
:10025000210A2B060B432206EAE701225242DBE782
:10026000034A3B21034B04482E3206F03DF9C046B9
:10027000F77E0008878300080183000810B504009A
:10028000FFF71EFFA268E3682000FFF7ABFF10BD79
:1002900070B5002806D1084A7021084B084844323E
:1002A00006F022F9012204694569002312196B4105
:1002B0000261436170BDC046F77E0008708400088B
:1002C0000183000810B502490248FFF745FF10BD41
:1002D00000020020D805002010B50248FFF7CEFF2D
:1002E00010BDC046D805002010B502000B00024822
:1002F000FFF778FF10BDC046D805002010B50248B2
:10030000FFF7C6FF10BDC046D805002070B5002815
:1003100005D10D21194B1A4A1A4806F0E5F8436831
:10032000002B03D10E21184B154AF5E7DC68002C91
:1003300003D10F21154B124AEEE79D69002D03D121
:100340001021134B0E4AE7E75D69002D03D11121FF
:10035000104B0B4AE0E71B7C022B0DD97F23237047
:100360004368DB6859704368DB689A70436803220E
:100370009C69D9685869A04770BDC0467084000860
:10038000497F0008DE83000841830008FE830008DF
:10039000228400085484000870B5002806D12C215E
:1003A0000E4A0F4B0F320F4806F09EF80024A2426F
:1003B00009D10A4A2D210C4B0F32F4E7155D067A5C
:1003C0000134AE4207D065B2AB42F7DC7E22FFF7C4
:1003D0009DFF002000E0012070BDC046497F00085D
:1003E00070840008DE8300082685000870B5041EAE
:1003F00006D1404A404B41492B32414806F074F83F
:100400004368002B04D13B4A3E4B3F492B32F4E773
:100410005A68002A05D1FD21364A3C4B2B3289000F
:10042000EBE71A00A0321268002A04D1314A384B97
:1004300038492B32E1E75B789B0703D41122362140
:10044000FFF764FFA57A1322023D06D46268130009
:100450009C331B88AB4205DA312236212000FFF79E
:1004600055FF70BD1300A4331978E37A994201D97E
:100470003322F2E71300AC331B78A8323621200078
:1004800012685BB2FFF788FF0028EAD063681A00A1
:1004900059689E321580063A106802312A0006F02B
:1004A00065F8636819005A68AD3152780A70A17B0B
:1004B000914201D07322D0E71A0020696169B032FD
:1004C000106051601800A0331B689830984763682B
:1004D0002000AD33197801F099F8206961692A008C
:1004E000A37B0133A373EB1712184B4122616361A5
:1004F000B7E7C046497F000870840008F203000097
:10050000DE83000841830008F303000083840008B1
:10051000A7840008F5030000F8B5041E06D1304A90
:10052000304B31493F32314805F0DEFF4368002B44
:1005300004D12B4A2E4B2F493F32F4E75A68002A48
:1005400004D1274A2C4B2D493F32ECE71B785B0640
:1005500003D411222221FFF7D9FEA37A1322022B02
:1005600039D9616800254A68CF6D50789378142294
:1005700094461B0203435BBA9BB2AF4201DC3122BB
:1005800029E066466E43886D8219805B98421DD0D3
:100590000135F2E710232221D3562000D268FFF75D
:1005A000FBFE002811D063689B6D9B191A7A002A04
:1005B00002D05B68002B04D1094A114B11493F322C
:1005C000B1E72900200000F049FFF8BD917AE37AF5
:1005D0009942DFD9332222212000FFF797FEF4E76A
:1005E000497F0008708400084D040000DE83000885
:1005F000418300084E040000838400084F0400007B
:100600008783000892040000F0B5040087B000283A
:1006100006D1AB4AAB4BAC495532AC4805F064FF50
:100620000378002B04D1A64AA94BAA495532F4E716
:10063000002543684573AB4204D1A14AA64BA749A4
:100640006332EAE75A6D002A50DD1B6D002B4DD155
:100650009B4AA34BA3496332DFE730266E431B6DF1
:1006600098199B5D032B1DD0836A6773002B04D1FF
:10067000934A9D4B9D496332CFE7984761680B6D64
:10068000C86C9B191A6A5B6AFFF7ACFD63681B6D47
:100690009E19F3698B4203D304D1B369834201D21B
:1006A00004233370013563685A6D9542D5DB00250C
:1006B000032763685A6D95421ADB627B002A00D0DB
:1006C000B6E0A27A002A00D1B2E05A6811783E2939
:1006D0000AD82D2928D8222900D1C5E33BD81029D2
:1006E00045D0112900D1B1E0112275E00127DAE7E8
:1006F00030266E431A6D9319925D022A0BD0042A9C
:1007000007D1312120002232FFF700FE63681B6D04
:100710009F550135CDE7597B5A8800912000012172
:100720009B6800F007FEF1E708002E381028DBD8A0
:1007300000F0B8FF6D02DAFFDAFFED01DAFFDAFF51
:10074000D302DAFF96036903DAFFDAFFDAFFDAFF92
:10075000DAFFDAFF80002729C6D1DA6B002A00D041
:10076000E8E0A421624A634B3432FF3155E7DA698D
:10077000002A04D1524A7B215F4B7E324DE71B7821
:10078000DB0704D4112210212000FFF7BFFD6168B0
:10079000002904D1564A504B0E3248313DE7CB690F
:1007A000002B04D1524A4921534B0E3235E74D6894
:1007B000002D04D14E4A4A21504B0E322DE7A27A29
:1007C000012A07D91F264A1C96570022B24207DB8E
:1007D000122200E0132210212000FFF797FD1EE0F7
:1007E00018781F00844668780233604502D00132D1
:1007F00052B2EBE77A78E37A9A4201D93322EAE7F8
:10080000637A2072834203D04B6A002B00D0984752
:1008100062682000538D217A128D00F036FC00238F
:100820006268A37252681370237A6372E37A237347
:1008300007B0F0BD1B789B0704D411223E21200095
:10084000FFF764FD200000F061FCE8E71A6B002A66
:1008500004D1274AB1212A4B2432DEE6DA6A002A83
:1008600004D1234AB221274B2432D6E61B785B07FA
:1008700004D4112220001100FFF748FDA37A012BB8
:1008800009D9342600220C276068865753B29E424D
:1008900004DC122200E0132211219DE73D005543A4
:1008A000036B013259195B5D9C4643685B789C453C
:1008B000ECD14A78E37A9A4226D93322ECE7C04653
:1008C000497F0008708400089A040000DE83000855
:1008D000258300089B040000418300089B02000060
:1008E00087830008A1020000DA840008AA02000041
:1008F000C97F0008978500080B85000883840008DD
:100900003C8500086785000808234A68CB5620000C
:100910001121FFF741FD002800D180E76368200026
:100920001B6B595D00F034FC63681A6BDB6A505D29
:10093000984774E75A6C002A05D1D221BB4ABC4BB8
:100940003432490069E69A6C002A04D1B74AA621DC
:10095000B84B343209E71B781B0704D41122272136
:100960002000FFF7D3FC63682721DA6B14232000F3
:10097000D3561269FFF710FD002800D14FE7A07A87
:10098000012802D81322272126E763685A68557880
:10099000022229009143012904D0052D02D0EA1F2B
:1009A0003A2A44D8DA6B002A04D1A04AFD21A24B8E
:1009B0004A3232E6996C002907D0402018560023AD
:1009C00059B2884206DC1222DDE7984AFE21994B93
:1009D0004A3222E6110018260F785E43183201339E
:1009E000AF42EDD14B68002B01D12622CBE70C237F
:1009F000CB56002BF9DD14230A69CB5620002721A2
:100A0000FFF7CAFC002800D109E761682800CB6B1A
:100A10008F6C9B191A7B5968B84763682900DA6B99
:100A200020009219137B526800F0F2FBF7E60422D3
:100A300029009143022905D0042D03D02A00083A49
:100A40003A2AC0D8DA6B002A04D1784A9E217A4B20
:100A5000653276E7596C00294BD040269E5700231B
:100A6000511CB3424ADB01235B4218265E439219B4
:100A7000117B0231C9B2884284D1002BA3DB936879
:100A8000002BB2D00D23D356002BAEDD142327212B
:100A9000D35620001269FFF77FFC002800D1BEE684
:100AA0006268D36B99194F7B0B7B08780097576C62
:100AB0008A684968B8476368DA6B586896190D22E6
:100AC000B168B256023005F043FD3522002800D04F
:100AD00059E72900200000F0EDFB6368E5729B6B8D
:100AE000002B00D19BE6227BAA4200D197E628008A
:100AF0001EE74E4A3E214E4B653236E618310F0056
:100B0000183F3F78AF42B0D001335BB2A9E71B7802
:100B1000DB0604D4112231212000FFF7F7FBA57A70
:100B2000032D02D81322312156E663681F6D002F72
:100B300003D05A6D0392002A01DC1122F3E75968B1
:100B4000CB788E781B0233435BBA9BB204930023AD
:100B500030265E43BA19508884460498844505D0EF
:100B60000133039A5BB29A42F2DCE6E70133E4D048
:100B7000907BE37A984201D93322D4E714234F784B
:100B8000D356312120001269FFF706FC002800D15E
:100B900045E6012F03D0032F2BD01222C3E7043DDB
:100BA000ADB2002D08D06268136D51689B192A0000
:100BB0005868043105F0DAFC63681A6D9619327BC7
:100BC0009542AFD1002A07D07268002A04D1174A93
:100BD0001A4B1B497F3220E53278032A01D02122AB
:100BE000A1E700223270D86CFFF748FB30627162D7
:100BF00015E663681A6D915D93190329EFD1587B4F
:100C00005A8800909B68200000F094FB07E61B7850
:100C10009B0604D411222E212000FFF777FBA37A34
:100C2000022B0FD813222E21D6E5C046C97F00081B
:100C3000C0850008F38500089785000887830008B1
:100C40006902000062685368D76D9D7859782D025B
:100C50000D43142100238C466DBAADB2BB4201DBBB
:100C60003122E0E766465E43906D8119805BA842C1
:100C700000D1FDE00133F1E71023CA68CB56200014
:100C80002E21FFF789FB002800D1C8E56768BB6DFE
:100C90009E19327A002A07D07368002B04D1784A53
:100CA000784B79491232B8E4A17A033908B20029A5
:100CB000B8DB9042B6D1717A002902D126222E31BA
:100CC0008AE5002A04D079687068033105F04EFC8B
:100CD0002900200000F080FBA1E51A6E002A04D153
:100CE000674A6A4B6A49293297E41B787F2B04D8FC
:100CF000112234212000FFF709FBA07A022802D834
:100D00001322342168E50F25636859688A782A40E0
:100D10001D0078352A7089780909521803326970E4
:100D20009042EDD11A007C321178E27A914200D9DA
:100D300022E71A1D84331B7831212000D26F5BB269
:100D4000FFF72AFB002800D169E50023002265682F
:100D50000027AA66EB662B0078331B789E1C039352
:100D6000F6B2AB6E0493EB6E0593022E1FD10023F7
:100D700000222A676B672B00002779331E78039BBC
:100D80009B190233DBB20393FBB2B3421FD3049B24
:100D9000059A1343B4D02B6F6A6F1343B0D0280069
:100DA0002B6E60309847002822D12622A9E76B6875
:100DB0003A00985D002100F0F5FD049B013E1843C8
:100DC000059BA8661943E966F6B20837C9E7039A96
:100DD0000021D31A6A68DBB2D05CFA0000F0E2FDB1
:100DE0002B6F013718436B6F286719436967CBE78F
:100DF000636820009A6EDB6E226163610123A37336
:100E000000F072FB0BE55B78DB0704D4112237217D
:100E10002000FFF77BFA626813008C331978E37ABD
:100E2000994202D933223721D6E4130094331B7838
:100E300090323721200012685BB2FFF7ADFA00282C
:100E400000D1ECE4636888331B68984700220023D4
:100E50002261636100232000A37300F095FBDEE4B0
:100E60002000FFF7C3FADAE42000FFF755FBD6E4D1
:100E70008A7AE37A9A4200D8FEE63322D3E6C04665
:100E80004980000887830008260300002A8600089E
:100E90005503000010B50248FFF7B6FB10BDC04671
:100EA0003808002010B5002806D1194A194B1A49F4
:100EB0003C321A4805F018FB002905D19C21144A40
:100EC000174B3C32C900F4E70B004160B9331B7883
:100ED00003724372002383720B00B8331B78C37212
:100EE0000373012303700B00BA331B78002B05D06A
:100EF0004B8D0A8D022100F0C8F810BD0B00BB33EA
:100F00001B78002BF9D04B8D0A8D0321F3E7C046E7
:100F10004980000870840008DF040000DE830008B8
:100F20004D83000810B502490248FFF7BBFF10BD12
:100F3000380300203808002010B5002806D1084AE0
:100F4000084B09494732094805F0CEFA40680028A5
:100F500004D1034A064B07494732F4E710BDC046A7
:100F6000498000087084000806050000DE83000840
:100F7000418300080705000000487047380300203F
:100F800070B504001500002806D1134A134B14490C
:100F90005932144805F0A8FA0378002B04D10E4A00
:100FA000114B12495932F4E7002904D10A4A104B77
:100FB00010495932EDE7002A04D1074A0E4B0F4978
:100FC0005932E6E743681A7AAA4204D32A005868DD
:100FD00005F0CCFAA57270BD498000087084000845
:100FE00013050000DE8300082583000814050000B7
:100FF00060860008150500007186000816050000CF
:1010000010B50A0001000248FFF7BAFF10BDC04644
:101010003808002010B5002807D1A621044A054B46
:1010200005486D32C90005F05FFA007A10BDC04670
:101030004980000870840008DE830008014B187A9C
:101040007047C0463808002010B5002806D1044A71
:10105000044B05490548013205F046FAC07A10BD37
:10106000C9800008708400083C050000DE83000889
:10107000014BD87A7047C0463808002010B50A00E6
:101080008369C1684069984710BD70B5002805D1D3
:101090001E21174B174A184805F026FA4568002DFF
:1010A00003D11F21154B134AF5E7EC68002C03D13F
:1010B0002021134B0F4AEEE7AE69002E03D1212108
:1010C000104B0C4AE7E72D7C062D03D822210E4B4E
:1010D000084AE0E750256170E270110A1A0A25708B
:1010E000A1702271637106214068FFF7C7FF70BDD0
:1010F00070840008E38000087F86000841830008B0
:10110000FE83000822840008A386000810B500288A
:1011100006D13621174A184B1432184805F0E4F965
:101120004368002B04D1134A3721154B1432F4E7DE
:10113000DA68002A04D10F4A3821124B1432ECE746
:101140009969002904D10B4A0F4B14323931E4E775
:101150001B7C022B04D8074A3A210C4B1432DCE7E3
:101160007E2313700023537002214068FFF786FF2F
:1011700010BDC046E3800008708400087F86000828
:1011800041830008FE83000822840008A38600082B
:1011900010B5002806D14D21164A174B2D3217489D
:1011A00005F0A2F94368002B04D1124A4E21144BDA
:1011B0002D32F4E7DA68002A04D10E4A4F21114B90
:1011C0002D32ECE79C69002C04D10A4A50210E4BC9
:1011D0002D32E4E71B7C022B04D8064A51210B4B2D
:1011E0002D32DCE751235170137002214068FFF764
:1011F00045FF10BDE3800008708400087F8600086A
:1012000041830008FE83000822840008A3860008AA
:10121000F8B59D1C0E0004001100EDB21A00002864
:1012200006D167211B4A1C4B41321C4805F05CF972
:10123000002904D1174A1A4B41326831F5E7436857
:10124000002B04D1134A6921164B4132EDE7D868CF
:10125000002804D10F4A6A21134B4132E5E79F6908
:10126000002F04D10B4A6B21104B4132DDE71B7C70
:10127000AB4204D8074A6C210D4B4132D5E76723B6
:1012800003704670023005F071F929006068FFF7BD
:10129000F5FEF8BDE3800008708400087F86000832
:1012A000CB86000841830008FE83000822840008E2
:1012B000A386000810B5002806D18021164A174BD6
:1012C0005832174805F010F94368002B04D1124A30
:1012D0008121144B5832F4E7DA68002A04D10E4A0F
:1012E0008221114B5832ECE79C69002C04D10A4A48
:1012F00083210E4B5832E4E71B7C022B04D8064AAC
:1013000084210B4B5832DCE76723517013700221A4
:101310004068FFF7B3FE10BDE3800008708400084A
:101320007F86000841830008FE83000822840008AD
:10133000A3860008F8B50F00190006AB05001000E1
:101340001A78002D06D19B211C4A1D4B6E321D4878
:1013500005F0CAF86B68002B04D1184A9C211A4B7F
:101360006E32F4E7DC68002C04D1144A9D21174B3F
:101370006E32ECE79E69002E04D1104A9E21144B78
:101380006E32E4E7161D1B7CF6B2B34204D80B4A5A
:10139000A221104B6E32DAE771232370030A6770C3
:1013A000A370E070002A04D0002902D0201D05F0AF
:1013B000DDF831006868FFF761FEF8BDE3800008E2
:1013C000708400087F86000841830008FE830008BF
:1013D00022840008A386000810B5002806D1BB218E
:1013E000174A184B0532184805F07EF84268002A63
:1013F00004D1134ABC21154B0532F4E7D368002B06
:1014000004D10F4ABD21124B0532ECE79469002C40
:1014100004D10B4ABE210F4B0532E4E7127C032AAC
:1014200004D8074ABF210C4B0532DCE76E221A7044
:101430000A0A99705A7003214068FFF71FFE10BD19
:1014400063810008708400087F86000841830008DB
:10145000FE83000822840008A3860008142270B5C9
:101460005143436804009A6DD8685218157A0335C1
:10147000EDB2002806D1D621164A174B2032174864
:1014800005F032F89A69002A04D1124AD721144B88
:101490002032F4E71B7CAB4204D80E4AD821114B12
:1014A0002032ECE76223037063689B6D5B5A1B0A72
:1014B000437063689B6D5B5A8370636803309B6DF8
:1014C00059180A7A496805F051F829006068FFF751
:1014D000D5FD70BD63810008FE8300087F8600088B
:1014E00022840008A386000810B5002806D1EA214E
:1014F0001E4A1F4B3A321F4804F0F6FF4368002B88
:1015000004D11A4AEB211C4B3A32F4E7DA68002A7C
:1015100004D1164AEC21194B3A32ECE799690029BB
:1015200004D1124A164B3A32ED31E4E71B7C042B0E
:1015300004D80E4AF621134B3A32DCE774231370B9
:10154000202243680421DB685A704368DA687A33E2
:101550001B8802331B1293704368DA687A331B8846
:101560000233D3704068FFF789FD10BD6381000826
:10157000708400087F86000841830008FE8300080D
:1015800022840008A386000810B5002805D1832115
:10159000174A184B5532490007E04368002B07D122
:1015A0000821134A144B5532FF31144804F09CFFB4
:1015B000DA68002A04D10E4A8421114B5532EAE739
:1015C0009969002904D10A4A0A210E4B5532EBE7EA
:1015D0001B7C012B04D8064A0C210B4B5532E3E748
:1015E0007723137001214068FFF748FD10BDC04606
:1015F0006381000870840008418300087F8600082A
:10160000FE83000822840008DC86000810B500284C
:1016100005D18A21174A184B7132490007E0436807
:10162000002B07D11621134A144B7132FF31144895
:1016300004F05AFFDA68002A04D10E4A8B21114BBC
:101640007132EAE79C69002C04D10A4A18210E4B3A
:101650007132EBE71B7C022B04D8064A1E210B4B90
:101660007132E3E776235170137002214068FFF76F
:1016700005FD10BD638100087084000841830008E7
:101680007F860008FE83000822840008A3860008E5
:1016900002B4714649084900095C49008E4402BC05
:1016A0007047C04603B47146490840004900095ECE
:1016B00049008E4403BC7047002243088B4274D318
:1016C00003098B425FD3030A8B4244D3030B8B4243
:1016D00028D3030C8B420DD3FF22090212BA030C4C
:1016E0008B4202D31212090265D0030B8B4219D32D
:1016F00000E0090AC30B8B4201D3CB03C01A52414D
:10170000830B8B4201D38B03C01A5241430B8B4294
:1017100001D34B03C01A5241030B8B4201D30B037D
:10172000C01A5241C30A8B4201D3CB02C01A5241A4
:10173000830A8B4201D38B02C01A5241430A8B4267
:1017400001D34B02C01A5241030A8B4201D30B0250
:10175000C01A5241CDD2C3098B4201D3CB01C01A6A
:10176000524183098B4201D38B01C01A5241430974
:101770008B4201D34B01C01A524103098B4201D362
:101780000B01C01A5241C3088B4201D3CB00C01ACF
:10179000524183088B4201D38B00C01A5241430847
:1017A0008B4201D34B00C01A5241411A00D201466C
:1017B000524110467047FFE701B5002000F0F0F8F5
:1017C00002BDC0460029F7D076E7704703460B43B9
:1017D0007FD4002243088B4274D303098B425FD32A
:1017E000030A8B4244D3030B8B4228D3030C8B4256
:1017F0000DD3FF22090212BA030C8B4202D312123C
:10180000090265D0030B8B4219D300E0090AC30B10
:101810008B4201D3CB03C01A5241830B8B4201D3BD
:101820008B03C01A5241430B8B4201D34B03C01AA6
:101830005241030B8B4201D30B03C01A5241C30A1E
:101840008B4201D3CB02C01A5241830A8B4201D38F
:101850008B02C01A5241430A8B4201D34B02C01A79
:101860005241030A8B4201D30B02C01A5241CDD21E
:10187000C3098B4201D3CB01C01A524183098B4269
:1018800001D38B01C01A524143098B4201D34B0152
:10189000C01A524103098B4201D30B01C01A5241B5
:1018A000C3088B4201D3CB00C01A524183088B423C
:1018B00001D38B00C01A524143088B4201D34B0025
:1018C000C01A5241411A00D2014652411046704797
:1018D0005DE0CA0F00D04942031000D3404253409C
:1018E00000229C4603098B422DD3030A8B4212D35C
:1018F000FC22890112BA030A8B420CD3890192118E
:101900008B4208D3890192118B4204D389013AD0CA
:10191000921100E08909C3098B4201D3CB01C01A9F
:10192000524183098B4201D38B01C01A52414309B2
:101930008B4201D34B01C01A524103098B4201D3A0
:101940000B01C01A5241C3088B4201D3CB00C01A0D
:10195000524183088B4201D38B00C01A5241D9D225
:1019600043088B4201D34B00C01A5241411A00D2A6
:101970000146634652415B10104601D34042002BA2
:1019800000D54942704763465B1000D3404201B521
:10199000002000F005F802BD0029F8D016E77047D6
:1019A0007047C0469140030090409C46203A9340C7
:1019B000194352426346D34019437047F0B5CE46AF
:1019C000474680B5070099463B0C9C4613041B0C08
:1019D0001D000E0061460004140C000C45434B43EF
:1019E00060436143C0182C0C20188C46834203D9F5
:1019F00080235B029846C444494679437243030CF2
:101A000063442D042D0CC918000440198918C0BC6A
:101A1000B946B046F0BDC04670B500260C4D0D4C21
:101A2000641BA410A64209D1002606F019F80A4D3D
:101A30000A4C641BA410A64205D170BDB300EB583C
:101A400098470136EEE7B300EB5898470136F2E7C6
:101A50000000000000000000000000000000000086
:101A600003008218934200D1704719700133F9E7DF
:101A70000FB480B500AFC046BD4680BC08BC04B002
:101A80001847000080B586B000AFF860B960FB1D54
:101A90001A70FB1D1A780B4B5A63BA680A490B4B34
:101AA000180001F0DCFA094B180001F02BFC0300D0
:101AB0007B617B69002BF6D000231800BD4606B081
:101AC00080BDC046640000208C000020240500205A
:101AD00080B500AF02F056FC03001800BD4680BD83
:101AE00080B588B002AF3B0000221A603B000022A4
:101AF0005A603B0002229A603B000122DA603B0000
:101B0000EC22D2001A613B000E4A5A613A000E4B99
:101B10001100180001F0F0F90B4800230093002396
:101B20000222022101F045FA074B00220121180090
:101B300001F0F8FB044B180001F06BFAC046BD46FB
:101B400006B080BDFF0700002405002090B5CBB093
:101B500002AF644B902464001B19DB1900221A6049
:101B60000433FB2200211800FFF77AFF5E4B1B199C
:101B7000DB1900221A8002F091FB00F011F900F04D
:101B800055F900F0B1F900F0EDF900F043FA574BC8
:101B9000F8229B581A68554BF8215B5801210A43DB
:101BA0001A60FFF79DFF524A524953488023019320
:101BB000524B0093802304F0E9FBFEF783FB504B6C
:101BC0001B687B2B0FD14F4BB922022199544D4BEF
:101BD000BA22012199544A4B00221A604A4B18003C
:101BE00005F03CF802E0464B484A1A60FFF79AF9C4
:101BF000474B180005F032F8FEF76EFB02000B00B1
:101C00008C21490079180A604B603B4B180004F0A6
:101C1000EBFBBB1D082439193748FF2204F081FB78
:101C200003008A225200B9180B60BB181B68002BF6
:101C30000BD12D4B902252009B18DB191B88DAB276
:101C40003B1911001800FFF7DBF9FFF723F98C238C
:101C50005B00FB181A685B6810001900FEF744FB74
:101C600002000B00002B03D112D12A498A420FD95E
:101C7000FEF732FB02000B008C21490079180A6044
:101C80004B6080239B00244A1900100003F0E5FB01
:101C90001B4B1A68E4235B009A4204D0184B1B6864
:101CA0001A4A9342B1D172B6C0461C4B88225200E8
:101CB000B9180B60BB181B681B6884214900781891
:101CC00003607B181B6883F30888C046BB181B6839
:101CD00004331B6886225200B9180B60BB181B68BE
:101CE000984792E7E8FEFFFFE6FEFFFF9004002022
:101CF0007001002061070000B0000020F00000200B
:101D0000FC77002038030020887A000815030000C3
:101D1000987A0008B70B0000000800500000010886
:101D200080B582B000AF786039603B680122134013
:101D30001AD00F4B0F4A7868402101F0D5F9031EE5
:101D400013D10C4B1A68EC23DB009A420DD1094BDE
:101D50005B68002B09D1074BDB68DAB20449064BFC
:101D6000180004F077F900E0C046BD4602B080BD1F
:101D7000F001002064000020B000002080B582B097
:101D800000AF786001235B42391D0448012202F054
:101D900067FD7B681800BD4602B080BD900400203E
:101DA00090B58DB000AF14243B1918001C231A0005
:101DB0000021FFF755FE3B00180014231A000021F4
:101DC000FFF74EFE184B1B68072293431A00164B71
:101DD00001210A431A603B1902221A603B19802232
:101DE0005200DA603B1900221A613B1940225A6105
:101DF0003B19180001F0E4FD3B0007221A603B008C
:101E000000225A603B0000229A603B000022DA6008
:101E10003B0000221A613B000121180001F0B4FFD1
:101E2000C046BD460DB090BD0020024090B58BB0BD
:101E300000AF14243B19180014231A000021FFF7E7
:101E40000FFE274B5A6B264B01210A435A63244B42
:101E50005B6B012213403B613B69214B5A6B204B6A
:101E600008210A435A631E4B5B6B08221340FB6038
:101E7000FB681B4B5A6B1A4B02210A435A63184BDF
:101E80005B6B02221340BB60BB68154B5A6B144B53
:101E900004210A435A63124B5B6B042213407B609C
:101EA0007B6880239B000F480022190003F0B8FADA
:101EB0003B19802292001A603B1911225A603B198B
:101EC00000229A603B190022DA603B19054A19008A
:101ED000100003F033F9C046BD460BB090BDC046BC
:101EE000001002400008005080B500AF1B4B1C4A98
:101EF0001A601A4BE12252025A60184B00229A6073
:101F0000164B0022DA60154B00221A61134B0C228B
:101F10005A61124B00229A61104B0022DA610F4B7A
:101F200000221A620D4B00225A620C4B00229A6268
:101F30000A4B180002F03EFC084B0021180002F08A
:101F400059FB064B0021180002F094FB034B1800CC
:101F500002F016FBC046BD4680BDC046900400207E
:101F60000038014080B500AF274B94222749995093
:101F7000254B982200219950234B9C2200219950F7
:101F8000214BA022002199501F4BA42201219954DA
:101F90001D4BA522012199541B4BA62200219954C7
:101FA000194BA82201219950174BAC220C219950B2
:101FB000154BB02223219950134BB4220C21995078
:101FC000114BB822012199500F4BBC220621995088
:101FD0000D4BC022112199500B4BC4220621995060
:101FE000094BC82201219950074BCC22002199505E
:101FF000054BD02200219950054B180000F01CFE23
:10200000C046BD4680BDC04690040020006400402C
:102010002405002080B500AF114BF82211499950DA
:102020000F4BFC22104999500D4A80235B00002180
:10203000D1500B4A82235B000C49D150084A8423BB
:102040005B000021D150064A88235B008021D150DB
:10205000074B180003F0BAFBC046BD4680BDC04622
:1020600090040020002000407FBB0000FFFF000024
:102070008805002080B500AF02F072F9C046BD4669
:1020800080BD000080B500AF034B180001F020FABE
:10209000C046BD4680BDC0462405002080B500AFC7
:1020A000C046FDE780B500AFC046FDE780B500AF94
:1020B000C046FDE780B500AFC046FDE780B500AF84
:1020C000C046FDE780B500AFC046FDE780B500AF74
:1020D000C046FDE780B500AFC046FDE780B500AF64
:1020E000C046FDE780B500AFC046FDE780B500AF54
:1020F000C046FDE780B500AFC046FDE780B500AF44
:10210000C046FDE780B500AFC046FDE780B500AF33
:10211000C046FDE780B500AFC046FDE780B500AF23
:10212000C046FDE780B500AFC046FDE780B500AF13
:10213000C046FDE780B500AF054BF8229B58022250
:1021400052421A61FEF7DAF8C046BD4680BDC0466D
:102150009004002080B500AFC046FDE780B500AF19
:10216000C046FDE780B500AFC046FDE780B500AFD3
:10217000C046FDE780B500AFC046FDE780B500AFC3
:10218000C046FDE780B500AFC046FDE780B500AFB3
:10219000C046FDE780B500AFC046FDE780B500AFA3
:1021A000C046FDE780B500AFC046FDE70D48854657
:1021B00000F036FD002103E00B4B5B584350043127
:1021C0000A480B4B42189A42F6D30A4A02E000230F
:1021D00013600432084B9A42F9D3FFF71DFCFFF756
:1021E000B5FCFEE7FC770020D08700080000002047
:1021F0008C040020900400208008002080B500AFEF
:10220000024B5B6A9BB21800BD4680BD00200040B7
:1022100080B582B000AF0200FB1D1A70FB1D1A785A
:10222000084B1100180004F08DFCFB1D1B78022BDD
:1022300003D0054B00221A6000E0C046C046BD46F0
:1022400002B080BDAC7A0008FC77002080B582B077
:1022500000AF0200FB1D1A70FB1D1A78044B110021
:10226000180004F06FFC02F07AF9C046FDE7C046A2
:10227000B87A000880B582B000AF0200FB1D1A706A
:10228000FB1D1A78044B1100180004F05BFCC046DB
:10229000BD4602B080BDC046C47A000880B584B097
:1022A00000AF78607B68FB60FB681B78002B02D076
:1022B000012B08D00FE00A4B180004F0CFFCFB689C
:1022C00001221A7007E0074B180004F0C7FCFB68F6
:1022D00002221A70C046C046BD4604B080BDC0464A
:1022E000D07A0008E07A000880B584B000AF78604A
:1022F0007B68FB60FB681B78002B02D0012B08D0A9
:102300000FE00A4B180004F0A9FCFB6801221A70C8
:1023100007E0074B180004F0A1FCFB6802221A70CA
:10232000C046C046BD4604B080BDC046F07A000835
:10233000FC7A000880B584B000AF78607B68FB60F1
:10234000FB681B78002B02D0012B08D00FE00A4B52
:10235000180004F083FCFB6801221A7007E0074BA9
:10236000180004F07BFCFB6802221A70C046C046CD
:10237000BD4604B080BDC046087B0008147B000841
:1023800080B584B000AF78607B68FB60FB681B7829
:10239000002B02D0012B08D00FE00A4B180004F0EC
:1023A0005DFCFB6801221A7007E0074B180004F07F
:1023B00055FCFB6802221A70C046C046BD4604B0F8
:1023C00080BDC046207B00082C7B000880B582B011
:1023D00000AF7860054B602200211800FFF740FB3A
:1023E00001231800BD4602B080BDC046F80500209C
:1023F00080B500AF03F054F9034B180004F02EFC35
:10240000C046BD4680BDC046387B0008B0B586B02A
:1024100000AF786020237B617B689A69DB69F820D4
:1024200000060121494212184B415905D40A0C43B8
:10243000DD0A23003B613A697B69D31AFB60012303
:102440005B42BB60FB685F2B05D9244B180004F08E
:1024500005FC00233EE0224AFB68D3181B780122CA
:102460005340DBB2002B34D01E4B3A695A6003F064
:10247000F3F81D4B5B69002B05DA1C4B180004F0C8
:10248000EDFB002326E01A4B180004F0E7FB164B87
:10249000184A1A610823FA18124B1100180002F0AA
:1024A000F7FF03F0FDF8BB68013307D03A69124B20
:1024B0001100180004F046FB00230BE0084AFB68FB
:1024C000D31801221A703A690C4B1100180004F05D
:1024D00039FB01231800BD4606B0B0BD407B0008A3
:1024E000F80500200802002000200240607B000860
:1024F000687B000831800000707B0008987B000832
:10250000F0B591B000AF78610023FB620023BB629D
:102510007B697B627B6A002B00D1C2E07B6A1B680F
:10252000002B03D07B6ADB88002B04D1604B1800A2
:1025300004F094FBB8E07B6A1800FFF767FF030024
:102540001A0001235340DBB2002B00D0ABE07B6AC2
:102550009A69DB6957480121494212184B41BA6117
:10256000FB61FB69002B04DA534B180004F076FB87
:102570009AE07B6A9A69DB6911007B6ADB881A0042
:102580007B6A5B7D4D4804F0DDFA00237B6380E0CD
:1025900000220023BA63FB63232310229B18DB195C
:1025A00000221A7038E07B6A1A687B6BD3181B789C
:1025B000BB600023FB60232310229B18DB191B78D0
:1025C000DB001A00203A002A03DBB96891400D00B5
:1025D00009E02022D21AB868F9680600D640320015
:1025E00099400D001543BA689A401400BB6B234311
:1025F0003B60FB6B2B437B603A687B68BA63FB6391
:10260000232110200B18DB191A780B18DB19013263
:102610001A707B6B01337B63232310229B18DB1919
:102620001B78072B05D87B6ADB881A007B6B9342EB
:10263000B9D3BB6B013303D1FB6B013300D128E06D
:102640007B6A9A69DB697B6BD218232310215B18A4
:10265000DB191B78D31ABB6202F0FEFFBA6BFB6B6F
:10266000B96A012002F0AAFF03F01AF8BB6AFB6204
:10267000FB6A1A685B68B96B914203D1F96B9942A6
:1026800000D106E0BA6A0E4B1100180004F05AFAA5
:102690000AE07B6ADB881A007B6B934200D277E703
:1026A00002E0C04600E0C046BD4611B0F0BDC046E5
:1026B000AC7B00080000FFF7CC7B0008F47B00082F
:1026C0001C7C000880B586B000AFB9607A60190044
:1026D0000F23FB18021C1A700E23FB180A1C1A7019
:1026E000BB68002B06D12E4B2E4A852149002E486F
:1026F00003F0FAFE7B68002B06D12C4B294A0C21F3
:10270000FF31294803F0F0FE0E23FB181B78002B45
:1027100006D1274B234A86214900234803F0E4FED3
:102720002023FB181B78002B06D1224B1D4A0E21BB
:10273000FF311D4803F0D8FE0E23FA182023FB18A2
:1027400012781B789A4206D01B4B164A8721490003
:10275000154803F0C9FE00237B6116E00E23FB1829
:102760001B785A1E7B69D31A3B617B69BA68D31800
:1027700019783B697A68D3180F22BA1812788A1828
:10278000D2B21A707B6901337B610E23FB181B7870
:102790007A699A42E2DBC046C046BD4606B080BDBB
:1027A000487C0008F08100085C7C0008947C0008EC
:1027B000A47C0008B47C0008C47C000880B584B008
:1027C00000AF39601100FB1D021C1A70BB1D0A1CF2
:1027D0001A703B68002B06D1154B164A8E21490012
:1027E000154803F081FEBB1D1B78002B06D1134B4F
:1027F000104A1E21FF31104803F076FE0023FB60D3
:102800000CE0FB68D9B2FB683A68D318FA1D12785D
:102810008A18D2B21A70FB680133FB60BB1D1B78AB
:10282000FA689A42EDDBC046C046BD4604B080BDA2
:10283000487C0008048200085C7C0008A47C000836
:1028400080B582B000AF0F4B1A6C0E4B01210A43CA
:102850001A640C4B1B6C012213407B607B68094B94
:10286000DA6B084B802149050A43DA63054BDA6BC2
:1028700080235B0513403B603B68C046BD4602B009
:1028800080BDC04600100240B0B592B000AF786085
:1028900034243B19180014231A000021FFF7E0F834
:1028A00014257B19180020231A000021FFF7D8F8FF
:1028B0007B681B68244A934241D17B1910221A601D
:1028C0007B1900225A617B19180001F0EDFB1F4BA8
:1028D000DA6B1E4B802149010A43DA631B4BDA6B2A
:1028E00080235B0113403B613B69184B5A6B174BCC
:1028F00008210A435A63154B5B6B08221340FB60A7
:10290000FB6821007B1803221A607B1802225A60A0
:102910007B1800229A607B180022DA607B18042260
:102920001A617B180A4A1900100002F007FC002205
:1029300000211E2001F0EEFD1E2001F000FEC04629
:10294000BD4612B0B0BDC046006400400010024059
:10295000000C0050B0B592B000AF786034243B1941
:10296000180014231A000021FFF77AF814257B19A8
:10297000180020231A000021FFF772F87B681B68FB
:10298000314A93425BD17B1901221A607B190022E4
:102990009A607B19180001F087FB2C4B1A6C2B4BAB
:1029A0008021C9010A431A64284B1A6C8023DB0179
:1029B00013403B613B69254B5A6B244B01210A4371
:1029C0005A63224B5B6B01221340FB60FB681F4B79
:1029D0005A6B1E4B02210A435A631C4B5B6B02224B
:1029E0001340BB60BB683B1902221A603B190222EC
:1029F0005A603B1900229A603B190022DA603B19A9
:102A000004221A613A19A023DB051100180002F014
:102A100095FB21007B1840221A607B1802225A6025
:102A20007B1800229A607B180022DA607B18002253
:102A30001A617B18064A1900100002F07FFBC0469D
:102A4000BD4612B0B0BDC046003801400010024083
:102A50000004005080B584B000AF78607B681B68CC
:102A60000E4A934215D10E4B1A6C0D4B8021090270
:102A70000A431A640A4B1A6C80231B021340FB6042
:102A8000FB6800220021132001F044FD132001F017
:102A900056FDC046BD4604B080BDC0460020004083
:102AA0000010024080B500AF01231800BD4680BD74
:102AB00080B582B000AF7860396003F033FD030069
:102AC00016221A6001235B421800BD4602B080BD89
:102AD00080B582B000AF786001235A427B68110054
:102AE0001800FFF7E5FFFEE780B586B000AFF8609D
:102AF000B9607A6000237B610AE000E000BF01005A
:102B0000BB685A1CBA60CAB21A707B6901337B6118
:102B10007A697B689A42F0DB7B681800BD4606B094
:102B200080BD80B586B000AFF860B9607A600023E0
:102B30007B6109E0BB685A1CBA601B781800FFF77C
:102B40001DF97B6901337B617A697B689A42F1DB0D
:102B50007B681800BD4606B080BD80B582B000AF6E
:102B6000786001235B421800BD4602B080BD80B58D
:102B700082B000AF786039603B68802292015A6071
:102B800000231800BD4602B080BD80B582B000AF02
:102B9000786001231800BD4602B080BD80B584B0C6
:102BA00000AFF860B9607A6000231800BD4604B039
:102BB00080BD000080B586B000AF7860144A154B28
:102BC000D31A7B617B693B61134B1B68002B02D1DD
:102BD000114B124A1A60104B1A687B68D3183A6975
:102BE0009A4207D203F09EFC03000C221A600123D4
:102BF0005B4209E0084B1B68FB60074B1A687B6867
:102C0000D218054B1A60FB681800BD4606B080BD9F
:102C1000FC770020000400005008002080080020FD
:102C200080B500AF034B802212059A60C046BD46B6
:102C300080BDC04600ED00E080B584B000AF786094
:102C40007B68002B01D1012349E17B685C229B5CFE
:102C5000DBB2002B07D17B685D22002199547B6891
:102C60001800FFF711FE7B681B689A697B681B6878
:102C700010218A439A6101F085FB0300FB6012E09A
:102C800001F080FB0200FB68D31A0A2B0BD97B688A
:102C90001B6E01221A437B681A667B685C22032143
:102CA000995401231BE17B681B689B690822134030
:102CB000082BE5D07B681B689A697B681B6801213B
:102CC0000A439A6101F05EFB0300FB6012E001F031
:102CD00059FB0200FB68D31A0A2B0BD97B681B6EC9
:102CE00001221A437B681A667B685C22032199548F
:102CF0000123F4E07B681B689B6901221340E6D046
:102D00007B681B689A697B681B6802210A439A6189
:102D1000754A7B685B6813607B681B7C012B08D15C
:102D20007B681B689A697B681B6840218A439A61AB
:102D300007E07B681B689A697B681B6840210A432F
:102D40009A617B685B7C012B09D17B681B689A695F
:102D50007B681B688021C9010A439A6107E07B6890
:102D60001B689A697B681B6860490A409A617B68A6
:102D70009B7C012B08D17B681B689A697B681B6868
:102D80005B490A409A6108E07B681B689A697B6826
:102D90001B68802149010A439A617B681B689B6913
:102DA000544A134019007B689A687B681B680A4381
:102DB0009A617B681B689A697B681B68A4218A43B7
:102DC0009A617B681B681A697B681B6810218A43BB
:102DD0001A617B68DB68012B08D17B681B689A69E4
:102DE0007B681B6804210A439A612CE07B68DB68DE
:102DF000002B28D07B68DB68022B1CD07B681B680B
:102E00009A697B681B6880210A439A617B681B680A
:102E10001A697B681B6810210A431A617B68DB68AA
:102E2000032B10D17B681B689A697B681B68202183
:102E30000A439A6107E07B681B689A697B681B6894
:102E400020210A439A617B689B69013B5A067B6893
:102E5000DB69013B1B021A437B681B6A013B1A4377
:102E600011007B685B69013B1A047B681B680A439D
:102E7000DA617B689A68C0239B009A4215D17B680F
:102E80009B6A5A1E7B68DB6A013B1B021A437B6804
:102E90001B6B013B1B011A4311007B685B6A013B02
:102EA0001A047B681B680A43DA607B681B68C022CF
:102EB00099587B68DA6B7B681B680A43C0215A50BB
:102EC0007B68180000F0A0FC7B6800229A657B6894
:102ED00000221A667B685C220121995400231800A5
:102EE000BD4604B080BDC04600650040FFBFFFFF87
:102EF000FFEFFFFFFFFCFFFF80B586B000AF7860FB
:102F0000396017203B187A685C21525C1A70020005
:102F1000BB181B78012B03D0BB181B78022B3DD1AB
:102F20003B681B68002B19D13B689B689A073B687C
:102F3000DB68DB061A433B681B691B041A433B68CA
:102F40005B6913433B617B681A6C3B685B689B0061
:102F5000D318BB60BB683A691A601DE03B68DB6848
:102F60005A073B681B6913433B613B689B689A07A0
:102F70003B685B691343FB607B685A6C3B685B682A
:102F8000DB00D318BB60BB683A691A60BB680433C6
:102F9000BB60BB68FA681A60002306E07B681B6EA2
:102FA00002221A437B681A6601231800BD4606B048
:102FB00080BD80B584B000AFF860B9607A603B60D6
:102FC000FB685C229B5CDBB2012B17D1FB681B68A2
:102FD00080229B583F2293431900BB681A017B68EB
:102FE0009B001A433B685B001A43BB691A43FB68AA
:102FF0001B680A4380215A50002306E0FB681B6EC1
:1030000004221A43FB681A6601231800BD4604B067
:1030100080BD80B582B000AF78607B685C229B5C2D
:10302000DBB2012B10D17B685C22022199547B68B2
:103030001B689A697B681B6801218A439A617B68D7
:1030400000221A66002306E07B681B6E04221A43E6
:103050007B681A6601231800BD4602B080BD80B5AA
:1030600086B000AFF860B9607A60FB685C229B5C58
:10307000DBB2022B2DD1FB681B68C4229A58802337
:103080009B03134008D0FB681B6E802292001A43FA
:10309000FB681A66012323E0FB681B68C4229B5867
:1030A0001B0C032213407B617B697A68B968F8685E
:1030B00000F00AFCFB681B6801217A6991400A0054
:1030C000CC215A5001227B699A40FB689A65002303
:1030D00006E0FB681B6E08221A43FB681A66012390
:1030E0001800BD4606B080BD80B58AB000AFF8605C
:1030F000B9607A603B600023FB611B203B18FA68D3
:103100005C21525C1A703B181B78022B00D0ECE05B
:10311000BB68402B37D1FB681B6890229B580F225D
:10312000134008D1FB681B6E802252001A43FB68D3
:103130001A660123E0E0FB681B6890229B581B0E77
:1031400001221340012B0AD1FB681B6880229B5887
:103150005B0A01221340012B01D10123FB61FB68B3
:103160001B6890229B581B0A03221340FA69D3184C
:10317000FB61FB68996CFA691300DB009B18DB00AC
:10318000CB187B6236E0FB681B6898229B580F22A5
:10319000134008D1FB681B6E802252001A43FB6863
:1031A0001A660123A8E0FB681B6898229B581B0E37
:1031B00001221340012B0AD1FB681B6880229B5817
:1031C0001B0A01221340012B01D10123FB61FB6883
:1031D0001B6898229B581B0A03221340FA69D318D4
:1031E000FB61FB68D96CFA691300DB009B18DB00FC
:1031F000CB187B627B6A1A688023DB051A407B68E8
:103200005A607B685B68002B07D17B6A1B689B0C4C
:103210005B055A0D7B681A6005E07B6A1B68DB0062
:10322000DA087B681A607B6A1A6880239B051A405B
:103230007B689A607B6A1B68DB0FDA077B681A6120
:103240007B6A04337B627B6A1B681B041A0C7B68F5
:10325000DA617B6A1B681B0C0F221A407B68DA60FC
:103260007B6A1A6880235B031A407B685A617B6A19
:103270001A6880239B031A407B689A617B6A1B68EB
:103280001B0E7F221A407B681A627B6A1B68DA0F6A
:103290007B685A627B6A04337B627B6A7B610023B2
:1032A0003B620AE07A693B6AD21839683B6ACB18FC
:1032B00012781A703B6A01333B627B68DB68104A04
:1032C000D35C1A003B6A9342ECD3BB68402B05D118
:1032D000FB681B689421FA695A5004E0FB681B687C
:1032E0009C21FA695A50002306E0FB681B6E0822F5
:1032F0001A43FB681A6601231800BD460AB080BD58
:103300007C82000880B584B000AF78607B681B6861
:10331000C4229B5807221340FB60FB681800BD467F
:1033200004B080BD80B586B000AFF860B9607A6047
:1033300017203B18FA685C21525C1A700200BB1817
:103340001B78012B04D0BB181B78022B00D0B4E0F3
:10335000FB681B689B6D3B61BB680722134003D071
:103360003B690122134034D0BB683822134003D09C
:103370003B69022213402CD0BA68E0235B00134063
:1033800003D03B690422134023D0BA68F0235B01C9
:10339000134003D03B69082213401AD0BA68E023D7
:1033A0001B02134003D03B691022134011D0BA68AE
:1033B000C0239B02134003D03B692022134008D056
:1033C000BA68FC231B0413400BD03B694022134016
:1033D00007D1FB681B68DA6DFB681B6801210A4393
:1033E000DA65BB680722134003D03B690122134012
:1033F00034D1BB683822134003D03B69022213400A
:103400002CD1BA68E0235B00134003D03B6904224F
:10341000134023D1BA68F0235B01134003D03B690A
:10342000082213401AD1BA68E0231B02134003D0CC
:103430003B691022134011D1BA68C0239B0213408C
:1034400003D03B692022134008D1BA68FC231B0437
:1034500013400BD03B694022134007D0FB681B6828
:10346000DA6DFB681B6802210A43DA65BB688022BB
:10347000134009D0FB681B68DC229958FB681B6865
:103480007A680A43DC215A50BA6880235B001340F3
:1034900009D0FB681B68E0229958FB681B687A68B2
:1034A0000A43E0215A50FB681B68596DFB681B6892
:1034B000BA680A435A65002306E0FB681B6E0222C5
:1034C0001A43FB681A6601231800BD4606B080BD8A
:1034D00080B58CB000AF78607B681B681A6DE02304
:1034E0005B011340FB627B681B685A6DFB6A1340EB
:1034F000FB627B681B681B6D07221340BB627B6805
:103500001B685A6DBB6A1340BB627B681B681B6DEE
:10351000382213407B627B681B685A6D7B6A1340BC
:103520007B627B681B681A6DF1231B0413403B62AE
:103530007B681B685A6D3B6A13403B627B681B6863
:103540001A6DE0231B031340FB617B681B685A6DF7
:10355000FB691340FB617B681B685B6DBB617B682B
:103560001B681B6D7B617B699B091A00012313405B
:103570000DD0BB699B091A000123134007D07B685B
:103580001B6840221A657B68180000F024F97B69EB
:103590001B0A1A00012313401CD0BB691B0A1A0026
:1035A0000123134016D07B681B68D8229B583B61CF
:1035B0007B681B68E0229A583B6913403B617B683B
:1035C0001B68802252001A653A697B681100180056
:1035D00000F0E8F8FB6A002B09D07B681B68FA6AE8
:1035E0001A65FA6A7B681100180000F0B8F8BB6A27
:1035F000002B09D07B681B68BA6A1A65BA6A7B68B7
:1036000011001800FEF78CFB7B6A002B09D07B6849
:103610001B687A6A1A657A6A7B681100180000F0E4
:10362000A7F87B695B0A1A00012313400ED0BB691F
:103630005B0A1A000123134008D07B681B688022B4
:1036400092001A657B68180000F09BF87B69DB0923
:103650001A00012313401BD0BB69DB091A000123A8
:10366000134015D07B681B68D4229B58FB607B6895
:103670001B68DC229A58FB681340FB607B681B6860
:1036800080221A65FA687B681100180000F081F842
:103690007B695B0B1A00012313400ED0BB695B0BE7
:1036A0001A000123134008D07B681B688022920116
:1036B0001A657B68180000F07EF87B69DB0B1A0046
:1036C000012313400ED0BB69DB0B1A00012313400A
:1036D00008D07B681B68802212021A657B6818007C
:1036E00000F071F87B699B0B1A000123134010D086
:1036F000BB699B0B1A00012313400AD07B681B682F
:103700008022D2011A657B681B6E80221A437B6877
:103710001A66FB69002B09D07B681B68FA691A6579
:10372000FA697B681100180000F065F83B6A002B0D
:1037300009D07B681B683A6A1A657B681A6E3B6A17
:103740001A437B681A667B681B6E002B03D07B686C
:10375000180000F048F8C046BD460CB080BD80B5EA
:1037600082B000AF78603960C046BD4602B080BD0F
:1037700080B582B000AF78603960C046BD4602B007
:1037800080BD80B582B000AF7860C046BD4602B053
:1037900080BD80B582B000AF78603960C046BD465C
:1037A00002B080BD80B582B000AF78603960C0469D
:1037B000BD4602B080BD80B582B000AF7860C04623
:1037C000BD4602B080BD80B582B000AF7860C04613
:1037D000BD4602B080BD80B582B000AF7860C04603
:1037E000BD4602B080BD80B582B000AF7860C046F3
:1037F000BD4602B080BD80B582B000AF7860396050
:10380000C046BD4602B080BD80B584B000AF7860D0
:103810002A4BBB607B68BA681A647B681B6880228D
:103820009B58274A134019007B685B6B1A047B681E
:103830001B680A4380215A50BB6870331A007B68AA
:103840005A647B681B6880229B581E4A13401900EB
:103850007B689B6B1A067B681B680A4380215A5061
:10386000BB68B0331A007B689A64BB688933FF3346
:103870001A007B68DA64BB68982292009A187B6809
:103880001A65BB689E2292009A187B685A65BB68CD
:10389000FB6005E0FB6800221A60FB680433FB60F4
:1038A000BB68D422920094466344FA689A42F1D3EA
:1038B000C046C046BD4604B080BDC04600B400400E
:1038C000FFFFE0FFFFFFFFF080B588B000AFF860BA
:1038D000B9607A603B60BB685B68002B0AD1BB684B
:1038E0001A69BB689B681A43BB681B689B04134337
:1038F000FB610BE0BB681A69BB689B681A43BB6835
:103900001B6813438022D2051343FB61BB681B6A0B
:103910001A06BB68DB691A43BB689B691A43BB681C
:103920005B691A43BB68DB681B0413433B61FB689C
:10393000596D3A681300DB009B18DB00CB18BB61A4
:10394000BB69FA691A60BB690433BB61BB693A6938
:103950001A60BB690433BB6100237B6120E07B6993
:1039600003337A68D3181B781A067B6902337968A7
:10397000CB181B781B041A437B6901337968CB1879
:103980001B781B02134379687A698A1812781A43E4
:10399000BB691A60BB690433BB617B6904337B611B
:1039A000BB68DB68054AD35C1A007B699342D6D3B7
:1039B000C046C046BD4608B080BDC0467C820008F7
:1039C00080B586B000AF78607B68002B01D1012301
:1039D000D0E17B681B680122134000D169E0C84B2D
:1039E0009B68382213407B617B69082B05D17B687B
:1039F0005B68002B5DD10123BCE17B685A688023A2
:103A00005B029A4207D1BE4B1A68BD4B8021490226
:103A10000A431A6020E07B685A68A023DB029A42BE
:103A20000ED1B74B1A68B64B8021C9020A431A60FF
:103A3000B34B1A68B24B802149020A431A600BE06B
:103A4000AF4B1A68AE4BAF490A401A60AC4B1A68CC
:103A5000AB4BAD490A401A607B685B68002B14D001
:103A600000F090FC03003B6108E000F08BFC0200DA
:103A70003B69D31A642B01D903237BE1A04B1A685D
:103A800080239B021340F0D013E000F07BFC030086
:103A90003B6108E000F076FC02003B69D31A642B1E
:103AA00001D9032366E1964B1A6880239B021340D9
:103AB000F0D17B681B680222134000D186E0904B56
:103AC0009B68382213407B617B69002B2FD17B6878
:103AD000DB68002B01D101234CE1894B5B688B4AE9
:103AE000134019007B685B691A02854B0A435A60D0
:103AF0007B69002B12D1824B1B68854A1340190049
:103B00007B681A697E4B0A431A607D4B1B68DB0A8F
:103B1000072213407F4ADA407F4B1A607F4B1B68B5
:103B2000180000F0D3FB031E50D0012322E17B6874
:103B3000DB68002B30D0724B1B68754A13401900AC
:103B40007B681A696E4B0A431A606D4B1A686C4B9E
:103B5000802149000A431A6000F014FC03003B6115
:103B600008E000F00FFC02003B69D31A022B01D9D8
:103B70000323FFE0624B1A688023DB001340F0D080
:103B80005F4B5B68614A134019007B685B691A02EE
:103B90005B4B0A435A6019E0594B1A68584B60490D
:103BA0000A401A6000F0EEFB03003B6108E000F001
:103BB000E9FB02003B69D31A022B01D90323D9E0A8
:103BC0004F4B1A688023DB001340F0D17B681B68E1
:103BD0000822134042D04A4B9B6838221340182BCE
:103BE00005D17B689B69002B38D10123C2E07B683B
:103BF0009B69002B19D0424B1A6E414B01210A439D
:103C00001A6600F0BFFB03003B6108E000F0BAFB5E
:103C100002003B69D31A022B01D90323AAE0384BD7
:103C20001B6E02221340F1D018E0354B1A6E344B54
:103C300001218A431A6600F0A5FB03003B6108E0FE
:103C400000F0A0FB02003B69D31A022B01D9032329
:103C500090E02B4B1B6E02221340F1D17B681B6856
:103C60000422134000D184E00F23FB1800221A70B5
:103C7000234B9B6838221340202B06D17B689B681E
:103C8000002B00D075E0012374E07B689B68012B5A
:103C900006D11B4BDA6D1A4B01210A43DA651CE091
:103CA0007B689B68052B0CD1154BDA6D144B0421F6
:103CB0000A43DA65124BDA6D114B01210A43DA65CA
:103CC0000BE00F4BDA6D0E4B01218A43DA650C4B8A
:103CD000DA6D0B4B04218A43DA657B689B68002B05
:103CE00028D000F04FFB03003B611DE000F04AFBD1
:103CF00002003B69D31A0B4A934215D9032339E0DA
:103D000000100240FFFFFEFFFFFFFBFFFF80FFFFF1
:103D1000FFC7FFFF006CDC02F8030020FC0300205B
:103D2000FFFEFFFF88130000144BDB6D02221340DF
:103D3000DCD013E000F026FB03003B6109E000F05B
:103D400021FB02003B69D31A0D4A934201D9032398
:103D500010E00A4BDB6D02221340F0D10F23FB1859
:103D60001B78012B05D1054BDA6B044B05490A4042
:103D7000DA6300231800BD4606B080BD0010024083
:103D800088130000FFFFFFEF80B584B000AF7860BC
:103D900039607B68002B01D10123E9E0764B1B6879
:103DA000072213403A689A421ED9734B1B680722B8
:103DB00093431900704B3A680A431A6000F0E2FA24
:103DC0000300FB6009E000F0DDFA0200FB68D31A93
:103DD0006A4A934201D90323CAE0674B1B68072252
:103DE00013403A689A42EED17B681B680222134066
:103DF00017D07B681B680422134008D0604B9B6877
:103E0000604A1A405E4BB02109010A439A605C4B3C
:103E10009B685D4A134019007B68DA68584B0A4377
:103E20009A607B681B680122134055D0544B1B6875
:103E30001C22934319007B689A68514B0A431A600D
:103E40007B685B68012B07D14D4B1A6880239B026E
:103E500013401FD101238BE07B685B68002B07D1E7
:103E6000474B1A688023DB00134013D101237FE006
:103E70007B685B68032B06D1414B1B6E022213400B
:103E800008D1012374E03E4BDB6D0222134001D1C7
:103E900001236DE03A4B9B680722934319007B682E
:103EA0005A68374B0A439A6000F06CFA0300FB60D3
:103EB00009E000F067FA0200FB68D31A2F4A934228
:103EC00001D9032354E02E4B9B6838221A407B68AB
:103ED0005B68DB009A42ECD1274B1B68072213403A
:103EE0003A689A421ED2244B1B680722934319005A
:103EF000214B3A680A431A6000F044FA0300FB6061
:103F000009E000F03FFA0200FB68D31A1B4A934213
:103F100001D903232CE0184B1B68072213403A6891
:103F20009A42EED17B681B680422134009D0144BDF
:103F30009B68164A134019007B681A69104B0A43A4
:103F40009A6000F02BF801000D4B9B681B0A0F22B2
:103F50001A400F4B9200D3581F2213400A00DA4038
:103F60000C4B1A600C4B1B68180000F0AFF90300F3
:103F70001800BD4604B080BD002002408813000038
:103F800000100240FF84FFFFFFF0FFFFFF8FFFFFE5
:103F90001C820008F8030020FC03002080B584B0D8
:103FA00000AF234B1B689B08072213400133BB6003
:103FB0001F4B9B68382213400FD11D4B1B68DB0A37
:103FC0000722134001229A4013007B607968194848
:103FD000FDF772FB0300FB601EE0154B9B68382267
:103FE0001340082B02D1144BFB6015E0104B9B686B
:103FF00038221340202B03D180231B02FB600BE0EF
:104000000B4B9B6838221340182B03D1FA23DB019A
:10401000FB6001E00023FB60B968F868FDF74CFB2A
:104020000300FB60FB681800BD4604B080BDC046BD
:1040300000100240006CDC0200127A0080B500AF74
:10404000FFF7ACFF0100094B9B681B0A0F221A40C7
:10405000074B9200D3581F2213400A00DA40054B49
:104060001A60044B1B681800BD4680BD001002405A
:104070001C820008F803002080B500AFFFF7DEFFC8
:104080000100074B9B681B0B07221A40054B92004F
:10409000D3581F221340D9400B001800BD4680BDE5
:1040A000001002405C82000880B586B000AF7860E6
:1040B0001323FB1800221A701223FB1800221A7017
:1040C0007B681B684022134000D179E011203B1827
:1040D00000221A706A4BDA6B80235B05134010D103
:1040E000674BDA6B664B802149050A43DA63644B00
:1040F000DA6B80235B051340BB60BB683B18012271
:104100001A705F4BDA6DC0239B0013407B617B69A3
:10411000002B19D07B68DB697A699A4214D0584B1E
:10412000DB6D584A13407B61554BDA6D544B80214F
:1041300049020A43DA65524BDA6D514B52490A4043
:10414000DA654F4B7A69DA657B690122134016D034
:1041500000F018F90300FB600CE000F013F9020016
:10416000FB68D31A494A934204D91323FB1803224C
:104170001A7004E0424BDB6D02221340EDD0132392
:10418000FB181B78002B0AD13D4BDB6D3D4A1340D9
:1041900019007B68DA693A4B0A43DA6505E01223B5
:1041A000FB181322BA1812781A701123FB181B7807
:1041B000012B05D1324BDA6B314B35490A40DA63BA
:1041C0007B681B680122134009D02D4B5B6D0322D5
:1041D000934319007B689A68294B0A435A657B68A8
:1041E0001B680222134009D0254B5B6D294A1340FE
:1041F00019007B68DA68224B0A435A657B681B68A2
:104200002022134008D01E4B5B6D9B0099087B68F1
:104210009A691B4B0A435A657B681B68102213403E
:1042200009D0174B5B6D174A134019007B685A6918
:10423000134B0A435A657B681B680422134009D05C
:104240000F4B5B6D144A134019007B681A690C4BC5
:104250000A435A657B681B688022134009D0084BCB
:104260001B68E022934319007B685A68044B0A4399
:104270001A601223FB181B781800BD4606B080BDDB
:1042800000100240FFFCFFFFFFFFFEFF881300004D
:10429000FFFFFFEFFFCFFFFFFF3FFFFF80B582B0C3
:1042A00000AFFB1D00221A70002000F00FF8031E63
:1042B00003D0FB1D01221A7001E0FEF7C1FAFB1DBD
:1042C0001B781800BD4602B080BD000090B585B0D7
:1042D00000AF78600F23FB1800221A701D4B1B786B
:1042E000002B2BD01C4B1C681A4B1B781900FA238F
:1042F0009800FDF7E1F9030019002000FDF7DCF953
:104300000300180000F02FF9031E12D17B68032B65
:104310000AD8796801235B420022180000F0FAF8FD
:104320000E4B7A681A600DE00F23FB1801221A70F9
:1043300008E00F23FB1801221A7003E00F23FB187B
:1043400001221A700F23FB181B781800BD4605B018
:1043500090BDC04600040020F8030020FC030020AC
:1043600080B500AF054B1B781A00054B1B68D218AF
:10437000034B1A60C046BD4680BDC0460004002005
:104380005408002080B500AF024B1B681800BD46E2
:1043900080BDC0465408002080B582B000AF020046
:1043A000FB1D1A70FB1D1B787F2B09D8FB1D1B788A
:1043B0001A001F231A40044B012191400A001A6081
:1043C000C046BD4602B080BD00E100E090B583B0BC
:1043D00000AF02003960FB1D1A70FB1D1B787F2B9C
:1043E00028D82F4AFB1D1B785BB29B08C0339B006B
:1043F0009B58FA1D1278110003220A40D200FF21B7
:1044000091400A00D2431A4011003B689B01FF22F1
:104410001A40FB1D1B78180003230340DB009A4061
:104420001F48FB1D1B785BB29B080A43C0339B00EF
:104430001A5031E01B4AFB1D1B7819000F230B405B
:10444000083B9B0806339B00D31804331B68FA1DF6
:104450001278110003220A40D200FF2191400A0085
:10446000D2431A4011003B689B01FF221A40FB1DFA
:104470001B78180003230340DB009A400948FB1D0A
:104480001B781C000F232340083B9B080A4306337C
:104490009B00C31804331A60C046BD4603B090BDEC
:1044A00000E100E000ED00E080B500AFBFF34F8F0A
:1044B000C046044B044ADA60BFF34F8FC046C04683
:1044C000FDE7C04600ED00E00400FA0580B582B0CB
:1044D00000AF78607B685A1E80235B049A4201D348
:1044E000012310E00A4B7A68013A5A6001235B42CB
:1044F00003211800FFF76AFF054B00229A60044B66
:1045000007221A6000231800BD4602B080BDC046D5
:1045100010E000E080B584B000AFB9607A600F2190
:104520007B18021C1A70BA687B181B785BB21100EA
:104530001800FFF74BFFC046BD4604B080BD80B5F4
:1045400082B000AF0200FB1D1A70FB1D1B785BB22E
:104550001800FFF721FFC046BD4602B080BD80B500
:1045600000AFFFF7A1FF80B582B000AF78607B6835
:104570001800FFF7ABFF03001800BD4602B080BD76
:1045800080B584B000AF78607B6884229B5C012B8F
:1045900001D1022327E07B688422012199547B68A2
:1045A0008822242199507B681B681B68FB607B680C
:1045B0001B681A687B681B6801218A431A60FB68C4
:1045C0000B4A1340FB607B6800225A667B681B68BD
:1045D000FA681A607B688822202199507B688422BF
:1045E0000021995400231800BD4604B080BDC04688
:1045F000FFFFFFDF80B584B000AF786039607B6873
:1046000084229B5C012B01D102232EE07B68842253
:10461000012199547B688822242199507B681B686A
:104620001B68FB607B681B681A687B681B6801213C
:104630008A431A607B681B689B68DB00D9087B682B
:104640001B683A680A439A607B68180000F054F8C7
:104650007B681B68FA681A607B6888222021995061
:104660007B6884220021995400231800BD4604B0C1
:1046700080BD000080B584B000AF786039607B6891
:1046800084229B5C012B01D102232FE07B688422D2
:10469000012199547B688822242199507B681B68EA
:1046A0001B68FB607B681B681A687B681B680121BC
:1046B0008A431A607B681B689B680E4A1340190086
:1046C0007B681B683A680A439A607B68180000F0B0
:1046D00013F87B681B68FA681A607B6888222021BF
:1046E00099507B6884220021995400231800BD460C
:1046F00004B080BDFFFFFFF1F0B585B000AF78607A
:104700007B685B6E002B08D17B686A22012199527D
:104710007B6868220121995243E00F26BB190822C9
:104720001A700E203B1808221A707B681B689B6861
:104730005B0EDAB20D243B1907210A401A707B6820
:104740001B689B685B0FDAB20C257B1907210A40B6
:104750001A703B181B787A19127814498A5C5A43EC
:1047600010007B191B78124AD35C1900FDF72EF854
:10477000030099B27B686A229952BB191B783A19D7
:1047800012780A498A5C5A4310003B191B78084A80
:10479000D35C1900FDF71AF8030099B27B68682210
:1047A0009952C046BD4605B0F0BDC0468C82000897
:1047B0009482000880B582B000AF78607B68002BDF
:1047C00001D1012346E07B6888229B58002B07D14A
:1047D0007B688422002199547B681800FEF7BAF8A0
:1047E0007B688822242199507B681B681A687B6843
:1047F0001B6801218A431A607B689B6A002B03D0E7
:104800007B68180000F066FA7B68180000F0CCF8AE
:104810000300012B01D101231CE07B681B685A684F
:104820007B681B680D490A405A607B681B689A6860
:104830007B681B682A218A439A607B681B681A6818
:104840007B681B6801210A431A607B68180000F02E
:10485000F5FA03001800BD4602B080BDFFB7FFFFA8
:1048600080B58AB002AFF860B9603B60BB1D1A80AA
:10487000FB6888229B58202B00D090E0BB68002B5F
:1048800003D0BB1D1B88002B01D1012388E0FB68EE
:104890009A6880235B019A4209D1FB681B69002B4F
:1048A00005D1BB680122134001D0012378E0FB68E9
:1048B000902200219950FB68882221219950FFF70E
:1048C00061FD03007B61FB68BA1D542112885A52B6
:1048D000FB68BA1D562112885A52FB689A688023D9
:1048E0005B019A4208D1FB681B69002B04D10023AD
:1048F000FB61BB68BB6103E0BB68FB610023BB617C
:1049000030E07A69F8683B68009313000022802148
:1049100000F03EFB031E05D0FB6888222021995041
:1049200003233DE0FB69002B0BD1BB691B881A00F8
:10493000FB681B68D205D20D9A62BB690233BB616A
:1049400007E0FB691A78FB681B689A62FB69013310
:10495000FB61FB6856229B5A9BB2013B99B2FB68F4
:1049600056229952FB6856229B5A9BB2002BC8D103
:104970007A69F8683B68009313000022402100F038
:1049800007FB031E05D0FB688822202199500323D2
:1049900006E0FB68882220219950002300E00223D2
:1049A0001800BD4608B080BD80B588B000AF786003
:1049B0001E23FB1800221A707B689A687B681B69AB
:1049C0001A437B685B691A437B68DB6913437B612D
:1049D0007B681B681B68B54A134019007B681B681D
:1049E0007A690A431A607B681B685B68B04A1340A7
:1049F00019007B68DA687B681B680A435A607B6829
:104A00009B697B617B681B6A7A6913437B617B6866
:104A10001B689B68A74A134019007B681B687A696A
:104A20000A439A607B681B68DB6A0F229343190074
:104A30007B685A6A7B681B680A43DA627B681B687A
:104A40009D4A934227D19D4B5B6D03221340032B5C
:104A500017D01BD8022B0AD018D8002B02D0012B5C
:104A60000AD013E01F23FB1800221A7035E01F2321
:104A7000FB1802221A7030E01F23FB1804221A7060
:104A80002BE01F23FB1808221A7026E01F23FB18B7
:104A900010221A7021E07B681B68894A934204D176
:104AA0001F23FB1800221A7017E07B681B68854AD9
:104AB000934204D11F23FB1800221A700DE07B687B
:104AC0001B68814A934204D11F23FB1800221A70ED
:104AD00003E01F23FB1810221A707B68DA69802319
:104AE0001B029A4200D06FE01F23FB181B78082B93
:104AF0001FD022DC042B17D01FDC002B02D0022B8E
:104B000005D01AE0FFF7B8FA0300BB611CE06B4B5D
:104B10001B685B0907221340013319006B48FCF73F
:104B2000CBFD0300BB610FE0FFF738FA0300BB6168
:104B30000AE080231B02BB6106E00023BB611E2349
:104B4000FB1801221A70C046BB69002B00D197E008
:104B50007B685A6A5E4B5200D35A1900B869FCF759
:104B6000ABFD03005A007B685B685B08D2187B686A
:104B70005B6819001000FCF79FFD03003B613B6977
:104B80000F2B1CD93A6980235B029A4217D23B69EA
:104B90009AB20E203B180F218A431A803B695B08AA
:104BA0009BB20722134099B23B183A1812880A4365
:104BB0001A807B681B683A181288DA6060E01E234E
:104BC000FB1801221A705BE01F23FB181B78082BCF
:104BD0001FD022DC042B17D01FDC002B02D0022BAD
:104BE00005D01AE0FFF748FA0300BB611CE0334B25
:104BF0001B685B0907221340013319003348FCF797
:104C00005BFD0300BB610FE0FFF7C8F90300BB6168
:104C10000AE080231B02BB6106E00023BB611E2368
:104C2000FB1801221A70C046BB69002B28D07B6894
:104C30005A6A274B5200D35A1900B869FCF73CFD59
:104C400003001A007B685B685B08D2187B685B68AE
:104C500019001000FCF730FD03003B613B690F2B8E
:104C60000AD93A6980235B029A4205D23B699AB21B
:104C70007B681B68DA6003E01E23FB1801221A70B0
:104C80007B686A22012199527B686822012199522E
:104C90007B6800225A677B6800229A671E23FB18F4
:104CA0001B781800BD4608B080BDC046F369FFCF31
:104CB000FFCFFFFFFFF4FF1100380140001002405A
:104CC0000044004000480040004C0040006CDC0202
:104CD0009C82000880B582B000AF78607B689B6AD8
:104CE000082213400BD07B681B685B684A4A13405C
:104CF00019007B689A6B7B681B680A435A607B6863
:104D00009B6A012213400BD07B681B685B68434A97
:104D1000134019007B68DA6A7B681B680A435A6093
:104D20007B689B6A022213400BD07B681B685B6820
:104D30003B4A134019007B681A6B7B681B680A4367
:104D40005A607B689B6A042213400BD07B681B6807
:104D50005B68344A134019007B685A6B7B681B6898
:104D60000A435A607B689B6A102213400BD07B6811
:104D70001B689B682C4A134019007B68DA6B7B68C0
:104D80001B680A439A607B689B6A202213400BD001
:104D90007B681B689B68254A134019007B681A6C66
:104DA0007B681B680A439A607B689B6A40221340B9
:104DB0001DD07B681B685B681D4A134019007B6827
:104DC0005A6C7B681B680A435A607B685A6C802364
:104DD0005B039A420BD17B681B685B68154A1340E2
:104DE00019007B689A6C7B681B680A435A607B6871
:104DF0009B6A802213400BD07B681B685B680E4A5D
:104E0000134019007B68DA6C7B681B680A435A60A0
:104E1000C046BD4602B080BDFF7FFFFFFFFFFDFF24
:104E2000FFFFFEFFFFFFFBFFFFEFFFFFFFDFFFFFC7
:104E3000FFFFEFFFFFFF9FFFFFFFF7FF80B592B07F
:104E400002AF78607B68902200219950FFF79AFAB0
:104E50000300FB637B681B681B6808221340082B58
:104E60002DD1FB6B802291037868474A0092002283
:104E700000F08EF8031E22D0EFF310837B627B6A72
:104E8000BB630123BB62BB6A83F31088C0467B68A7
:104E90001B681A687B681B6880218A431A60BB6B99
:104EA000FB62FB6A83F31088C0467B68882220215E
:104EB00099507B68842200219954032360E07B6829
:104EC0001B681B6804221340042B46D1FB6B802215
:104ED000D10378682C4A0092002200F059F8031E92
:104EE0003BD0EFF31083FB60FB687B6301233B61E6
:104EF0003B6983F31088C0467B681B681A687B682F
:104F00001B6822490A401A607B6B7B617B6983F3D3
:104F10001088C046EFF31083BB61BB693B6301237C
:104F2000FB61FB6983F31088C0467B681B689A6845
:104F30007B681B6801218A439A603B6B3B623B6A3A
:104F400083F31088C0467B688C22202199507B68AF
:104F5000842200219954032312E07B6888222021B7
:104F600099507B688C22202199507B680022DA6658
:104F70007B6800221A677B688422002199540023F1
:104F80001800BD4610B080BDFFFFFF01DFFEFFFF30
:104F900080B584B000AFF860B9603B60FB1D1A704B
:104FA00051E0BB6901334ED0FFF7ECF902003B68DA
:104FB000D31ABA699A4202D3BB69002B01D10323E9
:104FC00051E0FB681B681B68042213403BD0BB68A0
:104FD000802B38D0BB68402B35D0FB681B68DB6961
:104FE00008221340082B11D1FB681B6808221A62A3
:104FF000FB68180000F03CF8FB68902208219950EB
:10500000FB6884220021995401232CE0FB681B6873
:10501000DA6980231B011A4080231B019A4212D1B6
:10502000FB681B68802212011A62FB68180000F0FE
:105030001FF8FB68902220219950FB6884220021F0
:10504000995403230FE0FB681B68DB69BA681340BF
:10505000BA68D31A5A425341DBB21A00FB1D1B78BF
:105060009A429ED000231800BD4604B080BD0000C7
:1050700080B58EB000AF7860EFF310837B617B6901
:105080007B630123BB61BB6983F31088C0467B68E7
:105090001B681A687B681B6826490A401A607B6B8C
:1050A000FB61FB6983F31088C046EFF310833B621A
:1050B0003B6A3B6301237B627B6A83F31088C046B3
:1050C0007B681B689A687B681B681B490A409A606A
:1050D0003B6BBB62BB6A83F31088C0467B68DB6EA8
:1050E000012B18D1EFF31083BB60BB68FB62012377
:1050F000FB60FB6883F31088C0467B681B681A68F6
:105100007B681B6810218A431A60FB6A3B613B691C
:1051100083F31088C0467B688C22202199507B68DD
:105120000022DA667B6800225A67C046BD460EB090
:1051300080BDC046DFFEFFFFFEFFFFEF80B586B0FB
:1051400000AF7860396000233B6153E13B681B6826
:1051500001213A6991400A001340FB60FB68002B73
:1051600000D144E13B685B68022B03D03B685B687D
:10517000122B25D13B69DA087B6808329200D3589C
:105180007B613B69072213409B000F229A4013006A
:10519000DA437B6913407B613B681B690F221A402D
:1051A0003B6907210B409B009A4013007A69134327
:1051B0007B613B69DA087B68083292007969D150DB
:1051C0007B681B687B613B695B0003229A4013008C
:1051D000DA437B6913407B613B685B6803221A40BA
:1051E0003B695B009A4013007A6913437B617B68DB
:1051F0007A691A603B685B68012B0BD03B685B687F
:10520000022B07D03B685B68112B03D03B685B68BF
:10521000122B30D17B689B687B613B695B0003226A
:105220009A401300DA437B6913407B613B68DA687C
:105230003B695B009A4013007A6913437B617B688A
:105240007A699A607B685B687B6101223B699A405E
:105250001300DA437B6913407B613B685B681B0981
:1052600001221A403B699A4013007A6913437B611B
:105270007B687A695A603B685B68032B17D07B6850
:10528000DB687B613B695B0003229A401300DA43D1
:105290007B6913407B613B689A683B695B009A407D
:1052A00013007A6913437B617B687A69DA603B6833
:1052B0005A6880235B05134000D198E0534A3B694C
:1052C0009B0818339B009B587B613B69032213406A
:1052D000DB000F229A401300DA437B6913407B61A5
:1052E0007A68A023DB059A4219D07B68484A93422A
:1052F00013D07B68474A93420DD07B68464A93425D
:1053000007D07B68454A934201D1052308E0062374
:1053100006E0032304E0022302E0012300E000236F
:105320003A6903210A40D20093407A6913437B61B2
:1053300036493B699B0818339B007A695A50334AB7
:105340008023D3587B61FB68DA437B6913407B6120
:105350003B685A6880235B02134003D07A69FB687C
:1053600013437B61294980227B698B50274A842320
:10537000D3587B61FB68DA437B6913407B613B68F0
:105380005A6880239B02134003D07A69FB68134359
:105390007B611E4984227B698B501C4B1B687B619F
:1053A000FB68DA437B6913407B613B685A68802362
:1053B0005B03134003D07A69FB6813437B61134B93
:1053C0007A691A60114B5B687B61FB68DA437B6921
:1053D00013407B613B685A6880239B03134003D0D2
:1053E0007A69FB6813437B61084B7A695A603B69B1
:1053F00001333B613B681A683B69DA40131E00D0F9
:10540000A4E6C046C046BD4606B080BD00180240B6
:105410000004005000080050000C00500014005020
:1054200080B582B000AF786008001100BB1C021C80
:105430001A807B1C0A1C1A707B1C1B78002B04D062
:10544000BB1C1A887B689A6103E0BB1C1A887B68C6
:105450009A62C046BD4602B080BD80B584B000AF40
:1054600078600A00BB1C1A807B685B69FB60BB1C10
:105470001B88FA6813401A04FB68DB43B91C0988CF
:105480000B401A437B689A61C046BD4604B080BD9C
:10549000B0B584B000AF78603960304B1B78012B19
:1054A00001D1022356E02D4B01221A702B4B002212
:1054B0005A600F257C19FA239B00180000F00CF9A4
:1054C000030023702C003B191B78002B3CD17B6818
:1054D0001B68042B0AD100F045F83C19FA239B0005
:1054E000180000F0F9F8030023702DE03B6801225A
:1054F00052421A607B685B68BB6017E0BB681800AB
:1055000000F040F80F257C19FA239B00180000F0EA
:10551000E3F8030023707B191B78002B03D03B6852
:10552000BA681A600AE0BB680133BB607B685A68DE
:105530007B689B68D318BA689A42DFD3084B5A69D4
:10554000074B02218A435A61044B00221A700F2331
:10555000FB181B781800BD4604B0B0BD58080020E9
:105560000020024080B500AF044B5A69034B044948
:105570000A435A61C046BD4680BDC0460020024075
:105580000400010080B584B000AF7860084B5B690F
:10559000084A1340FB607B68DA00FB681A43044B3F
:1055A00005490A435A61C046BD4604B080BDC046A5
:1055B0000020024007FCFFFF02000100B0B586B0EA
:1055C00000AFF860B9603A607B60214B1B78012B1B
:1055D00001D1022338E01E4B01221A701C4B00221D
:1055E0005A6017257C19FA239B00180000F074F804
:1055F000030023707B191B78002B1FD1FB68012B44
:1056000006D13A687B68B968080000F0BFF805E089
:105610003A68BB681100180002F02EFA1723FC1834
:10562000FA239B00180000F057F803002370094B81
:105630005A69FB68D943074B0A405A61044B002260
:105640001A701723FB181B781800BD4606B0B0BDB2
:10565000580800200020024080B582B000AFFB1D3A
:1056600000221A700B4B5B69002B0CDA094B0A4ABB
:105670009A60084B094A9A60064B5B69002B02DA74
:10568000FB1D01221A70FB1D1B781800BD4602B0DD
:1056900080BDC0460020024023016745AB89EFCDA5
:1056A00080B582B000AFFB1D01221A70094B5A6908
:1056B000084B802109060A435A61064B5B69002B9F
:1056C00002DAFB1D00221A70FB1D1B781800BD4674
:1056D00002B080BD0020024080B584B000AF786089
:1056E000FEF750FE02007B689B18FB6007E0FEF7A8
:1056F00049FE0200FB68934201D803233BE0204BA4
:105700001A6980235B021A4080235B029A4201D10E
:10571000012300E00023002BE9D1194B1B69194A32
:105720001340BB60164BBA681A61BB68002B04D0EB
:10573000154BBA685A6001231DE0FEF723FE0200F4
:105740007B689B18FB6007E0FEF71CFE0200FB680D
:10575000934201D803230EE0094B1A698023DB0230
:105760001A408023DB029A4201D1012300E000238A
:10577000002BE9D100231800BD4604B080BDC0460F
:1057800000200240FAC3000058080020B0B584B0E1
:1057900000AFF8603A607B600B4B5A690A4B0121FD
:1057A0000A435A61FB683A681A60BFF36F8FC046BC
:1057B0007B681C0000231D00FB68043322001A6074
:1057C000C046BD4604B0B0BD0020024080B582B0E6
:1057D00000AF78607B68002B01D101234AE07B6831
:1057E0003D229B5CDBB2002B07D17B683C22002171
:1057F00099547B681800FDF72DF97B683D22022142
:1058000099547B681A687B6804331900100000F013
:1058100035F87B684822012199547B683E2201219A
:1058200099547B683F22012199547B6840220121D1
:1058300099547B684122012199547B6842220121BD
:1058400099547B684322012199547B6844220121A9
:1058500099547B684522012199547B684622012195
:1058600099547B684722012199547B683D2201218C
:10587000995400231800BD4602B080BD80B584B0A5
:1058800000AF786039607B681B68FB607B68374AD3
:10589000934208D07A688023DB059A4203D07B6864
:1058A000334A934208D1FB6870229343FB603B6804
:1058B0005B68FA681343FB607B682C4A934218D0FC
:1058C0007A688023DB059A4213D07B68284A93428A
:1058D0000FD07B68274A93420BD07B68264A9342BD
:1058E00007D07B68254A934203D07B68244A9342C1
:1058F00008D1FB68234A1340FB603B68DB68FA6809
:105900001343FB60FB68802293431A003B685B698A
:105910001343FB603B689A687B68DA623B681A68ED
:105920007B689A627B68114A93420BD07B68124A6B
:10593000934207D07B68114A934203D07B68104A98
:10594000934203D13B681A697B681A637B681B68C2
:1059500004221A437B681A607B6801225A617B68C3
:10596000FA681A60C046BD4604B080BD002C0140F4
:10597000000400400020004000400140004401407D
:1059800000480140FFFCFFFF80B584B000AF02007B
:10599000FB1D1A700F217B18FA1D12781A700A006D
:1059A000BB181B785BB2002B02DABB187F221A707F
:1059B0000F23FB181B781800BD4604B080BD80B5CE
:1059C00084B000AF0200FB1D1A70FB1D1B78F02B8A
:1059D00008D9FB1D1B78F92B04D80F23FB180122D3
:1059E0001A700EE0FB1D1B785BB2002B05DB0F234A
:1059F000FB18FA1D12781A7003E00F23FB1800221F
:105A00001A700F23FB181B781800BD4604B080BD28
:105A100090B587B000AF78600C0010001900FB1C37
:105A2000221C1A70BB1C021C1A707B1C0A1C1A70E8
:105A30000C203B181A780F210A40111C30220A430F
:105A40001A70FB1C1B780F221340DAB204003B18BB
:105A50000F210A4010001A780F218A43111C021CE2
:105A60000A431A703B19BA1C12785A707B1C1B78B7
:105A70001800FFF789FF03001A003B199A703B19C1
:105A80000333052200211800FBF7EAFF7B681B683F
:105A9000391908221800FBF7F5FF03007B617B69C9
:105AA0001800BD4607B090BD90B587B000AF7860D4
:105AB00039607B685B89072B05D9214B214A224835
:105AC000422100F011FD0C243B191A780F210A40E5
:105AD0001A707B685B891A1C0F231340DAB23B19DA
