:020000040801F1
:10000000FC770020193C0108053B01080D3B010865
:1000100000000000000000000000000000000000E0
:10002000000000000000000000000000193B010873
:100030000000000000000000213B0108DD3A01083B
:10004000293B010800000000313B0108393B010851
:10005000413B0108493B0108513B0108593B01085C
:1000600000000000613B0108693B0108713B010889
:10007000793B0108813B0108893B0108913B01085C
:10008000993B01080000000000000000A13B0108AE
:10009000C13B0108C93B0108D13B0108D93B01081C
:1000A000E13B0108E93B0108F13B0108F93B01088C
:1000B000013C0108093C0108ED3A0108113C010826
:1000C00080B582B000AF78607B68002B05D1144BFF
:1000D000144A1548082107F087FB7B681B7E012B1B
:1000E00005D0124B0F4A1048092107F07DFB7B68B1
:1000F0001B68002B05D10E4B0A4A0B480A2107F05A
:1001000073FB7B681B681B68002B05D1094B054AF4
:1001100005480B2107F068FBC046BD4602B080BD14
:1001200068900108C49101087C900108B49001080E
:10013000D0900108EC90010880B584B000AF7860E1
:1001400000220023BA60FB607B681800FFF7B8FF4D
:100150007B681B681B79042B21DC032B16DA012B2F
:1001600002D0022B09D01AE07B681B681B689847F5
:100170000300BB600023FB6017E07B681B681B6803
:1001800098470300BB600023FB600EE07B681B68A0
:100190001B6898470300BB600023FB6005E0064B2B
:1001A000064A0748202107F01FFBBA68FB681000C9
:1001B0001900BD4604B080BD18910108B491010832
:1001C0007C900108F0B58DB000AF7862002200236A
:1001D000BA62FB627B6A1800FFF772FF7B6A1B68DA
:1001E0001B79042B52D000DD72E0032B36D000DDEA
:1001F0006EE0012B02D0022B18D069E07B6A1869EF
:10020000596902000B00140E1D02FD61FD692543B2
:10021000FD611302BB61BA69FB69121A8B41B86AAE
:10022000F96A12184B41BA62FB6257E07B6A18699F
:10023000596902000B00140C1D047D617D69254382
:100240007D6113043B613A697B69121A8B41B86A7C
:10025000F96A12184B41BA62FB623FE07B6A186987
:10026000596902000B00140A1D06FD60FD68254354
:10027000FD601306BB60BA68FB68121A8B41B86A4E
:10028000F96A12184B41BA62FB6227E07B6A18696F
:100290005969B861F96102000B00160C1904796004
:1002A00079683143796013043B603A687B68B869C8
:1002B000F969121A8B41110C1D040D431404121913
:1002C0006B41B86AF96A12184B41BA62FB6205E0E9
:1002D0000A4B0B4A0B483B2107F086FA7B6A1A69E6
:1002E0005B69B86AF96A12184B41BA62FB62BA6A72
:1002F000FB6A10001900BD460DB0F0BD1891010851
:10030000D49101087C90010880B582B000AF78607C
:1003100039607B68002B05D1254B264A26484821A9
:1003200007F062FA3B68002B05D1244B214A224892
:10033000492107F059FA3B681B68002B05D1204B77
:100340001C4A1D484A2107F04FFA3B681B79002BD5
:1003500005D11C4B174A18484B2107F045FA3B685A
:100360001B79042B05D9184B124A13484C2107F06E
:100370003BFA7B6820220021180003F0CDF87B684F
:100380003A681A607968002200230A614B617B6831
:1003900001221A767B681800FFF7CEFE02000B00E0
:1003A00079688A60CB60C046BD4602B080BDC04659
:1003B00068900108A49101087C900108209101082F
:1003C00030910108509101087C91010880B582B0FC
:1003D00000AF78607B681800FFF772FE7B689A6850
:1003E000DB687968080000F007F802000B001000D5
:1003F0001900BD4602B080BD80B588B000AFF8607E
:100400003A607B60FB681800FFF75AFEFB68180033
:10041000FFF792FE02000B003A617B61002200238D
:10042000BA61FB61FB681800FFF7CCFE3A697B6993
:1004300012184B413A617B617A687B699A4207D80E
:100440007A687B699A420ED13A683B699A420AD926
:10045000386979693A687B68801A994102000B0013
:10046000BA61FB6109E0386979693A687B68801A8A
:10047000994102000B00BA61FB61BA69FB69100087
:100480001900BD4608B080BD80B582B000AF78606D
:100490007B68002B05D10A4B0A4A0B48702107F0F4
:1004A000A3F97B681A695B690120002112184B418E
:1004B00079680A614B61C046BD4602B080BDC04646
:1004C00068900108EC9101087C90010880B500AFAC
:1004D000044A054B11001800FFF716FFC046BD4641
:1004E00080BDC046000200209804002080B500AF07
:1004F000044B1800FFF76AFF02000B001000190000
:10050000BD4680BD9804002080B582B000AF386041
:1005100079603A687B6805490800FFF76DFF0200C3
:100520000B0010001900BD4602B080BD98040020E9
:1005300080B500AF034B1800FFF7A6FFC046BD46CD
:1005400080BDC04698040020B0B584B000AF78608C
:1005500008001100FB1C021C1A70BB1C0A1C1A703C
:100560007B68002B05D1314B314A32480D2107F011
:100570003BF97B685B68002B05D12F4B2C4A2D483B
:100580000E2107F031F97B685B68DB68002B05D131
:100590002A4B274A27480F2107F026F97B685B681A
:1005A0009B69002B05D1264B214A2248102107F0D8
:1005B0001BF97B685B685B69002B05D1214B1C4AEA
:1005C0001C48112107F010F90F257B1903221A701E
:1005D0007B685B681B7C7A1912789A4221D87B6809
:1005E0005B68DB687F221A707B685B68DB680133BD
:1005F000FA1C12781A707B685B68DB680233BA1CDD
:1006000012781A707B685B689C697B685B685869C4
:100610007B685B68D9687B191B789BB21A00A0477E
:1006200000E0C046BD4604B0B0BDC046FC91010824
:100630000096010810920108449201086092010896
:1006400084920108B892010880B586B000AFF860C6
:1006500008007A6019000B23FB18021C1A700A2389
:10066000FB180A1C1A70FB68002B05D12B4B2C4A77
:100670002C482C2107F0B8F87B68002B05D12A4BB9
:10068000274A28482D2107F0AFF81723FB1800222E
:100690001A701623FB18FF221A701523FB1800226C
:1006A0001A7017E015217B181B785BB27A68D31893
:1006B0001A78FB681B7A9A4205D11623FB187A1820
:1006C00012781A7010E015217B181B780133DAB20A
:1006D0007B181A701523FA180A23FB18127852B2E5
:1006E0001B785BB29A42DDDB1623FB181B785BB2EA
:1006F000013308D10B23FB181978FB687E22180000
:10070000FFF722FF03E01723FB1801221A701723BB
:10071000FB181B781800BD4606B080BDFC9101088F
:100720001096010810920108E892010880B584B083
:1007300000AF78607B68002B05D14D4B4D4A4E4889
:10074000472107F051F87B685B68002B05D14B4BC4
:10075000484A4948482107F047F87B685B68DB69ED
:10076000002B05D1464B434A4348492107F03CF84A
:100770007B685B685B68002B05D1424B3D4A3E4875
:100780004A2107F031F80D217B1802221A700F233D
:10079000FB18FF221A707B689B7A7A1812789A42AB
:1007A00008D97B68132210211800FFF7CDFE012322
:1007B0005B4258E00E23FB1800221A701FE07B6892
:1007C0005B68DA690E217B181B785BB25B00D3187B
:1007D0001A787B685B685B6801331B789A4205D1A5
:1007E0000F23FB187A1812781A7012E00E217B186A
:1007F0001B785BB2DBB20133DAB27B181A707B680C
:100800005B6820229B560E22BA18127852B29A4286
:10081000D5DB0F23FB181B785BB2013308D17B6853
:10082000122210211800FFF78FFE01235B421AE00D
:100830007B685B68DA690F23FB181B785BB25B008F
:10084000D3185A787B68DB7A9A4208D97B683322BE
:1008500010211800FFF778FE01235B4203E00F230D
:10086000FB181B785BB21800BD4604B080BDC046C3
:10087000FC9101082C96010810920108449201088D
:100880000093010834930108B0B584B000AF7860DC
:100890007B68002B05D1314B314A3248792106F073
:1008A000A3FF7B685B68002B05D12F4B2C4A2D489A
:1008B0007A2106F099FF7B685B68DB69002B05D124
:1008C0002A4B274A27487B2106F08EFF7B685B680E
:1008D0001B7801221340DBB2002B05D17B6811226B
:1008E00010211800FFF730FE0F257C197B681800D7
:1008F000FFF71CFF0300237029007B181B787F2B58
:1009000028D87B685B68DA697B181B785BB25B0070
:10091000D3181A787B681A727B685A7A7B681B7ABC
:100920009A420BD07B685B685B6A002B06D07B68C1
:100930005B685B6A7A68127A100098477B68197A5C
:100940007B685B681A8D7B685B685B8D786801F0FB
:1009500080FF00E0C046BD4604B0B0BDFC91010878
:10096000449601081092010844920108009301087E
:1009700080B582B000AF78607B68002B05D1134B47
:10098000134A14489E2106F02FFF7B685B68002BFA
:1009900005D1114B0E4A0F489F2106F025FF7B68B9
:1009A0005B681B7802221340DBB2002B05D17B6809
:1009B00011223E211800FFF7C7FD7B68180001F0E7
:1009C000DBFFC046BD4602B080BDC046FC910108B9
:1009D000549601081092010844920108F0B585B0C0
:1009E00000AF78607B68002B05D1804B804A81483E
:1009F000AE2106F0F9FE7B685B68002B05D17E4BCB
:100A00007B4A7C48AF2106F0EFFE7B685B685B6841
:100A1000002B05D1794B764A7648B02106F0E4FEEA
:100A20007B685B681B6B002B05D1754B704A714866
:100A3000B12106F0D9FE7B685B68DB6A002B05D12B
:100A4000704B6B4A6B48B22106F0CEFE7B685B6848
:100A50001B7804221340DBB2002B05D17B681122E6
:100A600011211800FFF770FD0D217B1802221A706A
:100A70000F23FB18FF221A700C23FB1800221A7098
:100A80007B689B7A7A1812789A4206D97B6813227F
:100A900011211800FFF758FDA5E00E23FB180022D6
:100AA0001A7022E07B685B68196B0E203B180022ED
:100AB0009A5613005B009B189B00CB181A787B6832
:100AC0005B685B6801331B789A4205D10F23FB18E2
:100AD0003A1812781A7012E00E217B181B785BB25C
:100AE000DBB20133DAB27B181A707B685B683422A0
:100AF0009B560E22BA18127852B29A42D2DB0F23BA
:100B0000FB181B785BB2013306D17B6812221121DE
:100B10001800FFF719FD66E07B685B68196B0F230F
:100B2000FB1800229A5613005B009B189B00CB1801
:100B30005A787B68DB7A9A4206D97B683322112186
:100B40001800FFF701FD4EE07B685B68196B0F260C
:100B5000BB1900229A5613005B009B189B00CB1810
:100B60005D687B685B68196BBB1900229A5613009D
:100B70005B009B189B00CB181B7A5BB20C22BC1845
:100B800078682A001121FFF75FFD030023700C2213
:100B9000BB181B7801225340DBB2002B22D17B68AB
:100BA0005B68196BBB1900229A5613005B009B18F7
:100BB0009B00CB181A787B681100180001F042FFE7
:100BC0007B685B68D96A7B685B68186BBB1900221D
:100BD0009A5613005B009B189B00C3181B781800E3
:100BE000884700E0C046BD4605B0F0BDFC91010855
:100BF0006C96010810920108449201083493010890
:100C00005893010884930108F0B585B000AF78606F
:100C10000A00FB1C1A707B68002B05D1804B814AAF
:100C20008148FB2106F0E0FD7B685B68002B05D165
:100C30007E4B7C4A7C48FC2106F0D6FD7B685B68D5
:100C4000DB6B002B05D17A4B764A7748FD2106F005
:100C5000CBFD7B685B689B6C002B05D1754B714AA3
:100C60007148FE2106F0C0FD0F23FB18FF221A7009
:100C70000D23FB1800221A700E23FB1800221A7095
:100C80001FE07B685B68D96B0E203B1800229A56E8
:100C900013005B009B18DB00CB181B78FA1C127842
:100CA0009A4205D10F23FB183A1812781A7012E0F5
:100CB0000E217B181B785BB2DBB20133DAB27B18F2
:100CC0001A707B685B6840229B560E22BA18127815
:100CD00052B29A42D5DB0F23FB181B787F2B06D923
:100CE0007B68122227211800FFF72EFC94E07B6816
:100CF0005B68D96B0F203B1800229A5613005B00EB
:100D00009B18DB00CB185B68002B0ED07B685B6800
:100D1000D96B3B1800229A5613005B009B18DB002E
:100D2000CB181B7B5BB2002B06DC7B6826222721BD
:100D30001800FFF709FC6FE07B685B68D96B0F2632
:100D4000BB1900229A5613005B009B18DB00CB18DE
:100D50001D697B685B68D96BBB1900229A5613002A
:100D60005B009B18DB00CB181B7D5BB20D22BC180F
:100D700078682A002721FFF767FC030023700D2203
:100D8000BB181B7801225340DBB2002B43D17B6898
:100D90005B689C6C7B685B68D96BBB1900229A56B8
:100DA00013005B009B18DB00CB1858687B685B68FE
:100DB000D96BBB1900229A5613005B009B18DB000D
:100DC000CB181B7B5BB2DAB2FB1C1B78010018004E
:100DD000A0477B685B68D96BBB1900229A56130049
:100DE0005B009B18DB00CB185C687B685B68D96B89
:100DF000BB1900229A5613005B009B18DB00CB182E
:100E00001B7B5BB2DAB2FB1C1978786813002200F6
:100E100001F082FE00E0C046BD4605B0F0BDC04610
:100E2000FC9101087C960108109201084492010887
:100E3000B4930108E0930108F0B589B002AF78607F
:100E40000A00FB1C1A707B68002B06D1C04BC14AFC
:100E50009D214900C04806F0C7FC7B685B68002BF9
:100E600006D1BE4BBB4A3C21FF31BB4806F0BCFC5F
:100E70007B685B68DB6B002B06D1B94BB54A9E21C2
:100E80004900B54806F0B0FC7B685B685B6C002BE2
:100E900006D1B44BAF4A3E21FF31AF4806F0A4FC67
:100EA0001723FB18FF221A701523FB1800221A7053
:100EB00001235B423B610F23FB1802221A701623A9
:100EC000FB1800221A701FE07B685B68D96B162044
:100ED0003B1800229A5613005B009B18DB00CB18CE
:100EE0005B78FA1C12789A4205D11723FB183A183E
:100EF00012781A7012E016217B181B785BB2DBB2F5
:100F00000133DAB27B181A707B685B6840229B560B
:100F10001622BA18127852B29A42D5DB7B685B6807
:100F2000D96B1723FB1800229A5613005B009B18FD
:100F3000DB00CB181B7B5BB2D9B20F203B183A18F1
:100F400012788A181A707B689B7A3A1812789A423B
:100F500006D07B68132227211800FFF7F5FAF4E08A
:100F60001723FB181B787F2B06D97B6812222721B9
:100F70001800FFF7E9FAE8E07B685B68D96B172097
:100F80003B1800229A5613005B009B18DB00CB181D
:100F90009B68002B0ED07B685B68D96B3B180022E6
:100FA0009A5613005B009B18DB00CB185B7B5BB28F
:100FB000002B06DC7B68262227211800FFF7C4FAE5
:100FC000C3E07B685B68D96B1726BB1900229A5671
:100FD00013005B009B18DB00CB181D697B685B6806
:100FE000D96BBB1900229A5613005B009B18DB00DB
:100FF000CB181B7D5BB21522BC1878682A0027210C
:10100000FFF722FB030023701522BB181B78012277
:101010005340DBB2002B00D096E07B685B685C6CD1
:101020007B685B68D96BBB1900229A5613005B0082
:101030009B18DB00CB1818787B685B68D96BBB19F1
:1010400000229A5613005B009B18DB00CB185D68EA
:101050007B685B68D96BBB1900229A5613005B0052
:101060009B18DB00CB189E687B685B68D96B1723E5
:10107000FB1800229A5613005B009B18DB00CB186C
:101080001B7B5BB2DAB294467B685B68D96B172333
:10109000FB1800229A5613005B009B18DB00CB184C
:1010A0005B7B5BB2DBB20093634632002900A04752
:1010B0007B685B685B68981C7B685B68D96B1725ED
:1010C0007B1900229A5613005B009B18DB00CB189B
:1010D0009C687B685B68D96B7B1900229A56130069
:1010E0005B009B18DB00CB185B7B5BB21A00210016
:1010F00006F0AEFB03003B613B69002B06D07B682A
:10110000352227211800FFF71FFA1EE0FB1C1A7872
:101110007B681100180001F089FD7B68FA1C1278C9
:10112000DA727B685B689B6B002B0ED07B681A7B46
:101130007B68DB7A9A4208D07B685B689B6B7A6835
:10114000D27A1000984700E0C046BD4607B0F0BD17
:10115000FC91010898960108109201084492010838
:10116000B493010818940108F0B585B000AF786019
:101170007B68002B06D1654B654AD0214900654844
:1011800006F032FB7B685B68002B06D1624B604A3D
:10119000A221FF315F4806F027FB7B685B685B6834
:1011A000002B06D15D4B5A4AD1214900594806F01F
:1011B0001BFB7B685B68DB6B002B06D1584B544AEA
:1011C000A421FF31534806F00FFB7B685B685B6C22
:1011D000002B06D1534B4E4AD22149004D4806F010
:1011E00003FB7B685B689B6C002B06D14E4B484A27
:1011F000A621FF31474806F0F7FA7B685B681B7849
:1012000008221340DBB2002B05D17B681122272175
:101210001800FFF799F90F26BB1902221A700E2148
:101220007B1800221A707B685B68DB6B1A697B682D
:101230005B68DB6B1B7D5BB20D007C187868272137
:10124000FFF702FA030023707B191B780122534039
:10125000DBB2002B56D17B689B7ABA1912789A427E
:1012600006D97B68132227211800FFF76DF94AE0A1
:101270007B685B685A680D217B1852781A700A00E7
:10128000BB181B78012B0FD0BB181B78032B0BD07E
:10129000BB181B78052B07D0BB181B78062B0CD965
:1012A000BB181B78412B08D80D23FB181A787B68D4
:1012B00011001800FFF7A8FC25E00D22BB181B78D1
:1012C000022B0FD0BB181B78042B0BD0BB181B783C
:1012D000062B07D0BB181B78072B0CD9BB181B7823
:1012E000422B08D80D23FB181A787B6811001800D0
:1012F000FFF7A2FD07E07B68122227211800FFF705
:1013000023F900E0C046BD4605B0F0BDFC910108E0
:10131000B496010810920108449201083493010820
:10132000B493010818940108E0930108F0B589B05E
:1013300002AF78607B68002B06D1C44BC44AEC2115
:10134000FF31C44806F050FA7B685B68002B06D179
:10135000C14BBF4AF6214900BE4806F045FA7B68FA
:101360005B685B68002B06D1BC4BB94AEE21FF31AC
:10137000B84806F039FA7B685B681B781022134086
:10138000DBB2002B05D17B68112231211800FFF759
:10139000DBF815217B1804221A701223FB18012296
:1013A00052421A801023FB1800221A801723FB18C0
:1013B000FF221A700F23FB1800221A707B689B7A99
:1013C0007A1812789A4206D97B68132231211800C4
:1013D000FFF7BAF8CAE17B685B685A680E23FB180E
:1013E00052781A707B689B7A9AB21523FB181B7887
:1013F0009BB2D31A9AB21223FB181A807B685B68DF
:101400001B6D002B04D07B685B685B6D002B06DCDA
:101410007B68112231211800FFF796F8A6E17B685E
:101420005B685B6802331B781B021AB27B685B68DF
:101430005B6803331B781BB213431AB21023FB18EB
:101440001A801623FB1800221A7020E07B685B6864
:10145000196D16203B1800229A561300DB009B1AC8
:10146000DB00CB185B881022BA1812889A4205D18B
:101470001723FB183A1812781A7011E016217B18FE
:101480001B785BB2DBB20133DAB27B181A70162319
:10149000FB1800229A567B685B685B6D9A42D5DB2D
:1014A0001723FB181B785BB2013306D17B6811222E
:1014B00031211800FFF748F858E17B685B68196D27
:1014C0001723FB1800229A561300DB009B1ADB003F
:1014D000CB189A7B7B68DB7A9A4206D97B683322E9
:1014E00031211800FFF730F840E17B685B68196D27
:1014F00017203B1800229A561300DB009B1ADB00D2
:10150000CB181D697B685B68196D3B1800229A56E1
:101510001300DB009B1ADB00CB181B7D5BB20F2690
:10152000BC1978682A003121FFF78EF80300237078
:10153000BB191B7801225340DBB2002B00D014E111
:101540000E23FB181B78012B03D0032B00D1C2E024
:1015500004E11223FB1800229B5E002B06DA7B6855
:10156000132231211800FEF7EFFFFFE012243B1990
:1015700000229B5E002B16DD7B685B68196D1723CC
:10158000FB1800229A561300DB009B1ADB00CB18D5
:1015900058687B685B685B68191D3B1900229B5E7D
:1015A0001A0006F063F91223FB180021595E7B68CC
:1015B0005B68186D1723FB1800229A561300DB0096
:1015C0009B1ADB00C3181B7B994206D07B68132251
:1015D00031211800FEF7B8FFC8E07B685B68196D21
:1015E00017203B1800229A561300DB009B1ADB00E1
:1015F000CB181B7B002B13D07B685B68196D3B18E5
:1016000000229A561300DB009B1ADB00CB185B68A4
:10161000002B05D1124B0E4A12490E4806F0E4F891
:101620007B685B68196D1723FB1800229A5613001C
:10163000DB009B1ADB00CB181B78032B14D07B68D4
:10164000212231211800FEF77FFF8FE0FC91010875
:10165000CC960108109201084492010834930108C5
:101660004C940108690200007B685B68196D1725BE
:101670007B1900229A561300DB009B1ADB00CB1863
:1016800000221A707B685B68D86C7B685B68196D98
:101690007B1900229A561300DB009B1ADB00CC1842
:1016A000FEF794FE02000B00226263627B685B68B7
:1016B000D86C7B685B68196D7B1900229A56130001
:1016C000DB009B1ADB00CC18FEF780FE02000B004B
:1016D000A262E3624AE07B685B68196D1723FB181E
:1016E00000229A561300DB009B1ADB00CB181B78F4
:1016F000032B06D07B68212231211800FEF724FF3E
:1017000034E07B685B68196D17203B1800229A56FD
:101710001300DB009B1ADB00CB185C887B685B68DE
:10172000196D3B1800229A561300DB009B1ADB0050
:10173000CB189D687B685B68196D3B1800229A5630
:101740001300DB009B1ADB00CB185B7B78680093EF
:101750002B002200032101F0D3FA07E07B6812225C
:1017600031211800FEF7F0FE00E0C046BD4607B08C
:10177000F0BDF0B589B002AF78607B68002B06D170
:101780009D4B9E4AA72189009D4806F02DF87B6855
:101790005B68002B05D19B4B984A9B49984806F003
:1017A00023F87B685B685B6D002B0ADD7B685B68F8
:1017B0001B6D002B05D1954B904A9549904806F03A
:1017C00013F800220023BA60FB6000237B61A9E0CC
:1017D0007B685B68196D7A691300DB009B1ADB007C
:1017E000CB181B78032B00D199E07B6801225A7338
:1017F0007B685B68196D7A691300DB009B1ADB005C
:10180000CB181B6B002B06D1824B7C4AAB21890085
:101810007B4805F0E9FF7B685B68196D7A69130006
:10182000DB009B1ADB00CB18196B7B685B68186DBB
:101830007A691300DB009B1ADB00C3181800884785
:101840007B685B68D86C7B685B68196D7A6913008C
:10185000DB009B1ADB00CB181A6A5B6AFEF7CCFD33
:1018600002000B00BA60FB607B685B68196D7A69E7
:101870001300DB009B1ADB00CB189A69DB69F9685F
:10188000994205D8F96899420DD1B96891420AD9AF
:101890007B685B68196D7A691300DB009B1ADB00BB
:1018A000CB1804221A707B685B68D86C7B685B6815
:1018B000196D7A691300DB009B1ADB00CB189A6A5A
:1018C000DB6AFEF799FD02000B00BA60FB607B68E3
:1018D0005B681B8D643B1C00DB171D00FB68AB4283
:1018E00005D8FB68AB421AD1BB68A34217D97B6805
:1018F000782231211800FEF727FE7B685B68D86CE0
:101900007B685B68196D7A691300DB009B1ADB004A
:10191000CE18FEF75BFD02000B00B262F3627B693A
:1019200001337B617B685B685B6D7A699A4200DAA0
:101930004EE700233B6154E07B685B68196D3A69B0
:101940001300DB009B1ADB00CB181B78022B13D093
:10195000042B42D17B68262231211800FEF7F4FDCA
:101960007B685B68196D3A691300DB009B1ADB002A
:10197000CB1803221A7031E07B685B68196D3A69F5
:101980001300DB009B1ADB00CB185C887B685B686C
:10199000196D3A691300DB009B1ADB00CB189D68B8
:1019A0007B685B68196D3A691300DB009B1ADB00EA
:1019B000CB185B7B786800932B002200012101F09B
:1019C0009FF97B685B68196D3A691300DB009B1A0D
:1019D000DB00CB1803221A7000E0C0463B690133DC
:1019E0003B617B685B685B6D3A699A42A4DBC046E9
:1019F000C046BD4607B0F0BDFC910108E096010865
:101A000010920108449201089D0200004C940108C4
:101A1000A302000054940108F0B587B000AF7860CD
:101A20007B68002B05D1A34BA34AA449A44805F029
:101A3000DBFE7B685B68002B05D1A24B9E4AA24966
:101A40009F4805F0D1FE7B685B685B68002B06D180
:101A50009E4B994ABC218900994805F0C5FE7B68D8
:101A60005B681B7820221340DBB2002B05D17B681A
:101A700011222E211800FEF767FD0F217B1803228B
:101A80001A7001235B427B610E23FB1800221A703F
:101A90000C23FB18012252421A807B689B7A7A1829
:101AA00012789A4206D97B6813222E211800FEF77D
:101AB0004BFDFBE07B685B685B6801331B781B02B6
:101AC0001AB27B685B685B6802331B781BB21343F6
:101AD0001AB20A23FB181A8000233B6114E07B68CA
:101AE0005B68996D3A6913009B009B189B00CB18AB
:101AF0001B880A22BA1812889A4202D13B697B617C
:101B000008E03B6901333B617B685B68DB6D3A69E8
:101B10009A42E4DB7B69013306D17B6831222E21B6
:101B20001800FEF711FDC1E07B685B68996D7A696A
:101B300013009B009B189B00CB189A7A7B68DB7A7A
:101B40009A4206D97B6833222E211800FEF7FCFC4E
:101B5000ACE07B685B68996D7A6913009B009B1809
:101B60009B00CB18DD687B685B68996D7A69130010
:101B70009B009B189B00CB181B7C5BB20E26BC19EC
:101B800078682A002E21FEF75FFD03002370BB1941
:101B90001B7801225340DBB2002B00D085E07B682C
:101BA0005B68996D7A6913009B009B189B00CB18AA
:101BB0001B7A002B11D07B685B68996D7A691300E2
:101BC0009B009B189B00CB185B68002B05D1404BFA
:101BD000394A40493A4805F007FE7B689B7A9AB239
:101BE0000F23FB181B789BB2D31A9AB20C217B18D7
:101BF0001A807B1800229B5E002B06DA7B6813227A
:101C00002E211800FEF7A0FC50E00C23FB18002149
:101C1000595E7B685B68986D7A6913009B009B181E
:101C20009B00C3181B7A994206D07B6813222E2191
:101C30001800FEF789FC39E07B685B68996D7A696A
:101C400013009B009B189B00CB185B7A012253402A
:101C5000DBB2002B06D07B6826222E211800FEF76F
:101C600073FC23E00C243B1900229B5E002B13DD48
:101C70007B685B68996D7A6913009B009B189B00D9
:101C8000CB1858687B685B685B68D91C3B190022DD
:101C90009B5E1A0005F0EAFD0A23FB181A887B6890
:101CA0001100180001F0C6F800E0C046BD4607B0BC
:101CB000F0BDC046FC910108FC960108EE02000050
:101CC0001092010844920108EF02000034930108C9
:101CD0004C94010837030000F0B591B000AF786371
:101CE0007B6B002B06D1CA4BCA4AD9218900CA484E
:101CF00005F07AFD7B6B5B68002B05D1C74BC54AAD
:101D0000C749C54805F070FD7B6B5B681B6E002BF7
:101D100005D1C44BBF4AC449BF4805F065FD7B6B84
:101D20005B681A7840231340DBB2002B05D17B6B34
:101D3000112234211800FEF707FC0D2328201B1860
:101D40000822BA189A18002313700C210B180822C5
:101D5000BA189A18032313700B231B180822BA18F9
:101D60009A18002313700A231B180822BA189A180D
:101D7000002313707B6B9A7A0B1808218C46BC44A5
:101D800063441B78934206D97B6B132234211800DD
:101D9000FEF7DAFBCAE17B6B5B685B6802331A789B
:101DA0007B6B59680F231340DBB278228B547B6B1B
:101DB0005B685B6802331A787B6B59681309DBB286
:101DC00079228B547B6B5A687823D15C7B6B5A6881
:101DD0007923D35CCB18DAB20C202824031908210C
:101DE0007918591803190825AC46BC4463441B787C
:101DF000D3180B707B6B9A7A031908218C46BC446C
:101E000063441B78934206D07B6B13223421180065
:101E1000FEF79AFB8AE17B6B5A687C23D25C7B6B72
:101E2000DB7A9A4206D97B6B332231211800FEF708
:101E30008BFB7BE17B6B5A688023D1587B6B5A68A4
:101E40008423D3560D222825521908203818141837
:101E5000786B0A003121FEF7F7FB030023700D2297
:101E60002800131808229446BC4463441A780123BE
:101E70005340DBB2002B00D057E17B6B5968002246
:101E800000238A66CB660F231B180822BA189A18FB
:101E90000023137060E07B6B5A687823D25C0F24B8
:101EA0002825631908218C46BC4463441B78D31A47
:101EB000DBB20B22521908218C46BC446244023327
:101EC00013707B6B5B68986ED96E7B6B5B685A682E
:101ED0000B235B190826B446BC4463441B78D31813
:101EE0001B783B6200237B62631908229446BC4442
:101EF00063441B78DA001300203B002B03DB3C6AB1
:101F00009C40FC620AE020239B1A3C6ADC402300D0
:101F10007C6A9440FC62FC6A1C43FC623B6A93400E
:101F2000BB627B6B5B68BA6A02433A61FA6A0A4336
:101F30007A6139697A699966DA660F22282153181D
:101F400008208446BC4463441B78521808218C4600
:101F5000BC446244013313707B6B5A687823D25CB3
:101F60000F2328201B1808218C46BC4463441B788F
:101F7000934290D37B6B5968002200230A674B671A
:101F80000E231B1808229446BC44634400221A7096
:101F900076E07B6B5B6878229A5C7B6B5B6879216F
:101FA0005B5CD318DAB20E2428216318082084461B
:101FB000BC4463441B78D31ADAB20B230D005B18C0
:101FC00008218C46BC44634402321A707B6B5B6808
:101FD0001A6F5B6F796B496848680B214E190821AD
:101FE00079187118097841180978B9610021F961E7
:101FF0002900611808208446BC4461440978C9005E
:1020000008002038002811DBBC6984407C6018E09F
:10201000FC910108149701081092010844920108EC
:102020006503000088940108660300002020401A20
:10203000BC69C4402000FC698C407C607C6804431F
:102040007C60B86988403860796B496810003C68EA
:102050002043B8607A681343FB60BB68FC680B6779
:102060004C670E2128200B1808229446BC44634478
:102070001A780B1808218C46BC44634401321A704C
:102080007B6B5B6879229B5C0E2228215218082109
:102090008C46BC44624412789A4200D279E77B6B4A
:1020A0005B689A6EDB6E1100194306D07B6B5B6830
:1020B0001A6F5B6F1100194306D17B6B1322342119
:1020C0001800FEF741FA31E07B6B5B681A6E7B6BA0
:1020D0005B6860330A252826A919082038180C18CF
:1020E0001800904703002370AB1908229446BC44A3
:1020F00063441B7801225340DBB2002B06D07B6B7C
:10210000262234211800FEF71FFA0FE07B6B5B6874
:102110009A6EDB6E796B0A614B617B6B01229A735D
:102120007B6B180000F0FAFE00E0C046BD4611B01F
:10213000F0BDB0B584B000AF78607B68002B05D1EE
:10214000344B354A3549364805F04EFB7B685B68B1
:10215000002B05D1334B304A3349314805F044FB5D
:102160007B685B685B68002B06D1304B2A4AF521FF
:1021700089002B4805F038FB7B685B681B787F2261
:102180009343DBB2002B05D17B6811223721180065
:10219000FEF7DAF90F23FB1800221A707B685B68E0
:1021A0008C229A5C7B68DB7A9A4206D97B68332260
:1021B00037211800FEF7C8F929E07B685B68902298
:1021C0009A587B685B6894215B560F257C19786868
:1021D0003721FEF739FA030023707B191B7801229F
:1021E0005340DBB2002B11D17B685B6888229B587F
:1021F00098477968002200230A614B617B680022BE
:102200009A737B68180000F025FF00E0C046BD46C9
:1022100004B0B0BDFC91010828970108D20300006A
:102220001092010844920108D3030000349301087E
:10223000F0B585B000AF78607B68002B05D1714B9D
:10224000714A7249724805F0CFFA7B685B68002BCF
:1022500005D1704B6C4A70496D4805F0C5FA7B6832
:102260005B685B68002B06D16C4B674A8021C90014
:10227000674805F0B9FA7B685B68A0229B58002B81
:1022800005D1674B604A6749614805F0ADFA7B6844
:102290005B685B7801221340DBB2002B05D17B68C1
:1022A000112236211800FEF74FF90F23FB180022E8
:1022B0001A700E217B1802221A707B689B7A1A0012
:1022C0007B181B78D31ABB60BB68002B06DA7B68CF
:1022D000132236211800FEF737F98FE07B685B6820
:1022E0009C229B5A1A00BB68934202DCBB68002BFD
:1022F00006DA7B68312236211800FEF725F97DE0E9
:102300007B685B68A4229A5C7B68DB7A9A4206D978
:102310007B68332236211800FEF716F96EE07B68E1
:102320005B68A8229A587B685B68AC215B560F21DA
:102330007E1878683621FEF787F9030033700F2185
:102340007B181B7801225340DBB2002B55D17B68F0
:102350005B68BA6891B29E2299527B685B6898224A
:1023600098587B685B685B680233BA68190005F0AF
:102370007DFA7B685B685A687B685B685178AD2240
:1023800099547B689A7B7B685B68AD215B5C9A4261
:1023900006D07B68732236211800FEF7D5F82DE0B1
:1023A0007B6859687B681A695B69B0310A604B6069
:1023B0007B685B68A0229A587B685B68983318003A
:1023C00090477B685B68AD229A5C7B6811001800BF
:1023D00000F094FE7B689B7B0133DAB27B689A73D2
:1023E0007B681A695B69B9680C00C9170D0012197E
:1023F0006B4179680A614B6100E0C046BD4605B09B
:10240000F0BDC046FC91010840970108FE030000A2
:102410001092010844920108FF0300003493010860
:10242000C09401080104000080B582B000AF78605C
:102430007B68002B05D13C4B3C4A3D493D4805F0AB
:10244000D3F97B681B78012B05D03B4B374A3B49BE
:10245000384805F0C9F97B6800225A737B68180078
:10246000FFF787F97B685B7B002B57D17B689B7AF2
:10247000002B55D07B685B685B681B78103B2E2B6C
:1024800031D89A002E4BD3181B689F467B681800E2
:10249000FEF7FAF931E07B681800FEF769FA2CE0E4
:1024A0007B681800FEF79AFA27E07B681800FEF7B1
:1024B0005BFE22E07B681800FEF738FF1DE07B68BA
:1024C0001800FFF7A9FA18E07B681800FFF704FC72
:1024D00013E07B681800FFF72CFE0EE07B68180005
:1024E000FFF7A6FE09E07B685B685B6819787B688C
:1024F00011221800FEF728F8C0467B6800229A7265
:102500007B685B685B6800221A707B681A7A7B685C
:102510005A727B68DA7A7B681A7302E0C04600E080
:10252000C046BD4602B080BDFC9101085497010829
:102530005904000010920108F49401085A040000A4
:102540001095010880B500AF034B1800FFF76CFF32
:10255000C046BD4680BDC046F805002080B582B0AB
:1025600000AF786039607B68002B05D1274B284A83
:102570002849294805F038F93B68002B05D1274B3D
:10258000234A2749244805F02FF97B683A685A60A6
:102590003B68B9229A5C7B681A723B68B9229A5CE4
:1025A0007B685A727B6800229A723B68B8229A5CF8
:1025B0007B68DA723B68B8229A5C7B681A737B6826
:1025C00001221A703B68BA229B5C002B0AD07B6800
:1025D0005B681A8D7B685B685B8D7868022100F010
:1025E00038F90EE03B68BB229B5C002B09D07B686E
:1025F0005B681A8D7B685B685B8D7868032100F0EF
:1026000028F9C046BD4602B080BDC046FC91010815
:10261000649701089B04000010920108CC95010802
:102620009C04000080B500AF044A054B110018005F
:10263000FFF794FFC046BD4680BDC0468002002023
:10264000F805002080B582B000AF78607B68002B71
:1026500005D10B4B0B4A0C490C4805F0C5F87B68BB
:102660005B68002B05D10A4B064A0A49074805F06A
:10267000BBF87B685B681800BD4602B080BDC046F1
:10268000FC91010870970108C20400001092010833
:1026900044920108C304000080B500AF014B18004C
:1026A000BD4680BD8002002080B584B000AFF860D8
:1026B000B960FB1D1A70FB68002B05D11E4B1F4A29
:1026C0001F49204805F090F8FB681B78012B06D0C5
:1026D0001D4B1A4A9A21C9001A4805F085F8BB68B3
:1026E000002B05D1194B154A1949164805F07CF8FD
:1026F000FB1D1B78002B05D1164B104A16491148BB
:1027000005F072F8FB685B681B7AFA1D12789A4232
:102710000DD8FB685B685868FB1D1A78BB68190008
:1027200005F0A4F8FB68FA1D12789A7200E0C04622
:10273000BD4604B080BDC046FC91010884970108E5
:10274000CF04000010920108F4940108DC95010800
:10275000D1040000F0950108D204000080B582B0D9
:1027600000AF78600A00FB1C1A70FB1C1A787968AD
:10277000034B1800FFF798FFC046BD4602B080BD6E
:10278000F805002080B582B000AF78607B68002B30
:1027900005D1064B064A0749074805F025F87B682E
:1027A0001B7A1800BD4602B080BDC046FC910108EE
:1027B00098970108EC0400001092010880B500AF62
:1027C000034B1800FFF7DEFF03001800BD4680BD75
:1027D000F805002080B582B000AF78607B68002BE0
:1027E00006D1064B064A9F21C900064804F0FCFFAB
:1027F0007B68DB7A1800BD4602B080BDFC91010801
:10280000AC9701081092010880B500AF034B180087
:10281000FFF7E0FF03001800BD4680BDF80500206B
:1028200090B583B000AF78600A00FB1C1A707B681B
:102830005B689C697B685B6858697B685B68D96882
:10284000FB1C1B789BB21A00A047C046BD4603B0D4
:1028500090BD90B587B000AFF8600C001000190073
:102860000B23FB18221C1A700823FB18021C1A8069
:10287000BB1D0A1C1A801723FB1806221A70FB685E
:10288000002B05D1354B364A36481E2104F0ACFFEB
:10289000FB685B68002B05D1334B314A31481F215F
:1028A00004F0A2FFFB685B68DB68002B05D12F4BAF
:1028B0002B4A2C48202104F097FFFB685B689B693A
:1028C000002B05D12A4B264A2648212104F08CFFF3
:1028D000FB685B681B7C1722BA1812789A4205D3F2
:1028E000244B1F4A1F48222104F07EFF00233B6136
:1028F000FB685B68DB683B613B6950221A703B698F
:1029000001330B22BA1812781A7008217B181B8821
:102910001B0A9AB23B690233D2B21A703B69033385
:102920007A181288D2B21A70BB1D1B881B0A9AB281
:102930003B690433D2B21A703B690533BA1D128861
:10294000D2B21A701723FB181A78FB68110018000E
:10295000FFF766FFC046BD4607B090BDC8970108A7
:10296000EC980108DC9701081498010830980108D8
:10297000549801088898010880B584B000AF786049
:102980000F23FB1802221A707B68002B05D1264BFF
:10299000264A2748362104F027FF7B685B68002B16
:1029A00005D1244B214A2248372104F01DFF7B68C2
:1029B0005B68DB68002B05D11F4B1C4A1C48382183
:1029C00004F012FF7B685B689B69002B05D11B4BF1
:1029D000164A1748392104F007FF7B685B681B7CA7
:1029E0000F22BA1812789A4205D3154B0F4A104895
:1029F0003A2104F0F9FE0023BB607B685B68DB686A
:102A0000BB60BB687E221A70BB68013300221A705B
:102A10000F23FB181A787B6811001800FFF700FFDE
:102A2000C046BD4604B080BDC897010800990108A2
:102A3000DC9701081498010830980108549801089F
:102A40008898010880B584B000AF78600A00FB1C4C
:102A50001A700F23FB1802221A707B68002B05D115
:102A6000264B274A27484D2104F0BEFE7B685B6851
:102A7000002B05D1244B224A22484E2104F0B4FEFB
:102A80007B685B68DB68002B05D1204B1C4A1D4826
:102A90004F2104F0A9FE7B685B689B69002B05D180
:102AA0001B4B174A1748502104F09EFE7B685B6859
:102AB0001B7C0F22BA1812789A4205D3154B104A84
:102AC0001048512104F090FE0023BB607B685B68D6
:102AD000DB68BB60BB6851221A70BB680133FA1C0B
:102AE00012781A700F23FB181A787B6811001800EF
:102AF000FFF796FEC046BD4604B080BDC8970108EA
:102B00001C990108DC970108149801083098010805
:102B1000549801088898010880B586B000AFF86025
:102B200008007A6019000B23FB18021C1A700A2097
:102B30003B180A1C1A701723FB183A181278023235
:102B40001A70FB68002B05D1304B314A31486721A0
:102B500004F04AFE7B68002B05D12F4B2C4A2D48F0
:102B6000682104F041FEFB685B68002B05D12B4B0C
:102B7000274A2848692104F037FEFB685B68DB6858
:102B8000002B05D1264B224A22486A2104F02CFE54
:102B9000FB685B689B69002B05D1224B1C4A1D48D2
:102BA0006B2104F021FEFB685B681B7C1722BA18BE
:102BB00012789A4205D31C4B154A16486C2104F032
:102BC00013FE00233B61FB685B68DB683B613B698C
:102BD00067221A703B6901330B22BA1812781A70F7
:102BE0003B69981C0A23FB181A787B68190004F0CB
:102BF0003DFE1723FB181A78FB6811001800FFF739
:102C00000FFEC046BD4606B080BDC046C89701084D
:102C100030990108DC970108B09801081498010860
:102C200030980108549801088898010880B584B04C
:102C300000AF78600A00FB1C1A700F23FB180222F9
:102C40001A707B68002B05D1264B274A2748802124
:102C500004F0CAFD7B685B68002B05D1244B224A37
:102C60002248812104F0C0FD7B685B68DB68002B93
:102C700005D1204B1C4A1D48822104F0B5FD7B681C
:102C80005B689B69002B05D11B4B174A17488321B2
:102C900004F0AAFD7B685B681B7C0F22BA181278CF
:102CA0009A4205D3154B104A1048842104F09CFD2C
:102CB0000023BB607B685B68DB68BB60BB68672226
:102CC0001A70BB680133FA1C12781A700F23FB18B4
:102CD0001A787B6811001800FFF7A2FDC046BD46B8
:102CE00004B080BDC897010848990108DC97010825
:102CF0001498010830980108549801088898010830
:102D000080B586B000AFF860080011007B600B232F
:102D1000FB18021C1A700823FB180A1C1A801723C0
:102D2000FB1804221A70FB68002B05D13A4B3B4A72
:102D30003B489B2104F058FDFB685B68002B05D1E4
:102D4000384B364A36489C2104F04EFDFB685B68E0
:102D5000DB68002B05D1344B304A31489D2104F00B
:102D600043FDFB685B689B69002B05D12F4B2B4A09
:102D70002B489E2104F038FD17203A1839182023DB
:102D8000FB1809781B78CB181370FB685B681B7CF9
:102D90003A1812789A4205D3254B204A2048A2219E
:102DA00004F022FD00233B61FB685B68DB683B614C
:102DB0003B6971221A703B6901330B22BA181278F1
:102DC0001A7008217B181B881B0A9AB23B690233D0
:102DD000D2B21A703B6903337A181288D2B21A70D1
:102DE0002022BB181B78002B0AD07B68002B07D051
:102DF0003B69181DBB181A787B68190004F036FD72
:102E00001723FB181A78FB6811001800FFF708FD5C
:102E1000C046BD4606B080BDC8970108609901084C
:102E2000DC970108149801083098010854980108AB
:102E30008898010880B584B000AF78600A00BB1C98
:102E40001A800F23FB1803221A707B68002B05D110
:102E50002B4B2C4A2C48BB2104F0C6FC7B685B68DA
:102E6000002B05D1294B274A2748BC2104F0BCFC84
:102E70007B685B68DB68002B05D1254B214A224823
:102E8000BD2104F0B1FC7B685B689B69002B05D118
:102E9000204B1C4A1C48BE2104F0A6FC7B685B68E2
:102EA0001B7C0F22BA1812789A4205D31A4B154A86
:102EB0001548BF2104F098FC0023BB607B685B6869
:102EC000DB68BB60BB686E221A70BB1C1B881B0AC8
:102ED0009AB2BB680133D2B21A70BB680233BA1C13
:102EE0001288D2B21A700F23FB181A787B6811006F
:102EF0001800FFF795FCC046BD4604B080BDC04633
:102F0000C897010878990108DC970108149801080E
:102F100030980108549801088898010880B584B059
:102F200000AF78607B68002B05D1434B434A44488F
:102F3000CC2104F059FC7B685B68002B05D1414B28
:102F40003E4A3F48CD2104F04FFC7B685B68DB685C
:102F5000002B05D13C4B394A3948CE2104F044FCC2
:102F60007B685B689B69002B05D1384B334A34483A
:102F7000CF2104F039FC0E217B1802221A700D209B
:102F80003B187A18127802321A707B685B681B7CD7
:102F90003A1812789A4205D32D4B284A2848D8214E
:102FA00004F022FC7B685B68DB6874221A700E23D5
:102FB000FB181B781A017B685B68DB680133D2B2AF
:102FC0001A700F23FB1800221A7020E07B685B68E0
:102FD0007A229B5A9A1C0E23FB181B78591E0F202D
:102FE0003B181B78CB1ADB001A410C217B181A7096
:102FF0007B685B68DB683A18127802329B187A1893
:1030000012781A703B181A783B1801321A700F2385
:10301000FA180E23FB1812781B789A42D6D30D2388
:10302000FB181A787B6811001800FFF7F9FBC046FF
:10303000BD4604B080BDC046C897010894990108F8
:10304000DC97010814980108309801085498010889
:103050008898010880B582B000AF78607B68002B4B
:1030600005D11F4B1F4A2048E82104F0BDFB7B68B7
:103070005B68002B05D11D4B1A4A1B48E92104F05F
:10308000B3FB7B685B68DB68002B05D1184B154AE6
:103090001548EA2104F0A8FB7B685B689B69002B5C
:1030A00005D1144B0F4A1048EB2104F09DFB7B68BF
:1030B0005B681B7C012B05D80F4B0A4A0A48ED219F
:1030C00004F092FB7B685B68DB6877221A707B6890
:1030D00001211800FFF7A4FBC046BD4602B080BD29
:1030E000C8970108B0990108DC97010814980108F5
:1030F0003098010854980108C498010880B584B03C
:1031000000AF78600A00FB1C1A707B68002B05D1A9
:10311000284B294A2948F62104F066FB7B685B6846
:10312000002B05D1264B244A2448F72104F05CFBF0
:103130007B685B68DB68002B05D1224B1E4A1F4869
:10314000F82104F051FB7B685B689B69002B05D17B
:103150001D4B194A1948F92104F046FB0F217B1831
:1031600002221A707B685B681B7C7A1812789A427C
:1031700005D3164B104A1148FF2104F035FB0023FC
:10318000BB607B685B68DB68BB60BB6876221A70DB
:10319000BB680133FA1C12781A700F23FB181A78D7
:1031A0007B6811001800FFF73BFBC046BD4604B02A
:1031B00080BDC046C8970108CC990108DC9701087A
:1031C000149801083098010854980108889801085B
:1031D000002243088B4274D303098B425FD3030A56
:1031E0008B4244D3030B8B4228D3030C8B420DD369
:1031F000FF22090212BA030C8B4202D312120902F7
:1032000065D0030B8B4219D300E0090AC30B8B4234
:1032100001D3CB03C01A5241830B8B4201D38B03E2
:10322000C01A5241430B8B4201D34B03C01A524187
:10323000030B8B4201D30B03C01A5241C30A8B42CA
:1032400001D3CB02C01A5241830A8B4201D38B02B5
:10325000C01A5241430A8B4201D34B02C01A524159
:10326000030A8B4201D30B02C01A5241CDD2C309CB
:103270008B4201D3CB01C01A524183098B4201D347
:103280008B01C01A524143098B4201D34B01C01A32
:10329000524103098B4201D30B01C01A5241C308AA
:1032A0008B4201D3CB00C01A524183088B4201D319
:1032B0008B00C01A524143088B4201D34B00C01A05
:1032C0005241411A00D20146524110467047FFE771
:1032D00001B5002000F0F0F802BDC0460029F7D08B
:1032E00076E7704703460B437FD4002243088B42A6
:1032F00074D303098B425FD3030A8B4244D3030B7D
:103300008B4228D3030C8B420DD3FF22090212BA41
:10331000030C8B4202D31212090265D0030B8B42BD
:1033200019D300E0090AC30B8B4201D3CB03C01AA7
:103330005241830B8B4201D38B03C01A5241430B82
:103340008B4201D34B03C01A5241030B8B4201D372
:103350000B03C01A5241C30A8B4201D3CB02C01ADD
:103360005241830A8B4201D38B02C01A5241430A55
:103370008B4201D34B02C01A5241030A8B4201D344
:103380000B02C01A5241CDD2C3098B4201D3CB01EB
:10339000C01A524183098B4201D38B01C01A52419A
:1033A00043098B4201D34B01C01A524103098B429E
:1033B00001D30B01C01A5241C3088B4201D3CB0089
:1033C000C01A524183088B4201D38B00C01A52416C
:1033D00043088B4201D34B00C01A5241411A00D21C
:1033E00001465241104670475DE0CA0F00D0494285
:1033F000031000D34042534000229C4603098B42F5
:103400002DD3030A8B4212D3FC22890112BA030A7C
:103410008B420CD3890192118B4208D389019211FE
:103420008B4204D389013AD0921100E08909C30983
:103430008B4201D3CB01C01A524183098B4201D385
:103440008B01C01A524143098B4201D34B01C01A70
:10345000524103098B4201D30B01C01A5241C308E8
:103460008B4201D3CB00C01A524183088B4201D357
:103470008B00C01A5241D9D243088B4201D34B0072
:10348000C01A5241411A00D20146634652415B10B4
:10349000104601D34042002B00D549427047634695
:1034A0005B1000D3404201B5002000F005F802BDDA
:1034B0000029F8D016E770477047C04603B471463C
:1034C000490840004900095E49008E4403BC70472A
:1034D00070B500260C4D0D4C641BA410A64209D1FA
:1034E000002605F03DFC0A4D0A4C641BA410A642C0
:1034F00005D170BDB300EB5898470136EEE7B30035
:10350000EB5898470136F2E7000000000000000089
:10351000000000000000000003008218934200D168
:10352000704719700133F9E70FB480B500AFC0469A
:10353000BD4680BC08BC04B01847000080B586B00A
:1035400000AFF860B960FB1D1A70FB1D1A780B4BB9
:103550005A63BA680A490B4B180001F09EF8094BF0
:10356000180001F0EDF903007B617B69002BF6D0B8
:1035700000231800BD4606B080BDC0466400002090
:103580008C000020E403002080B500AF02F018FAA0
:1035900003001800BD4680BD80B588B002AF3B0077
:1035A00000221A603B0000225A603B0002229A600F
:1035B0003B000122DA603B00EC22D2001A613B00A2
:1035C0000E4A5A613A000E4B1100180000F0B2FF8B
:1035D0000B480023009300230222022101F007F888
:1035E000074B00220121180001F0BAF9044B180022
:1035F00001F02DF8C046BD4606B080BDFF070000B3
:10360000E403002090B5C7B002AF484B88246400A3
:103610001B19DB1900221A600433FB220021180059
:10362000FFF77AFF424B1B19DB1900221A8002F0C8
:1036300053F900F0CFF800F013F900F089F900F029
:10364000C5F900F01BFAFFF7A7FF3A4A3A493B4891
:10365000802301933A4B0093802304F017F8FCF782
:1036600035FF384B1A68E4235B009A420AD1354B88
:1036700000221A60344BBB2201219954324BB922EB
:1036800003219954FEF7CEFF304B180004F066FC7E
:1036900062B6C046FCF72AFF02000B0084214900F5
:1036A00079180A604B60254B180004F01DF8BB1C0C
:1036B000391D2248FF2203F0B4FF03007A1DFF32B8
:1036C00013607B1DFF331B68002B0BD1184B882226
:1036D00052009B18DB191B88DAB23B1D1100180041
:1036E000FFF73CF8FEF72EFF84235B00FB181A68F7
:1036F0005B6810001900FCF707FF02000B00002BAD
:1037000002D1D0D1312A0FD9FCF7F0FE02000B0014
:103710008421490079180A604B6080239B000C4A81
:103720001900100003F0B7F9BDE7C046F4FEFFFF33
:10373000F2FEFFFF7001002061070000B0000020D2
:10374000F0000020FC77002080020020788D010826
:103750000008005080B582B000AF786039603B68E7
:10376000012213401AD00F4B0F4A7868402100F015
:10377000D9FF031E13D10C4B1A68EC23DB009A42CD
:103780000DD1094B5B68002B09D1074BDB68DAB21E
:103790000449064B180003F0DDFD00E0C046BD46BD
:1037A00002B080BDF001002064000020B0000020C5
:1037B00080B582B000AF786001235B42391D0448B8
:1037C000012202F06BFB7B681800BD4602B080BD91
:1037D0005003002090B58DB000AF14243B191800A1
:1037E0001C231A000021FFF797FE3B00180014234A
:1037F0001A000021FFF790FE184B1B680722934325
:103800001A00164B01210A431A603B1902221A6062
:103810003B1980225200DA603B1900221A613B19E1
:1038200040225A613B19180001F0E8FB3B000722D7
:103830001A603B0000225A603B0000229A603B0065
:103840000022DA603B0000221A613B0001211800CF
:1038500001F0B8FDC046BD460DB090BD002002404D
:1038600090B58BB000AF14243B19180014231A0034
:103870000021FFF751FE344B5A6B334B01210A43B1
:103880005A63314B5B6B012213403B613B692E4B0A
:103890005A6B2D4B08210A435A632B4B5B6B082252
:1038A0001340FB60FB68284B5A6B274B02210A43ED
:1038B0005A63254B5B6B02221340BB60BB68224BF3
:1038C0005A6B214B04210A435A631F4B5B6B042242
:1038D00013407B607B6880239B001C4800221900FA
:1038E00003F0BCF8A023DB0500222021180003F020
:1038F000B5F83B19802292001A603B1911225A60D8
:103900003B1900229A603B190022DA603B190F4AEA
:103910001900100002F030FF21007B1820221A60ED
:103920007B1801225A607B1800229A607B180022C3
:10393000DA607A18A023DB051100180002F01CFFE2
:10394000C046BD460BB090BD0010024000080050BC
:1039500080B500AF1B4B1C4A1A601A4BE122520281
:103960005A60184B00229A60164B0022DA60154B01
:1039700000221A61134B0C225A61124B00229A61E9
:10398000104B0022DA610F4B00221A620D4B00220D
:103990005A620C4B00229A620A4B180002F028FA75
:1039A000084B0021180002F043F9064B00211800D3
:1039B00002F07EF9034B180002F000F9C046BD4644
:1039C00080BDC046500300200038014080B500AFE4
:1039D000274B942227499950254B98220021995032
:1039E000234B9C2200219950214BA0220021995069
:1039F0001F4BA422012199541D4BA522012199544A
:103A00001B4BA62200219954194BA8220121995041
:103A1000174BAC220C219950154BB0222321995001
:103A2000134BB4220C219950114BB822012199500B
:103A30000F4BBC22062199500D4BC02211219950E9
:103A40000B4BC42206219950094BC82201219950E1
:103A5000074BCC2200219950054BD02200219950D0
:103A6000054B180000F006FCC046BD4680BDC046B0
:103A70005003002000640040E403002080B500AF44
:103A8000114BF822114999500F4BFC2210499950C3
:103A90000D4A80235B000021D1500B4A82235B003A
:103AA0000C49D150084A84235B000021D150064ABA
:103AB00088235B008021D150074B180003F006F8E3
:103AC000C046BD4680BDC0465003002000200040D7
:103AD0007FBB0000FFFF00004804002080B500AF5E
:103AE00001F05CFFC046BD4680BD000080B500AF60
:103AF000034B180001F00AF8C046BD4680BDC04621
:103B0000E403002080B500AFC046FDE780B500AFFC
:103B100002F043F8C046FDE780B500AFC046FDE7C0
:103B200080B500AFC046FDE780B500AFC046FDE7F9
:103B300080B500AFC046FDE780B500AFC046FDE7E9
:103B400080B500AFC046FDE780B500AFC046FDE7D9
:103B500080B500AFC046FDE780B500AFC046FDE7C9
:103B600080B500AFC046FDE780B500AFC046FDE7B9
:103B700080B500AFC046FDE780B500AFC046FDE7A9
:103B800080B500AFC046FDE780B500AFC046FDE799
:103B900080B500AFC046FDE780B500AFC046FDE789
:103BA00080B500AF054BF8229B58022252421A61A1
:103BB000FCF7BEFCC046BD4680BDC0465003002099
:103BC00080B500AFC046FDE780B500AFC046FDE759
:103BD00080B500AFC046FDE780B500AFC046FDE749
:103BE00080B500AFC046FDE780B500AFC046FDE739
:103BF00080B500AFC046FDE780B500AFC046FDE729
:103C000080B500AFC046FDE780B500AFC046FDE718
:103C100080B500AFC046FDE70D48854600F01EFBAD
:103C2000002103E00B4B5B58435004310A480B4B17
:103C300042189A42F6D30A4A02E000231360043283
:103C4000084B9A42F9D3FFF743FCFFF7DBFCFEE792
:103C5000FC770020C89B0108000000204C030020D6
:103C6000500300202806002080B500AF024B5B6A9D
:103C70009BB21800BD4680BD0020004080B582B0D8
:103C800000AF0200FB1D1A70FB1D1A78094B1100D2
:103C9000180004F0D7F8FB1D1B78022B06D1064B49
:103CA0007B221A6001F079FFC046FDE7C046BD46A1
:103CB00002B080BD8C8D0108FC77002080B582B0F9
:103CC00000AF0200FB1D1A70FB1D1A78044B110097
:103CD000180004F0B7F801F060FFC046FDE7C046E9
:103CE000988D010880B582B000AF0200FB1D1A70EC
:103CF000FB1D1A78044B1100180004F0A3F8C0460D
:103D0000BD4602B080BDC046A48D010880B586B016
:103D100000AFB9607A6019000F23FB18021C1A70FB
:103D20000E23FB180A1C1A70BB68002B05D12C4B04
:103D30002C4A2D483F2103F057FD7B68002B05D10D
:103D40002A4B284A2848402103F04EFD0E23FB1839
:103D50001B78002B05D1264B224A2348412103F032
:103D600043FD2023FB181B78002B05D1214B1D4A56
:103D70001D48422103F038FD0E23FA182023FB18BA
:103D800012781B789A4205D01B4B164A16484321DD
:103D900003F02AFD00237B6116E00E23FB181B783D
:103DA0005A1E7B69D31A3B617B69BA68D3181978AC
:103DB0003B697A68D3180F22BA1812788A18D2B2DF
:103DC0001A707B6901337B610E23FB181B787A69BB
:103DD0009A42E2DBC046C046BD4606B080BDC04642
:103DE000B08D0108E8990108C48D0108008E010812
:103DF000108E0108208E0108308E010880B584B035
:103E000000AF39601100FB1D021C1A70BB1D0A1C9B
:103E10001A703B68002B05D1144B154A15485121E7
:103E200003F0E2FCBB1D1B78002B05D1124B104A9E
:103E30001048522103F0D8FC0023FB600CE0FB6823
:103E4000D9B2FB683A68D318FA1D12788A18D2B230
:103E50001A70FB680133FB60BB1D1B78FA689A423D
:103E6000EDDBC046C046BD4604B080BDB08D010844
:103E7000FC990108C48D0108108E010880B582B03C
:103E800000AF0F4B1A6C0E4B01210A431A640C4B06
:103E90001B6C012213407B607B68094BDA6B084B7B
:103EA000802149050A43DA63054BDA6B80235B0501
:103EB00013403B603B68C046BD4602B080BDC04673
:103EC00000100240B0B592B000AF786034243B19C6
:103ED000180014231A000021FFF71EFB14257B197C
:103EE000180020231A000021FFF716FB7B681B68CF
:103EF000244A934241D17B1910221A607B19002277
:103F00005A617B19180001F0EDFB1F4BDA6B1E4B59
:103F1000802149010A43DA631B4BDA6B80235B0182
:103F200013403B613B69184B5A6B174B08210A43FE
:103F30005A63154B5B6B08221340FB60FB68210042
:103F40007B1803221A607B1802225A607B18002219
:103F50009A607B180022DA607B1804221A617B18B1
:103F60000A4A1900100002F007FC002200211E205E
:103F700001F0EEFD1E2001F000FEC046BD4612B06D
:103F8000B0BDC0460064004000100240000C00506C
:103F9000B0B592B000AF786034243B1918001423F8
:103FA0001A000021FFF7B8FA14257B191800202306
:103FB0001A000021FFF7B0FA7B681B68314A934270
:103FC0005BD17B1901221A607B1900229A607B1950
:103FD000180001F087FB2C4B1A6C2B4B8021C90178
:103FE0000A431A64284B1A6C8023DB0113403B619F
:103FF0003B69254B5A6B244B01210A435A63224BE0
:104000005B6B01221340FB60FB681F4B5A6B1E4B1E
:1040100002210A435A631C4B5B6B02221340BB60B4
:10402000BB683B1902221A603B1902225A603B19F5
:1040300000229A603B190022DA603B1904221A61BF
:104040003A19A023DB051100180002F095FB2100AE
:104050007B1840221A607B1802225A607B180022CB
:104060009A607B180022DA607B1800221A617B18A4
:10407000064A1900100002F07FFBC046BD4612B090
:10408000B0BDC0460038014000100240000400509E
:1040900080B584B000AF78607B681B680E4A93429D
:1040A00015D10E4B1A6C0D4B802109020A431A647C
:1040B0000A4B1A6C80231B021340FB60FB68002232
:1040C0000021132001F044FD132001F056FDC046ED
:1040D000BD4604B080BDC046002000400010024034
:1040E00080B500AF01231800BD4680BD80B582B009
:1040F00000AF7860396003F095FB030016221A6068
:1041000001235B421800BD4602B080BD80B582B07D
:1041100000AF786001235A427B6811001800FFF756
:10412000E5FFFEE780B586B000AFF860B9607A6061
:1041300000237B610AE000E000BF0100BB685A1C5D
:10414000BA60CAB21A707B6901337B617A697B6895
:104150009A42F0DB7B681800BD4606B080BD80B592
:1041600086B000AFF860B9607A6000237B6109E037
:10417000BB685A1CBA601B781800FFF719FB7B69F3
:1041800001337B617A697B689A42F1DB7B681800B6
:10419000BD4606B080BD80B582B000AF7860012317
:1041A0005B421800BD4602B080BD80B582B000AF52
:1041B000786039603B68802292015A6000231800C1
:1041C000BD4602B080BD80B582B000AF78600123EB
:1041D0001800BD4602B080BD80B584B000AFF86065
:1041E000B9607A6000231800BD4604B080BD0000AD
:1041F00080B586B000AF7860144A154BD31A7B6146
:104200007B693B61134B1B68002B02D1114B124A97
:104210001A60104B1A687B68D3183A699A4207D221
:1042200003F000FB03000C221A6001235B4209E04B
:10423000084B1B68FB60074B1A687B68D218054B5C
:104240001A60FB681800BD4606B080BDFC770020F0
:1042500000040000100600202806002080B500AFF2
:10426000024B034A9A60C046BD4680BD00ED00E0A7
:104270000000010880B584B000AF78607B68002B37
:1042800001D1012349E17B685C229B5CDBB2002BFE
:1042900007D17B685D22002199547B681800FFF7E5
:1042A00011FE7B681B689A697B681B6810218A4332
:1042B0009A6101F085FB0300FB6012E001F080FBD6
:1042C0000200FB68D31A0A2B0BD97B681B6E0122F4
:1042D0001A437B681A667B685C2203219954012388
:1042E0001BE17B681B689B6908221340082BE5D003
:1042F0007B681B689A697B681B6801210A439A6185
:1043000001F05EFB0300FB6012E001F059FB0200CC
:10431000FB68D31A0A2B0BD97B681B6E01221A4348
:104320007B681A667B685C22032199540123F4E0C0
:104330007B681B689B6901221340E6D07B681B6881
:104340009A697B681B6802210A439A61754A7B68F7
:104350005B6813607B681B7C012B08D17B681B6842
:104360009A697B681B6840218A439A6107E07B68F1
:104370001B689A697B681B6840210A439A617B68C5
:104380005B7C012B09D17B681B689A697B681B6881
:104390008021C9010A439A6107E07B681B689A691A
:1043A0007B681B6860490A409A617B689B7C012B93
:1043B00008D17B681B689A697B681B685B490A4067
:1043C0009A6108E07B681B689A697B681B6880219A
:1043D00049010A439A617B681B689B69544A1340F0
:1043E00019007B689A687B681B680A439A617B683E
:1043F0001B689A697B681B68A4218A439A617B6861
:104400001B681A697B681B6810218A431A617B68E4
:10441000DB68012B08D17B681B689A697B681B6885
:1044200004210A439A612CE07B68DB68002B28D0CA
:104430007B68DB68022B1CD07B681B689A697B68F1
:104440001B6880210A439A617B681B681A697B6834
:104450001B6810210A431A617B68DB68032B10D1AB
:104460007B681B689A697B681B6820210A439A61F4
:1044700007E07B681B689A697B681B6820210A43F8
:104480009A617B689B69013B5A067B68DB69013B4B
:104490001B021A437B681B6A013B1A4311007B68AD
:1044A0005B69013B1A047B681B680A43DA617B681D
:1044B0009A68C0239B009A4215D17B689B6A5A1E5A
:1044C0007B68DB6A013B1B021A437B681B6B013B69
:1044D0001B011A4311007B685B6A013B1A047B686D
:1044E0001B680A43DA607B681B68C02299587B68A6
:1044F000DA6B7B681B680A43C0215A507B6818003E
:1045000000F0A0FC7B6800229A657B6800221A6696
:104510007B685C220121995400231800BD4604B039
:1045200080BDC04600650040FFBFFFFFFFEFFFFFFB
:10453000FFFCFFFF80B586B000AF786039601720C0
:104540003B187A685C21525C1A700200BB181B7819
:10455000012B03D0BB181B78022B3DD13B681B6895
:10456000002B19D13B689B689A073B68DB68DB0628
:104570001A433B681B691B041A433B685B6913437E
:104580003B617B681A6C3B685B689B00D318BB601F
:10459000BB683A691A601DE03B68DB685A073B68F4
:1045A0001B6913433B613B689B689A073B685B69E7
:1045B0001343FB607B685A6C3B685B68DB00D31875
:1045C000BB60BB683A691A60BB680433BB60BB68F8
:1045D000FA681A60002306E07B681B6E02221A4309
:1045E0007B681A6601231800BD4606B080BD80B501
:1045F00084B000AFF860B9607A603B60FB685C2211
:104600009B5CDBB2012B17D1FB681B6880229B5897
:104610003F2293431900BB681A017B689B001A4331
:104620003B685B001A43BB691A43FB681B680A437B
:1046300080215A50002306E0FB681B6E04221A43B7
:10464000FB681A6601231800BD4604B080BD80B522
:1046500082B000AF78607B685C229B5CDBB2012B90
:1046600010D17B685C22022199547B681B689A698F
:104670007B681B6801218A439A617B6800221A6665
:10468000002306E07B681B6E04221A437B681A66CF
:1046900001231800BD4602B080BD80B586B000AFD2
:1046A000F860B9607A60FB685C229B5CDBB2022B2D
:1046B0002DD1FB681B68C4229A5880239B031340AA
:1046C00008D0FB681B6E802292001A43FB681A66B2
:1046D000012323E0FB681B68C4229B581B0C0322A8
:1046E00013407B617B697A68B968F86800F00AFC5E
:1046F000FB681B6801217A6991400A00CC215A505D
:1047000001227B699A40FB689A65002306E0FB68FA
:104710001B6E08221A43FB681A6601231800BD4667
:1047200006B080BD80B58AB000AFF860B9607A602D
:104730003B600023FB611B203B18FA685C21525C44
:104740001A703B181B78022B00D0ECE0BB68402BA2
:1047500037D1FB681B6890229B580F22134008D169
:10476000FB681B6E802252001A43FB681A66012305
:10477000E0E0FB681B6890229B581B0E012213404F
:10478000012B0AD1FB681B6880229B585B0A01221F
:104790001340012B01D10123FB61FB681B689022B0
:1047A0009B581B0A03221340FA69D318FB61FB686C
:1047B000996CFA691300DB009B18DB00CB187B6255
:1047C00036E0FB681B6898229B580F22134008D1E3
:1047D000FB681B6E802252001A43FB681A66012395
:1047E000A8E0FB681B6898229B581B0E012213400F
:1047F000012B0AD1FB681B6880229B581B0A0122EF
:104800001340012B01D10123FB61FB681B68982237
:104810009B581B0A03221340FA69D318FB61FB68FB
:10482000D96CFA691300DB009B18DB00CB187B62A4
:104830007B6A1A688023DB051A407B685A607B68B4
:104840005B68002B07D17B6A1B689B0C5B055A0DCC
:104850007B681A6005E07B6A1B68DB00DA087B680E
:104860001A607B6A1A6880239B051A407B689A60ED
:104870007B6A1B68DB0FDA077B681A617B6A04338B
:104880007B627B6A1B681B041A0C7B68DA617B6A9B
:104890001B681B0C0F221A407B68DA607B6A1A685F
:1048A00080235B031A407B685A617B6A1A68802305
:1048B0009B031A407B689A617B6A1B681B0E7F22F0
:1048C0001A407B681A627B6A1B68DA0F7B685A623F
:1048D0007B6A04337B627B6A7B6100233B620AE074
:1048E0007A693B6AD21839683B6ACB1812781A7019
:1048F0003B6A01333B627B68DB68104AD35C1A0079
:104900003B6A9342ECD3BB68402B05D1FB681B6824
:104910009421FA695A5004E0FB681B689C21FA69EB
:104920005A50002306E0FB681B6E08221A43FB68FE
:104930001A6601231800BD460AB080BD749A0108AA
:1049400080B584B000AF78607B681B68C4229B5838
:1049500007221340FB60FB681800BD4604B080BD11
:1049600080B586B000AFF860B9607A6017203B1858
:10497000FA685C21525C1A700200BB181B78012B8C
:1049800004D0BB181B78022B00D0B4E0FB681B6876
:104990009B6D3B61BB680722134003D03B6901223A
:1049A000134034D0BB683822134003D03B69022245
:1049B00013402CD0BA68E0235B00134003D03B695E
:1049C0000422134023D0BA68F0235B01134003D0C4
:1049D0003B69082213401AD0BA68E0231B02134037
:1049E00003D03B691022134011D0BA68C0239B0248
:1049F000134003D03B692022134008D0BA68FC233F
:104A00001B0413400BD03B694022134007D1FB68C5
:104A10001B68DA6DFB681B6801210A43DA65BB6815
:104A20000722134003D03B690122134034D1BB68F5
:104A30003822134003D03B69022213402CD1BA68BC
:104A4000E0235B00134003D03B690422134023D1D1
:104A5000BA68F0235B01134003D03B69082213407E
:104A60001AD1BA68E0231B02134003D03B6910221D
:104A7000134011D1BA68C0239B02134003D03B6995
:104A80002022134008D1BA68FC231B0413400BD02A
:104A90003B694022134007D0FB681B68DA6DFB6856
:104AA0001B6802210A43DA65BB688022134009D0E3
:104AB000FB681B68DC229958FB681B687A680A430C
:104AC000DC215A50BA6880235B00134009D0FB6890
:104AD0001B68E0229958FB681B687A680A43E0214A
:104AE0005A50FB681B68596DFB681B68BA680A431B
:104AF0005A65002306E0FB681B6E02221A43FB681E
:104B00001A6601231800BD4606B080BD80B58CB082
:104B100000AF78607B681B681A6DE0235B0113406F
:104B2000FB627B681B685A6DFB6A1340FB627B6803
:104B30001B681B6D07221340BB627B681B685A6DA4
:104B4000BB6A1340BB627B681B681B6D3822134035
:104B50007B627B681B685A6D7B6A13407B627B6853
:104B60001B681A6DF1231B0413403B627B681B68B2
:104B70005A6D3B6A13403B627B681B681A6DE023E9
:104B80001B031340FB617B681B685A6DFB69134074
:104B9000FB617B681B685B6DBB617B681B681B6D81
:104BA0007B617B699B091A00012313400DD0BB690F
:104BB0009B091A000123134007D07B681B68402221
:104BC0001A657B68180000F024F97B691B0A1A003B
:104BD000012313401CD0BB691B0A1A000123134098
:104BE00016D07B681B68D8229B583B617B681B688A
:104BF000E0229A583B6913403B617B681B68802226
:104C000052001A653A697B681100180000F0E8F854
:104C1000FB6A002B09D07B681B68FA6A1A65FA6A7E
:104C20007B681100180000F0B8F8BB6A002B09D0AF
:104C30007B681B68BA6A1A65BA6A7B68110018003B
:104C4000FEF788FD7B6A002B09D07B681B687A6AB7
:104C50001A657A6A7B681100180000F0A7F87B6972
:104C60005B0A1A00012313400ED0BB695B0A1A00CD
:104C70000123134008D07B681B68802292001A65CC
:104C80007B68180000F09BF87B69DB091A000123A0
:104C900013401BD0BB69DB091A000123134015D058
:104CA0007B681B68D4229B58FB607B681B68DC22F6
:104CB0009A58FB681340FB607B681B6880221A656A
:104CC000FA687B681100180000F081F87B695B0BC3
:104CD0001A00012313400ED0BB695B0B1A0001239D
:104CE000134008D07B681B68802292011A657B689C
:104CF000180000F07EF87B69DB0B1A0001231340DB
:104D00000ED0BB69DB0B1A000123134008D07B686F
:104D10001B68802212021A657B68180000F071F887
:104D20007B699B0B1A000123134010D0BB699B0BBE
:104D30001A00012313400AD07B681B688022D2012D
:104D40001A657B681B6E80221A437B681A66FB69B2
:104D5000002B09D07B681B68FA691A65FA697B68C1
:104D60001100180000F065F83B6A002B09D07B6841
:104D70001B683A6A1A657B681A6E3B6A1A437B683D
:104D80001A667B681B6E002B03D07B68180000F04E
:104D900048F8C046BD460CB080BD80B582B000AFBB
:104DA00078603960C046BD4602B080BD80B582B033
:104DB00000AF78603960C046BD4602B080BD80B5A6
:104DC00082B000AF7860C046BD4602B080BD80B5FD
:104DD00082B000AF78603960C046BD4602B080BD89
:104DE00080B582B000AF78603960C046BD4602B081
:104DF00080BD80B582B000AF7860C046BD4602B0CD
:104E000080BD80B582B000AF7860C046BD4602B0BC
:104E100080BD80B582B000AF7860C046BD4602B0AC
:104E200080BD80B582B000AF7860C046BD4602B09C
:104E300080BD80B582B000AF78603960C046BD46A5
:104E400002B080BD80B584B000AF78602A4BBB60F3
:104E50007B68BA681A647B681B6880229B58274A63
:104E6000134019007B685B6B1A047B681B680A435C
:104E700080215A50BB6870331A007B685A647B6883
:104E80001B6880229B581E4A134019007B689B6B4D
:104E90001A067B681B680A4380215A50BB68B033EE
:104EA0001A007B689A64BB688933FF331A007B68F9
:104EB000DA64BB68982292009A187B681A65BB680E
:104EC0009E2292009A187B685A65BB68FB6005E0D9
:104ED000FB6800221A60FB680433FB60BB68D422C5
:104EE000920094466344FA689A42F1D3C046C046A1
:104EF000BD4604B080BDC04600B40040FFFFE0FFE7
:104F0000FFFFFFF080B588B000AFF860B9607A604D
:104F10003B60BB685B68002B0AD1BB681A69BB6841
:104F20009B681A43BB681B689B041343FB610BE03F
:104F3000BB681A69BB689B681A43BB681B6813434C
:104F40008022D2051343FB61BB681B6A1A06BB684B
:104F5000DB691A43BB689B691A43BB685B691A43E8
:104F6000BB68DB681B0413433B61FB68596D3A68FF
:104F70001300DB009B18DB00CB18BB61BB69FA692F
:104F80001A60BB690433BB61BB693A691A60BB69CB
:104F90000433BB6100237B6120E07B6903337A68C3
:104FA000D3181B781A067B6902337968CB181B78F3
:104FB0001B041A437B6901337968CB181B781B02E9
:104FC000134379687A698A1812781A43BB691A60A0
:104FD000BB690433BB617B6904337B61BB68DB68FD
:104FE000054AD35C1A007B699342D6D3C046C046BB
:104FF000BD4608B080BDC046749A010880B586B031
:1050000000AF78607B68002B01D10123D0E17B6881
:105010001B680122134000D169E0C84B9B6838220D
:1050200013407B617B69082B05D17B685B68002B93
:105030005DD10123BCE17B685A6880235B029A4200
:1050400007D1BE4B1A68BD4B802149020A431A6042
:1050500020E07B685A68A023DB029A420ED1B74B4E
:105060001A68B64B8021C9020A431A60B34B1A680A
:10507000B24B802149020A431A600BE0AF4B1A6819
:10508000AE4BAF490A401A60AC4B1A68AB4BAD4906
:105090000A401A607B685B68002B14D000F090FC1B
:1050A00003003B6108E000F08BFC02003B69D31A6F
:1050B000642B01D903237BE1A04B1A6880239B0258
:1050C0001340F0D013E000F07BFC03003B6108E0EC
:1050D00000F076FC02003B69D31A642B01D903234C
:1050E00066E1964B1A6880239B021340F0D17B68DF
:1050F0001B680222134000D186E0904B9B68382247
:1051000013407B617B69002B2FD17B68DB68002B10
:1051100001D101234CE1894B5B688B4A1340190094
:105120007B685B691A02854B0A435A607B69002BD6
:1051300012D1824B1B68854A134019007B681A699B
:105140007E4B0A431A607D4B1B68DB0A0722134023
:105150007F4ADA407F4B1A607F4B1B68180000F0D3
:10516000D3FB031E50D0012322E17B68DB68002BB8
:1051700030D0724B1B68754A134019007B681A695E
:105180006E4B0A431A606D4B1A686C4B80214900C4
:105190000A431A6000F014FC03003B6108E000F0D1
:1051A0000FFC02003B69D31A022B01D90323FFE055
:1051B000624B1A688023DB001340F0D05F4B5B68C2
:1051C000614A134019007B685B691A025B4B0A4312
:1051D0005A6019E0594B1A68584B60490A401A60E6
:1051E00000F0EEFB03003B6108E000F0E9FB020089
:1051F0003B69D31A022B01D90323D9E04F4B1A681C
:105200008023DB001340F0D17B681B680822134029
:1052100042D04A4B9B6838221340182B05D17B683B
:105220009B69002B38D10123C2E07B689B69002B6E
:1052300019D0424B1A6E414B01210A431A6600F005
:10524000BFFB03003B6108E000F0BAFB02003B69D2
:10525000D31A022B01D90323AAE0384B1B6E02227A
:105260001340F1D018E0354B1A6E344B01218A43BC
:105270001A6600F0A5FB03003B6108E000F0A0FB0C
:1052800002003B69D31A022B01D9032390E02B4B78
:105290001B6E02221340F1D17B681B68042213406D
:1052A00000D184E00F23FB1800221A70234B9B6867
:1052B00038221340202B06D17B689B68002B00D03E
:1052C00075E0012374E07B689B68012B06D11B4BC2
:1052D000DA6D1A4B01210A43DA651CE07B689B6892
:1052E000052B0CD1154BDA6D144B04210A43DA65FA
:1052F000124BDA6D114B01210A43DA650BE00F4BBB
:10530000DA6D0E4B01218A43DA650C4BDA6D0B4BDB
:1053100004218A43DA657B689B68002B28D000F063
:105320004FFB03003B611DE000F04AFB02003B69BC
:10533000D31A0B4A934215D9032339E000100240D7
:10534000FFFFFEFFFFFFFBFFFF80FFFFFFC7FFFF29
:10535000006CDC024003002044030020FFFEFFFF3E
:1053600088130000144BDB6D02221340DCD013E0E5
:1053700000F026FB03003B6109E000F021FB020086
:105380003B69D31A0D4A934201D9032310E00A4B1B
:10539000DB6D02221340F0D10F23FB181B78012B89
:1053A00005D1054BDA6B044B05490A40DA6300234B
:1053B0001800BD4606B080BD0010024088130000F2
:1053C000FFFFFFEF80B584B000AF786039607B6885
:1053D000002B01D10123E9E0764B1B680722134023
:1053E0003A689A421ED9734B1B68072293431900EF
:1053F000704B3A680A431A6000F0E2FA0300FB605F
:1054000009E000F0DDFA0200FB68D31A6A4A934211
:1054100001D90323CAE0674B1B68072213403A688F
:105420009A42EED17B681B680222134017D07B683A
:105430001B680422134008D0604B9B68604A1A40E6
:105440005E4BB02109010A439A605C4B9B685D4A40
:10545000134019007B68DA68584B0A439A607B68EE
:105460001B680122134055D0544B1B681C229343E8
:1054700019007B689A68514B0A431A607B685B6825
:10548000012B07D14D4B1A6880239B0213401FD17B
:1054900001238BE07B685B68002B07D1474B1A68C0
:1054A0008023DB00134013D101237FE07B685B681E
:1054B000032B06D1414B1B6E0222134008D101235E
:1054C00074E03E4BDB6D0222134001D101236DE0FD
:1054D0003A4B9B680722934319007B685A68374B05
:1054E0000A439A6000F06CFA0300FB6009E000F0E8
:1054F00067FA0200FB68D31A2F4A934201D90323AB
:1055000054E02E4B9B6838221A407B685B68DB00B6
:105510009A42ECD1274B1B68072213403A689A4203
:105520001ED2244B1B68072293431900214B3A6873
:105530000A431A6000F044FA0300FB6009E000F03F
:105540003FFA0200FB68D31A1B4A934201D9032396
:105550002CE0184B1B68072213403A689A42EED1A0
:105560007B681B680422134009D0144B9B68164AC1
:10557000134019007B681A69104B0A439A6000F0C7
:105580002BF801000D4B9B681B0A0F221A400F4B92
:105590009200D3581F2213400A00DA400C4B1A60C5
:1055A0000C4B1B68180000F0AFF903001800BD4653
:1055B00004B080BD002002408813000000100240AB
:1055C000FF84FFFFFFF0FFFFFF8FFFFF149A01082A
:1055D000400300204403002080B584B000AF234B7B
:1055E0001B689B08072213400133BB601F4B9B685D
:1055F000382213400FD11D4B1B68DB0A07221340D2
:1056000001229A4013007B6079681948FDF7E0FD9C
:105610000300FB601EE0154B9B6838221340082BEB
:1056200002D1144BFB6015E0104B9B6838221340ED
:10563000202B03D180231B02FB600BE00B4B9B68EC
:1056400038221340182B03D1FA23DB01FB6001E061
:105650000023FB60B968F868FDF7BAFD0300FB6042
:10566000FB681800BD4604B080BDC0460010024073
:10567000006CDC0200127A0080B500AFFFF7ACFFCF
:105680000100094B9B681B0A0F221A40074B92002E
:10569000D3581F2213400A00DA40054B1A60044B0E
:1056A0001B681800BD4680BD00100240149A010816
:1056B0004003002080B500AFFFF7DEFF0100074B7D
:1056C0009B681B0B07221A40054B9200D3581F22E0
:1056D0001340D9400B001800BD4680BD00100240A9
:1056E000549A010880B586B000AF78601323FB1888
:1056F00000221A701223FB1800221A707B681B68A4
:105700004022134000D179E011203B1800221A708A
:105710006A4BDA6B80235B05134010D1674BDA6B61
:10572000664B802149050A43DA63644BDA6B8023B8
:105730005B051340BB60BB683B1801221A705F4BCE
:10574000DA6DC0239B0013407B617B69002B19D06D
:105750007B68DB697A699A4214D0584BDB6D584AF2
:1057600013407B61554BDA6D544B802149020A434B
:10577000DA65524BDA6D514B52490A40DA654F4BAC
:105780007A69DA657B690122134016D000F018F9B6
:105790000300FB600CE000F013F90200FB68D31A71
:1057A000494A934204D91323FB1803221A7004E0D8
:1057B000424BDB6D02221340EDD01323FB181B7804
:1057C000002B0AD13D4BDB6D3D4A134019007B682D
:1057D000DA693A4B0A43DA6505E01223FB18132213
:1057E000BA1812781A701123FB181B78012B05D1F7
:1057F000324BDA6B314B35490A40DA637B681B6800
:105800000122134009D02D4B5B6D032293431900F5
:105810007B689A68294B0A435A657B681B68022299
:10582000134009D0254B5B6D294A134019007B6852
:10583000DA68224B0A435A657B681B6820221340B2
:1058400008D01E4B5B6D9B0099087B689A691B4BC7
:105850000A435A657B681B681022134009D0174B16
:105860005B6D174A134019007B685A69134B0A4352
:105870005A657B681B680422134009D00F4B5B6D8F
:10588000144A134019007B681A690C4B0A435A6585
:105890007B681B688022134009D0084B1B68E022FC
:1058A000934319007B685A68044B0A431A60122319
:1058B000FB181B781800BD4606B080BD00100240E2
:1058C000FFFCFFFFFFFFFEFF88130000FFFFFFEF5D
:1058D000FFCFFFFFFF3FFFFF80B582B000AFFB1D92
:1058E00000221A70002000F00FF8031E03D0FB1DE9
:1058F00001221A7001E0FEF7C1FAFB1D1B781800A7
:10590000BD4602B080BD000090B585B000AF7860A4
:105910000F23FB1800221A701D4B1B78002B2BD075
:105920001C4B1C681A4B1B781900FA239800FDF7D2
:105930004FFC030019002000FDF74AFC030018008B
:1059400000F02FF9031E12D17B68032B0AD8796867
:1059500001235B420022180000F0FAF80E4B7A682F
:105960001A600DE00F23FB1801221A7008E00F23C4
:10597000FB1801221A7003E00F23FB1801221A7092
:105980000F23FB181B781800BD4605B090BDC0461C
:1059900048030020400300204403002080B500AFEE
:1059A000054B1B781A00054B1B68D218034B1A6075
:1059B000C046BD4680BDC0464803002014060020F6
:1059C00080B500AF024B1B681800BD4680BDC046C5
:1059D0001406002080B582B000AF0200FB1D1A70D3
:1059E000FB1D1B787F2B09D8FB1D1B781A001F237A
:1059F0001A40044B012191400A001A60C046BD467E
:105A000002B080BD00E100E090B583B000AF0200BD
:105A10003960FB1D1A70FB1D1B787F2B28D82F4A7D
:105A2000FB1D1B785BB29B08C0339B009B58FA1D83
:105A30001278110003220A40D200FF2191400A008F
:105A4000D2431A4011003B689B01FF221A40FB1D04
:105A50001B78180003230340DB009A401F48FB1DFE
:105A60001B785BB29B080A43C0339B001A5031E09D
:105A70001B4AFB1D1B7819000F230B40083B9B089A
:105A800006339B00D31804331B68FA1D12781100EB
:105A900003220A40D200FF2191400A00D2431A405B
:105AA00011003B689B01FF221A40FB1D1B78180068
:105AB00003230340DB009A400948FB1D1B781C00B0
:105AC0000F232340083B9B080A4306339B00C3185F
:105AD00004331A60C046BD4603B090BD00E100E04B
